:020000040800F2
:08000000F0100020E5400008AB
:020000040800F2
:1040000045434431363032303130373058585858C3
:1040100090100020E5400008ED400008EF40000847
:104020000000000000000000000000000000000090
:10403000000000000000000000000000F140000847
:104040000000000000000000F3400008F5400008F8
:10405000F7400008F7400008F7400008F740000864
:10406000F7400008F7400008F7400008F740000854
:10407000F7400008F7400008F7400008F740000844
:10408000F7400008F7400008F7400008F740000834
:10409000F7400008F740000800000000F740000863
:1040A000F7400008F7400008F7400008B564000832
:1040B000F7400008F7400008F7400008E1BE00089C
:1040C00011BF000800000000F740000800000000D9
:1040D0000348854600F0D8F80048004717C100089B
:1040E000901000200448804704480047FEE7FEE7A0
:1040F000FEE7FEE7FEE7FEE729AF0008D140000833
:1041000030B50B46014600202022012409E00D466F
:10411000D5409D4205D31D469540491B25469540F7
:1041200040191546521E002DF1DC30BD70B500243B
:104130002546002801DA01244042002901DA012540
:104140004942FFF7DDFFAC4200D04042002C00D0D6
:10415000494270BD024670B54A40D30FDB074000AC
:104160002DD04A002AD0010E140E000212020919A5
:10417000400A520A8418E50104465443000A120A10
:104180002E045043A4194219200CC543AA18120C3E
:104190000125AD03521C521912047F39240400D0AA
:1041A000521C104301D44000491EC2B20C06C00983
:1041B0002018401C4008802A02D003E0002070BD77
:1041C00040084000002900DA0020184370BD10B5F7
:1041D00000229623114600F01DF810BD4100400258
:1041E0000122400AD205090E80187F2901DA002039
:1041F0007047962903DC9622511AC84070479639B9
:1042000088407047002904DA401C490001D1400869
:104210004000704770B40024050C05D11024000440
:1042200002D1002921D01124050E01D10002083449
:10423000050F01D10001241D850F01D18000A41CB0
:10424000002801DB4000641C002908D020252E1B1B
:104250000D46F540A14000D0012129430843010645
:104260001B1B000ADB1D02D5002070BC7047DB055C
:10427000181880180029F8DA401C4900F5D170BCE4
:104280004008400070470000064C0125064E05E03E
:10429000E36807CC2B430C3C98471034B442F7D367
:1042A000FFF71AFF20E5000840E5000870B58C18FC
:1042B0000578401C6B075B0F01D10378401C2A1165
:1042C00006D10278401C03E006780E70401C491CA1
:1042D0005B1EF9D12B0705D40023521E0DD40B70A1
:1042E000491CFAE70378401CCB1A921C03E01D78A6
:1042F0000D70491C5B1C521EF9D5A142D8D3002079
:1043000070BD836A0B4383624261704700298168F4
:1043100003D0012211438160704702221143816062
:1043200070470029C16802D00122114301E0490809
:104330004900C1607047C26802239A43C260C268E4
:104340000A43C26070470000074988420AD1012130
:1043500000B54B02184606F08FF90021184606F00A
:104360008BF900BD704700000024014082680021E5
:104370000123DB071A4382600F231B038268491C59
:10438000D20FD207994201D0002AF7D181680029C3
:1043900001DB006C7047002070470022CB0104D580
:1043A000806801231B06984300E00068084200D0A3
:1043B000012210467047000030B4C268084B8C6878
:1043C0001A400B680D792343CC686D032C432343BB
:1043D0000C69496923430B431343C36030BC7047E6
:1043E00003D2FFFF816804221143816070470021DE
:1043F000016001718160C16001614161704700002D
:1044000070B5304E92B03046FFF79EFF012108464E
:1044100006F00EF90121480206F022F92A4D28463D
:1044200001F068F82948069029480790042009906F
:1044300080200B90002440000C90089480000D9088
:1044400020200E900A9400020F9006A9109428468E
:1044500001F0C0F80121284601F040F80221304661
:10446000FFF769FF6846FFF7C2FF01206946009425
:1044700008710294049430460594FFF79DFF154D92
:10448000E1004819426869583046FFF73AFF641C5A
:10449000E4B2042CF4D33046FFF768FF0121304624
:1044A000FFF734FF0C4C30462146FFF776FF00281B
:1044B000F9D03046FFF796FF01213046FFF731FF74
:1044C00012B070BD002401400800024040240140A9
:1044D000D40000200CD8000801000001024A40006E
:1044E000105A088070470000D400002010B5002842
:1044F00005D0012807D0022805D0002010BD0020DB
:1045000006F028FC10BD06F025FC10BD10B50028F3
:1045100005D0012803D0022804D0002010BD06F0E9
:104520006BFC10BD022006F067FC10BD064801219F
:10453000017041708170C170017141718171C171EF
:1045400001724172817270478802002070B525485F
:1045500001250088244CC005C00F002800D0257517
:10456000002600280BD1207D012808D1218CE08B6A
:10457000814202D2401CE08301E02675E5700020F4
:1045800001F0A4FB002804D1012001F09FFB0028CA
:1045900000D06575002001F099FB00280FD10120A3
:1045A00001F094FB00280AD1607D012807D1208CFE
:1045B0000A2802D2401C208401E06675E5710B4890
:1045C0000088C00B00D0A575002807D1A07D012868
:1045D00004D1608C0A2802D2401C608470BD6675CC
:1045E000657270BD44010020880200200201002095
:1045F0000649C87C401CC0B2C8740A2804D30020F5
:10460000C874886A401C88627047000088020020D5
:1046100010B5012203490220FFF768FF0248C07B62
:1046200010BD000097020020880200200148806A27
:10463000704700008802002010B50F490120087063
:1046400048708870C870087148718871C8710872A4
:1046500048728872C872087348738873087400209F
:1046600002F02EFF002102F0E3FF012203490220A5
:10467000FFF73CFF10BD00008802002097020020D9
:10468000F8B505460026012234462D491046FFF7AD
:104690002DFF2B49885D2855641C761CF6B2E4B2C8
:1046A000302EF7D30020264900220A54401CC0B205
:1046B0003028F8D3002006F017FCC0B2009000208C
:1046C00006F0FAFB07063F0E3E4619D032461C495B
:1046D0000020FFF70BFF1A4A0020115C2955641CCB
:1046E000401CC0B2E4B22928F7D30020014611547F
:1046F000401CC0B22928FAD3761E3606360EE5D104
:10470000009EBE4219D932460D490020FFF7EEFE49
:104710000B4900200A5C2A55641C401CC0B2E4B25C
:104720002928F7D3002002460A54401CC0B2292889
:10473000FAD3761EF6B2BE42E5D80120F8BD0000DD
:10474000600C002010B5194CE07BC0072DD0184834
:1047500000884005C00F28D116480088C005C00F4A
:1047600001D0012020E0A17C01291ED100281CD10C
:10477000114808F0BDFA1149487B0A7B00028018F5
:104780000F4A80B290420ED20E4A12789207D21788
:10479000521C01D1401C80B20873000A48730649BC
:1047A0000120FFF7B3FE0020A07410BD8802002096
:1047B000740100201A010020600C0020800C0020F1
:1047C000FFFF00000A01002070B51A4CE07BC00713
:1047D0002FD0194D28884005C00F2AD117480078DE
:1047E0008007C017411C01D0012021E0617C012914
:1047F0001FD1401C1DD1124808F07AFA1149C87B1C
:104800008A7B00028018104A80B290420FD20F4A71
:104810001288D20502D52A88520501D5401C80B2E3
:104820008873000AC87306490120FFF76FFE002055
:10483000607470BD88020020740100200A0100200D
:10484000600C0020800C0020FFFF00001A010020F7
:1048500070B50024114808F04BFA104E002535556C
:10486000641CE4B2302CFAD30C490120FFF74EFE51
:104870000124224609490020FFF738FE0020355464
:10488000401CC0B22928FAD304490020FFF73EFE9D
:10489000641CE4B2052CECD970BD0000600C002053
:1048A00070B5054600240D4E0C4800290CD008F0C8
:1048B0001FFA285D3055641CE4B2282CF9D307494F
:1048C0000120FFF723FE70BD08F012FA305D285575
:1048D000641CE4B2282CF9D370BD0000600C0020E9
:1048E0001749C87BC00729D0164800884005C00F6B
:1048F00024D1154800788007C017401C1ED1888B32
:104900004B22401C80B2D2008883904216D310B54F
:1049100000248C830D4808F0EBF90D48C17A827AA7
:10492000090412028918427A8918491C417284725A
:10493000C47206490120FFF7E9FD10BD7047000071
:1049400088020020740100200A010020600C002071
:10495000800C0020F8B5FD4C208B401C80B22083D9
:10496000C8287CD3C8202083E07BF94EC0070025EF
:1049700000284BD0F74800884005C00F46D1F748C3
:10498000F54F0188F448BA780088D30906D0430669
:1049900004D58B0602D52378012B1ED0D20606D56E
:1049A000420604D54A0602D56278012A2FD0FA7849
:1049B000D30906D00B0604D5430602D5A378012BF4
:1049C00035D0930670D5CB056ED543046CD5030561
:1049D0006AD4E378012B46D066E02570002006F00B
:1049E0006BFA82B2DE490020FFF780FD012105202D
:1049F00007F0B6FD002809D107F08EFF0121052040
:104A000008F0D6FAD6490020FFF780FDE3E1657093
:104A1000002006F051FA82B2D1490020FFF766FD6E
:104A20000121032007F09CFD002875D0D3E1A5707B
:104A3000002006F041FA82B2C9490020FFF756FD76
:104A40000021022007F08CFD002864D107F064FFEC
:104A50000021022008F0ACFAC149002000E0DBE1AF
:104A6000FFF754FDB7E1D20903D0090601D541068D
:104A70001AD4E570002006F01FFA82B2B84900206F
:104A8000FFF734FD0021082007F06AFD002842D11D
:104A900007F042FF0021082008F08AFAB049002000
:104AA000FFF734FD97E1FFE7A9493A7A0988D30671
:104AB00006D5CB0504D5430602D56379012B11D069
:104AC000D20906D0890504D5400602D520790128EF
:104AD00023D0787BC0093AD0002001F0DBF8002811
:104AE0003DD134E06571002006F0E6F982B29C49C0
:104AF0000020FFF7FBFC0021084607F031FD0028ED
:104B000009D107F009FF0021084608F051FA94493D
:104B10000020FFF7FBFC5EE1AEE02571002006F00F
:104B2000CBF982B28E490020FFF7E0FC00210E2075
:104B300007F016FD002845D107F0EEFE00210E20FB
:104B400008F036FA86490020FFF7E0FC43E1787B65
:104B5000400607D5012001F09DF8002802D0E07939
:104B6000012816D0787A7F49C20908D00A88D20B6A
:104B700005D03A78520602D5227A012A23D042067D
:104B80005DD5794A1288D20B59D0627A012A34D085
:104B900055E0E571002006F08FF982B270490020DF
:104BA000FFF7A4FC0021042007F0DAFC002809D15B
:104BB00007F0B2FE0021042008F0FAF9684900204D
:104BC000FFF7A4FC07E12572002006F075F982B218
:104BD00063490020FFF78AFC0121084607F0C0FC6A
:104BE000002853D107F098FE0121084608F0E0F9AB
:104BF0005B490020FFF78AFCEDE0C00905D008887A
:104C0000C00B02D03878400619D46572002006F037
:104C100053F982B252490020FFF768FC01210720B6
:104C200007F09EFC002831D107F076FE0121072015
:104C300008F0BEF94A490020FFF768FCCBE038884D
:104C40008107C90F23D0A17A012920D13188C90554
:104C500003D540490988490519D5A572002006F0F9
:104C60002BF982B23E490020FFF740FC01210320CE
:104C700007F076FC002809D107F04EFE0121032041
:104C800008F096F936490020FFF740FCA3E0B97917
:104C9000CA0907D0420605D53278920702D5E27AD2
:104CA000012A1ED0FA79D20907D03278920604D5AB
:104CB000420602D5227B012A2DD0C90607D541061E
:104CC00005D53178090702D5617B012950D02749E4
:104CD0008978C9077FD040067DD5A07B012861D0A7
:104CE00079E0E572002006F0E7F882B21C49002066
:104CF000FFF7FCFB00210A2007F032FC00286AD1F4
:104D000007F00AFE00210A2008F052F91449002099
:104D1000FFF7FCFB5FE02573002006F0CDF882B2C0
:104D20000F490020FFF7E2FB01210B2007F018FCE0
:104D3000002850D107F0F0FD01210B2008F038F9D0
:104D400007490020FFF7E2FB45E000008802002051
:104D50001A010020740100201807002044010020DF
:104D6000600C002004010020020100202E0300201E
:104D70006573002006F0A0F882B22A490020FFF7F0
:104D8000B5FB00210C2007F0EBFB002823D107F036
:104D9000C3FD00210C2008F00BF922490020FFF789
:104DA000B5FB18E0A573002006F086F882B21D4915
:104DB0000020FFF79BFB01210D2007F0D1FB00280D
:104DC00009D107F0A9FD01210C2008F0F1F81549DF
:104DD0000020FFF79BFB3088C00513D512480088E0
:104DE00040050FD4A07901280CD1207C002814D0D4
:104DF000608B0A2806D3A571284602F061FB29467C
:104E000002F0F8FC608BFF21401C80B2F53160831A
:104E1000884201D925746583F8BD0120207465831B
:104E2000F0E70000600C00207401002010B500289D
:104E300001D0012801D10349C87303490220FFF7BB
:104E400065FB10BD8802002097020020014988629E
:104E5000704700008802002010B400200B4A0C4B61
:104E60000146840011514400401CC0B21953092866
:104E7000F7D3084A084B0020840011514400401C1D
:104E8000C0B219530928F7D310BC7047B4020020F0
:104E9000D8020020EC02002010030020F8B52F4FAC
:104EA0002F4C00252F4E092D25D22800784400795B
:104EB00000188744040E174244464A4C4E003146BF
:104EC0000220FFF70BFB308827494843000B308056
:104ED00011E031460120FFF701FB308822494843A9
:104EE000000B07E031460320FFF7F8FA30881F492E
:104EF000484330E03080A8001D4EE28831586D1CD8
:104F00008918EDB23150092DCCD3A0880121401C65
:104F100080B28902A08088420ED10020154A07463F
:104F20008100735845009B011B0C401C5353C0B2B9
:104F300077500928F4D3A780F8BD3888DAE7788855
:104F4000D8E778684002000CD4E73889D2E7388A7D
:104F5000D0E778694002000CCCE70000640600202E
:104F6000DC000020E20000204F060000701A010063
:104F7000EC02002010030020F8B52E4F2E4C002527
:104F80002E4E092D25D22800784400790018874438
:104F9000040E17404244484A4C0031460220FFF7B5
:104FA0009DFA308826494843000B308011E0314695
:104FB0000120FFF793FA308821494843000B07E0AE
:104FC00031460320FFF78AFA30881E4948432EE015
:104FD0003080A8001C4E628831586D1C8918EDB2D3
:104FE0003150092DCCD32088401C80B2208040282D
:104FF0000ED10020154A07468100735845009B02D8
:105000001B0C401C5353C0B277500928F4D327809F
:10501000F8BD3888DCE77888DAE778684002000C69
:10502000D6E73889D4E7388AD2E778694002000C9D
:10503000CEE7000064060020DC000020DE00002037
:105040004F060000701A0100B4020020D8020020B0
:1050500001460020092902D248000149085A704738
:105060001003002001460020092902D2480001490E
:10507000085A7047D802002078B41A4E6846338A1E
:105080000380194D0020C4006419A48EA34206D2E7
:10509000C100481930223221825E415E03E0401C8B
:1050A000C0B20328EFD31148028011480180B389B0
:1050B000684603800020C4006419A48DA34206D270
:1050C000C000401928222A21825E415E03E0401C74
:1050D0000006000EEFD0074802800748018078BC28
:1050E00070470000500300206E030020860100205E
:1050F00088010020820100208401002070B51D4C31
:1051000001202146FFF7EAF920881B491B4A484342
:10511000000B208016460121194D07F03DF96880EB
:1051200018498000088021460220FFF7D7F920881F
:10513000114932464843000B2080012107F02CF929
:10514000688011498000088021460320FFF7C6F9D6
:1051500020880E490E4A48432021515E000C4143ED
:10516000C8000121C9034018000C0A496880088062
:1051700070BD0000A20100204F060000B603002011
:10518000A00100207C0100207E010020701A010097
:10519000AE03002080010020F0B5784C83B0207869
:1051A000C0074ED0764DA978687807F04BFA207882
:1051B000810742D5A988FF22FF39883201399142FF
:1051C00037D8C00935D0E9886A46118028895080CF
:1051D000688990800220C9B200F078F96A46118887
:1051E0000904090E00F072F96A465188C9B200F04C
:1051F0006DF96A4651880904090E00F067F96A469C
:105200009188C9B200F062F96A4691880904090ED2
:1052100000F05CF96A46907100F058FB002808D154
:10522000A9886846072200F089FB20784006400ED6
:1052300020702078FD2108402070C0B24008400056
:1052400083E0504C0122207800214F4E4F4D504BAF
:105250005204072871D207007F443F79FF19BF44E9
:105260000311484A4E77800070894A4A012107F0AD
:1052700093F8317880B28907C90F00D0A8832880BD
:10528000012062E0404E444AB089022107F084F8D0
:10529000378880B2B907CE0F00D0E8833B49054676
:1052A00048803949488A00280FD18889498948436C
:1052B0003A49FEF725FF0104090C00D101213248CB
:1052C000C0890004FEF71CFF80B2F90700D0344803
:1052D0002E4A11884D43E90A4143080B5169814226
:1052E00001D9084640305060002E00D010620220E4
:1052F0002BE0032029E007F035F9042025E0002702
:105300000120FFF7AFFE274A012107F045F886B2DA
:105310000220FFF7A7FE244A032107F03DF8B10061
:10532000E98480B22149688509784907C90F05D009
:10533000314641434031CF0902E01CE000263046AF
:10534000B100698168820520AF61207003B0F0BDB3
:10535000D889174E704340028018000CE88106205F
:105360002070988A124B584340028018000CA88184
:10537000217003B0F0BD217003B0F0BD71010020B9
:1053800054060020A00100202E0300206406002007
:10539000500300206E030020760300201027000039
:1053A000FFFF0000B6030020BE030020180100200C
:1053B000F628000038B40E496A46098A0D4D0020CF
:1053C0001180C20052194032928D914206D2C00023
:1053D000401940302A23048DC35E03E0401CC0B254
:1053E0000328EED3044804800448038038BC704787
:1053F000500300206E030020260100202801002019
:1054000010B507F0AFF810BD70B507F00DFE012123
:105410001C4A080207F004FBFF201B4A022121302E
:1054200007F0FEFAFF20194A0121A13007F0F8FA2F
:10543000FF20174A0321C13007F0F2FA0121154A73
:10544000480207F0EDFA1120134A0321400107F04A
:10545000E7FA1320114A0321400107F0E1FA104C4A
:105460000020205E0103081A0E49FEF75FFE054684
:105470000220205E0C49FEF759FE0C4928180880CE
:1054800070BD00006E03002076030020960300200C
:105490009E030020B6030020BE030020D603002098
:1054A000AE030020F628000000AC0D00240100200F
:1054B00000B505F039FD00BD41400906024AC90D9D
:1054C000515A000A4840704724DC0008484001490E
:1054D000085C704724DB0008704700000029016861
:1054E00002D00122114301E0014A114001607047DE
:1054F000FEFF0000F0B40168274A1140016000215E
:10550000016041608160C160244A25490F239042B7
:1055100002D14868184333E0224AF024904227D051
:10552000214A2501904229D0204E2202B04201D1C9
:10553000486814E01E4F0F263604B84202D148686E
:1055400030431DE01B4FB84203D148680F221205BB
:1055500005E0194FB84204D148680F2212061043E3
:105560000EE0164F1649B842D3D0164B984202D1DE
:105570004868204304E0144B984204D1486828430B
:105580004860F0BC7047114B9842D1D0104A90420D
:10559000D5D0F0BC70470000FEFF000008000240BC
:1055A000000002401C000240300002404400024063
:1055B000580002406C000240800002400804024093
:1055C000000402401C040240300402404404024033
:1055D0005804024030B403680D4A0C6A13408A68CC
:1055E0004D6922430C692C4322438C692243CC69C8
:1055F00022434C6A22438C6A22431A430260CA68DF
:1056000042600A6882604968C16030BC704700002F
:105610000F80FFFFF8B50E460446FF211046FEF747
:105620006FFD0746012040030090A6480D46002369
:1056300001880222A44801F075F90521A148490317
:1056400041600221A04801F007F900280AD19D49D4
:105650004868421E4A607AD302219B4801F0FCF858
:105660000028F4D0310A984801F045F90521954801
:10567000490341600221944801F0EEF800280AD164
:1056800090494868421E4A6061D302218E4801F069
:10569000E3F80028F4D0F1B28B4E304601F02BF93C
:1056A00005218848490341604021304601F0D4F883
:1056B00000280AD1834E7068411E716047D3402193
:1056C000814801F0C9F80028F5D0012309205B06C4
:1056D0008002002F7DD00121009116E00098002863
:1056E00013D10520774E400370608021764801F089
:1056F000B3F8002809D17068411E716027D380215A
:10570000714801F0A9F80028F5D0012F01D1002D32
:105710000ED00098002826D0092080020090694809
:1057200001231B060188FF22674801F0FBF824E0F3
:10573000009800280CD009208002009061480123C5
:105740005B060188FF22604801F0ECF815E0A5E057
:10575000002000905B4801235B060188FF225A4825
:1057600001F0E0F809E000200090564801231B06F4
:105770000188FF22544801F0D5F800200646009029
:10578000052050494003486004214F4801F064F867
:1057900000280AD14B494868421E4A607ED3042142
:1057A000494801F059F80028F4D0474801F0A0F822
:1057B000A055761CFF2EE3D1FF347F1E8ED1002D25
:1057C00061D005203F4E400370603F4F8021384636
:1057D00000E034E001F040F8002809D17068411E73
:1057E000716061D38021384601F036F80028F5D089
:1057F0000020009001233188EAB25B06324801F0B4
:1058000091F80027002D3ED0052040037060042150
:105810002D4801F021F8002809D17068411E7160FF
:1058200042D30421284801F017F80028F5D0264873
:1058300001F05EF8E0557F1CAF42E5D123E0214F37
:1058400000903988EAB2204801F06CF80026002D5B
:1058500019D005204003786004211B4800F0FCFFAC
:10586000002809D17868411E79601DD304211648AB
:1058700000F0F2FF0028F5D0134801F039F8A055E8
:10588000761CAE42E5D105200E4C400360600E4D03
:105890002021284600F0E0FF002800E004E00BD1C2
:1058A0006068401E606001D20120F8BD20212846BA
:1058B00000F0D2FF0028F3D02021284600F0B4FFEA
:1058C0000020F8BDE400002000580040F0B50020A2
:1058D00083B0184C01900090012321885B0602469A
:1058E000154D284601F01EF8AF14FF262D366760CF
:1058F0003021284600F098FF0121284600F0A2FF41
:105900006068411E6160FBD20198411C0191B04268
:1059100002D1012003B0F0BD1021284600F09CFF09
:105920000028E4D12021284600F07EFF002003B0AB
:10593000F0BD0000E400002000580040F0B50C4627
:1059400005464906490E80205306461A5B0E83B071
:10595000D0090127009300291CD06106490E80233D
:10596000591A531A611802930191002850D098B225
:10597000C1094006400E02910090002E79D05D488A
:10598000468040882146C2B2284600F0B5F800287B
:1059900070D170E000280DD0401E86B2554880219D
:1059A000418040882146C2B2284600F0A5F8002870
:1059B00060D10EE04F48438040882146C2B228465D
:1059C00000F09AF8002855D1FFF780FF002851D148
:1059D0008DE0FFF77BFF00284CD130468034761EE7
:1059E0008035A4B2B6B20028D8D1009800287ED065
:1059F00001464048418040882146C2B2284600F016
:105A00007BF8002870D1FFF761FF00286CD16EE0B1
:105A1000B2421ED93748468040882146C2B2284645
:105A200000F06AF800285FD1FFF750FF00285BD133
:105A30003048029941804088C2B2019881B2A819C9
:105A400000F05AF800284FD1FFF740FF00284BD153
:105A50004DE028480099418040882146C2B228463E
:105A600000F04AF800283FD1FFF730FF00283BD173
:105A70003DE007E038E0FFF729FF002834D1019826
:105A8000AD1984B20298411E8EB200281AD019486E
:105A90008021418040882146C2B2284600F02CF87F
:105AA000002821D10520134940034860FFF70EFF6D
:105AB000002819D130468034761E8035A4B2B6B2A3
:105AC0000028E4D10098002811D0014609484180FF
:105AD00040882146C2B2284600F00EF8002803D1C3
:105AE000FFF7F4FE002802D0384603B0F0BD0020D6
:105AF00003B0F0BDE4000020F7B50120400382B000
:105B0000474E0F46009015460024C30231880222FA
:105B1000444800F007FF052040037060022141481F
:105B200000F09AFE002809D17068411E716067D3A9
:105B300002213C4800F090FE0028F5D0390A39488F
:105B400000F0D9FE0520400370600221354800F0C6
:105B500083FE002809D17068411E716050D3022174
:105B6000304800F079FE0028F5D0F9B22D4F3846C4
:105B700000F0C1FE0520400370608021384600F02F
:105B80006BFE002809D17068411E716038D38021F6
:105B9000384600F061FE0028F5D000200090012377
:105BA00031885B062A46384600F0BCFEAC421AD06B
:105BB0000520400370600221384600F04DFE0028A9
:105BC00009D171684A1E72601AD30221384600F06A
:105BD00043FE0028F5D00298015D384600F08BFEA8
:105BE000641CAC42E4D1052040037060202138469B
:105BF00000F032FE00280CD17168481E706002D29D
:105C0000012005B0F0BD2021384600F025FE002817
:105C1000F2D02021384600F007FE002005B0F0BD8C
:105C2000E4000020005800400149A020088070478F
:105C3000E400002010B5092004F0B2F910BD10B541
:105C4000082004F0ADF910BD7D21C900081A10B577
:105C500081B2002004F0B8FC10BD7047022805D2C4
:105C60000E21484302494018808870470148704718
:105C7000A00B0020FFFF0000022805D20E214843A0
:105C8000024940184088704701487047A00B002027
:105C9000FFFF0000022807D20E21484303494018A5
:105CA000007B8007C00F704700207047A00B0020CA
:105CB000022807D20E21484303494018007B4007C1
:105CC000C00F704700207047A00B0020022807D2A9
:105CD0000E21484303494018007BC007C00F70479E
:105CE00000207047A00B0020F8B5174DA888401C75
:105CF00080B2A880052825D30020A88006F012FADB
:105D0000124E134F002430780007C00F02D0FF203E
:105D10005F3068800F480078C006C00F09D00E20A1
:105D20000D49604340180089002802D17D20C00041
:105D30006880E000C019416868888847641CE4B244
:105D4000022CE0D3F8BD00001002002076010020F4
:105D500054E3000818010020A00B00202F494878C8
:105D6000401CC0B24870312856D1F0B400224A70AD
:105D70002B49104609788907CD0F2A490978C906A9
:105D8000CC0F0E210246284B4A439E5A1E214E43F9
:105D9000D1184E8000269E52002D37D0002C35D0D1
:105DA0004A887D231B019A420CD2204F3B5C142B66
:105DB00006D90B7B01273B430B731D4B1E5401E09F
:105DC0005B1C3B541B4B9A420CD21B4F3B5C142B6D
:105DD00006D90B7B02273B430B73154B1E5401E086
:105DE0005B1C3B54154B9A4210D9114B1A5C022A8A
:105DF0000AD90A7BFD23520852001A400A730E4941
:105E00000E54891C0E5401E0521C1A54401CC0B29E
:105E10000228B6D3F0BC7047704700001002002083
:105E20002E0300200A010020A00B002018020020F1
:105E30001A020020DC05000016020020AC0D000054
:105E4000F8B51B4E1B4D00241B48E100405880470D
:105E500021460E2251438B191A7BC007F727000FEA
:105E60003A40024310071A73C70F144A6000125ACF
:105E7000974213D02A5A022A0DD3725A104FBA42AF
:105E800001D2521C725200212952197B0907CA0FF4
:105E90000A490A5207E0521C2A5204E0295A0029F2
:105EA00001D0491E2952641CE4B2022CCCD3F8BDA7
:105EB000A00B00202202002054E300081E02002054
:105EC000FFFF0000F0B400200C4B7D24CF250246DC
:105ED0002D0101460E2671435A52C9188C800A8141
:105EE0004D80CA800E7BF127760876003E40401C2C
:105EF000C0B20E730228ECD3F0BC7047A00B002098
:105F0000014908707047000010020020022804D2E6
:105F10000E225043014A801801817047A00B0020D7
:105F2000F0B50B2706463F04384600F06DF804280C
:105F30000FD1084C20690225284320616661206941
:105F4000402108432061384600F05EF82169A943EA
:105F50002161F0BD00200240024801698022114306
:105F60000161704700200240F0B50B2706463F0450
:105F70000D46384600F048F804280CD1064C20693C
:105F80000121084320613580384600F03DF8216941
:105F9000490849002161F0BD00200240F8B50546DE
:105FA00000200B273F0400900C46384600F02CF8E8
:105FB000042815D10B4E30690121084330612C8033
:105FC000384600F021F8042806D1AD1C210C0095BC
:105FD0002980384600F018F83169490849003161D4
:105FE000F8BD00000020024004480169090603D5FD
:105FF00003494160034941607047000000200240AE
:1060000023016745AB89EFCD154A0146D3680420CB
:10601000DB0701D0012019E0D368DB0601D502209F
:1060200014E0D3685B0711D503200FE0D368042088
:10603000DB0701D0012008E0D368DB0601D5022090
:1060400003E0D3685B0700D50320491E012803D075
:10605000002900D1052070470029E7D1FAE70000A8
:1060600000200240044AD11C0B7800021843491E4C
:106070008A42F9D970470000F83F0008C11C8842E5
:1060800005D80B7812021A43491E8842F9D91046E6
:10609000704770B505460024FFF7A6FF2846FFF7B6
:1060A0003FFF042802D0FFF757FF0124FFF754FFFA
:1060B000204670BD70B50D4606460024FFF794FFDC
:1060C00029463046FFF750FF042803D0FFF744FF6E
:1060D000012070BDFFF740FF204670BD70B50D4632
:1060E00006460024FFF780FF29463046FFF756FF9B
:1060F000042803D0FFF730FF012070BDFFF72CFF0D
:10610000204670BD7047000010B50B48094B436036
:106110000A4A002081005C585450401CC0B230280C
:10612000F8D30121084604F0A7FA032004F008FE82
:1061300010BD000010400008EC000020000000200E
:10614000F0B40022032501230C6893401C409C42BC
:106150002AD10C79012C01D0022C12D1876854006D
:106160002E46A640B74387604E79A64084682643F2
:10617000866084889C43848084888B7993401C4308
:106180008480066853002C469C40A64306600E7926
:1061900007689E403E430660C668A643C660CC7949
:1061A0009C40C3681C43C460521C102ACBD3F0BC73
:1061B00070474B07DB0E9A40C90810B489000818D5
:1061C000016A0F249C40A1430162016A11430162EC
:1061D00010BC70470246128A00200A4200D00120FB
:1061E0007047704770470000F8B50D2003F0D8FEE7
:1061F0000127644D0026644C00280BD06089642878
:1062000004D92888B8433843288001E0401C6081C5
:10621000A6810AE0A089032804D928884008400004
:10622000288001E0401CA08166810A2003F0B8FEAE
:10623000022100280AD0E089032803D9288888434E
:10624000288001E0401CE08126820AE0208A642840
:1062500004D9288888430843288001E0401C208214
:10626000E6810E2003F09CFE082100280FD0207844
:10627000002804D0288888430843288000E027703D
:10628000424A8021108888431080667008E0607858
:10629000002803D028888843288000E06770267093
:1062A0001B2003F07DFE102100280BD0A0780A28C7
:1062B00004D9288888430843288001E0401CA07046
:1062C000E67009E0E078022803D92888884328800E
:1062D00001E0401CE070A670132003F061FE202155
:1062E00000280BD02079142804D928888843084333
:1062F000288001E0401C2071667109E06079142853
:1063000003D928888843288001E0401C60712671E9
:10631000122003F045FE402100280BD0A07914285C
:1063200004D9288888430843288001E0401CA071D4
:10633000E67109E0E079142803D928888843288089
:1063400001E0401CE071A671112003F029FE002835
:106350000CD0207A142805D9298880208143014354
:10636000298001E0401C20726672F8BD607A142812
:1063700004D9288880218843288001E0401C60726D
:106380002672F8BD0A010020BA0100201801002081
:1063900070B5454C454E2078C006C10F30780007D7
:1063A000C00F002903D0002801D0012200E0002204
:1063B0003F4D2B889B05DB0F9A421BD0002903D051
:1063C000002801D0012100E000211C2003F05AFE2A
:1063D0002078C006C00F05D030780007C00F01D06C
:1063E000012000E00020012229885202914340024E
:1063F0000143298030780006C10F2878C007C00FFC
:1064000081420AD00B2003F03DFE30782988000637
:10641000C00F490849000143298030888005C10F19
:1064200028788007C00F81420BD00C2003F02AFE91
:10643000308829888005C00F022291434000014323
:1064400029803088C005C00F03D02178C907C90F43
:1064500022D000212A785207D20F91421BD0002867
:1064600003D02078C007C00F18D00020002817D014
:1064700000211A2003F006FE3088C005C00F03D0AB
:106480002078C007C00F0DD0002029880422914336
:1064900080000143298070BD0121DBE70120E5E791
:1064A0000121E6E70120F0E70A01002018010020A1
:1064B0000C010020F0B56B4883B08469002000F027
:1064C00043FA600506D501218902664800F0AEF95D
:1064D00003B0F0BDA00506D501214902614800F0D6
:1064E000A5F903B0F0BDE00506D5FF2101315D48F7
:1064F00000F09CF903B0F0BDE00605D51021594825
:1065000000F094F903B0F0BD574D584E687900285B
:1065100009D15749087057490870574908705749B9
:10652000087030706870564F200743D54D4C0821D5
:10653000204600F07BF9204600F095F9002810D0A5
:106540004B490020087068703878002805D03078F2
:106550004C490978FEF7BAFF307002F053FC012075
:1065600025E0A16901200143A1616879002814D0C8
:10657000012803D0022801D0032808D1424A1188FB
:10658000FF20013081430143118000F0C1F83849F8
:10659000002008706870374908703878002805D0E6
:1065A0003A4900200978FEF791FF307002206871A7
:1065B00003B0F0BD600727D52A48406AC4B23878D6
:1065C000002804D030782146FEF780FF3070294A39
:1065D00010786946087069792D4B02290BD0032980
:1065E000E6D1264EA11C31701C54401C10700220B4
:1065F000687103B0F0BDFF28FBD21C54401C107022
:1066000001F0DAFD03B0F0BDA007FBD51848007813
:1066100069460871002818D06978814215D86A78CF
:106620001C4982420BD13878002805D030786A4660
:1066300010726A78885402E06878FF220A546878F9
:10664000095C6878401C687000E0FF2105488162A1
:1066500038780028D6D03078FEF738FF307003B095
:10666000F0BD000000540040AC0100206F0100208C
:106670006E0100206C0100206A0100206B010020E7
:10668000FE000020B001002068010020AE010020C3
:1066900054050020540400200020124902460A54E8
:1066A000401CC0B2FF28FAD30F4B00200021195420
:1066B000401CC0B2FF28F9D30C49002008700C49D7
:1066C00008700C4908700C4908700C4908700C4996
:1066D00008700C4842700C49802008700B498120DA
:1066E0000870704754050020540400206F010020FA
:1066F0006D0100206E0100206C0100206A01002065
:106700006B010020AC010020AE010020B001002090
:10671000F0B585B02021384800F09EF8374C0028AD
:1067200003D12088C005C00F63D02021324800F07B
:1067300093F8002803D020212F4800F075F8208816
:106740000121C902884300272080384600F008F95B
:106750002B4E30786A462B4910700B782A491371FA
:1067600009782A4D1172002834D06A79022A01D0A2
:10677000032A2FD198422BD1012040024200002948
:10678000218803D08905C90F0DD021E08905C90FE3
:1067900006D02188814321802088904310432080A7
:1067A00006F0ACFC14E0218881430143218020885D
:1067B00090431043208016486946007808731549B5
:1067C00008701549DF22887A104020221043887211
:1067D000002030702021084800F03EF8002800D04A
:1067E0006F71002000F0D0F82088FF21013188432C
:1067F000208005B0F0BD000000540040680100207A
:106800006C0100206B0100206F010020AC01002012
:10681000660100206D010020180700200149487121
:1068200070470000AC010020C1617047C161704732
:106830000029016802D00122114301E04908490002
:1068400001607047012252030029416801D01143C1
:1068500000E09143416070470246926900200A427D
:1068600000D00120704701468969002001221204EE
:10687000114200D090117047002A026801D00A43EB
:1068800000E08A430260704710B402685208520068
:1068900002600268144B8C681A4024024B6814434F
:1068A000234303600F230A681B069A4302610268B0
:1068B00001231A43026000228260C2600B698A6968
:1068C0001A43826082680123DB031A438260CA682C
:1068D0000368134303604268044B49691A4011433B
:1068E000416010BC70470000FFE0CF00FF7FFF0752
:1068F000406AC0B270478162704701684908490028
:1069000001600168016801221143016070470122A2
:1069100052040029016801D0914300E01143016055
:106920007047000070B4039D44688905890D120406
:10693000044E11431943344029432143416070BC44
:1069400070470000009800FC0021034A40001152EB
:10695000024A11527047000090010020940100206B
:1069600048214843074908B54018403001796A4634
:1069700011704079507000209070684601F050FB13
:1069800008BD000024DE000848214843074908B537
:106990004018403001796A461170407950700120EA
:1069A0009070684601F03CFB08BD000024DE000842
:1069B000F8B5254801882022914300260180234F05
:1069C000344620464821224A48438518A96B0129AC
:1069D00035D1A9881058FFF7FDFB00280FD01D48BE
:1069E00061004652A989A868FFF7F4FB002813D07C
:1069F000194861004652385D012819D01FE0154A38
:106A00006000115AEB88994202D2491C1152E9E701
:106A1000165201203855E5E70F4A6000115AEB89FC
:106A2000994202D2491C1152E5E71652012038550D
:106A3000A869FFF762FF204605F046FF3E55641C3B
:106A4000E4B2022CBDD3F8BD680100208E01002005
:106A500024DE00089001002094010020F8B50024F5
:106A60000F4E0127204605F02FFF4820604385196F
:106A70003C20405D01280ED10122296CA869FFF756
:106A8000FBFE4035287969460870687948708F7038
:106A9000684601F0C5FA641CE4B2022CE2D3F8BDEA
:106AA00024DE0008F0B5865C521C91B2425C1B0AE1
:106AB0001B021343491C89B2B446425CFF263602CE
:106AC0001202B34332401343491C89B2425C36027E
:106AD0001204B34332401343491C8AB2865C290A2C
:106AE000521C090292B23143855CFF2636022D0208
:106AF000B14335402943521C92B2855C36022D04C5
:106B0000B1433540521C92B22943865C250A521C7F
:106B10002D0292B23543845CFF2636022402B5432F
:106B2000344025438DB0521C92B20B95855C040A0B
:106B300024022C43521C92B2855CB4432D02354092
:106B4000521C2C4392B2855C0995521C92B23D0AAC
:106B5000865C2D023543521C92B2865CFF273F02B1
:106B60003602BD433E4035430A95521C92B2089D01
:106B7000865C2D0A2D023543521C92B2865CBD43C1
:106B800036023E4035430895521C92B2079D865C02
:106B90002D0A2D023543521C92B2865CBD4336024B
:106BA0003E4035430795521C92B2069D865C2D0AE5
:106BB0002D023543521C92B2865CBD4336023E40E4
:106BC00035430695521C059D92B2865C2D0A2D0216
:106BD0003543521C92B2865CBD4336023E4035437B
:106BE0000595521C92B2049D865C2D0A2D023543F8
:106BF000521C92B2865CBD4336023E40354304953A
:106C0000521C92B2039D865C2D0A2D023543521C04
:106C100092B2865CBD4336023E4035430395521C1A
:106C200092B2029D865C2D0A2D023543521C92B20F
:106C3000865CBD4336023E4035430295521C92B2FB
:106C4000019D865C2D0A2D023543521C92B2865C52
:106C5000BD4336023E4035430195521C009D92B221
:106C6000865C2D0A2D023543521C92B2865CBD43D0
:106C700036023E4035430095521C92B2865C0C9D14
:106C8000521C2D0A92B22D02805C354300023A4616
:106C9000BD4310400543314866464670304F314E83
:106CA0003A683668934201D1B14208D02D4A3B6020
:106CB00011602D4902220B88934313430B802B4E06
:106CC0002B4B3188CA04D20F09D15A885204D20FF3
:106CD00005D001225203914311433180DD830B998A
:106CE0008DB21D805C80099901700A98988008987F
:106CF000D88007981881069858810598988104983B
:106D0000D881039818820298588201985883009875
:106D1000642180B29883C001FDF7F2F91549164B42
:106D200088801888E90B04229043890008432907CA
:106D3000C90F1024A0430901084318807D200F4982
:106D4000C00008600849088840084000904392014C
:106D50009043104308800DB0F0BD00004E030020AA
:106D60004C01002050010020100100201A010020D9
:106D70002E030020A4060020140100208002002021
:106D800070B4244A83B012886C462280224A12884A
:106D9000A280224AD28B2281214A25780C8813882E
:106DA0005288661C0E8005556C4665780C88661CFA
:106DB0000E8005556C4625790C88661C0E8005559D
:106DC0006C4665790C88661C0E8005556C46257AE4
:106DD0000C88661C0E8005556C46657A0C88661C0E
:106DE0000E8005550C88651C0D8003551B041D0E77
:106DF0000B885C1C0C80C5540B885C1C0C80C25436
:106E00001204140E0A88531C0B80845403B070BC07
:106E10007047000016010020640100202E030020AE
:106E20006E030020F0B5865C521C91B2425C1B0AD6
:106E30001B02491CB646134389B2465CFF2212026C
:106E400093433202FF26360232401343491C89B273
:106E5000425C36021204B34332401343491C8AB2E7
:106E6000865C290A521C090292B23143855CFF26D6
:106E700036022D02B14335402943521C92B2855C43
:106E800036022D04B1433540521C294392B2855C31
:106E9000240A24022C43521C92B2855C36122D0225
:106EA000B4433540521C2C4392B2865C3D0A2D02FD
:106EB0003543521C92B2865C8DB0FF273F023602EA
:106EC000BD433E403543099E521C92B20A95370A93
:106ED000855C3F022F43521C92B2855CFF2636022E
:106EE0002D02B74335402F43521C92B2855C099561
:106EF000521C92B2089D865C2D0A2D023543521C0D
:106F000092B2BC46865CFF273F023602BD433E403C
:106F100035430895521C92B2079D865C2D0A2D02BE
:106F20003543521C92B2865CBD4336023E40354327
:106F30000795521C92B2069D865C2D0A2D02521CAA
:106F4000354392B2865CBD4336023E403543521C07
:106F5000069592B2059D865C2D0A2D023543521C82
:106F600092B2865CBD4336023E4035430595521CC5
:106F700092B2039D865C2D0A2D023543521C92B2BB
:106F8000865CBD4336023E4035430395521C92B2A7
:106F9000029D865C2D0A2D023543521C92B2865CFE
:106FA000BD4336023E4035430295521C92B2019DCC
:106FB000865C2D0A2D023543521C92B2865CBD437D
:106FC00036023E4035430195521C92B2009D865CCC
:106FD0002D0A2D02521C354392B2865CBD43360207
:106FE0003E403543521C009592B2049D865C2D0AAA
:106FF0002D023543521C92B2865CBD4336023E40A0
:1070000035430495521C92B20C9D865C2D0A2D02CC
:107010003543521C92B2865CBD4336023E40354336
:10702000521C92B2865C521C2F4692B20B9D805C21
:107030002D0AFF222D021202354300029543104013
:107040000543314876464677304E3148326800680D
:10705000934201D1814208D02D48336001602D4810
:10706000022102888A430A43028027492A4A0C8067
:107070000A9880B2488012789206D20F1FD0274E0D
:1070800020243288C307A2439B0E1A43402443079F
:10709000A243DB0F9B011A43C306C405DB0FE40FB9
:1070A00023438405E40F23438024A243DB011A43D6
:1070B00080066300C00F9A4300020243328060469C
:1070C0008880099808770898C880079808810698EA
:1070D00048810598C881049888810398088202989D
:1070E000488200980883019848838F82CD827D2052
:1070F0000B49C00048600749042208884008400046
:10710000904308800DB0F0BD5003002054010020D2
:107110005801002012010020180100204401002025
:107120008002002010B4364A87B012886B461A805D
:10713000344A12889A80344A12881A81334A128853
:107140009A81334A12881A82324A12889A82324AC3
:10715000128A1A830A881C78531C0B8084546B464D
:107160000A885C78531C0B8084546B460A881C790F
:10717000531C0B8084546B460A885C79531C0B802B
:1071800084546B460A881C7A531C0B8084546B46CB
:107190000A885C7A531C0B8084546B460A881C7DD9
:1071A000531C0B8084546B460A885C7D531C0B80F7
:1071B00084546B460A881C7B531C0B8084546B469A
:1071C0000A885C7B531C0B8084546B460A881C7EA7
:1071D000531C0B8084546B460A885C7E531C0B80C6
:1071E00084546B460A881C7C531C0B8084546B4669
:1071F0000A885C7C531C0B80845407B010BC704719
:1072000014010020640100201E010020260100203E
:1072100028010020240100202E0300207D210248A7
:10722000C90001604160704780020020F0B41E4830
:107230001C4A00781168C0060424C00F1B4D0123AE
:10724000002902D0491E116012E0194EFF27318833
:107250000137490849001943A1432143B94331800B
:10726000002805D0A97AFD26314002263143A972B3
:107270005168002903D0491E5160F0BC70470D4A87
:107280001188490849001943A1432143118000286E
:10729000F3D0A87AFD21084002210843A872F0BC6F
:1072A00070470000800200200A010020180700201B
:1072B00010010020120100200249014808607047B7
:1072C000CCCC000000300040034A0146D2680020C8
:1072D0000A4200D0012070470030004002490148B6
:1072E00008607047AAAA00000030004001494860C9
:1072F000704700000030004001498860704700007E
:107300000030004001490860704700000030004034
:107310007047000070B55E48002500785D4C00079E
:10732000C00F00280FD000211F2002F0ABFE00216B
:10733000202002F0A7FE6078411C6170192849D313
:1073400065701E2044E02078401CC0B220703228B6
:1073500040D32570504C20780007C00F04D0012185
:107360001F2002F08FFE03E000211F2002F08AFEA2
:107370004A484B4D00884B4B8106C90F4CD1020641
:10738000D20F49D14206D20F46D1474A127892070E
:10739000D20F41D022889607F60F3DD01207D20FA8
:1073A0003AD029884905C90F24D140490988C90B19
:1073B00009D119884A06D20F05D14905C90F02D152
:1073C000C005C00F07D000211E2002F05BFE202068
:1073D00002F066FE70BD0020FEF75CFC002809D1BB
:1073E0000120FEF757FC002804D1314800788007BF
:1073F000C00F08D000211E2002F044FE01212020F1
:1074000002F040FE70BD01211E2002F03BFE002173
:10741000202002F037FE70BD2A885205D20FE9D134
:107420000029E7D10106C90FE4D14006C00FE1D120
:1074300018888107C90FDDD18106C90FDAD100078D
:10744000C00FD7D11B480088C00BD3D120780007CC
:10745000C00F05D018480088C107C90F10D108E037
:1074600000211E2002F00EFE0021202002F00AFE64
:1074700070BD12490978002902D08007C00FF7D1EA
:107480001E2002F00DFE0021202002F0FBFD70BD49
:10749000760100206802002018010020440100202D
:1074A000740100201A010020500300200201002076
:1074B00018070020040100200A01002072010020AA
:1074C00001498000085A704714DF0008F0B59BB0EE
:1074D00005F0DAFA00244E487D210322FEF79AF8DF
:1074E0004B4D360A29783602FF200E436F78000292
:1074F0008643FF2238021202104006430220FDF7A5
:10750000E5FF3946FDF7E2FFAB784249424A834244
:1075100003D042480880108001E00E80168000BF32
:10752000641CE4B2962CFAD339487A210322FEF780
:1075300071F8340A29782402FF200C436E78000287
:107540008443FF2230021202104004430220FDF760
:10755000BDFF3146FDF7BAFFAA783149824203D018
:10756000FF20F530088000E00C80002000BF401CA8
:10757000C0B29628FAD3264883210322FEF74AF8A0
:107580002978240A24026A78FF200C4300028443ED
:10759000FF2310021B021840044316460220FDF789
:1075A00095FF3146FDF792FFAB7801211D4A090393
:1075B0000026834203D010883446884302E01088B6
:1075C00088430843108018481121C4836846C901C4
:1075D0006722FEF71FF8022000246D46295DFDF7A3
:1075E00075FF641CE4B2672CF8D3002805D0002096
:1075F0002E54401CC0B26628FAD30C4A0020295CE5
:107600001154401CC0B26628F9D31BB0F0BD000075
:10761000B5010020460100201E010020FF0F0000E0
:10762000480100201A0100202E030020EE03002054
:1076300070B5044603200002081880B20D46C6B09B
:10764000014622466846FDF7E5FF00236946002C07
:1076500006D90448CA5CEE185B1C8255A342F9D3D4
:1076600046B070BD4C07002070B401250023002AED
:1076700006D9054CC618A65DCE545B1C9342F9D3BF
:10768000284670BC704700004C070020F0B5514CF4
:107690000226207800259BB0002806D0012843D080
:1076A000022846D003287DD16BE000950195029514
:1076B000494D28788007C00F17D048486A4600888F
:1076C000C1B20004070E117057700220FDF7FEFED4
:1076D0003946FDF7FBFE6A46907028887A21B04350
:1076E000288068460322FEF729F92878C007C00FD2
:1076F00018D03B486B460088C1B20004060E1970D2
:107700005E700220FDF7E2FE3146FDF7DFFE6B46BC
:10771000987028887D214008400028806846032210
:10772000FEF70CF9012029E005F0F8FA26701BB0ED
:10773000F0BD00952B4D28888004C00F1DD02A482D
:107740006A46C08B90801179117050795070022078
:10775000FDF7BCFE6A465179FDF7B8FE6A469070A7
:10776000832168460322FEF7E9F8288801214903AE
:1077700088434910884308432880032020701BB0A9
:10778000F0BD1A4E3078C007C00F20D0184B6946A4
:1077900000201A5C0A54401CC0B26628F9D30220AB
:1077A000002700E013E06946C95DFDF78FFE7F1CEE
:1077B000FFB2662FF5D318A988711121C901684657
:1077C0006722FEF7BBF83088400840003080257003
:1077D0001BB0F0BDB20100200E01002048010020C6
:1077E000460100201A0100202E0300207401002011
:1077F000EE03002070B5032212028A18C6B00023DF
:1078000096B26C46002806D9064ACD18555DE55457
:107810005B1C8342F9D3024631462046FEF78EF8C0
:1078200046B070BD4C0700200023002A09D970B46F
:10783000044CCD5CC6185B1CA5559342F9D370BCB3
:10784000704770474C07002030B41248124B007844
:1078500001244007C10F0025A40218880F4A0029FF
:1078600013D00F4909784907C90F0ED0518C04294C
:1078700003D2491C518430BC704755842043188082
:1078800008490120087030BC70475584A043188017
:1078900030BC704710010020740100202602002037
:1078A00012010020FF000020F8B5354D0021287896
:1078B00001230007C00F334A0E46002803D0547935
:1078C000012C02D005E0537103E0002801D056716D
:1078D00001212D4820240078C006C70F2948002F19
:1078E000808C05D09371002807D0401E908404E05E
:1078F000002802D1907901283DD0002932D0234EB2
:107900000020308000F02EFC30880A214008400022
:107910008843FF210131A04388434F00B8433080A2
:107920001B4EC0223088A043904388433080288873
:107930001849A043204328806420088000210720A4
:1079400002F074FB0121072002F09CFB0A210220B7
:1079500002F03AFE10490C220888904308803088D3
:10796000B84330800D480079C007C00F02D0288886
:10797000A0432880F8BD96710A209084BFE70000DC
:107980001401002026020020180100201A01002006
:1079900044010020200100200E010020500300209F
:1079A000154881B00188684601801448144A00785F
:1079B0004007C00F16D0134B1046C089994214D906
:1079C0000A280ED3104A01211088400840000843BD
:1079D000022188430843042188430843108001B0F2
:1079E0007047401CD08101B070470028FBD0401E7A
:1079F000D08101B0704700007C01002018010020F8
:107A0000BC0B0020CC1B00001A01002006480021FE
:107A1000018041804182C1808182C18101820181D6
:107A20008181C18201837047BC0B0020F0B43E48C5
:107A300001220088D20241053C483D4E0088904317
:107A4000002917DB3B490988C905C90F12D03A49FB
:107A50000978C907C90F09D03189322902D2491CD6
:107A600031810BE031491043088007E0002131816A
:107A70002E49F9E7002131812C4908802F483149EE
:107A800007782F480988028808208243C001814373
:107A90000B4603432C4805882C48EC07E40F00886C
:107AA000002F04D0AD07ED0F01D0002C19D0244DCC
:107AB000002780072A80C00F07D01C480088C20515
:107AC000D20F02D18005C00F06D01E480180002CC5
:107AD00005D03770F0BC70471A480380F7E70820DC
:107AE00016E0C406E40F0DD0C005C00F0AD1184837
:107AF00000888406E40F05D14406E40F02D1000695
:107B0000C00F08D00F4801803078002806D0401EF2
:107B10003070F0BC70470B480380F5E70849082037
:107B200002430A80F0BC7047740100201A01002053
:107B3000260200202E0300200801002072010020F0
:107B400014010020760100200A0100201801002005
:107B50004401002079480088C005C00F72D0F8B5F4
:107B600077487B4F848D7748774A0088774B8446E7
:107B7000C007F98BC00F26D088420CD0F883754817
:107B800078817548B8817548F881754838827A825D
:107B90007448BB82F882744DFF222888BB89013269
:107BA0000146904300269C4203D263469B07DB0FAD
:107BB00018D0FA8A944231D2B88B6C4A904226D2BD
:107BC000401CB88333E08842E5D0F8836848788168
:107BD0006848B8816848F881684838827A82BB82F0
:107BE0006748D7E7398B322902D2491C39831EE016
:107BF00001211043890288433E8308432880B878D6
:107C0000002814D101F0EEF80120B8700FE0012037
:107C100080028143BE830143298008E079898C4238
:107C200005D3012189023E8388432880BE70F989EB
:107C3000012040028C4213D9798B322903D2491C8E
:107C4000798315E079E07E83298881430143298087
:107C5000F87800280CD101F0C5F80120F87007E091
:107C6000398A8C4204D87E83298881432980FE701A
:107C7000B88A1021434A844204D2324800788007EF
:107C8000C00F0DD0788A844203D9108888431080B1
:107C90007E702C4B08241988C80B00281AD10DE0DF
:107CA0001088012388430843108079780029F0D197
:107CB00040218843084310807B70EAE72888C50587
:107CC000ED0F07D18005C00F04D18807C00F04D184
:107CD000C80602D51088A04302E01088A0432043C4
:107CE00010801078284AC006C00F01D0012014E08F
:107CF000C807C00F01D003200FE0188A0907234BE3
:107D0000C90F0ED00146FF39DC39322901D80020D5
:107D100003E0C0183C2802D804201070F8BD0720EA
:107D2000FBE70146FF39DC39322901D80220F4E7AC
:107D3000C0183C28F3D80620EFE770471001002058
:107D4000640600202E03002040EA0000A0E80000A6
:107D500026020020ECF20000BCF2000034FB000020
:107D60002AFB0000D0F200001A010020983A00001F
:107D7000A8EA000078EA00003AFA000020FA0000C1
:107D800090EA000018010020FF000020C6FDFFFF60
:107D9000F0B59B4883B001886A469A4811810088F3
:107DA000108084469848008890809848984A0078C7
:107DB0008006C00F04D01379002B01D14123138416
:107DC000934A954D10719348944C007800264007D3
:107DD000C00F002873D0284602881B2704232046A2
:107DE0003F029A43008AB94206D90A2801D2401CB0
:107DF00009E01A432A8009E00D235B02994205D26B
:107E0000002802D0401E208200E02A80FF22BA32E1
:107E1000944557D281480B22520200891027914283
:107E20000FD264280BD32888012140084000084362
:107E3000082188430843B8433843288005E0401CA4
:107E400002E0002801D0401E20810020FDF70AF941
:107E5000FF21F531884260890FD264280BD328882E
:107E60000121400840000843082188430843B843E3
:107E70003843288005E0401C02E0002801D0401E65
:107E800060816846008905218902884208D2A0895C
:107E9000642803D32888B84338430DE0401C07E02A
:107EA0000321C90288420DD9A089002802D0401EB2
:107EB000A08107E02888B843288003E0FFE72681F7
:107EC0002682A681524B2022198C4020002932D0D4
:107ED000491E19846946898803231B02994213D2DB
:107EE00069460B88FF21BA318B420DD9E1880529FB
:107EF00002D2491CE18005E0298891431143814366
:107F000001432980668200E0E68069460B88FF21F4
:107F1000BA318B420DD96188322902D2491C618065
:107F200057E02988914311438143014329806682A8
:107F30004FE066804DE06946898815231B0299420F
:107F400005D26B461F88FF23BA339F4203D8032311
:107F50005B0299420DD2E188052902D2491CE180D9
:107F600008E02988914311438143014329806682B7
:107F700000E0E68069460988FF23BA3399420DD9AB
:107F80006388052B02D25B1C638008E02B88934337
:107F90001343834303432B80668200E06680FF2304
:107FA0009A33994208D9A188322901D2491C0BE0A1
:107FB0002988814301430BE0FF238133994208D292
:107FC000A188002902D0491EA18002E029888143AE
:107FD000298069460B88FF2181318B420ED2618A4C
:107FE000FF23F533994202D2491C618203E02988BC
:107FF0009143814329806680E680A68003B0F0BD6E
:108000007C010020800100207E0100200C01002066
:1080100026020020180100201A010020BC0B0020BD
:1080200030B4827801240178002A15D08B080E4ADA
:108030009B009A1813688907C90EFF258D40AB4332
:108040004578AD072D0E8D401D4315600078C006A4
:10805000C00E8440054803E0C806C00E84400448B2
:10806000046030BC7047000000E400E000E100E084
:1080700080E100E0F8B5344C344F2188480719D529
:1080800038790426082510281DD01F281BD0202849
:1080900021D02F281FD0B1432943218014203881BB
:1080A000387910281FD0202820D0302820D02088D0
:1080B000A84320802078000704D5388900281AD0EA
:1080C000401E3881F8BD002003F088FD2088B043B1
:1080D00028432080E2E7012003F080FD2088B043A0
:1080E00028432080DAE766207870E3E7772000E015
:1080F00055207870DEE7012080F31088144D284663
:10810000FDF7BCFF13490A78010A09021143787888
:10811000FF22120200029143104001430C46284600
:10812000FDF7B7FF21462846FDF7D8FF0A49281D6D
:108130000978FDF7BFFFBFF34F8F09490748C860B3
:10814000BFF34F8FFEE70000760100200002002001
:1081500000F8000870010020FE0000200400FA056D
:1081600000ED00E010B504F02BFA04F04FFA0848D7
:1081700001230188DB0299434022914301808188D9
:10818000994391438180034800218184C18410BDBB
:1081900018070020A4060020064801230188DB02FE
:1081A0009943402291430180818899439143818082
:1081B0007047000018070020F8B5BE4A1378BE4982
:1081C000BE4DBF48012B24D10B88FF24BF34A343ED
:1081D000BC4C0B80238801267602B34323800378AE
:1081E0006C462370B84C2B70B84EE45C3470B84CBD
:1081F0002478012C00D000243778E4193470B54C71
:10820000E45CB54B1C70B54C23880126F602334361
:108210002380AA4BB24D1E786B461E70AB7A802429
:108220002343B4463E2E1BD01BDC40241A2E73D0B1
:108230000EDCAB4C4027A47A3C43072E29D23700F2
:108240007F443F79FF19BF440B0B240B243C6A0089
:108250001B2E7DD0302E7CD03B2E01D03C2E18D151
:10826000F8BDDE2EFCD00CDC7E2EF9D004DC3F2ED7
:10827000F6D0512E0DD1F8BDC92E6BD0DD2E08D110
:10828000F8BDDF2EFCD0E02EFAD0F62EF8D0FA2E74
:10829000F6D010780128F3D10888800508D460460C
:1082A000C3380C2804D88949002008708A4908700E
:1082B000864800780028E3D187480078002876D0E7
:1082C000F8BD1378012B0FD0022BF9D0032BF7D078
:1082D000042BF5D14378022BF2D38378042B07D9F2
:1082E0008378FF2B04D018E00320FEF797FAF8BD3F
:1082F0000B88042423430B8083787A49CB70C078A1
:10830000694608706D4905280870F0D10120107089
:108310000320FEF783FAF8BD2AE0AC72F8BD1278AC
:10832000012AE1D0022AF9D0032A14D0042AF5D177
:108330004278002AF2D00A8808231A430A80C078BB
:10834000694608705D4908706249095C62487DE0D1
:108350001CE02DE047E08178042902D98178FF29CB
:10836000DBD141780029D9D081785E48C170F8BD51
:108370001278012AB8D0022AF9D0032AF7D140781E
:108380000128F4D808880222104323E0117801293B
:10839000EDD00229EBD00329E9D140780128E6D1BC
:1083A000484801220188520211430180F8BD1DE0B6
:1083B0001278012A10D0022AF8D0032AF6D1827846
:1083C000862A02D08278872AF0D1C0780128EDD1A0
:1083D000088820430880F8BD0888A043088003204F
:1083E000FEF71CFAF8BD0988890501D4AB72F8BD07
:1083F00011780C29FBD20A007A441279921897441A
:10840000050505061727050505050535EFE7364976
:108410000978002905D0427834490A70807848707C
:10842000F8BD3349DF2208784008400010403FE0A3
:10843000C1782E4881702C4909780029F0D1007844
:108440000128EDD12A480122017811430170F8BDBD
:10845000254800780028FAD1244800780228F6D16F
:1084600023492122087810430870F8BD1E49097875
:108470000029FAD14178082916D11D4C2178CA0962
:1084800012D1427903791202D218184BDA80C279DC
:108490008579120252191A81427A007A1202101852
:1084A000588180200143217011490122087810432E
:1084B0000870F8BD6C0100207401002066010020E6
:1084C000540500207601002048DF00086B010020E1
:1084D000FE00002048E000086A010020680100203A
:1084E00018070020000200206F0100205406002021
:1084F0007101002010B53E493E484A8902808A89B0
:108500004280CA8982808A8BC2804A8B02810A8813
:1085100042814A8882818A88C281CA8802820A8905
:1085200042820A8A8282498AC18233490978018358
:1085300032490A8A82848A890284CA8942844A8AA0
:10854000C2848A8A0285CA8A42850A8B82854A8BBE
:10855000C2850A8802864A8842868A888286CA88B4
:10856000C2860A89028749894187254801882548AA
:10857000018025490988418024490988818024494E
:108580000988C180234909880181234909884181DB
:1085900022490988818122490988C18121490988A4
:1085A00001820120FCF75EFD1F4C20840020FCF7B7
:1085B00059FD60840220FCF755FDA084002002F0E4
:1085C0005BFDE0840020FDF749FB20850020FDF7DE
:1085D00053FB60850120FDF74FFBA0851348018800
:1085E000E1854188218681886186C088A08610BD8A
:1085F0002E030020A00A00204E030020500300207C
:1086000002010020E00A0020040100200A010020ED
:108610000C01002016010020140100201801002088
:108620001A01002044010020200B0020F600002049
:1086300070470000F8B59B489C4E007834469A4F2E
:108640004034002805D09A4D012853D002287DD10E
:10865000C5E0A08B30670020FDF70EFBC00103F0E2
:10866000BDFE3988012212031143A0839143398052
:10867000E08B30670120FDF7FFFAC00103F0AEFE8A
:108680003988012252031143E08391433980A08A43
:108690003067002002F0E6FC41053888FF220132F5
:1086A000490D1043A18290433880E08A3067012051
:1086B00002F0D8FC3988012240055202400D1143D6
:1086C000E08291433980208B3067022002F0CAFC9F
:1086D00041053888490D012292022183F16E104331
:1086E0003167904351000843884338806D49012029
:1086F0000870F8BD3888082231891043718690438C
:108700003880F08E2086308A03F068FE3988102287
:1087100011439143F086202270891143B086914322
:108720003980308F2086708A03F058FE39884022C5
:108730001143308791433980708F2086B169706909
:10874000401803F04BFE3988802200E0A5E0114379
:10875000708791433980B08F2086B06903F03EFE68
:10876000544F08223988B087F08911432080914303
:10877000B089802220861143F0879143EB68402224
:10878000AB61114328699143E8614B4A2C7D147019
:1087900002221143401C494C39802861A04203D970
:1087A0000120286100202875B46970690019C0098A
:1087B000C018434BE86098420CD95B42C018E8608F
:1087C000287DFF2802D2401C287503E00020287570
:1087D000012028619143334839800270F8BDB08D83
:1087E0002086308803F0FAFD398801221143B085D4
:1087F000480840003880F08D2086708803F0EEFD38
:10880000398802221143F08591433980608820869F
:10881000A08803F0E3FD2749FF2209880132608028
:108820001143244891430180308E2086706803F004
:10883000D5FD398804221143308691433980736F06
:108840002B60B16F1F486960027F2A72194A0124A8
:108850001288491C2243174C2280184CB167A14250
:1088600003D9002101770121B1677168C90959183D
:10887000134B716799420CD95B42C9187167017F2C
:10888000FF2902D2491C017703E000210177012072
:10889000B06708485108490001800249002008706B
:1088A000F8BD0000000200207801002064060020CE
:1088B000E40600207A01002004070020FFFFFF00EB
:1088C000FF7F0000C4060020F0B5DB49DB4CC88800
:1088D00087B0002802D0401EC88071E1D84B2188A3
:1088E0001980A2889A80A07805909870A7799F71C6
:1088F000E0780490D870E079D8718446207A0190AD
:108900001872607A03905872A57A9D72E07AD872D4
:10891000207B1873607B5873A07BCA4E9873308895
:10892000042318433080C84821260088B601430537
:1089300010463043002B08DAC44A11432180A0803E
:10894000019818210843207228E1C14B1B885E055D
:10895000C04B06D521208001014321801A43A2800B
:108960001CE1BD4E3678F60703D1BC4E3678F607CB
:1089700007D0BB4A11432180A08002200543A57285
:108980000CE1B848402500888607002E01DB060769
:108990001CD50126F6033243A280860705D5202682
:1089A0003243A28080221743A771020707D5A2791C
:1089B000EF2632400607F60F36013243A271194303
:1089C00029432180A18819432943A180A64A810611
:1089D000128810D5A188A54EA02731436646A180F4
:1089E0003E43E671960703D426881E432E43268015
:1089F00019432943A1809E4909884F06FF0FBC46B1
:108A00008E060F06F60FFF0F00970296002E04D178
:108A10006646002E01D1002F27D02688A7881E4346
:108A20001F43A7802E432680029F002F06D0914F20
:108A30003E432680059E80273E43A6706646002E54
:108A400008D026880127FF033E432680A6781027FA
:108A50003E43A670009E002E07D02688834F3E43DB
:108A60002680049EA0273E43E670460608D5A688C9
:108A70000127BF033E43A680E67920273E43E671E7
:108A8000C90508D521880126B60331432180E17844
:108A900020263143E1701106C90F03D02188994384
:108AA000A9432180012611077603082700291BDB33
:108AB0002188A288314319431A43294321802A433C
:108AC000A2806D4A1288D20B01D1C20506D5394366
:108AD000218001993022114339432172810503D548
:108AE000217A802211432172400506D52088202159
:108AF00030432080207A084320722078012803D94F
:108B000020884008400020802079012803D9A088CF
:108B100040084000A08059480088C00B0DD0208834
:108B200004211843284308432080A088802118434B
:108B3000A080039808432843607251480088C00B06
:108B400006D02088042108432080607A2843607280
:108B50000020FDF79FF80126B602002806D0607BB2
:108B60008021084360732088304320800120FDF776
:108B700091F8002805D0607B28436073208830433B
:108B800020800020FDF794F80028607B03D0384354
:108B90000421084301E0F32108406073A07A4106F4
:108BA00005D4C10903D1810601D4800703D52088EB
:108BB0000221084320802348042201889143018038
:108BC0003048A178427891432F4A2AD12F4BA1797E
:108BD0005D78A94325D1E1788578A94321D1E17950
:108BE0009B7899431DD1217AC378994319D1617A31
:108BF0000379994315D1A17A4379994311D1E17A47
:108C0000837999430DD1217BC379994309D1617B44
:108C1000037A9943090904D1A17B407A8143080969
:108C200003D011480188114302E00F4801889143A5
:108C3000018007B0F0BD00000002002018070020EE
:108C4000280700207A010020740100204828000035
:108C50007601002000080000100100201201002011
:108C6000420800001A0100201801002010400000F6
:108C700044010020208000002E0300200401002079
:108C8000020100208C0A002000020000960A002049
:108C900030B4334980200870324900200880888031
:108CA00088708871C870C871087248728872C872FA
:108CB0000873487388732C49022208808880887062
:108CC0008871C870C871087248728872C872087357
:108CD0004873887325496F2408678885C885088686
:108CE0004886C8864887888721495F238882C8824A
:108CF00008838883C883088448848884C884088556
:108D000048851C4948700A721B49672208801B4924
:108D100008801B4908801B4908801B4908801B49A3
:108D20004C708B70CA703F220A711D254D710A72FA
:108D30001749DF224C708B70CA70FF220A714A718A
:108D40000A721449154A08701349087100214B0032
:108D5000491CC9B2D0528029F9D330BC70470000F9
:108D60007201002018070020280700206406002058
:108D7000A4060020040700200C020020740100203B
:108D800076010020780100207A0100208C0A002062
:108D9000960A00200202002000020020A00A002003
:108DA00070B5FCF72DFB0D4D288803F017FB0C4C1C
:108DB000E080688803F012FB2081686803F00EFBF6
:108DC0006081A88CA081288D03F008FB2082E88CAC
:108DD000E081688D03F002FB608270BD64060020B4
:108DE000A406002070B5054D288803F0F7FA044C5E
:108DF000E080688803F0F2FA208170BD64060020EC
:108E0000A4060020F0B58BB000200890F348694616
:108E100000780874F24B05901888F4498607002200
:108E2000F04CF14DC9780291002E35DA02218843C9
:108E30001880EF488078217801236E18491C217032
:108E400033700299EB4B03291AD006DC002909D0B4
:108E5000012909D002297DD109E0042907D0FF2981
:108E600078D112E0195C21E2E349095C1EE2002896
:108E7000F8D01A28F6D02028F4D08B28F2D00EE2B1
:108E80000028EFD01A28EDD009E20028EAD0032804
:108E9000E8D01A28E6D002E2D84E31888F0507D5EF
:108EA000012040028143318003F0EAFF0BB0F0BDA6
:108EB0000021217001070DD5D1490A78002A05D07B
:108EC0000A7821786B18491C21701A70C44908224D
:108ED00090430880CB48CC4A00880690CB48138842
:108EE000807A0A90CA4ACB4803901088802684462C
:108EF00003980299028E0A9830430190002912D0FB
:108F0000012900D1F8E3022900D1F6E3032900D1B9
:108F1000F4E3042900D1F2E3FF29C7D10598002822
:108F200000D0EDE3C2E1BC4905984E8E6031099650
:108F3000972867D05DDC7C2865D044DC402863D06E
:108F400020DC3A2861D011DC19285FD007DC00282A
:108F500001D1FDE3A3E1012800D0C3E0C4E0202853
:108F600000D1F6E3302800D0BCE0C6E03B3805284D
:108F700000D3B7E002007A44127992189744D4DE05
:108F8000E6E8F40059286FD00FDC4F286DD006DCDE
:108F9000A24946286AD04A2800D0A3E050E15128CF
:108FA0006FD0552800D09DE061E19D4978280A786E
:108FB0009649097870D079286FD07A286ED07B28AE
:108FC00000D08FE092E17D381A2800D38AE00600B5
:108FD0007E443679B619B744F0EFEEEDECEB8585BB
:108FE00085EAE9E8E7E6E5E4E3E2E1E0DFDEDD8506
:108FF00085DCC32800D1FDE324DC98382B2800D37E
:1090000070E004E0B2E278E1B6E08BE073E00100EA
:109010007944097949188F44DFDEDEDEDEDEDE6565
:10902000DDDCDBDAD9D8D7D6D5D4D3D26565656592
:1090300065656565656565656565656565656565E0
:1090400028D1D100774EE128B6780296764EB678D0
:1090500072D025DCD82870D015DCCA2800D1F9E3FD
:1090600009DCC42803D1F6E30CE1F5E3E0E0C9280C
:1090700000D037E0F1E3CB2800D1EFE3CF2801D0D7
:1090800030E0E5E0EBE3DC286BD0DD286AD0DE28B9
:1090900069D0DF2803D025E0FFE00EE11FE1F7E310
:1090A000F02800D1F5E312DCE2380A2800D319E0F9
:1090B00042007A4492885200974463048C0414005E
:1090C000B804EE041400140014001400CB05F128B9
:1090D00000D1F1E3F52800D1EFE3F62800D1EDE36C
:1090E000FA2800D0EBE3EBE33D48008840052DD49F
:1090F0004E480178DAE0B021D8E0394A10884106BC
:1091000000D4D3E605212970012169700021A970DE
:10911000E97029716971062121704021884310800E
:109120000BB0F0BD9921C1E00A7920782B18401CC2
:1091300020701A704979B9E0F0E3ABE38A792078BE
:109140002B18401C20701A70C979AFE00021ADE0E7
:109150000A7A20782B18401C20701A70497AA5E0F2
:1091600002E09CE3ADE3C9E38A7A20782B18401C27
:1091700020701A70C97A99E00F20C00269460880F1
:10918000097820782A18401C2070117068464178B0
:109190008CE0DDE1CEE1BFE1B0E1A1E18EE17CE177
:1091A00072E163E158E14FE140E131E100E1D1E0FA
:1091B000C9E0C1E0B9E0B5E0ADE0A5E05CE3F5E20F
:1091C0009FE28DE280E273E266E259E24CE218E24D
:1091D0000BE202E2F6E1D9E1D6E1000066010020EF
:1091E000740100206E0100205404002000020020C1
:1091F0005405002048E1000848E2000876010020FC
:109200006A0100202E0300207A01002018070020A8
:1092100078010020A40600206406002092F80000D7
:1092200028070020540100204C010020720100207A
:109230000698000700D5F8E3F848694608804DE134
:109240000698000700D4F0E3F5486946088045E138
:10925000F4486A4600884005400D10801178207857
:109260002A18401C20701170684641781EE006984C
:10927000C00703D0EC4869460880B4E1EB48694672
:109280000880B0E10698C00703D0E9486946088025
:10929000A9E1E84869460880A5E1580706D5207885
:1092A0002918401C20700A700BB0F0BD20782A18D5
:1092B000401C207011700BB0F0BD580707D5DE4977
:1092C00020782B18401C20701A704978EEE7DB4A92
:1092D00020782B18401C207019705178E6E7580749
:1092E00001D5D54800E0D5488178DFE7580701D59A
:1092F000D14800E0D148C178D8E7580701D5CE4819
:1093000000E0CE48017AD1E7580701D5CA4800E00D
:10931000CA48417ACAE7580702D5C748817AC5E7E3
:109320000A99C3E7C548C17AC0E7580701D5C248C2
:1093300000E0C248017BB9E7580701D5BE4800E00C
:10934000BE48417BB2E7580701D5BB4800E0BB48A7
:10935000817BABE7D807BA4815D0803001886A46D0
:10936000118006212970117869705178A970017AED
:10937000E97001792971417969718079A8710720B3
:1093800020700BB0F0BD406F6A4610800620287038
:10939000107868705078A870087FE870087E28718F
:1093A000487E6871887EA871072020700BB0F0BDE0
:1093B0009807A34816D58030018B6A461180062194
:1093C0002970117869705178A9709E490978E970FF
:1093D000017F2971417F6971807FA871072020700A
:1093E0000BB0F0BD803081896A461180062129705A
:1093F000117869705178A970017DE970017C29713B
:10940000417C6971807CA871072020700BB0F0BD91
:109410008D480088400500D5FEE36046C00700D0B7
:10942000FBE387486946808D088057E086480088BE
:10943000400500D5F0E36046800700D5EDE38048A5
:109440006946C08D088049E0D80500D5E5E303985A
:1094500069464088088041E07B480088400500D587
:10946000DAE36046000700D5D7E3A1E37648008839
:10947000400500D5D0E36046C00600D5CDE3704876
:109480006946C08E088029E06046C00500D5C4E367
:1094900003986946808A088020E06B480088400570
:1094A000604603D5C00500D5B7E3F1E7800500D5D8
:1094B000B3E303986946C08A08800FE062480088D9
:1094C0004005604603D5C00500D5A6E3E0E74005AA
:1094D00000D5A2E303986946008B08806846FCE348
:1094E00059480088400500D596E36046C00400D581
:1094F00093E303986946808B0880EFE75248008821
:10950000400500D588E36046800400D585E30398D4
:109510006946C08B0880E1E74B480088400500D5CC
:109520007AE36046400400D577E303986946008CEF
:109530000880D3E744480088400500D56CE36046C6
:10954000C00B00D069E303986946408C0880C5E7EA
:109550003D480088400500D55EE36046000600D522
:109560005BE337486946408F0880B7E73648008894
:10957000400500D550E36046400700D54DE3304834
:109580006946008E0880A9E722218FE60598304FB2
:10959000010141182D480B18D819C17D102900D997
:1095A000102108981818C019C27D20782E18401C68
:1095B000207032700898401CC0B208908842F0D9E0
:1095C0000BB0F0BD0698C00703D02248694608805A
:1095D00009E021486946088005E00698C007F4D1F3
:1095E0001E48694608800846F8E31D486946088019
:1095F000097820782A18401C20701170684641783C
:1096000054E6184869460880097820782A18401CD2
:10961000207011706846417848E60000B1F80000FB
:109620009BF800004201002034FB00006CFA0000AF
:109630006CF90000A0F8000028070020180700209F
:10964000640600200407002074010020EE030020BF
:10965000C0F5FFFF20FB0000B4F8000010FA000086
:109660005CF00000F4190000FE48694608800978A3
:1096700020782A18401C207011706846417815E641
:10968000F94869460880097820782A18401C20701B
:1096900011706846417809E6F448694608800978FF
:1096A00020782A18401C2070117068464178FDE52A
:1096B000EF4869460880097820782A18401C2070F5
:1096C000117068464178F1E53220694608800978D2
:1096D00020782A18401C2070117068464178E5E512
:1096E000002069460880097820782A18401C2070DC
:1096F000117068464178D9E512E3DAE3DAE3DAE398
:109700008DE220780E212A18401C207011702078DC
:10971000E6212A18401C207011702078F8212A18A0
:10972000401C20701170207890222E18401C207050
:109730003270207801222E18401C20703270207860
:10974000B4222E18401C2070327020782A1801E0B4
:1097500030E35AE3401C207011702078F4222E1858
:10976000401C20703270207809232E18401C207075
:1097700033702078BC232E18401C20703370207862
:109780002B18401C2070197020782B18401C20705A
:109790001A70207811222B18401C20701A70207823
:1097A000B6222B18401C20701A707FE520780E22FC
:1097B0002B18401C20701A702078CC222B18401CCB
:1097C00020701A702078F9222B18401C20701A7013
:1097D000207890222B18401C20701A7020780922C3
:1097E0002B18401C20701A702078BC232A18401CAB
:1097F000207000E094E113702078F8222918401CB2
:1098000020700A702078F4212E18401C20703170CE
:10981000207811262F18401C20703E702078C0261A
:109820002F18401C20703E7020782E18401C20708D
:10983000327020782E18401C207031702078192149
:109840002E18401C2070317020782918401C207080
:109850000B7024E59BE180E102E0ADE1E3E1A0E1F2
:10986000462069460880097820782A18401C207014
:1098700011706846417819E57D20694608800978AD
:1098800020782A18401C20701170684641780DE538
:1098900045E0FBE1774801786846017706E52078E6
:1098A000FC212A18401C2070117020782818FAF723
:1098B000E7FE2078001F2EE02BE21BE2FDE1ADE188
:1098C00021E1FAF7B3FE217804226B18491C2170BC
:1098D0001A7021786A18491C2170107001040A0E50
:1098E00021786B18491C21701A7001020A0E217828
:1098F0006B18491C21701A70010ED7E420782821BA
:109900002A18401C20701170207800212818FAF7BE
:10991000C7FF2078283020700BB0F0BD08E0FAF7C0
:1099200077FE21786A18491C217010700BB0F0BDC9
:10993000207806212A18401C207011704E4B207888
:1099400019782A18401C20701170597820782A182C
:10995000401C20701170494B207819782A18401C3F
:1099600020701170597820782A18401C20701170CE
:10997000434A207811782B18401C207019705178B8
:1099800094E4207806212A18401C207011703D4B69
:10999000207819782A18401C207011705978207886
:1099A0002A18401C20701170374B207819782A181B
:1099B000401C20701170597820782A18401C2070A3
:1099C0001170324A207811782B18401C20701970C1
:1099D00051786BE46046000513D5207803222B18DC
:1099E000401C20701A700A7C20782B18401C2070B4
:1099F0001A704A7C20782B18401C20701A70897CC1
:109A000054E4207803222B18401C20701A700A7B23
:109A100020782B18401C20701A704A7B20782B1855
:109A2000401C20701A70897B40E48CE1980535D485
:109A3000207804212A18401C2070117014482178C5
:109A4000027B6B18491C21701A70427B21786B18BD
:109A5000491C21701A70827B21786B18491C217077
:109A60001A7017E0B36A00003D6F000094F8000020
:109A7000E8130000FF0000206001002058010020D2
:109A8000500100205C010020540100204C01002006
:109A900004070020C17B09E4580519D52078042269
:109AA0002B18401C20701A700A7C20782B18401C40
:109AB00020701A704A7C20782B18401C20701A7075
:109AC0008A7C20782B18401C20701A70C97C05E411
