:020000040800F2
:08000000F0100020E5400008AB
:020000040800F2
:1040000045434431363032303130373058585858C3
:1040100030150020E5400008ED400008EF400008A2
:104020000000000000000000000000000000000090
:10403000000000000000000000000000F140000847
:104040000000000000000000F3400008F5400008F8
:10405000F7400008F7400008F7400008F740000864
:10406000F7400008F7400008F7400008F740000854
:10407000F7400008F7400008F7400008F740000844
:10408000F7400008F7400008F7400008F740000834
:10409000F7400008F740000800000000F740000863
:1040A000F7400008F7400008F7400008F56C0008EA
:1040B000F7400008F7400008F740000801E6000854
:1040C0002DE6000800000000F74000080000000096
:1040D0000348854600F03EF80048004747E80008DE
:1040E000301500200448804704480047FEE7FEE7FB
:1040F000FEE7FEE7FEE7FEE74DC90008D1400008F5
:1041000030B50B46014600202022012409E00D466F
:10411000D5409D4205D31D469540491B25469540F7
:1041200040191546521E002DF1DC30BD70B500243B
:104130002546002801DA01244042002901DA012540
:104140004942FFF7DDFFAC4200D04042002C00D0D6
:10415000494270BD064C0125064E05E0E36807CCD8
:104160002B430C3C98471034B442F7D3FFF7B4FF0D
:10417000681C0108881C010870B58C180578401C63
:104180006B075B0F01D10378401C2A1106D102781E
:10419000401C03E006780E70401C491C5B1EF9D1E0
:1041A0002B0705D40023521E0DD40B70491CFAE7CF
:1041B0000378401CCB1A921C03E01D780D70491C3B
:1041C0005B1C521EF9D5A142D8D3002070BD10B59A
:1041D0000B460021846A1C43846200BF0C461443D2
:1041E0002146416110BD002904D0826801231A4391
:1041F000826003E0826802231A43826070470029CC
:1042000004D0C26801231A43C26003E0C2685208A6
:104210005200C2607047C26802239A43C260C268FB
:104220000A43C2607047000010B504460548844246
:1042300007D10121401507F037FD0021601507F077
:1042400033FD10BD0024014030B50146002000229E
:1042500000238C680125ED072C438C6000BF8C681F
:10426000E30FDB07521C0F242403A24201D0002BD2
:10427000F5D18C68E40FE407002C01D1086C00E054
:10428000002030BD30B50246002000230124240662
:104290000C40002C05D0946801252D06AC43234624
:1042A00000E013681C460C40002C01D0012000E007
:1042B000002030BD10B50022C268084B1A400C79AE
:1042C00064030B6823438C682343CC6823430C6945
:1042D00023434C6923431A43C26010BD03D2FFFF3E
:1042E00081680422114381607047002101600171DF
:1042F0008160C160016141617047000010B592B0FA
:104300003348FFF791FF0121084607F09DFC01218A
:10431000480207F0B9FC2F4801F076F92C484030EC
:1043200001902D480290002003900420049000206A
:104330000590802006904000079080000890202083
:10434000099000020A9000200B9001A9214801F079
:104350000DFA01211F4801F049F902211C48FFF71D
:104360005AFF0CA8FFF7C1FF00200C90012008A9FC
:10437000087500200E90109011900CA91448FFF7BA
:1043800099FF00240AE0E000144BC0184268E000E6
:1043900019580F48FFF71BFF601CC4B2042CF2DB56
:1043A0000B48FFF751FF01210948FFF71CFF00BF31
:1043B0000B490748FFF766FF0028F9D00448FFF7CC
:1043C0008FFF01210248FFF71AFF12B010BD000055
:1043D00000240140080002400C010020900E01085A
:1043E000010000014200024B9A5A0A807047000007
:1043F0000C01002002480088C005C00F7047000073
:104400006C010020024800884005C00F7047000082
:10441000E201002010B5002001F00EFE002804D1BA
:10442000012001F009FE002801D0012010BD00206C
:10443000FCE700000A48C078C00900280DD00948F0
:1044400000780006C00F002807D005480078400615
:10445000C00F002801D0012070470020FCE70000B9
:10446000AC0900206E01002002480088C005C00F82
:10447000704700006E01002007480088C005C00F8B
:10448000002807D0054800884005C00F002801D14A
:10449000012070470020FCE76C010020E2010020B1
:1044A0000948407AC00900280CD008480088C00B91
:1044B000002807D0044800784006C00F002801D02B
:1044C000012070470020FCE7AC09002056010020C5
:1044D000034800788007C00F012148407047000062
:1044E0005C010020024800880004C00F70470000F3
:1044F00054010020F8B505460E461746002D04D09D
:10450000012D09D0022D15D10DE03A46314600208B
:1045100008F0C6F804460FE03A463146012008F09C
:10452000BFF8044608E03A463146022008F0B8F8E1
:10453000044601E0002400BF00BF2046F8BD70B56E
:1045400005460E46002D04D0012D08D0022D12D1B3
:104550000BE03146002008F031F904460DE0314609
:10456000012008F02BF9044607E03146022008F04C
:1045700025F9044601E0002400BF00BF204670BDBD
:1045800010B50446204603F0E1FE10BD10B5002032
:1045900008F0B2F910BD000001200B4908700B496A
:1045A00008700B4908700B4908700B4908700B49DB
:1045B00008700B4908700B4908700B4908700B49CB
:1045C00008700B4908707047180300201903002079
:1045D0001A0300201B0300201C0300201D030020E1
:1045E0001E0300201F0300202003002021030020C1
:1045F0002203002010B5FFF737FF012801D12C4915
:104600000870FFF731FF002815D1294800780128EC
:1046100011D12848008828490988884205DA2648A7
:104620000088401C2449088005E0002020490870CB
:10463000012022490870FFF7EDFE012801D1204931
:104640000870FFF7E7FE002813D11D480078012805
:104650000FD1184800880A2805D216480088401C47
:104660001449088005E0002015490870012015490B
:104670000870FFF737FF012801D113490870FFF7D1
:1046800031FF002813D11048007801280FD10F48BE
:1046900000880A2805D20D480088401C0B49088074
:1046A00005E000200649087001200949087010BD86
:1046B0003B030020400300203C0300201B0300209C
:1046C0003E0300201F03002042030020440300207B
:1046D0002103002007480078401CC0B2054908703B
:1046E0000A2806DB0020087003480068401C0249C5
:1046F000086070473A0300202803002070B50120AD
:104700001749087017490870174908701749087049
:104710001749087017490870174908701749087039
:104720001749087017490870174908701749087029
:104730001749087017490870174908701749087019
:104740000020FFF71DFF054600242146284603F000
:104750000FFE00BF012212490220FFF7CBFE70BD01
:1047600018030020190300201A0300201B03002057
:104770001C0300201D0300201E0300201F03002037
:104780002003002021030020220300202303002017
:1047900024030020250300202603002030030020EE
:1047A0002703002010B510480078C007C00F00286C
:1047B00003D0FFF727FE002800D010BDFFF71AFE38
:1047C000002802D001200949087008480078012813
:1047D00008D1FFF70FFE002804D10BF02BF80020C2
:1047E0000249087000BFE8E72703002037030020D4
:1047F00010B510480078C007C00F002803D0FFF79D
:1048000001FE002800D010BDFFF762FE002802D094
:1048100001200949087008480078012808D1FFF7ED
:1048200057FE002804D10BF02DF800200249087033
:1048300000BFE8E7270300203603002070B50024FE
:10484000002514480BF006FB00BF04E000201149CE
:104850000855601CC4B2302CF8DB0E490120FFF76C
:104860006EFE012513E02A460A490020FFF742FEAA
:10487000002404E0002007490855601CC4B2292C1C
:10488000F8DB04490020FFF75AFE681CC5B2052D6D
:10489000E9DD70BD0011002070B505460E4600240C
:1048A000002E0CD10E480BF0D5FA00BF04E00C48E6
:1048B000005D2855601CC4B2282CF8DB0FE00848C6
:1048C0000BF0C8FA002404E0285D05490855601C77
:1048D000C4B2282CF8DB02490120FFF730FE70BD7E
:1048E0000011002010B500241F480078C007C00F39
:1048F000002803D0FFF786FD002800D010BDFFF789
:10490000E7FD00282ED119480088401C80B21749C5
:1049100008804B21C900884224DB0020134908800D
:1049200013480BF097FA12482030C07A010410485F
:104930002030807A000209180D482030407A0C1887
:10494000641C0B48203044722002C1B20848203059
:1049500081722004C1B206482030C172044901208E
:10496000FFF7EDFD00BFC9E7270300203803002053
:104970000011002070B5FE480088401C80B2FC4940
:104980000880C82800D270BDC820F9490880F948BD
:104990000078C007C00F002839D0FFF733FD00288A
:1049A00035D100BFF4488078C00900280DD0F24806
:1049B00000784006C00F002807D0F0480078800635
:1049C000C00F002801D0012000E0002000281FD0E7
:1049D000EB48007801281BD10020E9490870FFF757
:1049E000D5FD84B22246E7490020FFF783FD01216F
:1049F00005200AF0CBF90028D2D10AF06BFF012183
:104A000005200BF03BFDDF490020FFF798FDC2E2D7
:104A100000BFD9488078C006C00F00280DD0D64806
:104A200000784006C00F002807D0D4480078400620
:104A3000C00F002801D0012000E0002000281FD076
:104A4000D148007801281BD10020CF490870FFF71A
:104A50009DFD84B22246CB490020FFF74BFD01218A
:104A600003200AF093F90028D1D10AF033FF012185
:104A700003200BF003FDC3490020FFF760FD8AE22D
:104A8000FFF7D8FC00281FD0C048007801281BD1B0
:104A90000020BE490870FFF779FD84B22246B9496B
:104AA0000020FFF727FD002102200AF06FF90028FF
:104AB000ADD10AF00FFF002102200BF0DFFCB1495D
:104AC0000020FFF73CFD66E200BFAB48C0788006DF
:104AD000C00F002813D0A9480088C005C00F0028C7
:104AE0000DD0A54800884004C00F002807D0A24878
:104AF00000880005C00F002801D1012000E000203F
:104B0000002822D0A248007801281ED1FFF792FC8D
:104B100000281AD19E490870FFF738FD84B222465A
:104B200098490020FFF7E6FC002108200AF02EF942
:104B30000028A4D10AF0CEFE002108200BF09EFC34
:104B400090490020FFF7FBFC25E200BF8A48007A6D
:104B5000C006C00F00280DD08E480088C005C00FC9
:104B6000002807D0844800784006C00F002801D0F4
:104B7000012000E0002000281FD08748007801288D
:104B80001BD1002084490870FFF700FD84B2224643
:104B90007C490020FFF7AEFC002108460AF0F6F839
:104BA000002890D10AF096FE002108460BF066FC22
:104BB00074490020FFF7C3FCEDE100BF6E48007AA6
:104BC000C00900280DD0734800888005C00F002858
:104BD00007D0694800784006C00F002801D00120A6
:104BE00000E0002000281FD06C48007801281BD16D
:104BF00000206A490870FFF7C9FC84B22246614967
:104C00000020FFF777FC00210E200AF0BFF80028F3
:104C10009AD10AF05FFE00210E200BF02FFC5949BB
:104C20000020FFF78CFCB6E100BF5348407BC00971
:104C3000002804D0002001F0EFF900280AD14E48E6
:104C4000407B4006C00F002806D0012001F0E4F9A7
:104C5000002801D0012000E0002000281FD050488B
:104C6000007801281BD100204D490870FFF78EFC09
:104C700084B2224643490020FFF73CFC0021042077
:104C80000AF084F8002897D10AF024FE00210420BD
:104C90000BF0F4FB3B490020FFF751FC7BE1FFF7F1
:104CA000FFFB00281FD03F48007801281BD10020BF
:104CB0003C490870FFF76AFC84B222463149002063
:104CC000FFF718FC012108460AF060F80028AAD175
:104CD0000AF000FE012108460BF0D0FB2949002014
:104CE000FFF72DFC57E100BF2348407A4006C00F74
:104CF000002806D02C480088C00B002801D00120D5
:104D000000E00020002822D02848007801281ED189
:104D1000FFF7C6FB00281AD124490870FFF736FCBC
:104D200084B2224617490020FFF7E4FB0121072047
:104D30000AF02CF80028B1D10AF0CCFD012107209F
:104D40000BF09CFB0F490020FFF7F9FB23E100BFAC
:104D5000094800788007C00F002845D01448007823
:104D6000012841D1FFF788FB00283DD1104921E0FF
:104D70003203002027030020AC0900206E01002030
:104D80001803002000110020190300201A0300203E
:104D90001B0300206C0100201D0300201C030020C9
:104DA0001F030020200300205401002021030020C5
:104DB000220300200870FFF7E9FB84B222469049E5
:104DC0000020FFF797FB0121032009F0DFFF0028F7
:104DD00088D10AF07FFD012103200BF04FFB8849A9
:104DE0000020FFF7ACFBD6E000BF86488079C00901
:104DF00000280DD0834800784006C00F002807D057
:104E0000814800788007C00F002801D0012000E011
:104E1000002000281FD07D48007801281BD10020E9
:104E20007A490870FFF7B2FB84B222467449002029
:104E3000FFF760FB00210A2009F0A8FF002809D134
:104E40000AF048FD00210A200BF018FB6C490020F5
:104E5000FFF775FB9FE000BF6A48C079C0090028D2
:104E60000DD0694800788006C00F002807D065483B
:104E700000784006C00F002801D0012000E000208B
:104E800000281FD06248007801281BD1002060490B
:104E90000870FFF77BFB84B2224659490020FFF7D8
:104EA00029FB01210B2009F071FF002873D10AF0C2
:104EB00011FD01210B200BF0E1FA51490020FFF711
:104EC0003EFB68E000BF4F488079C006C00F002855
:104ED0000DD04C4800784006C00F002807D04A4843
:104EE00000780007C00F002801D0012000E000205A
:104EF00000281FD04748007801281BD100204549D1
:104F00000870FFF743FB84B222463D490020FFF7BB
:104F1000F1FA00210C2009F039FF00283BD10AF0FA
:104F2000D9FC00210C200BF0A9FA35490020FFF72D
:104F300006FB30E000BF38488078C007C00F00286B
:104F400007D0304800784006C00F002801D001206B
:104F500000E0002000281ED03048007801281AD137
:104F600000202E490870FFF711FB84B22246244925
:104F70000020FFF7BFFA01210D2009F007FF0028EC
:104F800009D10AF0A7FC01210C200BF077FA1C498B
:104F90000020FFF7D4FAFFF76FFA00281ED0204850
:104FA000007801281AD11F480078002805D1012077
:104FB0001C49087000201C4908801B4800880A28EA
:104FC0000CDB002016490870FFF7DAFA05460024CA
:104FD0002146284603F020FA00BF00BF124800888F
:104FE000401C80B210490880FF21F531884204DD61
:104FF00000200C4908700C49088000BFC3E4000081
:1050000000110020AC0900206C01002023030020C7
:105010002403002025030020C405002026030020CF
:105020001E030020300300203403002010B5044686
:10503000002C01D0012C01D1034804700249022048
:10504000FFF77DFA10BD000027030020014908602A
:105050007047000028030020002008E000218200A3
:105060000B4B995042000B4B9952411CC8B2092876
:10507000F4DB002008E000218200074B9950420039
:10508000064B9952411CC8B20928F4DB7047000056
:10509000480300206C03002080030020A4030020AC
:1050A00010B500240EE01949204600F073F8A00066
:1050B00017490858154909884018A100144A50504A
:1050C000601CC4B2092CEEDB12480088401C114958
:1050D00008800846008801218902884214D10024F2
:1050E0000DE0A0000A4908588001000C61000A4A3E
:1050F00050520020A100064A5050601CC4B2092C36
:10510000EFDB00200349088010BD00001A010020D9
:105110008003002018010020A403002010B5002403
:105120000EE01849204600F035F8A000164908584E
:10513000144909884018A100134A5050601CC4B299
:10514000092CEEDB11480088401C104908800846F5
:105150000088402814D100240DE0A0000A49085816
:105160008002000C61000A4A50520020A100064A49
:105170005050601CC4B2092CEFDB002003490880AA
:1051800010BD00001601002048030020140100207B
:105190006C03002070B505460C462B0009F036FB69
:1051A0000906101A25292D33373B410021460220DC
:1051B000FFF718F920881D494843000B208033E091
:1051C00021460120FFF70EF9208818494843000BBB
:1051D000208029E021460320FFF704F920881449A4
:1051E00048430001000C20801EE012480088208007
:1051F0001AE010484088208016E00E4840684002BF
:10520000000C208010E00B48008920800CE0094849
:10521000008A208008E0074840694002000C208096
:1052200002E000BF00BF00BF00BF70BD4F0600001E
:10523000A7110000F808002001460022092903DA1E
:105240004800044B1A5A02E000BF00BF00BF90B2F2
:1052500070470000A403002001460022092903DA58
:105260004800044B1A5A02E000BF00BF00BF90B2D2
:10527000704700006C030020024800788007C00FD0
:1052800070470000C40500200149098A0180704769
:10529000E605002070B504460D462946204600F07C
:1052A00099F970BDF8B56846FFF7EEFF002411E0EC
:1052B00068460188E200224810188088814207DA97
:1052C000E1001F48455EE10008180226865F03E002
:1052D000601CC4B2032CEBDB00BFA8B201B2194AB8
:1052E000118000BFB0B201B2174A118000BF6846FA
:1052F00016498989018000BF002413E068460188AF
:10530000E2000F48083810188088814208DAE1006E
:105310000B480838455EE10008180226865F03E066
:10532000601CC4B2012CE9DB00BFA8B201B2084A7C
:10533000118000BFB0B201B2064A118000BFF8BDB3
:10534000340600200602002008020020E6050020A6
:10535000020200200402002010B5284C2146012042
:10536000FFF740F8208826494843000B208000BF03
:10537000244A01212046008809F0C4FB2146088008
:1053800009888904080C2049088000BF00BF214615
:105390000220FFF727F8208819494843000B208096
:1053A00000BF184A01212046008809F0ABFB2146C6
:1053B000088009888904080C1449088000BF00BFD0
:1053C00021460320FFF70EF82088114948430001C9
:1053D000000C208000BF0B4808301021415E2046A1
:1053E00000884143012000030818C000000C21463A
:1053F000088008880749088000BF10BD26020020E9
:105400004F0600004C060020F4010020F6010020A9
:10541000A7110000F801002010B52D480078C00742
:10542000C00F002819D02B4A917850780AF0A0F8C4
:10543000274800788007C00F002807D00AF0FEFD3B
:1054400023480078022188432149087020480078C9
:10545000400840001E49087038E01F4800780300EB
:1054600009F0D4F907050B11171D23292F0009F0A6
:1054700077FE01201849087027E009F0C3FD0220DB
:105480001549087021E009F017FE03201249087041
:105490001BE009F013FE04200F49087015E009F025
:1054A00077FE05200C4908700FE009F047FE062042
:1054B0000949087000BF09F093FD002006490870F3
:1054C00003E000200449087000BF00BF10BD0000C9
:1054D000DE010020EA08002024020020F8B50024A4
:1054E0006846FFF7D1FE00BF13E068460188E2007E
:1054F0000E4810188088814209DAE1000B48405AB2
:1055000086B2E100094808180225455F03E0601CE7
:10551000C4B2032CE9DB00BF00BF0548068000BF12
:1055200000BF0448058000BFF8BD00006C060020E5
:105530007E0100208001002010B509F0BFFD10BDE4
:1055400010B50AF0E7FF184A012108020AF02EFB05
:10555000154A08320221FF2021300AF027FB124AA7
:1055600028320121FF20A1300AF020FB0E4A303200
:105570000321FF20C1300AF019FB0B4A48320121F8
:1055800048020AF013FB084A50320321112040015F
:105590000AF00CFB044A68320321132040010AF090
:1055A00005FB09F02FFC10BD0406002010B507F024
:1055B000CDF910BD10B50246104603464B401B0600
:1055C000DB0D034CE35A04126340184610BD000083
:1055D000A812010802461046484002460148805C75
:1055E00070470000A811010870470000002904D08E
:1055F000026801231A43026003E00268014B1A406B
:1056000002607047FEFF00000168554A11400160CA
:105610000021016041608160C1605249884208D127
:105620005049083949680F2211434E4A083A5160DF
:1056300094E04C491431884208D14A4908394968F4
:10564000F0221143474A083A516087E04549283122
:10565000884209D14349083949680F22120211438F
:10566000404A083A516079E03E493C31884209D1CC
:105670003C49083949680F2212031143394A083A54
:1056800051606BE037495031884209D135490839BA
:1056900049680F2212041143324A083A51605DE012
:1056A00030496431884209D12E49083949680F22AE
:1056B000120511432B4A083A51604FE029497831CD
:1056C000884209D12749083949680F221206114337
:1056D000244A083A516041E02349884208D12249CE
:1056E000083949680F2211431F4A083A516035E0D2
:1056F0001D491431884208D11B4908394968F022F4
:105700001143194A083A516028E017492831884264
:1057100009D11549083949680F2212021143124A6A
:10572000083A51601AE010493C31884209D10E49CB
:10573000083949680F22120311430B4A083A516095
:105740000CE009495031884208D1074908394968B5
:105750000F2212041143044A083A516070470000B6
:10576000FEFF0000080002400804024010B50022BD
:1057700002680D4B1A400C6A8B6823430C69234363
:105780004C6923438C692343CC6923434C6A2343EC
:105790008C6A23431A430260CB6843600B688360C2
:1057A0004B68C36010BD00000F80FFFFF7B582B0EB
:1057B000064600250027002400200190FF210498C0
:1057C000FEF7B4FC0746FF210498FEF7AFFC0D4638
:1057D00001204003002302220090A7480188A74827
:1057E00001F0C4FD05204003A54908600AE0A44972
:1057F0000868411EA24A1160002803D109F0C4FACA
:1058000005B0F0BD02219D4801F034FD0028EED026
:10581000FF221202039810400112984801F08CFDFB
:10582000052040039649086009E095490868411E33
:10583000934A1160002802D109F0A6FAE0E702219C
:105840008E4801F017FD0028EFD00398C1B28B48B5
:1058500001F072FD052040038949086009E088498C
:105860000868411E864A1160002802D109F08CFAAE
:10587000C6E74021814801F0FDFC0028EFD0002F51
:105880007BD0012001906FE00198002814D1052001
:1058900040037B49086009E079490868411E784A5D
:1058A0001160002802D109F06FFAA9E7802173483E
:1058B00001F0E0FC0028EFD0012F1AD1002D18D103
:1058C000019800280AD0092080027B06FF22009060
:1058D00069480188694801F049FD23E0002001235F
:1058E0005B06FF22009064480188644801F03EFD99
:1058F00018E0019800280BD00920800201231B0624
:10590000FF2200905C4801885C4801F02FFD09E00F
:10591000002001231B06FF220090574801885748AA
:1059200001F024FD00200190002419E0052040032F
:105930005349086009E052490868411E504A116005
:10594000002802D109F020FA5AE704214B4801F05F
:1059500091FC0028EFD0494801F0EAFC3055641C66
:10596000FF2CE3D136197F1E002F8DD1002D67D07B
:1059700005204003424908600AE038E040490868D1
:10598000411E3F4A1160002802D109F0FDF937E7B6
:1059900080213A4801F06EFC0028EFD00020EAB2E6
:1059A00001235B06009034480188344801F0DEFC96
:1059B000002419E0052040033149086009E030491E
:1059C0000868411E2E4A1160002802D109F0DCF956
:1059D00016E70421294801F04DFC0028EFD02748A4
:1059E00001F0A6FC3055641CAC42E3D128E009204C
:1059F0008002EAB201235B0600901F4801881F481D
:105A000001F0B4FC002419E0052040031C490860A3
:105A100009E01B490868411E194A1160002802D19B
:105A200009F0B2F9ECE60421144801F023FC002847
:105A3000EFD0124801F07CFC3055641CAC42E3D13D
:105A4000052040030E49086009E00D490868411E21
:105A50000B4A1160002802D109F096F9D0E6202106
:105A6000064801F007FC0028EFD02021034801F090
:105A7000E3FB0020C4E600001C01002000580040A9
:105A8000200100201CB50020019001235B06024686
:105A9000009018480188184801F068FC00BF0120F8
:105AA0000003164908603021134801F0C5FB0121AD
:105AB000114801F0D1FB00BF10490868411E0F4A90
:105AC00011600028F8D10198411C0191FF212D316E
:105AD000884202D109F058F91CBD1021064801F096
:105AE000C9FB0028DBD12021034801F0A5FB0020E1
:105AF000F2E700001C0100200058004020010020B7
:105B0000F7B582B00E46144600200190002700250C
:105B100000903046F117490E0918C911C901711AD0
:105B200089B2009180210098081A85B22046E117B9
:105B3000490E09184902090C0191E117490E09188B
:105B4000C911C901611A8FB20098002850D101987B
:105B5000002814D17E4807800088C2B231460298DE
:105B600000F0FAF8002803D009F00EF905B0F0BDF6
:105B7000FFF788FF002879D009F006F9F6E71BE067
:105B800080207349088008460088C2B231460298D6
:105B900000F0E2F8002802D009F0F6F8E6E7FFF797
:105BA00071FF002802D009F0EFF8DFE730468030BF
:105BB00086B20298803002900198411E89B201910C
:105BC0000028DDD1002FD6D0614807800088C2B2FE
:105BD0003146029800F0C0F8002802D009F0D4F84D
:105BE000C4E7FFF74FFF0028C5D009F0CDF8BDE7A7
:105BF0000198002842D1AC422BDD55480580008831
:105C0000C2B23146029800F0A7F8002802D009F08D
:105C1000BBF8ABE7FFF736FF002802D009F0B4F875
:105C2000A4E7601B4A4908800B461B88DAB2731947
:105C300099B2029B581900F08FF8002802D009F0A1
:105C4000A3F893E7FFF71EFF00287ED009F09CF829
:105C50008CE73F4807800088C2B23146029800F0C6
:105C60007BF8002803D009F08FF87FE76DE0FFF79D
:105C700009FF002869D009F087F877E7601B84B234
:105C80002046E117490E0918C9110191E117490E83
:105C90000918C911C901611A8FB2002D18D02C48FA
:105CA00005800088C2B23146029800F055F80028FD
:105CB00002D009F069F859E7FFF7E4FE002802D0A6
:105CC00009F062F852E7701986B202984019029002
:105CD0001FE080201E49088008460088C2B2314675
:105CE000029800F039F8002802D009F04DF83DE79D
:105CF0000520400317490860FFF7C4FE002802D0C2
:105D000009F042F832E73046803086B2029880309F
:105D100002900198411E89B201910028D9D1002F2B
:105D200013D00B4807800088C2B23146029800F0B9
:105D300013F8002802D009F027F817E7FFF7A2FEB2
:105D4000002802D009F020F810E700200EE700003C
:105D50002401002020010020F8B506460C46174615
:105D6000002501204003C302022200904848018818
:105D7000484801F0FBFA052040034749086009E064
:105D800045490868411E444A1160002802D108F0C4
:105D9000FBFFF8BD02213F4801F06CFA0028EFD06C
:105DA000FF200002204001123A4801F0C5FA052008
:105DB00040033949086009E037490868411E364AFE
:105DC0001160002802D108F0DFFFE2E7022131482C
:105DD00001F050FA0028EFD0E1B22E4801F0ACFA01
:105DE000052040032C49086009E02B490868411E42
:105DF000294A1160002802D108F0C6FFC9E78021B6
:105E0000244801F037FA0028EFD0002001235B0678
:105E10003A4600901E4801881E4801F0A7FA19E092
:105E2000052040031C49086009E01B490868411E21
:105E3000194A1160002802D108F0A6FFA9E7022143
:105E4000144801F017FA0028EFD0715D114801F0F5
:105E500073FA6D1CBD42E3D1052040030E49086072
:105E600009E00D490868411E0B4A1160002802D163
:105E700008F08AFF8DE72021064801F0FBF9002891
:105E8000EFD02021034801F0D7F9002081E700007E
:105E90001C0100200058004020010020A0200149E2
:105EA000088070471C010020024800888005C00F50
:105EB00070470000E201002070B5044600F062F86F
:105EC00005461E3D00F063F84B38854204DD00F0C6
:105ED00059F805461E3D03E000F059F805464B3DD4
:105EE00000F05FF85538854212DD00F04BF80546AA
:105EF0001E3D00F04CF84B38854204DD00F042F8BE
:105F000005461E3D08E000F042F805464B3D03E023
:105F100000F047F80546553D00F03EF855388542FB
:105F20002BDD00F02FF805461E3D00F030F84B3811
:105F3000854204DD00F026F805461E3D03E000F032
:105F400026F805464B3D00F02CF85538854210DD0B
:105F500000F018F805461E3D00F019F84B38854250
:105F600003DD00F00FF81E380AE000F010F84B389F
:105F700006E000F016F8553802E000F00DF855384C
:105F8000206070BD10B5002006F04CFD10BD10B5AE
:105F9000012006F047FD10BD10B5032006F042FDBC
:105FA00010BD10B5022006F03DFD10BD10B5092052
:105FB00005F032F810BD10B5082005F02DF810BD21
:105FC00010B504467D20C000001B81B2002005F002
:105FD000E1FD10BD704700000146022905DA0E20E0
:105FE0004843034A8018808870470248FCE7000055
:105FF0002A100020FFFF00000146022905DA0E20CA
:106000004843034A8018408870470248FCE7000074
:106010002A100020FFFF00000146022907DA0E20A7
:106020004843044A8018007B8007C00F7047002057
:10603000FCE700002A1000200146022907DA0E20A2
:106040004843044A8018007BC007C00F70470020F7
:10605000FCE700002A10002010B502280FDA0E22FB
:106060004243074BD218127B02239A434B0002246F
:1060700023401A430E234343014C1B191A7310BDCE
:106080002A10002010B502280EDA0E224243074BD8
:10609000D218127B52085200CB07DB0F1A430E2393
:1060A0004343024C1B191A7310BD00002A10002034
:1060B00010B51B480088401C80B21949088005288B
:1060C0002DDB0020088008F0CDFB002425E000BF78
:1060D000144800780007C00F002803D0FF205F306D
:1060E0001149088000BF11480078C006C00F002881
:1060F0000AD00E2060430E4940180089002803D1C1
:10610000FF20F53008490880E0000A4A80184168FD
:10611000054800888847601CC4B2022CD7DB10BD3C
:106120009E020020E40100209A0200206A01002063
:106130002A100020FC19010852490978491C514ACB
:1061400011701146097831297ED10021117000208B
:1061500093E00E2141434C4A515A1E2251438AB2C8
:106160000E214143484BC9184A8000220E21414369
:106170005A5200BF454909788907C90F00297AD0CA
:1061800000BF43490978C906C90F002973D00E2101
:1061900041431A46891849887D221201914218DA32
:1061A0003C49095C14290FDD0E2141431A46891828
:1061B000097B49084900491C0E224243D218117339
:1061C0000021354A115404E03249095C491C314A26
:1061D00011540E2141432C4A891849882F4A914273
:1061E00019DA2F49095C142910DD0E214143264A92
:1061F0008918097B02229143891C0E224243224BBB
:10620000D21811730021244A115404E02449095C76
:10621000491C234A11540E2141431B4A89184988BD
:10622000204A914227DD1C49095C02291EDD0E210E
:106230004143154A8918097B490849000E22424307
:10624000114BD218117300E01AE00E2141431A4697
:106250008918097B022291430E224243D2181173FE
:1062600000210F4A11540B4A115404E00A49095CF9
:10627000491C094A1154411CC8B2022800DA68E7D7
:1062800070470000A60200202A100020C40500204C
:106290005C010020A2020020A4020020DC05000016
:1062A000A0020020AC0D000070B500245AE0E1000F
:1062B0002E4A50588047C0000821084005460E204D
:1062C00060432B494018007B0821884328430E2156
:1062D0006143274A891808730E206043114640180D
:1062E000007B0007C00F6100224A515A88422CD01F
:1062F00060002149085A02281FD30E2060431C4920
:10630000085A1E49884209D20E2060431849085A8B
:10631000401C81B20E206043154A115200206100DA
:10632000154A50520E20604311494018007B000767
:10633000C00F61000F4A505212E060000E49085A27
:10634000401C61000C4A50520AE060000A49085A99
:10635000002805DD6000085A401E6100064A5052C0
:10636000601CC4B2022CA2DB70BD0000FC19010845
:106370002A100020A8020020AC020020FFFF00002D
:10638000002047E000220E214143244B5A527D2237
:106390000E214143C9188A8000220E214143C918A9
:1063A0000A81CF2212010E214143C9184A800022DE
:1063B0000E214143C918CA800E2141431A4689184B
:1063C000097B490849000E224243D21811730E215D
:1063D00041431A468918097B022291430E22424307
:1063E000D21811730E2141431A468918097B0422E1
:1063F00091430E224243D21811730E2141431A4693
:106400008918097B082291430E224243D218117346
:10641000411CC8B20228B5DB704700002A100020DA
:1064200001490870704700009C020020022804DA2D
:106430000E224243014BD218118170472A100020CE
:1064400030B5044604250B20000400F0B1F80546E1
:10645000042D17D10C480069022108430A4908613C
:1064600008464461006940210843074908610B2040
:10647000000400F09DF805460348006902218843A6
:1064800001490861284630BD0020024004200D4922
:10649000C968C907C90F002901D0012010E00949C6
:1064A000C96810221140002901D0022008E00549E6
:1064B000C96804221140002901D0032000E0042013
:1064C0007047000000200240034800698021084313
:1064D00001490861704700000020024070B5044681
:1064E0000D4604260B20000400F062F80646042E38
:1064F00011D10A4800690121084308490861258033
:106500000B20000400F054F80646044800694008D7
:10651000400002490861304670BD00000020024082
:1065200078B506460C460425002000900B20000498
:1065300000F03EF80546042D24D1134800690121DE
:1065400008431149086134800B20000400F030F842
:106550000546042D10D1B01C0090200C0099088035
:106560000B20000400F024F80546074800694008A5
:1065700040000549086105E0034800694008400003
:1065800001490861284678BD00200240054800699D
:1065900080210840002804D003480249486003488D
:1065A000486070470020024023016745AB89EFCD6A
:1065B00010B503460424FFF769FF044603E0FFF724
:1065C00065FF04465B1E012C01D1002BF7D1002B87
:1065D00000D10524204610BD00B5024800F004F8A3
:1065E00000BD0000F83F000810B50146CA1C04E0D9
:1065F0000302147823431846521E9142F8D910BD65
:1066000070B504460025FFF7C1FF2046FFF718FFCD
:10661000042802D0FFF758FF0125FFF755FF284651
:1066200070BD70B504460D460026FFF7AFFF294642
:106630002046FFF753FF042803D0FFF745FF012052
:1066400070BDFFF741FF3046FAE770B504460D46CE
:106650000026FFF79BFF29462046FFF761FF04282D
:1066600003D0FFF731FF012070BDFFF72DFF30464B
:10667000FAE7704710B50C480C490860002408E0A0
:10668000A0000A4909680858A100094A5050601C36
:10669000C4B2302CF4DB0121084605F005FB0320D1
:1066A00005F0C8FF10BD0000104000082C010020BC
:1066B00000000020F0B50A4600210023002400BF9E
:1066C0003DE001258D402B4615681D402C469C421F
:1066D00034D11579012D02D01579022D16D1856896
:1066E0004F000326BE40B543856055794E00B54046
:1066F000866835438560858801268E40B543858050
:10670000858896798E40B6B23543858005684F00FE
:106710000326BE40B543056015794E00B5400668B6
:1067200035430560C5684F000326BE40B543C560CC
:10673000D5794E00B540C6683543C560491C10295F
:10674000BFD3F0BDF0B5002300244D07EE0E154673
:10675000B5402B46CD10AE0005462035AD594E074D
:10676000F70E0F26BE40B543CE10B60007462037C1
:10677000BD51CD10AE003D46AD591D432C46CD1048
:10678000AD003E467451F0BD02460020138A0B4016
:10679000002B01D0012000E0002070470549098846
:1067A00008229143C20008231A401143014A118074
:1067B000704700005C0100200549098820229143B0
:1067C000420120231A401143014A11807047000002
:1067D0005C01002005490988402291438201402341
:1067E0001A401143014A1180704700005C010020EB
:1067F0000449098849084900C207D20F1143014AD8
:10680000118070475C0100200549098802229143EC
:10681000420002231A401143014A118070470000D0
:106820005C0100200649098801225202914342027C
:1068300001235B021A401143014A11807047000096
:106840005E010020054909881022914302011023AE
:106850001A401143014A1180704700005C0100207A
:10686000024800780007C00F704700006A0100204E
:10687000024800780006C00F704700006A0100203F
:10688000024800888005C00F704700006A010020A0
:1068900002480088C005C00F704700006A01002050
:1068A000024800780007C00F70470000C4050020B0
:1068B00002480078C006C00F704700005C0100204D
:1068C0007047704710B500BF0D2004F0A5FB0028ED
:1068D00014D090480088642803DD0120FFF788FF6A
:1068E00008E08C480088642804DC8A480088401C42
:1068F0008849088000208849088013E0864800887D
:10690000032803DD0020FFF773FF08E082480088BA
:10691000032804DC80480088401C7F490880002050
:106920007C49088000BF0A2004F076FB012814D1BE
:106930007A480088032803DD0020FFF765FF08E0A0
:1069400076480088032804DC74480088401C73499A
:10695000088000207249088013E07148008864288C
:1069600003DD0120FFF750FF08E06D480088642830
:1069700004DC6B480088401C694908800020674996
:10698000088000BF0E2004F047FB00281FD0654898
:106990000078002803DD0120FFF700FF08E06148D0
:1069A0000078002804DC5F480078401C5D490870CE
:1069B00000205D49098880229143C20180231A404A
:1069C0001143594A118000BF5849087013E05748D5
:1069D0000078002803DD0020FFF7E0FE08E05348C0
:1069E0000078002804DC51480078401C4F490870AA
:1069F00000204C49087000BF1B2004F00DFB00284C
:106A000014D04B4800780A2803DD0120FFF71AFF55
:106A100008E0474800780A2804DC45480078401C14
:106A20004349087000204349087013E0414800784A
:106A3000022803DD0020FFF705FF08E03D4800784D
:106A4000022804DC3B480078401C3A4908700020CA
:106A50003749087000BF132004F0DEFA002814D074
:106A600035480078142803DD0120FFF7A5FE08E073
:106A700031480078142804DC2F480078401C2E4947
:106A8000087000202D49087013E02C480078142865
:106A900003DD0020FFF790FE08E028480078142866
:106AA00004DC26480078401C244908700020224954
:106AB000087000BF122004F0AFFA002814D020485C
:106AC0000078142803DD0120FFF784FE08E01C484D
:106AD0000078142804DC1A480078401C1849087013
:106AE00000201849087013E016480078142803DDC8
:106AF0000020FFF76FFE08E012480078142804DC3D
:106B000010480078401C0F49087000200C4908709C
:106B100010BD00004002002042020020440200207C
:106B200046020020480200206A010020490200209D
:106B30004A0200204B0200204C0200204D0200209F
:106B40004E0200204F02002010B5FFF7B1FE0028D2
:106B500005D0FFF785FE002801D0012100E00021CB
:106B6000624800888005C00F81421ED0FFF7A0FE5A
:106B7000002805D0FFF774FE002801D0012000E0B6
:106B80000020044621461C2004F020FB00BFFFF734
:106B90008FFE002805D0FFF763FE002801D00120FA
:106BA00000E000200446FFF73DFEFFF761FE4F497D
:106BB0000978C907C90F884215D0FFF759FE044666
:106BC00021460B2004F002FB00BFFFF751FE0446F4
:106BD0004648008840084000E107C90F0843434980
:106BE000088000BF00BFFFF74BFE404909788907C6
:106BF000C90F884216D0FFF743FE044621460C20F9
:106C000004F0E4FA00BFFFF73BFE04463748008873
:106C10000221884361000222114008433349088061
:106C200000BF00BFFFF734FE002808D000BF304887
:106C30000078C007C00F002801D1012100E0002129
:106C40002A4800784007C00F814233D0FFF720FE6A
:106C5000002808D000BF26480078C007C00F0028D1
:106C600001D1012000E000200446002C01D10120C8
:106C700000E0002001461A2004F0A8FA00BFFFF748
:106C800007FE002808D000BF19480078C007C00FD1
:106C9000002801D1012000E00020044613480088AC
:106CA00004218843A1000422114008430F490880B1
:106CB00000BF00BFFFF7F4FD0C4909884905C90F63
:106CC000884211D0FFF7E4FD0446002C01D10120D9
:106CD00000E000200146112004F078FA00BFFFF721
:106CE000DFFD0446FFF79EFD10BD00005E010020A1
:106CF0005C010020FEB5A148846900BF002000F0BF
:106D00004BFB00BF012080022040002807D000BFBD
:106D100001218902994800F091FA00BF2CE101207D
:106D200040022040002807D000BF012149029348BB
:106D300000F084FA00BF1FE1FF200130204000284E
:106D400007D000BFFF2101318C4800F077FA00BF67
:106D500012E110202040002806D000BF10218748F3
:106D600000F06CFA00BF07E185480078002810D1D8
:106D700000F074F9002000F06BF9002000F05CF9DD
:106D8000002000F053F9002000F05CF900207D495C
:106D900008700820204000285DD000BF08217748F7
:106DA00000F04CFA00BF00BF744800F071FA0028F0
:106DB0001BD0002000F052F900207249087000BF7B
:106DC00071480078002808D0704801787048007831
:106DD00000F05EF9054600F035F900BF03F09CFBBA
:106DE00000BF012066490870C6E000BF63488069A3
:106DF000012108436149886100BF6148007800288B
:106E000018D05F480078012807D05D480078022834
:106E100003D05B480078032804D1012000F0CAF8B1
:106E200000F078F9002000F019F9002055490870A9
:106E300000F00EF900BF54480078002807D05548EC
:106E40000178002000F024F9054600F0FBF802204C
:106E50004B49087090E004202040002841D000BF3A
:106E60004648406AC0B2054600BF4748007800283F
:106E700007D029464648007800F00AF9064600F097
:106E8000E1F802A800F0CCF83D480078022812D1C1
:106E90006846007AFF2823D23F496846007A0D549D
:106EA0006946097A491CC8B200F0D2F800BF02F066
:106EB00019FB00BF14E032480078032810D1A91C48
:106EC000C8B200F0B3F834486946097A45546946B7
:106ED000097A491CC8B200F0BBF8022028490870A2
:106EE0004AE002202040002846D001A82B4909781A
:106EF000017000BF6846007900282AD02148007838
:106F000069460979884224DC1E4800786946097977
:106F1000884213D100BF1C480078002809D0684679
:106F200000F078F8174801786846007800F0A2F879
:106F300004E014480178FF2000F09CF8114908781B
:106F400017490D5C00BF0F480078401C0D490870C0
:106F500000E0FF2500BF0948856200BF00BF0A4866
:106F60000078002807D029460948007800F090F8FA
:106F7000064600F067F800BFFEBD00000054004068
:106F800035020020300200203501002034020020AC
:106F9000DC01002032020020EA070020DB01002093
:106FA000EA060020024800888005C00F70470000F4
:106FB000CA01002006490988FF22013291430202DA
:106FC000FF2301331A401143014A1180704700002A
:106FD000CA010020064909880122920291438202D7
:106FE00001239B021A401143014A1180704700009F
:106FF000CA01002006490988012252029143420237
:1070000001235B021A401143014A118070470000BE
:10701000CA0100200149097801707047DC01002095
:107020000149097801707047D901002001490870B1
:1070300070470000D8010020014908707047000027
:10704000D70100200149087070470000DC010020D2
:107050000149087070470000D901002001490870FB
:1070600070470000DB0100200149087070470000F4
:10707000DA010020014A505470470000EA0600205F
:1070800010B52021014800F0F5F810BD0054004073
:1070900070B504460D4629462046FEF79BFA70BDA2
:1070A00010B5002404E0002016490855601CC4B245
:1070B000FF2CF8D3002405E021460020FFF7DAFF7B
:1070C000601CC4B2FF2CF7D30020FFF7BBFF0020E9
:1070D000FFF7CAFF0020FFF7C1FF0020FFF7B8FF4E
:1070E0000020FFF7A9FF0020FFF7A0FF00200649BE
:1070F0000870B0200549087008460078401C044913
:10710000087010BDEA070020300200203202002083
:10711000340200201FB5FFF7B3FF002806D100BFDF
:107120003F480088C005C00F002877D000203C49A8
:1071300009880122D2029143C2020123DB021A40D4
:107140001143374A118000BF00BF00F031F900BF82
:1071500003A8FFF765FF02A832490978017000BF54
:1071600001A8FFF757FF6846007B002841DD2E4845
:107170000078022803D02C480078032839D16846CB
:10718000017B007A814231D16846007900280ED116
:10719000FFF708FF012805D10020FFF72BFF012092
:1071A000FFF718FF00BF09F039FA00BF1EE0FFF734
:1071B000F9FE00281AD10120FFF71CFF0120FFF77C
:1071C00009FF684619490978017000BF0078FFF788
:1071D0004BFF01201649897A202291434201202346
:1071E0001A401143124A917200BF00BF0020FFF7FE
:1071F0002FFFFFF745FF002808D000BF20210D48D2
:1072000000F01AF800BF00200749087000BF0020F6
:1072100000F0E8F800BF0020FFF7CCFE1FBD000023
:10722000CA010020D801002035020020C40100203E
:10723000AC09002000540040C1617047C161704733
:10724000002904D0026801231A43026003E00268A7
:107250005208520002607047002905D0426801239D
:107260005B031A43426004E0426801235B039A43D4
:107270004260704710B502460023002093691C4607
:107280000C402346002B01D0012000E0002010BD5F
:1072900010B50146002200208B69012424042340FC
:1072A0001A46002A00D101E00120800210BD002A08
:1072B00003D003680B43036002E003688B43036061
:1072C0007047000010B50A46002103685B085B00A8
:1072D00003600168144B19409468240253682343E7
:1072E000194301600F2424061368A3430361036854
:1072F00001242343036000218160C1601469936904
:1073000023431946816083680124E4032343836097
:10731000D16803680B4303604168044B194053690B
:107320001943416010BD0000FFE0CF00FF7FFF0761
:107330000146486AC0B270478162704701684908D7
:107340004900016001680168012211430160704732
:10735000002905D0026801235B049A43026004E01F
:10736000026801235B041A4302607047F0B50C46C3
:1073700000214168074D2940A505AD0D1604FF27E2
:107380003F043E4035431D43059E3543294341603C
:10739000F0BD0000009800FC00214200024B995211
:1073A0004200024B99527047120200201602002040
:1073B00038B50446482060430949401840300179F7
:1073C00068460170482060430549401840304179C3
:1073D000684641700021817001F032FF38BD000025
:1073E000A814010838B504464820604309494018EC
:1073F00040300179684601704820604305494018D3
:1074000040304179684641700121817001F018FFD8
:1074100038BD0000A814010810B500203F490988B4
:1074200020229143420120231A4011433B4A1180FC
:1074300000BF00246EE04820604339494018806B4B
:10744000012865D1482262430B46D2189188482210
:1074500062439858FFF798F9002819D16000314924
:10746000095A482060432E4A8018C088814207DAB2
:1074700060002C49085A401C61002A4A50520BE017
:1074800000206100274A505201202749085503E097
:1074900000206100234A505248226243204BD218F8
:1074A000918948226243D2189068FFF76DF900284D
:1074B00019D160001D49095A48206043184A8018B4
:1074C000C089814207DA60001849085A401C6100EF
:1074D000164A50520BE000206100144A505201201D
:1074E0001149085503E000206100104A50520E482F
:1074F000005D01280CD148216143094A8918886937
:10750000FFF71CFF204608F019F90020064908552E
:10751000601CC4B2022C8EDB10BD0000CA0100202A
:10752000A8140108120200201002002016020020F8
:1075300038B500242DE0204608F000F948206043CB
:10754000154940182030007F012820D1482262438D
:107550000B46D218116C48226243D218906901225E
:10756000FFF7A5FE482060430B49401840300179E1
:10757000684601704820604307494018403041790F
:10758000684641700121817001F05AFE00BF601C05
:10759000C4B2022CCFDB38BDA81401080248007821
:1075A000C006C00F704700005C0100200248007850
:1075B0008007C00F70470000C40500200549897A84
:1075C00002229143420002231A401143014A917260
:1075D00070470000AC090020054909880422914346
:1075E000820004231A401143014A118070470000B1
:1075F0006201002006490988FF22013291430202FC
:10760000FF2301331A401143014A118070470000E3
:10761000620100200449098849084900C207D20FC5
:107620001143014A11807047620100200549098811
:1076300004229143820004231A401143014A11801D
:107640007047000064010020044909884908490086
:10765000C207D20F1143014A118070476401002014
:107660000549098880229143C20180231A401143B1
:10767000014A1180704700006E010020F0B591B002
:10768000044615462846691C8DB2265C2846691CAE
:107690008DB2215C684601722846691C8DB2215C5E
:1076A000684641722846691C8DB2215C6846817229
:1076B0002846691C8DB2215C684601712846691C08
:1076C0008DB2215C684641712846691C8DB2215CEF
:1076D000684681712846691C8DB2215C10A8017032
:1076E0002846691C8DB2215C10A841702846691C8F
:1076F0008DB2215C08A801772846691C8DB2215CF7
:1077000008A841772846691C8DB2215C0E91284655
:10771000691C8DB2215C08A801752846691C8DB2D0
:10772000215C08A841752846691C8DB2215C08A817
:1077300001742846691C8DB2215C08A84174284652
:10774000691C8DB2215C08A801732846691C8DB2A2
:10775000215C08A841732846691C8DB2215C08A8E9
:1077600001722846691C8DB2215C08A84172284626
:10777000691C8DB2215C08A801712846691C8DB274
:10778000215C08A841712846691C8DB2215C08A8BB
:1077900001702846691C8DB2215C08A841702846FA
:1077A000691C8DB2215C684601772846691C8DB240
:1077B000215C684641772846691C8DB2215C684689
:1077C00001762846691C8DB2215C684641762846C0
:1077D000691C8DB2215C684601752846691C8DB212
:1077E000215C684641752846691C8DB2215C68465B
:1077F00001742846691C8DB2215C68464174284694
:10780000691C8DB2215C684601732846691C8DB2E3
:10781000215C6846417330466B49487000BF00BF29
:107820006A48076800BF00BF69480068009000BF51
:107830000298B84203D101990098814214D002986D
:107840006249086000BF01986149086000BF0120DB
:107850006049098802229143420002231A401143E1
:107860005C4A118000BF00BF00BF5B480088C004B5
:10787000C00F00281BD100BF534820384088400467
:10788000C00F002813D001205349098842039143B7
:10789000420343031A4011434F4A118000BF694617
:1078A0000C20085E48492039C88300BF00BF10A9DA
:1078B000088845492039088000BF6946888F4249B9
:1078C0002039488000BF08A9087E3F49087000BFE2
:1078D0006946888E3C492039888000BF6946088EF9
:1078E00039492039C88000BF6946888D364920391A
:1078F000088100BF6946088D33492039488100BF9F
:107900006946888C30492039888100BF6946088CD7
:107910002D492039C88100BF6946888B2A49203902
:10792000088200BF6946088B27492039488200BF7A
:107930006946888A24492039488300BF6946088AF5
:1079400021492039888300BF6946098AC80164211A
:10795000FCF7D6FB80B204906946088A1F498880EC
:1079600000BF00BF1849203909880904C80F00BFAB
:107970001B49098804229143820004231A401143C1
:10798000174A118000BF00BF0F4920390978090745
:10799000C80F00BF1146098810229143020110232D
:1079A0001A4011430E4A118000BF7D20C0000D49CE
:1079B00008600020FFF72EFE0020FFF70DFE0120DB
:1079C000FFF718FE11B0F0BDE4050020840100208F
:1079D00088010020620100206C010020380900208D
:1079E000660100201003002010B585B004AA2A4BC0
:1079F0001B88138000BF03AA284B1B88138000BF7D
:107A000002AA274BDB8B138000BF00BF254A1388D7
:107A1000019300BF00BF5388009300BF6A46137CE8
:107A20000C88621C0A8003556A46537C0C88621CD1
:107A30000A8003556A46137B0C88621C0A80035532
:107A40006A46537B0C88621C0A8003556A46137A87
:107A50000C88621C0A8003556A46537A0C88621CA3
:107A60000A8003556A4613790C88621C0A80035504
:107A70006A4653790C88621C0A8003556A4613785B
:107A80000C88621C0A8003556A4653780C88621C75
:107A90000A80035505B010BD68010020AC0100202C
:107AA000C405002004060020F0B595B00446154634
:107AB0002846691C8DB2265C2846691C8DB2215C63
:107AC00010A801742846691C8DB2215C10A841746D
:107AD0002846691C8DB2215C10A881742846691C57
:107AE0008DB2215C10A801732846691C8DB2215CFF
:107AF00010A841732846691C8DB2215C10A88173BF
:107B00002846691C8DB2215C10A801722846691CA8
:107B10008DB2215C10A841722846691C8DB2215C8F
:107B200010A801712846691C8DB2215C10A8417112
:107B30002846691C8DB2215C10A801702846691C7A
:107B40008DB2215C10A841702846691C8DB2215C61
:107B50000F912846691C8DB2215C08A80176284641
:107B6000691C8DB2215C08A841762846691C8DB23B
:107B7000215C08A801752846691C8DB2215C08A803
:107B800041752846691C8DB2215C08A801742846FD
:107B9000691C8DB2215C08A841742846691C8DB20D
:107BA000215C08A801732846691C8DB2215C08A8D5
:107BB00041732846691C8DB2215C08A801712846D2
:107BC000691C8DB2215C08A841712846691C8DB2E0
:107BD000215C08A801702846691C8DB2215C08A8A8
:107BE00041702846691C8DB2215C684601772846A1
:107BF000691C8DB2215C684641772846691C8DB2AC
:107C0000215C684601762846691C8DB2215C684675
:107C100041762846691C8DB2215C08A8017228466D
:107C2000691C8DB2215C08A841722846691C8DB27E
:107C3000215C684601752846691C8DB2215C684646
:107C400041752846691C8DB2215C6846017428463E
:107C5000691C8DB2215C6846417430466E49487794
:107C600000BF00BF6D480068039000BF00BF6C48B4
:107C70000068029000BF14990398814203D11399C0
:107C80000298814214D014986449086000BF139888
:107C90006349086000BF01206249098802229143BC
:107CA000420002231A4011435E4A118000BF00BF08
:107CB00010A908895849088000BF10A9888856492A
:107CC000488000BF00BF584800788006C00F0028D9
:107CD00054D000BF8978C807C00F00BF5349098836
:107CE00020229143420120231A4011434F4A118020
:107CF00000BF00BF484989784907C80F00BF114637
:107D0000098840229143820140231A401143474A87
:107D1000118000BF01A846490978017000BF68467C
:107D20000079002803D00120FFF79AFC12E000BF81
:107D300039488078C006C00F00BF37494988C90557
:107D4000C90F0843344949888905C90F08430746C4
:107D5000FFF786FC00BF304989788906C80F00BF4D
:107D600032490988FF22013291430202FF23013385
:107D70001A4011432D4A118000BF00BF10A9088886
:107D80002549888000BF08A9087F2349087700BFDC
:107D90006946088F2049C88000BF6946888E1E4901
:107DA000088100BF6946088E1B49488100BF6946AB
:107DB000888D1949C88100BF6946088D1649888198
:107DC00000BF6946888C1449088200BF6946088C48
:107DD0001149488200BF6946088B0F49088300BFDC
:107DE0006946888B0C49488300BF6946888A0A49DE
:107DF000888200BF6946088A0749C88200BF7D2083
:107E0000C0000C4908600020FFF71EFC0020FFF7AF
:107E10000DFC15B0F0BD0000E60500208C0100202F
:107E200090010020640100206A0100206E01002002
:107E3000FB0100201403002010B58BB00AAA5E4B92
:107E40001B88138000BF09AA5C4B1B88138000BFEE
:107E500008AA5B4B1B88138000BF07AA594B1B88DD
:107E6000138000BF06AA584B1B88138000BF05AAC9
:107E7000564B1B88138000BF04AA554B1B8A1380E6
:107E800000BF03AA534B1B88138000BF02AA524BAA
:107E90001B88138000BF01AA504B1B88138000BFB2
:107EA0006A464F4B1B88138000BF08AA137A0C88C0
:107EB000621C0A80035508AA537A0C88621C0A8047
:107EC000035508AA13790C88621C0A80035508AA76
:107ED00053790C88621C0A80035508AA13780C8811
:107EE000621C0A80035508AA53780C88621C0A8019
:107EF00003556A46137D0C88621C0A8003556A4646
:107F0000537D0C88621C0A8003556A46137F0C88D7
:107F1000621C0A8003556A46537F0C88621C0A80E3
:107F200003556A46137C0C88621C0A8003556A4616
:107F3000537C0C88621C0A8003556A46137E0C88A9
:107F4000621C0A8003556A46537E0C88621C0A80B4
:107F500003556A46137B0C88621C0A8003556A46E7
:107F6000537B0C88621C0A8003556A46137A0C887E
:107F7000621C0A8003556A46537A0C88621C0A8088
:107F800003556A4613790C88621C0A8003556A46B9
:107F900053790C88621C0A8003556A4613780C8852
:107FA000621C0A8003556A4653780C88621C0A805A
:107FB00003550BB010BD000066010020AC0100208D
:107FC000740100207E010020800100207C0100203F
:107FD000C405002002020020040200200602002046
:107FE000080200207D20C0000249086002490860A4
:107FF00070470000100300201403002010B519483A
:108000000068002805D017480068401E1549086020
:108010000FE00120FFF7FEFA0120FFF7DDFA002054
:10802000FFF7E8FAFFF7BAFA002802D00120FFF7BD
:10803000C5FA0D480068002805D00B480068401EAE
:10804000094908600CE00120FFF7FEFA0120FFF764
:10805000EDFAFFF7A3FA002802D00120FFF7AEFAED
:1080600010BD000010030020140300200248008807
:108070004005C00F70470000E20100200248007870
:108080000006C00F704700006E0100200248007813
:108090008006C00F704700006E0100200248007883
:1080A0004006C00F704700006E01002002480078B3
:1080B0000007C00F704700006A01002010B50021C2
:1080C000202003F083F810BD10B50121202003F01B
:1080D0007DF810BD10B500211F2003F077F810BD0A
:1080E00010B500211E2003F071F810BD704700008C
:1080F00010B500BF7B4800780007C00F002814D0DF
:10810000FFF7E8FFFFF7DAFF774801780078401CB7
:10811000754A1070192907D300201146087000BF56
:108120001E2003F071F800BFDAE070480078401CB0
:10813000C0B26E4908703228F6DB00200870FFF7E5
:10814000B5FF002806D000BF01211F2003F03EF834
:1081500000BF01E0FFF7BEFFFFF798FF002866D1E0
:10816000FFF78CFF002862D1FFF798FF00285ED14F
:1081700000BF5F4800788007C00F002857D000BFBD
:108180005C4800788007C00F002850D0FFF78EFFB2
:1081900000284CD0FFF76AFF002848D100BF56489E
:1081A00000880004C00F002814D100BF5348007895
:1081B0004006C00F00280DD100BF50480088400580
:1081C000C00F002806D100BF4D480088C005C00F71
:1081D000002807D0FFF784FF00BF202003F014F829
:1081E00000BF7DE000BF0020FDF716FF002804D18E
:1081F0000120FDF711FF002801D0012000E0002040
:10820000002806D100BF3F4800788007C00F002833
:1082100004D0FFF765FFFFF757FF61E000BF0121C2
:108220001E2002F0D3FF00BFFFF748FF58E0FFF722
:108230001DFF002850D1FFF729FF002823D1FFF7A9
:108240001DFF00281FD1FFF729FF00281BD100BF09
:108250002A4800788007C00F002814D100BF2748A3
:1082600000788006C00F00280DD100BF2348007899
:108270000007C00F002806D100BF23480088000473
:10828000C00F002804D0FFF72BFFFFF71DFF27E0EA
:10829000FFF70CFF002804D1FFF722FFFFF70EFFC6
:1082A0001EE000BF19480078C007C00F00280BD19E
:1082B00000BF17480078002806D000BF1348007898
:1082C0008007C00F00280BD100BF1E2002F09CFFCA
:1082D00000BFFFF7F3FE03E0FFF702FFFFF7F4FE36
:1082E00010BD0000E4010020F9020020F802002087
:1082F000E60500206A010020540100206C010020E6
:108300006E010020AC090020560100205C01002015
:10831000E101002070B504460D4629462046FDF7D0
:1083200059F970BD70B504460D46164632462946C9
:108330002046FDF73BFA70BD70B504460D46164663
:10834000324621462846FDF7DBFB70BD014688001A
:10835000014A105A70470000BC15010810B507F01B
:108360006FFC07F0C3FD07F083FB07F08DFD10BD28
:10837000F0B5C7B005460C4603200002201886B2AF
:1083800027462A46314601A8FFF7CCFF2A4601A915
:10839000384600F057F847B0F0BD000070B503460E
:1083A0000C460120002100BF04E05D18034E755DFE
:1083B0006554491C9142F8D370BD0000F4090020B7
:1083C00010B514480078002806D001280AD00228E9
:1083D0000ED0032818D111E007F0E0FF01200D496D
:1083E000087015E007F098FE02200A4908700FE0B7
:1083F00007F0E4FD03200749087009E007F090FF4B
:1084000000200449087003E000200249087000BF02
:1084100000BF10BD3C020020F0B5C7B005460C46B9
:1084200003200002201886B227462A4601A93846B2
:10843000FFF7B4FF2A4601A93046FFF77DFF47B09A
:10844000F0BD000070B50346002000BF04E00C5CE6
:108450001D18034E7455401C9042F8D370BD0000A7
:10846000F409002002480078C006C00F70470000E1
:108470006A010020024800780007C00F7047000022
:1084800066010020024800888005C00F7047000088
:108490006C01002002480088C005C00F7047000032
:1084A0006C010020024800784007C00F70470000B0
:1084B0006A010020024800788006C00F7047000063
:1084C0005E0100200149098801807047F401002005
:1084D000064909880122D2029143C2020123DB022C
:1084E0001A401143014A1180704700006C010020BE
:1084F0000549098820229143420120231A40114353
:10850000014A118070470000660100200549098872
:1085100010229143020110231A401143014A118095
:10852000704700006A01002005490988082291432C
:10853000C20008231A401143014A1180704700000D
:1085400066010020064909880122920391438203B3
:1085500001239B031A401143014A11807047000018
:108560006C0100200549098808229143C2000823B4
:108570001A401143014A1180704700006A0100202F
:1085800006490988012252029143420201235B02FB
:108590001A401143014A1180704700006C0100200D
:1085A00006490988FF22013291430202FF23013369
:1085B0001A401143014A1180704700006C010020ED
:1085C00006490988012292029143820201239B02FB
:1085D0001A401143014A1180704700006C010020CD
:1085E0000449098849084900C207D20F1143014ACA
:1085F000118070476C0100200549098820229143B1
:10860000420120231A401143014A118070470000A3
:108610006C010020054909884022914382014023D2
:108620001A401143014A1180704700006C0100207C
:108630000549098802229143420002231A4011434E
:10864000014A1180704700006C010020054909882B
:1086500004229143820004231A401143014A1180ED
:10866000704700006C0100200549098808229143E9
:10867000C20008231A401143014A118070470000CC
:108680006C01002005490988102291430201102342
:108690001A401143014A1180704700006C0100200C
:1086A0000149087070470000F2010020064909885E
:1086B000012212039143020301231B031A401143B9
:1086C000014A1180704700006C01002006490988AA
:1086D000012292029143820201239B021A4011431C
:1086E000014A118070470000E40100200149088020
:1086F00070470000700100200149088070470000A9
:1087000074010020014908807047000076010020B4
:1087100010B51F480088042188431D4908801D4862
:108720000088042188431B49088000BF184800784E
:108730004007C00F00281FD000BF08460078400740
:10874000C00F002818D014480088042805DA124801
:108750000088401C1049088018E000200E4908805D
:108760000E48008801218902884340180B4908807F
:108770000120FFF795FF09E000200749088007481E
:1087800000880121890288430449088010BD000047
:108790006201002064010020D6020020E2010020D6
:1087A00070B50025FFF766FE002802D10120674959
:1087B000087066480078012807D1FFF75BFE0028A3
:1087C00003D00020614908700125FFF74BFE002807
:1087D0000CD001205E4908705E480088002818D03F
:1087E0005C480088401E5B49088012E0FFF73AFEB3
:1087F00000280ED15748008800280AD15448007834
:10880000012806D10020524908700A2051490880E9
:108810000125002D7ED000204F49088000BF00BFF9
:1088200000F038FE00BF0020FFF7DAFE0020FFF75F
:10883000FFFE0020FFF718FF0020FFF7DDFE0020FD
:10884000FFF7AEFE0020FFF79BFE0020434909889A
:1088500020229143420120231A4011433F4A1180B4
:1088600000BF00BF11460988402291438201402386
:108870001A401143394A118000BF00BF11460988D0
:1088800080229143C20180231A401143334A118050
:1088900000BF00BF114609885A00914302025B00E5
:1088A0001A4011432D4A118000BF0120FFF720FE1E
:1088B00064202B49088000BF0024002C08D100212F
:1088C000072002F035FC0121072002F07FFC03E0C5
:1088D0000221072002F02CFC00BF0A2421460220BE
:1088E00003F058F900BF00201E4909880422914373
:1088F000820004231A4011431A4A118000BF00BFAE
:108900001146098808229143C20008231A401143E6
:10891000144A00E00EE0118000BF00BF0F49098833
:108920009A01914342029B011A4011430B4A118064
:1089300000BF002500BF0C480079C007C00F002809
:1089400002D00020FFF7D4FD70BD0000DA02002045
:10895000DB020020D80200206C0100206E01002004
:108960007801002060010020E605002008B5684677
:10897000FFF7A8FDFFF796FD002822D06846008883
:108980001249884213DD1248C0890A2809DB0120F8
:10899000FFF726FE0120FFF74BFE0120FFF756FEF2
:1089A00012E00B48C089401C0949C8810CE0084806
:1089B000C089002808DD0648C089401E0449C881D6
:1089C00002E000200249C88108BD0000CC1B000065
:1089D0004610002000200649088048804882C88050
:1089E0008882C881088208818881C882088370478C
:1089F0004610002008B5504800884005C00F0028E8
:108A000021D100BF4D480088C005C00F00281AD0F2
:108A100000BF4B480078C007C00F00280DD0494860
:108A20000088322805D247480088401C4549088004
:108A30000EE00120FFF74CFD0AE0002041490880CC
:108A4000FFF746FD04E000203E490880FFF740FDA7
:108A500000BF3D480178009100BF684600780028BB
:108A60000DD000BF394800788007C00F002806D01D
:108A700000BF36480078C007C00F002827D000206C
:108A8000FFF752FD00BF324800788007C00F002872
:108A90000BD0FFF7FFFC002807D1FFF7F3FC0028FD
:108AA00003D10120FFF712FE02E00020FFF70EFEC7
:108AB00000BF26480078C007C00F002803D0002060
:108AC0002449087037E008202249087033E0FFF796
:108AD000C9FC00281FD000BF1D480088C005C00F7A
:108AE000002818D100BF1C4800788006C00F00285D
:108AF00011D100BF184800784006C00F00280AD1E5
:108B000000BF154800780006C00F002803D10120DF
:108B1000FFF7DCFD02E00020FFF7D8FD0D480078EC
:108B2000002803D10120FFF7FFFC04E0094800788A
:108B3000401E0849087008BDE2010020C40500205D
:108B40005A010020B2020020E10100205C01002057
:108B50006A010020B40200206E0100200EB500BFA3
:108B6000C4480088C005C00F00287DD000BFC2489F
:108B7000818D029100BF00BFC18D019100BF00BF78
:108B8000BE480078C007C00F00282DD100BFBB48E9
:108B90000078C007C00FBA490988884224D000BFB6
:108BA000B6480078C007C00FB54908802B20800167
:108BB000B449088053204001B349088023200002B3
:108BC000B249088087208001B1490880B148B24984
:108BD0000880B248B24908800B200002B1490880E1
:108BE00001208002B049088068468088AE49098823
:108BF000884211DAAD480088AD49884205DAAB48B1
:108C00000088401CA949088009E00020A749088085
:108C10000120FFF797FC02E00020FFF793FC684675
:108C2000008999490988884224DAFEF7BFFC0028A8
:108C300020D1A0480088322805DA9E480088401CD0
:108C40009C4908803FE000209A4908800120FFF7F6
:108C5000A7FC0120FFF7B4FC97480078002832D128
:108C600000BF01F047FC00E003E100BF0120924992
:108C7000087028E0684600898A490988884211DA24
:108C80008E4800888A49884205DA8C480088401C52
:108C90008A49088017E00020884908800120FFF7F2
:108CA0008FFC10E0684600897649098888420ADB13
:108CB000002080490880FFF773FC0020FFF780FC4C
:108CC00000207D49087068460089704909888842FB
:108CD0001BDD7B480088322805DA79480088401C73
:108CE000774908801FE00020754908800120FFF7C0
:108CF00047FC74480078002815D100BF01F0FAFB4A
:108D000000BF01206F4908700DE068460089604986
:108D10000988884207DC002069490880FFF730FC99
:108D2000002068490870684600895D4909888842C2
:108D300019DAFEF73BFC002815D10120FFF7E6FB0E
:108D40006148007800281AD1012060490988402232
:108D50009143820140231A4011435C4A118000BFB5
:108D6000594908700BE0684600894B4909888842D8
:108D700005DD0020FFF7CAFB00205349087000BF43
:108D80003E4800880004C00F002811D1FFF782FB85
:108D900000280DD1FFF776FB002809D1FEF706FC6D
:108DA000002809D135480078C006C00F002803D03C
:108DB0000020FFF7D7FB02E00120FFF7D3FBFFF70E
:108DC00051FB002803D00120FFF76AFC51E000BFEF
:108DD0002A48008A009000BF00BF2848007800079A
:108DE000C00F002822D068460088FF21DC3188426D
:108DF00008D3684600883649884203D80020FFF728
:108E00004FFC35E06846008831492D31884209D34E
:108E1000684600882E496931884203D80420FFF74C
:108E20003FFC25E00720FFF73BFC21E06846008877
:108E3000FF21DC31884208D36846008824498842F3
:108E400003D80220FFF72CFC12E068460088204976
:108E50002D31884209D3684600881D49693188420E
:108E600003D80620FFF71CFC02E00720FFF718FCE0
:108E700000BF0EBD62010020F8080020C4050020DC
:108E8000CC020020B6020020B8020020BA02002066
:108E9000BC02002040EA0000BE020020A0E8000062
:108EA000C0020020C2020020C4020020CE02002026
:108EB000983A0000C6020020D1020020CA02002019
:108EC000C8020020D2020020D00200206A01002047
:108ED0000D0200001FB503A8FFF7F4FA01A8D2495C
:108EE0000988018000BF02A8D0490988018000BF1D
:108EF000FFF7E0FA002806D0CD480078002802D11C
:108F00004120CC490880FFF7D5FAC9490870FFF71E
:108F1000C9FA00287ED0684680891B210902884250
:108F20000DDDC548008A0A2805DAC348008A401CBE
:108F3000C149088216E00120FFF788FB12E068466D
:108F400080890D21490288420CDABB48008A00283A
:108F500005DDB948008A401EB749088202E00020BA
:108F6000FFF774FB68468088FF21BA31884272DAC5
:108F70006846808905218902884213DAAE48008953
:108F8000642809DB0120FFF72BFB0120FFF76CFBB6
:108F90000120FFF777FB0EE0A7480089401CA64997
:108FA000088108E0A4480089002804DDA24800895F
:108FB000401EA149088100BF0020FCF74DF904467E
:108FC00000BFFF20F530844213DA9B4840896428B3
:108FD00009DB0120FFF704FB0120FFF745FB01201F
:108FE000FFF750FB0EE094484089401C92494881AD
:108FF00008E091484089002804DD8F484089401EE0
:109000008D494881684680890B21490288420FDAE0
:10901000894800E02EE08089642803DB0120FFF707
:1090200031FB18E084488089401C8349888112E024
:10903000684680890321C90288420CDD7E48808908
:10904000002805DD7C488089401E7B49888102E03C
:109050000020FFF717FB684678490978017000BFC8
:10906000007800280BD00120FFF7C6FA00207249D3
:10907000488204E0002070490881088288816D4898
:109080000088002845D06B480088401E6949088048
:109090006846008903210902884219DA68468088F7
:1090A000FF21BA31884213DD6348C088052805DAFC
:1090B0006148C088401C6049C88005E00120FFF776
:1090C0009BFA0120FFF7A6FA00205B49488202E0E4
:1090D00000205949C88068468088FF21BA318842FB
:1090E00013DD55484088322805DA53484088401C33
:1090F000514948807AE00120FFF77EFA0120FFF70E
:1091000089FA00204C49488270E000204A49488092
:109110006CE06846008915210902884205DA684634
:109120008088FF21BA31884205DC68460089032126
:109130004902884213DA4048C088052805DA3E48CB
:10914000C088401C3C49C8800CE00120FFF754FA5D
:109150000120FFF75FFA00203749488202E0002033
:109160003549C88068468088FF21BA31884213DDBE
:1091700031484088052805DA2F484088401C2E4990
:1091800048800CE00120FFF737FA0120FFF742FA90
:1091900000202949488202E000202749488068468B
:1091A0008088FF219A3188420DDD2348808832284B
:1091B00005DA21488088401C1F49888016E001207C
:1091C000FFF728FA12E068468088FF218131884243
:1091D0000CDA19488088002805D017488088401E7E
:1091E0001549888002E00020FFF714FA684680885D
:1091F000FF218131884216DA0F48408AFF21F5317C
:10920000884205DA0C48408A401C0B49488205E038
:109210000020FFF7F1F90020FFF7FCF900200649D4
:109220004880C88088801FBDF8010020F60100201A
:10923000D3020020D402002046100020FC010020B0
:1092400000218278002A27D0184A03231B02D21853
:1092500003789B109B00D15802789207D30EFF220F
:109260009A400B469343194642789207120E0378B0
:109270009B07DB0E9A4011430C4A03231B02D218B2
:1092800003789B109B00D1500278D306DB0E01229D
:109290009A40064B1A6007E00278D306DB0E0122E3
:1092A0009A40024B80331A607047000000E100E0F2
:1092B000024800780006C00F704700006E010020D1
:1092C0000149097801707047C40100200149087004
:1092D00070470000FA01002010B504462046FCF754
:1092E0008BFE10BD10B504462046FCF795FE10BD60
:1092F00010B504462046FCF79FFE10BD10B504468D
:10930000204604F037FE10BD10B504462046FDF798
:1093100087F810BD70B504460D4629462046FDF776
:1093200085F870BD38B5524800784007C00F002856
:109330005ED050480078102803D04E4800781F288F
:1093400010D10020FFF7DAFF494800880421884344
:109350004749088008460088082188430830444966
:10936000088025E043480078202803D04148007851
:109370002F2810D10120FFF7C1FF3D4800880421AC
:1093800088433B4908800846008808218843083004
:10939000374908800CE03648008804218843344966
:1093A0000880084600880821884308303049088032
:1093B0001420314908802F480078102804D0202834
:1093C00006D030280CD107E066202C4908700EE04A
:1093D00077202A4908700AE055202849087006E0DD
:1093E00023480088082188432149088000BF00BF26
:1093F0001F4800780007C00F002838D01E4800889A
:10940000002805D01C480088401E1B4908802EE01B
:10941000012080F3108800BF194C2046FDF7E4F8C6
:109420000090184801786846017014480178684631
:10943000417000BF2046FDF7E3F800BF009D2946BC
:109440002046FDF702F900BF251D0F48047821468C
:109450002846FDF7E6F800BF00BFBFF34F8F0B486B
:109460000B49C860BFF34F8F00BF00BFFEE738BD98
:10947000E4010020930200209402002096020020C4
:1094800000F80008DD010020350100200400FA0585
:1094900000ED00E000200349088048808880C880F3
:1094A00008817047CC0900200D4800880121C902BD
:1094B00088430B49088008460088402188430849B2
:1094C0000880084680880121C902884304498880B1
:1094D0000846808840218843014988807047000001
:1094E000AC09002008B5C1480078012852D1C04815
:1094F000008804218843BE49088008460088082166
:109500008843BB4908800846008810218843B84931
:1095100008800846008820218843B549088008460D
:10952000008880218843B249088008460088FF21CE
:1095300001318843AE4908800846008802218843EB
:10954000AB490880AB480088012149028843A949FA
:109550000880A9480078009069460878A7490870F3
:1095600000BF0320A6490870A6480078012800D152
:1095700000E00020A24909784018A14908700220A3
:10958000A1490870A14800880121C90288434018F8
:109590009E4908806846FFF793FE684600783528A4
:1095A00037D018DC24282FD00CDC1B2839D004DC61
:1095B000022825D003287CD123E0202822D021288E
:1095C000F9D120E0252820D028281FD032281ED00D
:1095D0003328F0D11CE0602820D008DC362819D0D0
:1095E0003D2818D05E2817D05F28E4D115E0612807
:1095F00015D0622814D0C9282ED0F628DBD1CAE0B5
:1096000000BF00BF00BF00BF00BF00BF00BF00BF62
:1096100000BF00BF00BF00BF00BF00BF00BF00BF52
:10962000E1E072480078012804D0022803D0032822
:109630000FD101E00EE00DE06F484078012807D11E
:109640006C48008801214902884340186949088014
:1096500000E000BF00BFC6E0654800888005C00F7D
:10966000002807D16A48807A802188438030684981
:109670008872B8E05D480078030005F0C7F80C89EF
:1096800007080923374D4E4F5051528981E080E041
:109690006048007800280DD15F48007840084000FD
:1096A0005D49087008460078202188435A490870AF
:1096B00007E071E050484078584908704E4880787B
:1096C000487066E04C48C07854498870514800782A
:1096D00000280AD108460078012806D14E480078B3
:1096E00040084000401C4C49087052E0494800784E
:1096F000002810D14948007802280CD1464800784B
:1097000020218843203044490870084600784008EA
:109710004000401C08703CE03BE03AE039E038E0B3
:1097200037E03C480078002831D133484078082899
:1097300026D139480078C009002821D12E48407927
:1097400000022D490979401800B23449C8802A48DE
:10975000C079000228498979401801B22F48018157
:109760002548407A00022449097A401881B22B48E2
:10977000418129480078802188438030264908703B
:109780002548007840084000401C2349087000E04C
:1097900000BF00BF27E026E014480078012821D14F
:1097A000134800888005C00F00280CD16846007857
:1097B000C32808DB68460078CF2804DC0020104965
:1097C0000870114908700E48007800280AD10E4828
:1097D0000078002806D10E48807A802188438030A6
:1097E0000B49887200BF00BF08BD0000D9010020EE
:1097F000E2010020E4010020EA070020C40100206B
:10980000D801002035010020D7010020CA01002026
:10981000AC090020DC010020DE010020EA08002065
:1098200010B5624840896249088060488089488054
:109830005E48C08988805D48808BC8805B48408BCB
:1098400008815A480088488158484088888157488C
:109850008088C8815548C088088254480089488259
:109860005248008A88825148408AC8824F48203036
:10987000007808834F48008A88844E48808908848D
:109880004C48C08948844B48408AC8844948808AEB
:1098900008854848C08A48854648008B88854548E1
:1098A000408BC885434800880886424840884886DF
:1098B0004048808888863F48C088C8863D480089DF
:1098C00008873C48408948873B48018838484030F1
:1098D00001803A4801883648403041803848018844
:1098E0003348403081803748018831484030C1805A
:1098F000354801882E4840300181344801882C4881
:1099000040304181324801882948403081813148C6
:10991000018827484030C1812F48018824484030C1
:10992000018200BF0120FBF797FC214980310884A8
:1099300000BF0020FBF790FC1D498031488400BF28
:109940000220FBF789FC1A498031888400BF00207F
:1099500003F072F881B216488030C184002420469A
:10996000FCF73AFB1249803108850020FFF7B4FC70
:109970000F49803148850120FFF7AEFC0C4980314A
:109980008885164801880A488030C1851348418877
:10999000074880300186114881880548803041861B
:1099A0000E48C18802488030818610BDC405002061
:1099B000540D0020E605002054010020560100202F
:1099C0005C0100205E01002068010020660100208B
:1099D0006A0100206C0100206E010020EA010020D5
:1099E0007047000070B500240025FD48007800286D
:1099F00004D001287ED002287DD1FDE1F948808B7A
:109A0000F849403908670020FFF766FCC6010122CB
:109A10000021304605F086F90446F348008801210C
:109A2000090388434018F0490880EE4884830846BB
:109A30000088012109038843EB490880E948C08B6D
:109A4000E849403908670120FFF746FCC6010122BA
:109A50000021304605F066F90446E34800880121FC
:109A6000490388434018E0490880DE48C48308461B
:109A70000088012149038843DB490880D948808A4E
:109A8000D8494039086700BF002002F0CBFF4405E9
:109A9000640DE10108B205F05CF90446D248008883
:109AA000FF21013188434018CF490880CD48848286
:109AB00008460088FF2101318843CB490880C94806
:109AC000C08AC8494039086700BF012002F0AAFFD8
