:020000040800F2
:08000000F0100020E5400008AB
:020000040800F2
:1040000045434431363032303130373058585858C3
:1040100098100020E5400008ED400008EF4000083F
:104020000000000000000000000000000000000090
:10403000000000000000000000000000F140000847
:104040000000000000000000F3400008F5400008F8
:10405000F7400008F7400008F7400008F740000864
:10406000F7400008F7400008F7400008F740000854
:10407000F7400008F7400008F7400008F740000844
:10408000F7400008F7400008F7400008F740000834
:10409000F7400008F740000800000000F740000863
:1040A000F7400008F7400008F740000825640008C2
:1040B000F7400008F7400008F7400008DDC200089C
:1040C0000DC3000800000000F740000800000000D9
:1040D0000348854600F03EF800480047BBC400088E
:1040E000981000200448804704480047FEE7FEE798
:1040F000FEE7FEE7FEE7FEE779B30008D1400008DF
:1041000030B50B46014600202022012409E00D466F
:10411000D5409D4205D31D469540491B25469540F7
:1041200040191546521E002DF1DC30BD70B500243B
:104130002546002801DA01244042002901DA012540
:104140004942FFF7DDFFAC4200D04042002C00D0D6
:10415000494270BD064C0125064E05E0E36807CCD8
:104160002B430C3C98471034B442F7D3FFF7B4FF0D
:10417000ECF100080CF2000870B58C180578401CB2
:104180006B075B0F01D10378401C2A1106D102781E
:10419000401C03E006780E70401C491C5B1EF9D1E0
:1041A0002B0705D40023521E0DD40B70491CFAE7CF
:1041B0000378401CCB1A921C03E01D780D70491C3B
:1041C0005B1C521EF9D5A142D8D3002070BD836A72
:1041D0000B43836242617047002904D08168012249
:1041E00011438160704781680222114381607047EA
:1041F000002904D0C16801221143C1607047C16821
:1042000049084900C1607047C26802239A43C260EE
:10421000C2680A43C260704700B50649884208D1A7
:1042200043150121184606F01DFC0021184606F032
:1042300019FC00BD00240140002182680123DB0736
:104240001A4382600F231B038268D20FD207491CD6
:10425000994201D0002AF7D18168002901DB006C66
:104260007047002070470022CB0104D580680123ED
:104270001B06984300E00068084200D00122104667
:104280007047000030B4C268084B1A408C680B6855
:104290000D792343CC686D032C4323430C69496992
:1042A00023430B431343C36030BC704703D2FFFF6B
:1042B000816804221143816070470021016001710F
:1042C0008160C160016141617047000070B592B0CA
:1042D000304E3046FFF7A0FF0121084606F098FB5C
:1042E0000121480206F0B0FB2B4D284601F022F8D0
:1042F0002A4801902A480290002403940420049044
:1043000005948020069040000790800008902020AF
:10431000099000020A900B9401A9284601F0A0F828
:104320000121284600F0F8FF02213046FFF76CFF1C
:104330000CA8FFF7C2FF0C94012008A908750E9481
:10434000109411940CA93046FFF79CFF154DE10025
:104350004819426869583046FFF739FF641CE4B2D7
:10436000042CF4D33046FFF767FF01213046FFF7F6
:1043700033FF0D4C30462146FFF775FF0028F9D07A
:104380003046FFF795FF01213046FFF731FF12B0AD
:1043900070BD00000024014008000240402401409C
:1043A000D4000020C8E4000801000001024A4000D7
:1043B000105A088070470000D400002010B5002873
:1043C00005D0012807D0022809D0002010BD002008
:1043D00006F0C8FE10BD012006F0C4FE10BD02208C
:1043E00006F0C0FE10BD10B5002805D0012807D08A
:1043F000022809D0002010BD002006F00DFF10BDDE
:10440000012006F009FF10BD022006F005FF10BDD7
:1044100006480121017041708170C17001714171C4
:104420008171C17101724172817270478C020020EA
:1044300070B526480088C005C00F0125244C00280F
:1044400000D02575002600280BD1207D012808D139
:10445000218CE08B814202D2401CE08301E0267572
:10446000E570002001F0E4FB002804D1012001F0F8
:10447000DFFB002800D06575002001F0D9FB002883
:104480000FD1012001F0D4FB00280AD1607D012862
:1044900007D1208C0A2802D2401C208401E06675D6
:1044A000E5710C480088C00B002800D0A5750028D5
:1044B00007D1A07D012804D1608C0A2802D2401CBB
:1044C000608470BD6675657270BD00004401002097
:1044D0008C020020020100200649C87C401CC0B2AA
:1044E000C8740A2804D30020C874886A401C8862F3
:1044F000704700008C02002010B501220349022001
:10450000FFF75CFF0248C07B10BD00009B0200204B
:104510008C0200200148806A704700008C02002055
:1045200010B50F490120087048708870C870087174
:1045300048718871C871087248728872C8720873AD
:10454000487388730874002002F0FCFE002102F01A
:1045500009FF012203490220FFF730FF10BD0000D0
:104560008C0200209B020020F8B50546002600249E
:1045700001222E491046FFF721FF2C4920468A5D73
:10458000641CE4B22A54761CF6B2302EF6D3002016
:10459000264900220A54401CC0B23028F8D300201B
:1045A00006F0C8FEC0B20090002006F0A7FEC7B219
:1045B0003E4637001AD032461C490020FFF7FEFE67
:1045C00000201A4922460B5C641CE4B2AB54401C28
:1045D000C0B22928F6D3002000220A54401CC0B2E1
:1045E0002928FAD3761EF6B2002EE4D1009EBE42F0
:1045F0001AD932460D490020FFF7E0FE00200B4992
:1046000022460B5C641CE4B2AB54401CC0B22928A7
:10461000F6D3002000220A54401CC0B22928FAD345
:10462000761EF6B2BE42E4D80120F8BD640C00202C
:1046300010B50E4CE07BC00716D00D480088400531
:10464000C00F002810D10B480088C005C00F0028FB
:1046500001D00121A174A17C012905D1002803D139
:1046600008F096FD0020A07410BD00008C02002010
:10467000740100201A01002010B50F4CE07BC00728
:1046800018D00E4800884005C00F002812D10C48F1
:1046900000788007C017411C002901D001216174F6
:1046A000617C012906D1401C002803D108F096FD49
:1046B0000020607410BD00008C02002074010020F6
:1046C0000A01002070B50024114808F0CBFF104EFD
:1046D00000253555641CE4B2302CFAD30C49012076
:1046E000FFF781FE0124224609490020FFF766FEFC
:1046F00000203554401CC0B22928FAD304490020B8
:10470000FFF771FE641CE4B2052CECD970BD00000B
:10471000640C002070B5054600240D4E00290DD014
:10472000304608F09FFF285D3055641CE4B2282C09
:10473000F9D307490120FFF756FE70BD044808F081
:1047400091FF305D2855641CE4B2282CF9D370BD6C
:10475000640C002010B51749C87BC00729D0164843
:1047600000884005C00F002823D114480078800736
:10477000C017401C00281CD1888B4B22401C80B2E3
:10478000D2008883904214D300248C830C4808F014
:1047900069FF0C48C17A827A090412028918427AA8
:1047A0008918491C41728472C47205490120FFF7BF
:1047B0001AFE10BD8C020020740100200A010020A6
:1047C000640C0020840C0020F8B5FD4C208B401CAC
:1047D00080B22083C8287CD3C8202083E07BF94E98
:1047E000C0070025002863D0F74800884005C00FA7
:1047F00000285DD1F648F54F0188F448BB78008861
:10480000DA0905D0420603D58A0601D5012200E067
:104810000022002A02D02278012A07D0DA061FD50A
:1048200042061DD54A061BD501221AE0257000203C
:1048300006F064FD82B2E7490020FFF7BFFD0121C9
:10484000052008F0C1F8002832D108F0F5FC01215C
:10485000052009F063FADF490020FFF7C4FD49E2B3
:104860000022002A02D06278012A08D0FA78D309FF
:104870001FD00B061DD543061BD501231AE065701A
:10488000002006F03BFD82B2D2490020FFF796FDE2
:104890000121032008F098F8002809D108F0CCFC89
:1048A0000121032009F03AFACA490020FFF79BFDD5
:1048B00020E20023002B02D0A378012B0AD093061C
:1048C00022D5CB0520D543041ED503051CD40123D6
:1048D0001BE038E2A570002006F010FD82B2BD4951
:1048E0000020FFF76BFD0021022008F06DF8002882
:1048F0003FD108F0A1FC0021022009F00FFAB549D0
:104900000020FFF770FDF5E10023002B0DD0E378C8
:10491000012B0AD1D20905D0090603D5410601D5DC
:10492000012100E0002100290AD0A6493B7A09882C
:10493000DA061FD5CA051DD542061BD501221AE08D
:10494000E570002006F0DAFC82B2A2490020FFF7F1
:1049500035FD0021082008F037F8002809D108F0BB
:104960006BFC0021082009F0D9F99A490020FFF7D3
:104970003AFDBFE10022002A02D06279012A07D065
:10498000DA091FD089051DD540061BD501201AE084
:104990006571002006F0B2FC82B28E490020FFF75C
:1049A0000DFD0021084608F00FF8002868D108F036
:1049B00043FC0021084609F0B1F986490020FFF7C1
:1049C00012FD97E10020002802D02079012808D0AC
:1049D000787BC0091FD0002001F00EF9002822D1F9
:1049E00019E02571002006F089FC82B27949002087
:1049F000FFF7E4FC00210E2007F0E6FF00283FD17E
:104A000008F01AFC00210E2009F088F971490020F5
:104A1000FFF7E9FC6EE1787B400606D5012001F046
:104A2000EBF8002801D0012000E00020002802D08F
:104A3000E07901280BD0787A674AC10921D0118822
:104A4000C90B1ED0397849061BD501211AE0E57142
:104A5000002006F053FC82B25E490020FFF7AEFC56
:104A60000021042007F0B0FF002809D108F0E4FB82
:104A70000021042009F052F956490020FFF7B3FC49
:104A800038E10021002902D0217A012907D041060E
:104A90001FD552490988C90B1BD001211AE0257284
:104AA000002006F02BFC82B24A490020FFF786FC6A
:104AB0000121084607F088FF00283FD108F0BCFB21
:104AC0000121084609F02AF942490020FFF78BFC32
:104AD00010E1002100290FD0617A01290CD1C00911
:104AE00007D01088C00B04D03878400601D50120CB
:104AF00000E00020002808D038888107C90F00296D
:104B000029D0A17A01291AD025E06572002006F08B
:104B1000F5FB82B22F490020FFF750FC012107204E
:104B200007F052FF002809D108F086FB0121072079
:104B300009F0F4F827490020FFF755FCDAE0318846
:104B4000C90505D520490988490501D4012100E09E
:104B50000021002909D0B979CA0920D042061ED502
:104B6000327892071BD501221AE0A572002006F0C8
:104B7000C5FB82B217490020FFF720FC012103206A
:104B800007F022FF002844D108F056FB0121032042
:104B900009F0C4F80F490020FFF725FCAAE0002225
:104BA000002A02D0E27A012A1AD0FA79D20931D049
:104BB000327892062ED542062CD501222BE0000039
:104BC0008C0200201A010020740100201C07002024
:104BD00044010020640C0020040100200201002098
:104BE000E572002006F08AFB82B257490020FFF7E9
:104BF000E5FB00210A2007F0E7FE00287AD108F043
:104C00001BFB00210A2009F089F84F490020FFF71B
:104C1000EAFB6FE00022002A02D0227B012A08D0A2
:104C2000C90620D541061ED5317809071BD50121BB
:104C30001AE02573002006F061FB82B24249002091
:104C4000FFF7BCFB01210B2007F0BEFE002851D16D
:104C500008F0F2FA01210B2009F060F83A4900202F
:104C6000FFF7C1FB46E00021002902D0617B01294A
:104C700007D036498978C9071DD040061BD50120C9
:104C80001AE06573002006F039FB82B22E4900203D
:104C9000FFF794FB00210C2007F096FE002829D195
:104CA00008F0CAFA00210C2009F038F82649002043
:104CB000FFF799FB1EE0002000281BD0A07B0128F5
:104CC00018D1A573002006F019FB82B21E490020FE
:104CD000FFF774FB01210D2007F076FE002809D1B3
:104CE00008F0AAFA01210C2009F018F81649002052
:104CF000FFF779FB3088C00505D5154800884005C9
:104D000001D4012000E00020002812D0A079012861
:104D10000FD1207C002802D1012020746583608B94
:104D20000A2806D3A571284602F00CFB294602F09A
:104D300065FB608BFF21401C80B2F53160838842A7
:104D400001D925746583F8BD640C0020320300206E
:104D50007401002010B5002801D0012801D10349B9
:104D6000C87303490220FFF73EFB10BD8C020020F0
:104D70009B02002001498862704700008C020020DD
:104D800010B400200B4A0C4B002184001151440048
:104D90001953401CC0B20928F7D30020074A084B1A
:104DA0008400115144001953401CC0B20928F7D3A4
:104DB00010BC7047B8020020DC020020F002002086
:104DC00014030020F8B50025314F324C324E092D26
:104DD0003CD228007844007900188744040E182239
:104DE00025282D30330031460220FFF7DFFA3088C6
:104DF0002A494843000B308028E031460120FFF764
:104E0000D5FA308825494843000B30801EE03146F2
:104E10000320FFF7CBFA308821494843000C30804B
:104E200014E03888308011E0788830800EE07868AF
:104E30004002000C308009E03889308006E0388A72
:104E4000308003E078694002000C3080154EA800E5
:104E50003158E288891831506D1CEDB2092DB5D357
:104E6000A088401C80B2A0800121890288420ED116
:104E700000200D4A0027810073589B011B0C450040
:104E800053537750401CC0B20928F4D3A780F8BD13
:104E900068060020DC000020E20000204F06000031
:104EA000701A0100F002002014030020F8B500255C
:104EB000304F314C314E092D3CD2280078440079D6
:104EC00000188744040E182225282D30330031465F
:104ED0000220FFF76BFA308829494843000B3080E5
:104EE00028E031460120FFF761FA30882449484321
:104EF000000B30801EE031460320FFF757FA308860
:104F000020494843000C308014E03888308011E09C
:104F1000788830800EE078684002000C308009E02C
:104F20003889308006E0388A308003E078694002B2
:104F3000000C3080144EA800315862888918315016
:104F40006D1CEDB2092DB5D32088401C80B22080A5
:104F500040280ED100200D4A0027810073589B0283
:104F60001B0C450053537750401CC0B20928F4D3A2
:104F70002780F8BD68060020DC000020DE0000204D
:104F80004F060000701A0100B8020020DC02002069
:104F90000021092802D202494000095A88B270470C
:104FA000140300200021092802D202494000095AB6
:104FB00088B27047DC020020024800788007C00FEA
:104FC00070470000320300200149098A01807047C0
:104FD0005403002070B504460D462946204600F0D3
:104FE00093F970BDF8B56846FFF7EEFF002411E0B5
:104FF00068460188E200224810188088814207DA5A
:10500000E1001F48455EE10008180226865F03E0C4
:10501000601CC4B2032CEBDB00BFA8B201B2194A7A
:10502000118000BFB0B201B2174A118000BF6846BC
:1050300016498989018000BF002413E06846018871
:10504000E2000F48083810188088814208DAE10031
:105050000B480838455EE10008180226865F03E029
:10506000601CC4B2012CE9DB00BFA8B201B2084A3F
:10507000118000BFB0B201B2064A118000BFF8BD76
:10508000A2030020880100208A0100205403002090
:10509000840100208601002010B5284C2146012003
:1050A000FFF784F9208826494843000B208000BF81
:1050B000244A01212046008807F058FB2146088039
:1050C00009888904080C2049088000BF00BF2146D8
:1050D0000220FFF76BF9208819494843000B208014
:1050E00000BF184A01212046008807F03FFB2146F7
:1050F000088009888904080C1449088000BF00BF93
:1051000021460320FFF752F9208811494843000146
:10511000000C208000BF0B4808301021415E204663
:1051200000884143012000030818C000000C2146FC
:10513000088008880749088000BF10BDA60100202C
:105140004F060000BA0300207C0100207E010020F1
:10515000A71100008001002010B52D480078C0077D
:10516000C00F002819D02B4A9178507807F0A8FE7C
:10517000274800788007C00F002807D008F032FBCE
:10518000234800780221884321490870204800788C
:10519000400840001E49087038E01F4800780300AE
:1051A00007F06EF907050B11171D23292F0007F0D3
:1051B000EBFD01201849087027E007F037FD0220B9
:1051C0001549087021E007F08BFD03201249087093
:1051D0001BE007F087FD04200F49087015E007F079
:1051E000EBFD05200C4908700FE007F0BBFD062021
:1051F0000949087000BF07F007FD00200649087044
:1052000003E000200449087000BF00BF10BD00008B
:105210007101002058060020A4010020F8B50024E8
:105220006846FFF7D1FE00BF13E068460188E20040
:105230000E4810188088814209DAE1000B48405A74
:1052400086B2E100094808180225455F03E0601CAA
:10525000C4B2032CE9DB00BF00BF0548068000BFD5
:1052600000BF0448058000BFF8BD0000DA0300203D
:10527000260100202801002010B507F033FD10BDE5
:1052800010B508F087FD184A0121080208F0DCF883
:10529000154A08320221FF20213008F0D5F8124AC1
:1052A00028320121FF20A13008F0CEF80E4A30321A
:1052B0000321FF20C13008F0C7F80B4A4832012112
:1052C000480208F0C1F8084A503203211120400179
:1052D00008F0BAF8044A683203211320400108F0AC
:1052E000B3F807F0A3FB10BD7203002010B506F061
:1052F00043F810BD41400906024AC90D515A000A3F
:1053000048407047E0E8000848400149085C7047A1
:10531000E0E7000870470000002904D0016801227E
:105320001143016070470168014A114001607047F4
:10533000FEFF0000F0B401683A4A1140016000210C
:10534000016041608160C160374A38490F23904253
:1053500004D1486818434860F0BC7047344AF024D0
:10536000904204D1486820434860F0BC7047314AFD
:105370000F252D02904204D1486828434860F0BCB4
:1053800070472D4E0F221203B04204D148681043DB
:105390004860F0BC7047294F0F263604B84204D14C
:1053A000486830434860F0BC7047254FB84206D18A
:1053B00048680F22120510434860F0BC7047214F27
:1053C000B84206D148680F22120610434860F0BC6C
:1053D00070471D4F1D49B84204D1486818434860C2
:1053E000F0BC70471A4B984204D14868204348608B
:1053F000F0BC7047174B984204D148682843486076
:10540000F0BC7047144B984204D148681043486080
:10541000F0BC7047114A9042FAD148683043486066
:10542000F0BC7047FEFF0000080002400000024090
:105430001C0002403000024044000240580002407C
:105440006C00024080000240080402400004024058
:105450001C0402403004024044040240580402404C
:1054600030B403680D4A13400C6A8A684D692243C0
:105470000C692C4322438C692243CC6922434C6A39
:1054800022438C6A22431A430260CA6842600A6857
:1054900082604968C16030BC704700000F80FFFF28
:1054A000F0B5044683B00E461046FF21FEF728FEF5
:1054B00007460D46012040030090B64800230188AE
:1054C0000222B54801F0EAF90520B24940034860DC
:1054D0000221B14801F076F900280ED1AD494868A3
:1054E000421E4A6003D207F06DFA03B0F0BD0221FC
:1054F000A94801F067F90028F0D0310AA64801F068
:10550000B4F90520A349400348600221A24801F0F4
:1055100059F900280ED19F494868421E4A6003D2BB
:1055200007F050FA03B0F0BD02219B4801F04AF9A0
:105530000028F0D0F1B2984E304601F096F90521DE
:105540009448490341604021304601F03BF900286E
:105550000ED1904E7068411E716003D207F032FA8E
:1055600003B0F0BD40218C4801F02CF90028F1D0A7
:10557000012309205B068002002F7DD001210291CA
:105580000298002817D10520824E400370608021C8
:10559000814801F017F900280DD17068411E716033
:1055A00003D207F00FFA03B0F0BD80217A4801F072
:1055B00009F90028F1D0012F01D1002D0ED0029859
:1055C000002825D0092080020090724801231B0684
:1055D0000188FF22704801F061F923E00298002859
:1055E0000BD00920800200906A4801235B060188E5
:1055F000FF22694801F052F914E00020009065484C
:1056000001235B060188FF22634801F047F909E0A6
:10561000002000905F4801231B060188FF225E489E
:1056200001F03CF900200290002605205949400372
:1056300048600421584801F0C5F800280ED15549AA
:105640004868421E4A6003D207F0BCF903B0F0BDBF
:105650000421514801F0B6F80028F0D04E4801F07E
:1056600001F9A055761CFF2EDFD1FF347F1E002FDD
:1056700086D1002D6DD000E043E00520454E40036B
:105680007060454F8021384601F09CF800280DD10C
:105690007068411E716003D207F094F903B0F0BD49
:1056A0008021384601F08EF80028F1D000200090CB
:1056B00001233188EAB25B06374801F0EFF8002792
:1056C000002D46D00520400370600421324801F0CF
:1056D00079F800280DD17068411E716003D207F07F
:1056E00071F903B0F0BD04212B4801F06BF80028DC
:1056F000F1D0294801F0B6F8E0557F1CAF42E1D166
:1057000027E0244F00903988EAB2234801F0C6F818
:105710000026002D1DD005204003786004211E487E
:1057200001F050F800280DD17868411E796003D24D
:1057300007F048F903B0F0BD0421174801F042F822
:105740000028F1D0144801F08DF8A055761CAE4227
:10575000E1D105200F4C400360600F4D2021284609
:1057600001F030F800280DD16068401E606003D25F
:1057700007F028F903B0F0BD2021284601F022F8F7
:105780000028F1D02021284601F000F8002003B0C5
:10579000F0BD0000E400002000580040F0B583B0E8
:1057A00000200290174C012300905B062188002204
:1057B000154D284601F072F8AF14FF262D366760AC
:1057C0003021284600F0E2FF0121284600F0EEFFDC
:1057D0006068411E6160FBD20298411C0291B04298
:1057E00003D107F0EFF803B0F0BD1021284600F018
:1057F000E9FF0028E3D12021284600F0C7FF002060
:1058000003B0F0BDE400002000580040F0B583B0C4
:1058100005460C466106490E8020461AD0095706F7
:105820007F0E00291FD06106490E8023591A531A92
:10583000611802930191002866D0029880B2C709CE
:105840004006400E0090002E76D07A484680408870
:105850002146C2B2284600F0EFF800286DD007F0CC
:10586000B1F803B0F0BD002810D0401E86B27148D8
:105870008021418040882146C2B2284600F0DCF8F1
:10588000002819D007F09EF803B0F0BD69484780A2
:1058900040882146C2B2284600F0CEF8002803D046
:1058A00007F090F803B0F0BDFFF778FF002872D042
:1058B00007F088F803B0F0BDFFF770FF002803D0B1
:1058C00007F080F803B0F0BD8034A4B280353046D4
:1058D000761EB6B20028CAD1002F5CD0554847804A
:1058E00040882146C2B2284600F0A6F8002803D01E
:1058F00007F068F803B0F0BDFFF750FF00284AD06A
:1059000007F060F803B0F0BDB2422ED9494F7E8057
:1059100078882146C2B2284600F08EF8002803D0CD
:1059200007F050F803B0F0BDFFF738FF002805D0AE
:1059300007F048F803B0F0BD39E02DE00298788018
:105940007888C2B2019881B2A81900F075F80028D1
:1059500003D007F037F803B0F0BDFFF71FFF0028B2
:1059600065D007F02FF803B0F0BD3248478040887B
:105970002146C2B2284600F05FF8002803D007F0A5
:1059800021F803B0F0BDFFF709FF00284FD007F062
:1059900019F803B0F0BD4AE0FFF700FF002803D07C
:1059A00007F010F803B0F0BD019884B2AD19781E6D
:1059B00086B2002F21D01F4F802078807888214622
:1059C000C2B2284600F038F8002803D006F0FAFFEB
:1059D00003B0F0BD052040037860FFF7DFFE00282C
:1059E00003D006F0EFFF03B0F0BD8034A4B28035E1
:1059F0003046761EB6B20028DED10098002816D0B8
:105A00000C480099418040882146C2B2284600F0E7
:105A100013F8002803D006F0D5FF03B0F0BDFFF760
:105A2000BDFE002803D006F0CDFF03B0F0BD00207E
:105A300003B0F0BDE4000020F7B582B00F46154674
:105A40000024012040034F4E0090C30231880222FF
:105A50004D4800F023FF05204003706002214A48B2
:105A600000F0B0FE00280DD17068411E716003D2B5
:105A700006F0A8FF05B0F0BD0221434800F0A2FEE9
:105A80000028F1D0390A404800F0EFFE052040031D
:105A9000706002213C4800F095FE00280DD170682E
:105AA000411E716003D206F08DFF05B0F0BD0221EA
:105AB000354800F087FE0028F1D0F9B2324F384661
:105AC00000F0D3FE0520400370608021384600F0CE
:105AD00079FE00280DD17068411E716003D206F076
:105AE00071FF05B0F0BD8021384600F06BFE002844
:105AF000F1D000200090012331885B062A46384609
:105B000000F0CCFEAC421ED00520400370600221A4
:105B1000384600F057FE00280DD171684A1E7260A9
:105B200003D206F04FFF05B0F0BD0221384600F069
:105B300049FE0028F1D00298015D384600F095FE3C
:105B4000641CAC42E0D1052040037060202138463F
:105B500000F038FE00280DD17168491E716003D233
:105B600006F030FF05B0F0BD2021384600F02AFED7
:105B70000028F1D02021384600F008FE002005B0B2
:105B8000F0BD0000E4000020005800400149A020C2
:105B900008807047E400002010B5092004F096FB4F
:105BA00010BD10B5082004F091FB10BD10B57D218B
:105BB000C900081A81B2002004F0F4FE10BD70473D
:105BC000022805D20E2148430249401880887047B8
:105BD00001487047A40B0020FFFF0000022805D2F7
:105BE0000E214843024940184088704701487047D9
:105BF000A40B0020FFFF0000022807D20E2148431B
:105C000003494018007B8007C00F70470020704791
:105C1000A40B0020022807D20E2148430349401854
:105C2000007B4007C00F704700207047A40B002086
:105C3000022807D20E21484303494018007BC007C1
:105C4000C00F704700207047A40B0020F8B5184D16
:105C5000A888401C80B2A880052827D30020A880EF
:105C600006F032FC0024134E134F30780007C00FAB
:105C7000002802D0FF205F30688010480078C006FE
:105C8000C00F002809D00E200D496043401800893C
:105C9000002802D1FF20F5306880E000C01941687B
:105CA00068888847641CE4B2022CDED3F8BD00008B
:105CB000140200207601002010F0000818010020D6
:105CC000A40B0020F0B42E494878401CC0B24870A4
:105CD000312853D100224A7000202A4909788907C7
:105CE000CC0F29490978C906CD0F0E210246274B52
:105CF0004A439E5A1E214E43D1184E8000269E5282
:105D0000002C37D0002D35D04A887D231B019A42C4
:105D10000CD21F4F3B5C142B06D90B7B01273B4356
:105D20000B731C4B1E5401E05B1C3B541A4B9A42F4
:105D30000CD21A4F3B5C142B06D90B7B02273B433A
:105D40000B73144B1E5401E05B1C3B54144B9A42E2
:105D500010D9104B1A5C022A0AD90A7B5208520049
:105D6000FD231A400A730D490E54891C0E5401E09C
:105D7000521C1A54401CC0B20228B6D3F0BC704763
:105D800014020020320300200A010020A40B00208E
:105D90001C0200201E020020DC0500001A02002068
:105DA000AC0D0000F8B500241A4E1B4D1B48E10055
:105DB00040588047C00721460E22000F51438B19DF
:105DC0001A7BF7273A4002431A731007C70F144A89
:105DD0006000125A974213D02A5A022A0DD3725ADF
:105DE000104FBA4201D2521C725200212952197B23
:105DF0000907CA0F0A490A5207E0521C2A5204E056
:105E0000295A002901D0491E2952641CE4B2022CEF
:105E1000CCD3F8BDA40B00202602002010F000080F
:105E200022020020FFFF0000F0B4002000220E4BF1
:105E30007D24CF252D010E26014671435A52C918E3
:105E40008C800A814D80CA800E7B76087600FD2703
:105E50003E40FB273E40F7273E400E73401CC0B239
:105E60000228E8D3F0BC7047A40B00200149087059
:105E70007047000014020020022804D20E22504372
:105E8000014A801801817047A40B0020F0B5064636
:105E90000B273F04384600F087F804280FD1084C40
:105EA000206902252843206166612069402108435A
:105EB0002061384600F078F82169A9432161F0BDDE
:105EC0000020024004200849CA68D20701D00120FE
:105ED0007047CA68D20601D502207047C9684907D1
:105EE000FBD50320704700000020024002480169F2
:105EF000802211430161704700200240F0B5054641
:105F00000E460B273F04384600F04EF804280CD10B
:105F1000064C20690121084320612E80384600F09C
:105F200043F82169490849002161F0BD0020024081
:105F3000F8B504460D46002000900B273F04384674
:105F400000F032F804280ED10E4E306901210843CA
:105F500030612580384600F027F8042804D03169E4
:105F6000490849003161F8BDA41C00940098290C2F
:105F70000180384600F018F831694908490031615C
:105F8000F8BD00000020024004480169090603D55D
:105F9000034941600349416070470000002002400E
:105FA00023016745AB89EFCD00B50346FFF78AFFB4
:105FB00002E0FFF787FF5B1E012801D1002BF8D11B
:105FC000002B00D1052000BD00B5024800F004F808
:105FD00000BD0000F83F0008C11C884205D80B78BE
:105FE00012021A43491E8842F9D91046704770B50B
:105FF00005460024FFF7C8FF2846FFF747FF04289F
:1060000002D0FFF773FF0124FFF770FF204670BD39
:1060100070B505460E460024FFF7B6FF3146284608
:10602000FFF76CFF042803D0FFF760FF012070BD6D
:10603000FFF75CFF204670BD70B505460E46002494
:10604000FFF7A2FF31462846FFF772FF042803D06E
:10605000FFF74CFF012070BDFFF748FF204670BDE1
:106060007047000010B50B48094B436000200A4AF6
:1060700081005C585450401CC0B23028F8D3012134
:10608000084604F0EFFC032005F062F810BD0000A4
:1060900010400008EC00002000000020F0B40022B6
:1060A0000325012393400C681C409C422AD10C79A3
:1060B000012C01D0022C12D1876854002E46A64034
:1060C000B74387604E79A6408468264386608488FB
:1060D0009C43848084888B7993401C438480066829
:1060E00053002C469C40A64306600E7907689E40EC
:1060F0003E430660C668A643C660CC799C40C36830
:106100001C43C460521C102ACBD3F0BC704710B49F
:106110004B07DB0E9A40C90889000818016A0F2452
:106120009C40A1430162016A1143016210BC7047A7
:1061300002460020128A0A4200D0012070477047B0
:1061400070470000F8B50D2004F0C0F80127644D39
:106150000026644C00280BD06089642804D9288864
:10616000B8433843288001E0401C6081A6810AE0E2
:10617000A089032804D9288840084000288001E02D
:10618000401CA08166810A2004F0A0F802210028AA
:106190000AD0E089032803D928888843288001E0B1
:1061A000401CE08126820AE0208A642804D92888DD
:1061B00088430843288001E0401C2082E6810E20AD
:1061C00004F084F8082100280FD02078002804D09B
:1061D000288888430843288000E0277042498022AD
:1061E000088890430880667008E06078002803D033
:1061F00028888843288000E0677026701B2004F000
:1062000065F8102100280BD0A0780A2804D9288826
:1062100088430843288001E0401CA070E67009E034
:10622000E078022803D928888843288001E0401CB0
:10623000E070A670132004F049F8202100280BD04C
:106240002079142804D9288888430843288001E04D
:10625000401C2071667109E06079142803D92888F0
:106260008843288001E0401C60712671122004F0F0
:106270002DF8402100280BD0A079142804D92888B3
:1062800088430843288001E0401CA071E67109E0C2
:10629000E079142803D928888843288001E0401C2D
:1062A000E071A671112004F011F800280CD0207ABA
:1062B000142805D92888802188430843288001E0D4
:1062C000401C20726672F8BD607A142804D92888B0
:1062D00080218843288001E0401C60722672F8BD4E
:1062E0000A010020BE0100201801002070B54A4CB0
:1062F0002078C006C10F494E30780007C00F002932
:1063000003D0002801D0012200E00022444D2B8858
:106310009B05DB0F9A421ED0002903D0002801D034
:10632000012100E000211C2004F048F82078C0067C
:10633000C00F002806D030780007C00F002801D019
:10634000012000E00020012229885202C007914369
:10635000800D0143298030780006C10F2878C007DE
:10636000C00F81420AD00B2004F028F830780006D4
:10637000C00F2988490849000143298030888005D9
:10638000C10F28788007C00F81420BD00C2004F089
:1063900015F830888005C00F2988022291434000FB
:1063A000014329803088C005C00F002804D021781F
:1063B000C907C90F002926D000212A785207D20F19
:1063C00091421FD0002804D02078C007C00F0028B9
:1063D0001BD0002000281AD000211A2003F0EEFF65
:1063E0003088C005C00F002804D02078C007C00F37
:1063F00000280ED0002029880422C0079143400FB6
:106400000143298070BD0121D7E70120E2E7012186
:10641000E3E70120EFE700000A0100201801002057
:106420000C010020F0B583B069488469002000F0B9
:1064300047FA600506D501218902654800F0A8F9F0
:1064400003B0F0BDA00506D501214902604800F067
:106450009FF903B0F0BDE00506D5FF2101315C488E
:1064600000F096F903B0F0BDE00605D510215848BC
:1064700000F08EF903B0F0BD564D574E68790028F4
:1064800009D156490870564908705649087056494E
:10649000087030706870554F200745D54C4C082166
:1064A000204600F075F9204600F094F9002812D03B
:1064B00000204A49087068703878002805D0307884
:1064C0004B490978FEF720FF307002F021FB0120D4
:1064D000687103B0F0BDA16901200143A161687931
:1064E000002814D0012803D0022801D0032808D1A5
:1064F000404A1188FF20013081430143118000F0A0
:10650000BDF8002035490870687035490870387842
:10651000002805D0384900200978FEF7F5FE3070D4
:106520000220687103B0F0BD600726D52848406A94
:10653000C4B23878002804D030782146FEF7E4FE53
:106540003070274A1078029069792C4B02290BD0C1
:106550000329E7D1A11C244E31701C54401C10703B
:106560000220687103B0F0BDFF28FBD21C54401C10
:10657000107001F06BFC03B0F0BDA007FBD517480D
:1065800000780190002817D06978814214D86A7881
:106590001B4982420AD13878002804D03078009014
:1065A0006A78885402E06A78FF2088546878095C29
:1065B0006878401C687000E0FF21054881623878E7
:1065C0000028D8D03078FEF79FFE307003B0F0BDC1
:1065D00000540040B00100206F0100206E01002037
:1065E0006C0100206A0100206B010020FE000020E9
:1065F000B401002068010020B201002058050020ED
:10660000580400200020124900220A54401CC0B245
:10661000FF28FAD300200F4B00211954401CC0B2B0
:10662000FF28F9D300200C4908700C4908700C4968
:1066300008700C4908700C4908700C4908700C4827
:1066400042700C49802008700B4981200870704707
:1066500058050020580400206F0100206D01002023
:106660006E0100206C0100206A0100206B010020F7
:10667000B0010020B2010020B4010020F0B585B0C7
:10668000364F2021384600F09DF8354C002804D1C3
:106690002088C005C00F00285ED020880121C902D3
:1066A00088432080002000F017F92E4E30780490A7
:1066B0002D490B7803932D490A7802922C4D00281E
:1066C00036D06979022901D0032931D198422DD1E0
:1066D000012149024B00002A05D020888005C00F07
:1066E00000280FD022E020888005C00F002806D0A7
:1066F000208888432080208898431843208007F012
:1067000061FB13E022888A430A4322802088984351
:1067100018432080174800780190174908701748DF
:10672000DF22817A114020221143817200203070D3
:106730002021384600F046F8002805D020213846B0
:1067400000F024F800206871002000F0D9F82088BB
:10675000FF2101318843208005B0F0BD0054004086
:10676000680100206C0100206B0100206F010020F7
:10677000B0010020660100206D0100201C070020F0
:106780000149487170470000B0010020C1617047A5
:10679000C1617047002904D00168012211430160E2
:1067A000704701684908490001607047012252039F
:1067B000002903D04168114341607047416891430B
:1067C000416070470246002092690A40002A00D0CA
:1067D00001207047014600208969012212041140FE
:1067E000002900D090117047002A03D002680A43A4
:1067F0000260704702688A430260704710B4026802
:106800005208520002600268144B1A408C684B68B0
:1068100024021443234303600F230A681B069A4390
:106820000261026801231A43026000228260C26092
:106830000B698A691A43826082680123DB031A4369
:106840008260CA680368134303604268044B1A40BD
:1068500049691143416010BC70470000FFE0CF0060
:10686000FF7FFF07406AC0B27047816270470168CE
:106870004908490001600168016801221143016073
:10688000704701225204002903D00168914301603E
:1068900070470168114301607047000070B4039DA8
:1068A0004468064E34408905890D1204114319438A
:1068B00029432143416070BC70470000009800FCF0
:1068C0000021034A40001152024A11527047000051
:1068D000920100209601002008B54821484307494D
:1068E0006A4640184030017911704079507000209C
:1068F0009070684601F0E2F908BD0000E0EA000887
:1069000008B54821484307496A4640184030017994
:1069100011704079507001209070684601F0CEF9F6
:1069200008BD0000E0EA0008F8B5264801882022EA
:106930009143002601800024234F20464821234A0A
:1069400048438518A96B012936D1A9881058FFF74B
:10695000EFFB00280FD01E4861004652A989A868A5
:10696000FFF7E6FB002813D01A4861004652385D55
:1069700001281AD020E0164A6000115AEB8899428B
:1069800002D2491C1152E9E7165201203855E5E7B9
:10699000104A6000115AEB89994202D2491C1152E7
:1069A000E5E7165201203855E1E7A869FFF75FFFD8
:1069B000204606F06BFB3E55641CE4B2022CBCD3AF
:1069C000F8BD00006801002090010020E0EA000806
:1069D0009201002096010020F8B500240F4E0127F7
:1069E000204606F053FB4820604385193C20405D5B
:1069F00001280ED10122296CA869FFF7F5FE403568
:106A0000287969460870687948708F70684601F087
:106A100055F9641CE4B2022CE2D3F8BDE0EA0008A8
:106A2000F0B591B0511C845C89B24A1C415C6D4642
:106A300092B22972511C825C89B26A724A1C415C12
:106A400092B2A972511C825C89B22A714A1C415CC3
:106A500092B26971511C825C89B2AA714A1C415C74
:106A600010AD92B22970511C825C89B26A704A1CC6
:106A7000415C08AD92B22977511C825C89B26A7779
:106A80004A1C415C93B20E915A1CC35C92B22B75A6
:106A9000531C825C9BB26A755A1CC35C92B22B7405
:106AA000531C825C9BB26A745A1CC35C92B22B73F7
:106AB000531C825C9BB26A735A1CC35C92B22B72E9
:106AC000531C825C9BB26A725A1CC35C92B22B71DB
:106AD000531C825C9BB26A715A1CC35C92B22B70CD
:106AE000531C825C9BB26A705A1CC35C6D4692B2A6
:106AF0002B77531C825C9BB26A775A1CC35C92B2A0
:106B00002B76531C825C9BB26A765A1CC35C92B291
:106B10002B75531C825C9BB26A755A1CC35C92B283
:106B20002B74531C825C9BB26A745A1CC35C92B275
:106B30002B73805C687333484470334E3568334F31
:106B40003B68029A324CAA4202D1019D9D4207D075
:106B50003260019A3A60228802239A431A432280C3
:106B60002C4E3288D304DB0F2B4D002B0CD16B88BD
:106B70005B04DB0F002B07D001235B039A431A430E
:106B800032806A469289EA8310AA16882E806A4665
:106B9000928F6A8001706A46908EA880108EE8807D
:106BA000908D2881108D6881908CA881108CE8814F
:106BB000908B2882108B6882908A6883108AA883C1
:106BC000C0016421FDF79CFA14498880F20B144B34
:106BD000042118889200884310433207D20F1025F1
:106BE000A8431201104318807D200E4AC000106097
:106BF000208840084000884389018843084320805A
:106C000011B0F0BD520300204C01002050010020C3
:106C1000100100201A01002032030020A8060020E5
:106C2000140100208402002010B485B0264A128886
:106C30000492264A12880392254AD28B0292254A50
:106C400013880193528800920A886C46247C531C56
:106C50000B8084540A886C46647C531C0B808454DB
:106C60000A886C46247B531C0B8084540A886C462B
:106C7000647B531C0B8084540A886C46247A531C12
:106C80000B8084540A886C46647A531C0B808454AD
:106C90000A886C462479531C0B8084540A886C46FD
:106CA0006479531C0B8084540A886C462478531CE6
:106CB0000B8084540A886C466478531C0B8084547F
:106CC00005B010BC704700001601002064010020D0
:106CD0003203002072030020F0B492B0511C845C97
:106CE00089B24A1C415C10AD92B22971511C825C80
:106CF00089B26A714A1C415C92B2A971511C825CD2
:106D000089B22A704A1C415C92B26970511C825C43
:106D100089B2AA704A1C415C08AD92B22977511C15
:106D20008BB2815C6977591CC25C89B22A764A1C95
:106D3000415C92B26976511C825C89B22A754A1C08
:106D4000415C92B26975511C835C89B20C934A1CF8
:106D5000415C92B22973511C825C89B26A734A1CED
:106D6000415C92B22972511C825C89B26A724A1CDF
:106D7000415C92B22971511C825C89B26A714A1CD1
:106D8000415C92B22970511C825C89B26A704A1CC3
:106D9000415C6D4692B22976511C825C89B26A765A
:106DA0004A1C415C92B22975511C8EB2815C697596
:106DB000711C825D89B22A744A1C415C92B269746A
:106DC000511C825C89B22A734A1C415C92B269737D
:106DD000511C825C89B22A774A1C415C92B2697765
:106DE000511C825C89B22A724A1C415C92B269725F
:106DF000511C825C89B22A71405C6871404D6C778D
:106E0000404A1168404C26681198884202D1109976
:106E1000B14208D01060109820603C4802210288DE
:106E20008A430A4302806846808F28806846008F24
:106E30006880374909788906C90F00292DD0C40711
:106E4000E40F344A202611886401B14321434407EA
:106E5000E40F4026B143A401214311802E4C247835
:106E600000948026002C03D0B143314311800BE005
:106E7000C406E40FC705FF0F3C438705FF0F3C43E3
:106E8000B143E401214311808006C00FFF24118823
:106E90000134A1430002014311806846808EA8801E
:106EA0002B776846808DE8806846008D288168468B
:106EB000808C68816846008CE8816846808BA88158
:106EC0006846008B28826846808A68826846808986
:106ED00028836846008A688368460089A8826846D5
:106EE0008088E8827D200D49C000486007490888F5
:106EF0004008400004229043088012B0F0BC704764
:106F000054030020540100205801002012010020E9
:106F1000180100204401002082010020840200208A
:106F200010B48BB0534A12880A92534A12880992BD
:106F3000524A12880892524A12880792514A12887D
:106F40000692514A12880592504A128A0492504A77
:106F5000128803924F4A128802924F4A1288019275
:106F60004E4A1288009208AB0A881C7A531C0B8088
:106F7000845408AB0A885C7A531C0B80845408AB99
:106F80000A881C79531C0B80845408AB0A885C79EE
:106F9000531C0B80845408AB0A881C78531C0B804C
:106FA000845408AB0A885C78531C0B8084546B466D
:106FB0000A881C7D531C0B8084546B460A885C7DB8
:106FC000531C0B8084546B460A881C7F531C0B8017
:106FD00084546B460A885C7F531C0B8084546B4638
:106FE0000A881C7C531C0B8084546B460A885C7C8A
:106FF000531C0B8084546B460A881C7E531C0B80E8
:1070000084546B460A885C7E531C0B8084546B4608
:107010000A881C7B531C0B8084546B460A885C7B5B
:10702000531C0B8084546B460A881C7A531C0B80BB
:1070300084546B460A885C7A531C0B8084546B46DC
:107040000A881C79531C0B8084546B460A885C792F
:10705000531C0B8084546B460A881C78531C0B808D
:1070600084546B460A885C78531C0B8084540BB0A4
:1070700010BC704714010020640100201E01002094
:1070800026010020280100202401002032030020D6
:107090008401002086010020880100208A01002050
:1070A0007D210248C90001604160704784020020D0
:1070B000F0B41E481C4A00781168C0060423C00FB3
:1070C0001B4C0125002902D0491E116012E0194E07
:1070D000318849084900294399431943FF2701375B
:1070E000B9433180002805D0A17AFD26314002261F
:1070F0003143A1725168002903D0491E5160F0BC90
:1071000070470D4A1188490849002943994319439A
:1071100011800028F3D0A07AFD2108400221084305
:10712000A072F0BC70470000840200200A01002019
:107130001C070020100100201201002070470000F1
:1071400070B5744800780007C00F0025724C002805
:1071500011D000211F2003F031F90021202003F07D
:107160002DF96078411C6170192803D365701E20C9
:1071700003F032F970BD2078401CC0B22070322874
:10718000F8D32570654C20780007C00F002804D084
:1071900001211F2003F012F903E000211F2003F05A
:1071A0000DF95F4800888106C90F5E4D5E4B0029CE
:1071B0001BD10206D20F002A17D14206D20F002A95
:1071C00013D15A4A12789207D20F002A0DD0228882
:1071D0009607F60F002E08D01207D20F002A04D00F
:1071E0002A885205D20F002A0DD02A885205D20FC4
:1071F000002A44D000211E2003F0E0F801212020C5
:1072000003F0DCF870BD4A490988C90B00290CD18C
:1072100019884A06D20F002A07D14905C90F00294B
:1072200003D1C005C00F002807D000211E2003F0A5
:10723000C5F8202003F0D0F870BD0020FEF7DCFC7C
:1072400000280AD10120FEF7D7FC002805D13948D3
:1072500000788007C00F002808D000211E2003F00E
:10726000ADF80121202003F0A9F870BD01211E20F6
:1072700003F0A4F80021202003F0A0F870BD00293D
:1072800019D10106C90F002915D14006C00F0028E9
:1072900011D118888107C90F00290CD18106C90FA7
:1072A000002908D10007C00F002804D12248008817
:1072B000C00B002808D000211E2003F07FF8012118
:1072C000202003F07BF870BD20780007C00F002855
:1072D00006D01A480088C107C90F002911D108E05B
:1072E00000211E2003F06AF80021202003F066F838
:1072F00070BD13490978002903D08007C00F00280A
:10730000F6D11E2003F068F80021202003F056F883
:1073100070BD0000760100206C02002018010020E2
:1073200044010020740100201A01002054030020B1
:10733000020100201C070020040100200A01002097
:107340007201002001498000085A7047D0EB000804
:1073500010B506F0C3F806F0C5F905F0D9FF06F040
:1073600099F910BD30B5C7B00446032000020818D3
:1073700080B20D466B46014622461846FEF790F84D
:1073800022466946284600F04DF847B030BD00005F
:1073900070B401250023002A06D9054CC618A65D45
:1073A000CE545B1C9342F9D3284670BC7047000052
:1073B0005007002070B5104C2078002808D0012814
:1073C0000BD002280ED00025032810D0257070BDE8
:1073D00006F054FB0120207070BD06F071FA022007
:1073E000207070BD06F0D0F90320207070BD06F04B
:1073F00017FB257070BD0000B601002030B5C7B086
:10740000054603200002081884B208462A46694649
:10741000FFF7BEFF68462A462146FEF7F7F947B058
:1074200030BD000070B40023002A06D9044CCD5CA6
:10743000C618A5555B1C9342F9D370BC7047000079
:107440005007002030B4134800784007C10F124A9B
:10745000012300259B021088104C002914D01049EC
:1074600009784907C90F00290ED0618C042903D27D
:10747000491C618430BC704765841843108001202A
:107480000849087030BC704765849843108030BC50
:107490007047000010010020740100202A02002023
:1074A00012010020FF000020F8B50021364D287899
:1074B0000007C00F0124354A002800D154715679C5
:1074C0000023012E03D1002801D05371012130483F
:1074D0000078C006C60F2D48002E808C05D0947110
:1074E00000280BD0401E908408E0002806D1907937
:1074F000012803D193710A209084012120240029BE
:1075000037D00020234E308000F076FC30884008D1
:1075100040000221884308218843A0434901884351
:107520004F00B84330801C4E3088A0434022904327
:1075300080229043884330802888A04320432880BD
:107540006420164908800021072002F007FF01216E
:10755000072002F033FF0A21022003F023FA10492A
:107560000422088890430822904308803088B8435A
:1075700030800C480079C007C00F002802D028884E
:10758000A0432880F8BD0000140100202A0200203A
:10759000180100201A0100204401002020010020D1
:1075A0000E0100205403002081B01748018800918B
:1075B000164800784007C00F154A00281FD0154B09
:1075C0001046C089994214D90A280ED3124A0121C3
:1075D00010884008400008430221884308430421E2
:1075E00088430843108001B07047401CD08101B02F
:1075F00070470028FBD0401ED08101B070470020AA
:10760000D08101B0704700007C01002018010020EB
:10761000C00B0020CC1B00001A01002006480021EE
:10762000018041804182C1808182C18101820181CA
:107630008181C18201837047C00B0020F8B44648A5
:1076400001220088D20241054448454E00889043FB
:1076500000291ADB43490988C905C90F002914D03C
:1076600041490978C907C90F002909D03189322950
:1076700002D2491C31810CE038491043088008E0EF
:10768000002131813549088003E0002131813349EF
:1076900008803648077800973548364A0188082020
:1076A00081431288C0018243134603433248058850
:1076B0003248EC07E40F0088002F05D0AD07ED0F2E
:1076C000002D01D0002C1ED0294D002729808007D5
:1076D000C00F002809D021480088C105C90F002922
:1076E00003D18005C00F002806D022480280002C5C
:1076F00005D03770F8BC70471E480380F7E70820B4
:107700003070F8BC7047C406E40F002C11D0C005DF
:10771000C00F00280DD11A4800888406E40F002C01
:1077200007D14406E40F002C03D10006C00F002847
:1077300008D0104802803078002806D0401E3070F3
:10774000F8BC70470B480380F5E7094A082001435D
:107750001180F8BC70470000740100201A0100205D
:107760002A020020320300200801002072010020BC
:1077700014010020760100200A01002018010020D9
:1077800044010020F0B583B088480088C005C00FD0
:10779000002875D08648848D0294864800888446E7
:1077A000C007C00F864F844A844BF98B002827D02E
:1077B00088420CD0F883834878818348B881834815
:1077C000F881834838827A82BB828248F882824D6F
:1077D000FF222888BB8901320146904300269C4243
:1077E00004D263469B07DB0F002B19D0FA8A944220
:1077F00032D2B88B794A904227D2401CB88334E009
:107800008842E4D0F883764878817648B881764813
:10781000F881764838827A82BB827548F882D6E74A
:10782000398B322902D2491C39831EE03E83104332
:1078300001218902884308432880B878002814D1A0
:1078400001F056F90120B8700FE0BE8301208002DC
:1078500081430143298008E079898C4205D33E8326
:107860000121890288432880BE70F98901204002E5
:107870008C4213D9798B322903D2491C798315E0C4
:107880005AE07E832988814301432980F8780028C3
:107890000CD101F02DF90120F87007E0398A8C42F3
:1078A00004D87E83298881432980FE70B88A1021FC
:1078B000504A844205D23F4800788007C00F002814
:1078C0000DD0788A844203D91088884310807E7056
:1078D000384B1988C80B082400281DD10DE01088EA
:1078E000012388430843108079780029F0D1402192
:1078F0008843084310807B70EAE72888C505ED0FB0
:10790000002D09D18005C00F002805D18807C00FC0
:10791000002805D1C80603D51088A043108003E0D5
:107920001088A043204310801078C006C00F324A50
:10793000002803D00120107003B0F0BDC807C00FAD
:10794000002803D00320107003B0F0BD188A019006
:107950000907C90F294B002913D00146FF39DC392B
:10796000322903D80020107003B0F0BDC0183C28A5
:1079700003D80420107003B0F0BD0720107003B0CE
:10798000F0BD0146FF39DC39322903D802201070DE
:1079900003B0F0BDC0183C2803D80620107003B017
:1079A000F0BD0720107003B0F0BD000010010020F2
:1079B000680600203203002040EA0000A0E8000032
:1079C0002A020020ECF20000BCF2000034FB0000B0
:1079D0002AFB0000D0F200001A010020983A0000B3
:1079E000A8EA000078EA00003AFA000020FA000055
:1079F00090EA000018010020FF000020C6FDFFFFF4
:107A0000F0B585B0A44801880491A448008802908C
:107A10008446A34800880390A24800788006C00FDF
:107A2000A14A002804D01379002B01D141231384EB
:107A30009D4A10719D4800784007C00F9C4D9D4C99
:107A40000026002874D0284602881B2704232046DD
:107A50003F029A43008AB94207D90A2802D2401C41
:107A600020820CE01A432A8009E00D235B02994230
:107A700005D2002802D0401E208200E02A80FF208C
:107A8000BA30844558D28B480522920200891027CB
:107A9000914210D264280BD328880121400840006D
:107AA0000843082188430843B8433843288006E048
:107AB000401C208103E0002801D0401E20810020CE
:107AC000FDF770FAFF21F531884211D260896428F0
:107AD0000BD328880121400840000843082188432F
:107AE0000843B8433843288007E0401C608104E025
:107AF0006089002801D0401E60816846008A0B2101
:107B0000490288420AD2A089642804D32888B8434D
:107B10003843288010E0401CA0810DE00321C902F9
:107B2000884209D9A089002803D0401EA08103E023
:107B30000EE02888B84328805F480078019000282C
:107B400009D029882020814301432980668202E0F0
:107B500026812682A681544AFF27118C8137402036
:107B6000002933D0491E1184694689897A009142DF
:107B700014D269460A89FF21BA318A420ED9E188B6
:107B8000052902D2491CE18006E029882022914380
:107B90001143814301432980668200E0E680694603
:107BA0000A89FF21BA318A420ED96188322902D26C
:107BB000491C61805AE02988202291431143814366
:107BC00001432980668251E066804FE069468989D9
:107BD00015221202914205D26A461389FF22BA3257
:107BE000934203D80322520291420ED2E188052922
:107BF00002D2491CE18009E02988202291431143E7
:107C0000814301432980668200E0E6806946098954
:107C1000FF22BA3291420ED96288052A02D2521C42
:107C2000628009E02A8820239A431A438243024350
:107C30002A80668200E06680FF229A3291420AD949
:107C4000A188322902D2491CA1800FE029888143F2
:107C5000014329800AE0B94208D2A188002902D054
:107C6000491EA18002E0298881432980694609894B
:107C7000B9420FD2618AFF22F532914202D2491CE9
:107C8000618204E029882022914381432980668013
:107C9000E680A68005B0F0BD7C01002080010020B8
:107CA0007E0100200C0100202A0200201801002083
:107CB0001A010020C00B00208301002030B482781C
:107CC00001240178002A17D08B080F4A9B009A18CC
:107CD00013688907C90EFF258D40AB434578AD0772
:107CE0002D0E8D401D4315600078C006C00E8440E7
:107CF0000648046030BC7047C806C00E8440044883
:107D0000046030BC7047000000E400E000E100E0E7
:107D100080E100E0F8B5314C314F2188480719D592
:107D200038790426082510281DD01F281BD02028AC
:107D300021D02F281FD0B14329432180142038811E
:107D4000387910281FD0202820D0302821D0208832
:107D5000A84320802078000704D5388900281BD04C
:107D6000401E3881F8BD002004F034F92088B0436B
:107D700028432080E2E7012004F02CF92088B0435A
:107D800028432080DAE766207870E3E77720787070
:107D9000E0E755207870DDE7012080F31088114C72
:107DA0002046FEF719F900900F48694600780870E0
:107DB000787848702046FEF71AF900992046FEF7B9
:107DC0003BF90A49201D0978FEF722F9BFF34F8FCE
:107DD00008490748C860BFF34F8FFEE776010020CF
:107DE0000402002000F8000870010020FE000020BE
:107DF0000400FA0500ED00E010B505F013F805F0F9
:107E00003DF8084801230188DB0299434022914351
:107E100001808188994391438180034800218184B6
:107E2000C18410BD1C070020A806002006480123BD
:107E30000188DB0299434022914301808188994364
:107E400091438180704700001C070020F8B5CD4A9F
:107E50001378CD49CD4FCE48012B30D10B88042467
:107E6000A3430824A3431024A3432024A343802432
:107E7000A3436400A3430224A3430B803C88012353
:107E80005B029C433C80037800936C462378C14C92
:107E90002370C14CC14DE45C2C70C14C2478012C82
:107EA0002BD000242E78A4192C70BE4CE45CBE4B61
:107EB0001C70BE4B1C880125ED022C431C80B54B69
:107EC0001E780096B446BA4D8024AB7A23433E2EEA
:107ED0001DD01DDC40241A2E78D010DCB44C402775
:107EE000A47A3C43072E2BD237007F443F79FF19F9
:107EF000BF440D0D260D263F6D000124D2E71B2E39
:107F00007ED0302E7DD03B2E01D03C2E18D1F8BD36
:107F1000DE2EFCD00CDC7E2EF9D004DC3F2EF6D019
:107F2000512E0DD1F8BDC92E6CD0DD2E08D1F8BD73
:107F3000DF2EFCD0E02EFAD0F62EF8D0FA2EF6D0B6
:107F400010780128F3D10888800508D46046C3382A
:107F50000C2804D8914900200870934908708F4874
:107F600000780028E3D1904800780028DFD1AB7278
:107F7000F8BD1378012B10D0022BF9D0032BF7D0CA
:107F8000042BF5D14378022BF2D38378042B08D944
:107F90008378FF2B05D0AC72F8BD0320FEF7F0FB11
:107FA000F8BD0C8804231C430C8083788149CB7076
:107FB000C078009069460878764908700528EFD1A6
:107FC000012010700320FEF7DBFBF8BD31E01278D2
:107FD000012A1BD0022AF8D0032A1BD0042AF4D18C
:107FE0004278002AF1D00A8808231A430A80C07810
:107FF000009069460878674908706A49095C02E0A0
:108000002AE039E053E068480170F8BD0320FEF72C
:10801000B7FBF8BD8178042904D98178FF2901D004
:10802000AC72F8BD41780029FBD081786148C170FD
:10803000F8BD1278012A0BD0022AF9D0032AF7D111
:1080400040780128F4D80888022210430880F8BD3F
:108050000320FEF795FBF8BD11780129FBD002291A
:10806000F9D00329F7D140780128F4D138880121CB
:10807000490208433880F8BD1278012A10D0022A3C
:10808000F9D0032AF7D18278862A02D08278872A0B
:10809000F1D1C0780128EED1088820430880F8BDCE
:1080A0000888A04308800320FEF76AFBF8BD098812
:1080B000890501D4AB72F8BD11780C29FBD20A00F6
:1080C0007A44127992189744050505061828050583
:1080D00005050538EFE738490978002905D04278C9
:1080E00036490A7080784870F8BD354908784008EC
:1080F0004000DF2210400870F8BDC1782F48817021
:108100002D4909780029F7D100780128F4D12C48AD
:108110000122017811430170F8BD2748007800283A
:10812000FAD1264800780228F6D1254A2021107875
:108130000843012108431070F8BD1F490978002940
:10814000FAD14178082916D11D4A1178CB0912D1EC
:1081500043791C020379E418184BDC80C4798579D3
:10816000240264191C81447A007A24022018588160
:10817000802001431170124901200A7802430A70DD
:10818000F8BD00006C010020740100207601002081
:10819000580500206601002004EC00086B01002057
:1081A000FE00002004ED00086A01002068010020A4
:1081B0001C070020040200206F0100205806002048
:1081C0007101002010B53E493E484A8902808A89E3
:1081D0004280CA8982808A8BC2804A8B02810A8847
:1081E00042814A8882818A88C281CA8802820A8939
:1081F00042820A8A8282498AC1823349097801838C
:1082000032490A8A82848A890284CA8942844A8AD3
:10821000C2848A8A0285CA8A42850A8B82854A8BF1
:10822000C2850A8802864A8842868A888286CA88E7
:10823000C2860A89028749894187254801882548DD
:108240000180254909884180244909888180244981
:108250000988C1802349098801812349098841810E
:1082600022490988818122490988C18121490988D7
:1082700001820120FCF796FE1F4C20840020FCF7B1
:1082800091FE60840220FCF78DFEA084002003F0A4
:10829000D7F8E0840020FDF793FC20850020FDF74F
:1082A0009DFC60850120FDF799FCA085134801889D
:1082B000E1854188218681886186C088A08610BDBD
:1082C00032030020A40A002052030020540300209F
:1082D00002010020E40A0020040100200A0100201D
:1082E0000C010020160100201401002018010020BC
:1082F0001A01002044010020240B0020F600002079
:1083000070470000F8B59F48A04E007834469E4F55
:108310004034002808D09E4D012856D002287DD038
:10832000984900200870F8BDA08B30670020FDF749
:1083300055FCC00104F06CFA398801221203114384
:10834000A08391433980E08B30670120FDF746FC24
:10835000C00104F05DFA3988012252031143E08321
:1083600091433980A08A3067002003F05FF841050F
:10837000490D3888FF2201321043A1829043388092
:10838000E08A3067012003F051F84105490D388833
:10839000012252021043E18290433880208B3067E3
:1083A000022003F043F84105490D3888012292026A
:1083B000104321839043F16E316751000843884395
:1083C0003880704901200870F8BD3189388808224A
:1083D00010437186082188433880F08E2086308AC9
:1083E00004F016FA398810221143F08691437089FF
:1083F00020221143B08691433980308F2086708AC5
:1084000004F006FA39884022114330874020814326
:108410003980708F2086B169706900E050E04018A3
:1084200004F0F6F939888022114370878020814357
:108430003980B08F2086B06904F0EAF9554F0822E0
:1084400039881143B08708208143F0898022114385
:10845000208080208143B089208640221143F0870C
:1084600040208143EB68AB612869E8614A4A2C7D72
:108470001470022211433980401C2861474CA042ED
:1084800003D90120286100202875B469706900199A
:10849000C009C018E860424B98420CD95B42C01832
:1084A000E860287DFF2802D2401C287503E00020E8
:1084B0002875012028619143398032480270F8BD47
:1084C000B08D2086308804F0A3F939880122114349
:1084D000B085480840003880F08D2086708804F010
:1084E00097F9398802221143F085914339806088D9
:1084F0002086A08804F08CF92649FF2209880132E1
:1085000011436080234891430180308E208670683B
:1085100004F07EF939880422114330869143398072
:10852000736F2B60B16F69601E48027F2A72194A0F
:10853000012412882243174C2280491CB167174C32
:10854000A14203D9002101770121B1677168C909EE
:1085500059187167124B99420CD95B42C91871675F
:10856000017FFF2902D2491C017703E00021017736
:108570000120B067074851084900018001490020E7
:108580000870F8BD04020020780100206806002071
:10859000E80600207A01002008070020FFFFFF0006
:1085A000FF7F0000C8060020F0B587B0E749E84C1F
:1085B000C888002802D0401EC88089E1E54B218888
:1085C0001980A2889A80A07806909870A7799F71E8
:1085D000E0780590D870E079D8718446207A0490CC
:1085E0001872607A03905872A57A9D72E07AD872F8
:1085F000207B1873607B5873A07B9873D64E04233E
:10860000308818433080D54821260088B6014305BC
:1086100010463043002B08DAD14A11432180A08054
:10862000049818210843207240E1CE4B1B885E0558
:10863000CD4B06D521208001014321801A43A28021
:1086400034E1CA4E3678F60703D1C94E3678F607BC
:1086500007D0C84A11432180A08002200543A5729B
:1086600024E1C548402500888607002E01DB060767
:108670001CD50126F6033243A280860705D52026A5
:108680003243A28080221743A771020707D5A2793F
:10869000EF2632400607F60F36013243A271194326
:1086A00029432180A18819432943A180B349820627
:1086B000098819D5A2880126B60332431026324311
:1086C000A280664680273E4320273E43E6718E0700
:1086D00003D51A432A43A28006E026881E432E4370
:1086E00026801A432A43A280A54A12889606F60FCE
:1086F00002965706FF0FBC461706FF0F0197002E84
:1087000005D16646002E02D1019E002E2ED026886D
:108710001E43A7881F43A7802E432680029F012F58
:1087200008D1FF033E4320273E432680069E802734
:108730003E43A6706646012E08D126880127FF0316
:108740003E432680A67810273E43A670019E012E48
:108750000CD126880127BF033E4310273E432680C5
:10876000059E80273E4320273E43E670460608D5F7
:10877000A6880127BF033E43A680E67920273E4313
:10878000E671D20508D522880126B603324322803D
:10879000E27820263243E2700A06D20F002A03D084
:1087A00022889A43AA432280012709077F030826CB
:1087B00000291DDB22883A431A43A18819432A4322
:1087C00022802943A1806F490988C90B01D1C105C5
:1087D00008D53243228004991022114320221143EC
:1087E00031432172810503D5217A80221143217200
:1087F000400506D5208838432080207A2021084370
:1088000020722078012803D9208840084000208069
:108810002079012803D9A08840084000A0805A4848
:108820000088C00B0DD0208818432843042108433A
:108830002080A0881843A080039880210843284303
:10884000607252480088C00B06D02088042108437B
:108850002080607A284360720020FDF7CDF901275F
:10886000BF02002806D0607B802108436073208807
:10887000384320800120FDF7BFF9002805D0607B38
:10888000284360732088384320800020FDF7C2F918
:10889000002805D0607B304304210843607305E065
:1088A000607BF7210840FB2108406073A07A4106F5
:1088B00005D4C10903D1810601D4800703D52088DE
:1088C000022108432080244804220188914301802A
:1088D0002F48A178427891432E4A2AD12E4BA17974
:1088E0005D78A94325D1E1788578A94321D1E17943
:1088F0009B7899431DD1217AC378994319D1617A24
:108900000379994315D1A17A4379994311D1E17A39
:10891000837999430DD1217BC379994309D1617B37
:10892000037A9943090904D1A17B407A814308095C
:1089300005D0124801881143018007B0F0BD0F48EF
:1089400001889143018007B0F0BD000004020020BF
:108950001C0700202C0700207A0100207401002051
:1089600048280000760100200008000010010020C7
:1089700012010020420800001A0100201801002006
:1089800044010020320300200401002002010020E5
:10899000900A0020000200009A0A002030B43349F7
:1089A0008020087032490020088088808870887193
:1089B000C870C871087248728872C87208734873A8
:1089C00088732C490880888088708871C870C87145
:1089D000087248728872C87208734873887326498F
:1089E00008678885C88508864886C8864887888736
:1089F00022498882C88208838883C883088448847F
:108A00008884C884088548851D49487002220A72F6
:108A10001C4908801C4908801C4908801C490880A2
:108A20001C4908801C496F244C705F238B7067229F
:108A3000CA703F220A711D254D710A7217494C7088
:108A40008B70DF22CA70FF220A714A710A721449C0
:108A50000870144908710021134A4B00D052491C78
:108A6000C9B28029F9D330BC7047000072010020E0
:108A70001C0700202C07002068060020A806002004
:108A80000807002010020020740100207601002059
:108A9000780100207A010020900A00209A0A002024
:108AA0000602002004020020A40A002070B5FCF792
:108AB000E3FB0D4D288803F0ABFE0C4CE08068888A
:108AC00003F0A6FE2081686803F0A2FE6081A88CF6
:108AD000A081288D03F09CFE2082E88CE081688DC7
:108AE00003F096FE608270BD68060020A806002094
:108AF00070B5054D288803F08BFE044CE080688833
:108B000003F086FE208170BD68060020A8060020C4
:108B1000F0B58DB000200490F848007802900C90D9
:108B2000F74B1888810706D502218843188004F086
:108B3000F3FF0DB0F0BDF34A11888C0507D5012075
:108B400040028143118005F05DF80DB0F0BDEE4CA0
:108B500000212170ED4D01070CD5ED490A78002A5E
:108B600004D00A7821784B1C23706A54E449082207
:108B700090430880E748E849C0780B9009880A913B
:108B8000E649E84B0A88E6498026897A0991E64950
:108B9000089119888C4608990B8E099931430791E1
:108BA00000281FD00B98012800D1FCE30B98022865
:108BB00001D101F0F5FA0B98032801D101F029FB4E
:108BC0000B98042801D101F031FB0B98FF28BCD190
:108BD0000C98002801D101F062FBD14907988872F6
:108BE0000DB0F0BDD1490C984E8E60310696972895
:108BF00000D1EEE353DC7C287BD03BDC402879D0ED
:108C00001ADC3A2877D00CDC192875D004DC00284F
:108C100073D0012872D1C4E0202870D030286DD1E3
:108C2000E0E03B38052869D202007A4412799218B4
:108C30009744F7EFEEEDEC00592870D00DDC4F288B
:108C40006ED005DCBA4946286BD04A2856D18DE152
:108C5000512867D0552851D1BFE1B649B04B0978AA
:108C60001B78782871D0792870D07A286FD07B282B
:108C700044D110E27D381A2840D206007E4436796D
:108C8000B619B744F8F7F6F5F4F3828282F2F1F000
:108C9000EFEEEDECEBEAE9E8E7E6E58282E4C328F3
:108CA00000D1EEE31DDC98382B286ED20100794408
:108CB000097949188F44F0EFEFEFEFEFEF69EEED30
:108CC000ECEBEAE9E8E7E6E5E4E369696969696923
:108CD0006969696969696969696969696969E2E113
:108CE000E000954EE128B6780596944EB67807D107
:108CF000FBE3E0E1EDE08EE066E04BE045E06AE0BA
:108D000026DCD82800D1F1E313DCCA2800D1EEE339
:108D100009DCC42800D1EBE3C92836D1E9E371E1CD
:108D200038E1E6E045E1CB2800D1F1E3CF282CD1B2
:108D3000EFE3DC2800D1EDE3DD2800D1EBE3DE2812
:108D400000D1E9E3DF2820D1E7E370E17BE192E1A4
:108D5000F02800D1F7E30CDCE2380A2815D2030032
:108D60007B441B79DB189F44F1F010EFEE101010DC
:108D700010EDF12800D1E7E3F52800D1F3E3F62860
:108D800000D1F1E3FA2800D1EFE365490798887232
:108D90000DB0F0BD20780B9A411C21702A540DB003
:108DA000F0BD57480088400506D520780022411CB8
:108DB00021702A540DB0F0BD614802782078411C22
:108DC00021702A540DB0F0BD2078B022411C2170D2
:108DD0002A540DB0F0BD20781722411C21702A546E
:108DE0000DB0F0BD464A10884106F9D5052129701D
:108DF000012169700021A970E9702971697106214A
:108E000021704021884310800DB0F0BD56E04AE04B
:108E100043E011E005E020789922411C21702A549A
:108E2000F2E70A792078431C23702A544979207884
:108E3000421C22702954E7E78A792078431C23706A
:108E40002A54C9792078421C22702954DCE7A2E315
:108E50007BE34FE326E301E3DEE2BBE2A4E27FE251
:108E600042E22DE209E2E5E1B7E18AE179E168E178
:108E700057E14FE13FE12EE1F1E3F1E3F1E3F1E30B
:108E8000F1E3F1E3F1E3F1E3F1E3F1E3F1E3F1E342
:108E9000F1E3F1E3F1E3CAE3C3E320780022411CEC
:108EA00021702A54B0E70A7A2078431C23702A5490
:108EB000497A2078421C22702954A5E78A7A2078C2
:108EC000431C23702A54C97A2078421C22702954EA
:108ED0009AE70F20C00203906946097B2078421C64
:108EE000227029546846417B2078421C2270295404
:108EF0008AE70A9800072AD503912AE06601002034
:108F000074010020760100206E010020580400202A
:108F10006A01002004020020320300207A010020B0
:108F20001C07002078010020A80600206806002009
:108F300092F800002C070020540100204C01002072
:108F400072010020F1E3F1E3F1E3F1E3F1E3F7482B
:108F500003906846017B2078421C227029546846A1
:108F6000417B2078421C227029544DE70A98000763
:108F700002D5EF48039000E003916846017B20781A
:108F8000421C227029546846427B2078411C217083
:108F90002A5439E7462003906946097B2078421C11
:108FA000227029546846417B2078421C2270295443
:108FB0002AE7E04800880390694688894005400D0B
:108FC0000390097B2078421C227029546846417B1B
:108FD0002078421C2270295416E70A98C00702D054
:108FE000D548039001E0D54803906846017B20787E
:108FF000421C227029546846417B2078421C227012
:10900000295401E70A98C00702D0CD48039001E037
:10901000CC4803906846017B2078421C227029547A
:109020006846417B2078421C22702954ECE65007A8
:1090300004D52078421C22702954E5E62078411C92
:1090400021702B54E0E650070AD5BF4A2078431C14
:109050002370295451782078421C22702954D3E679
:10906000BA492078421C22702B5449782078421C3F
:1090700022702954C8E6500706D5B3488278207874
:10908000411C21702A54BFE6B04882782078411CE8
:1090900021702A54B8E6500706D5AB48C27820782C
:1090A000411C21702A54AFE6A848C2782078411CA0
:1090B00021702A54A8E6500706D5A348027A2078E2
:1090C000411C21702A549FE6A048027A2078411C56
:1090D00021702A5498E6500706D59B48427A20789A
:1090E000411C21702A548FE69848427A2078411C0E
:1090F00021702A5488E6500706D59348827A207852
:10910000411C21702A547FE62078099A411C217065
:109110002A5479E68D48C27A2078411C21702A545D
:1091200072E6500706D58848027B2078411C2170E2
:109130002A5469E68548027B2078411C21702A5414
:1091400062E6500706D58048427B2078411C21709A
:109150002A5459E67D48427B2078411C21702A54CC
:1091600052E6500706D57848827B2078411C217052
:109170002A5449E67548827B2078411C21702A5484
:1091800042E6D00714D07248018803910621297065
:109190006A46117B6970517BA970017AE970017987
:1091A0002971417969718079A871072020702BE6B7
:1091B0006848406F0390062028706A46107B6870EC
:1091C000507BA870087FE870087E2871487E68711F
:1091D000887EA8710720207016E6900715D55C4898
:1091E000018B0391062129706A46117B6970517BBE
:1091F000A97059490978E970017F2971417F697126
:10920000807FA87107202070FEE551488189039175
:10921000062129706A46117B6970517BA970017D16
:10922000E970017C2971417C6971807CA8710720FB
:109230002070E9E549480088400509D520780021DB
:10924000421C227029542078421C22702954DBE5EC
:109250006046C00701D0039302E03E48808D039032
:109260006846017B2078421C227029546846417B65
:109270002078421C22702954C6E5384800884005F1
:1092800009D520780021421C227029542078421CE4
:1092900022702954B8E56046800701D5039302E0A7
:1092A0002C48C08D03906846017B2078421C2270B8
:1092B00029546846417B2078421C22702954A3E53A
:1092C000D00501D5039302E00898408803906846D2
:1092D000017B2078421C227029546846417B20780B
:1092E000421C227029548FE51C480088400509D58E
:1092F00020780021421C227029542078421C2270C0
:10930000295481E56046000701D5039301E00698E2
:1093100003906846017B2078421C227029546846DD
:10932000417B2078421C227029546DE5B1F8000081
:109330009BF800004201002034FB00006CFA0000A2
:109340006CF90000A0F800002C0700201C0700208A
:10935000E8060020680600200807002074010020AD
:10936000F4480088400509D520780021421C22706D
:1093700029542078421C2270295445E56046C006D5
:1093800001D5039302E0EC48C08E03906846017B50
:109390002078421C227029546846417B2078421C68
:1093A0002270295430E5EBE36046C00501D50393F4
:1093B00002E00898808A03906846017B2078421C6E
:1093C000227029546846417B2078421C227029541F
:1093D0001AE503E1D7480088400508D56046C00576
:1093E00001D503930BE00898808A039007E060465C
:1093F000800501D5039302E00898C08A039068466F
:10940000017B2078421C227029546846417B2078D9
:10941000421C22702954F7E4C6480088400508D54C
:109420006046C00501D503930BE00898808A03903D
:1094300007E06046400501D5039302E00898008BE1
:1094400003906846017B2078421C227029546846AC
:10945000417B2078421C22702954D5E4B54800880D
:10946000400509D520780021421C2270295420781B
:10947000421C22702954C7E46046C00402D50393FD
:1094800003E0CDE30898808B03906846017B207849
:10949000421C227029546846417B2078421C22706D
:1094A0002954B1E4A3480088400509D5207800215B
:1094B000421C227029542078421C22702954A3E4B3
:1094C0006046800401D5039302E00898C08B0390A6
:1094D0006846017B2078421C227029546846417BF3
:1094E0002078421C227029548EE488E23CE2DBE3BF
:1094F000BBE3EFE38F48008840050FD520780021BB
:10950000421C227029542078421C227029547BE48A
:10951000F0E3D6E330E23CE25CE269E2604640041C
:1095200001D5039302E00898008C03906846017B04
:109530002078421C227029546846417B2078421CC6
:109540002270295460E4FDE3FDE37A480088400579
:109550000CD520780021421C227029542078421C0E
:109560002270295450E4EFE3EFE349E36046C00B77
:1095700001D0039302E00898408C03906846017B79
:109580002078421C227029546846417B2078421C76
:109590002270295438E467480088400509D52078AE
:1095A0000021421C227029542078421C2270295428
:1095B0002AE46046000601D5039302E05E48408F2E
:1095C00003906846017B2078421C2270295468462B
:1095D000417B2078421C2270295415E455480088AC
:1095E000400509D520780021421C2270295420789A
:1095F000421C2270295407E46046400701D50393BA
:1096000002E04D48008E03906846017B2078421CA2
:10961000227029546846417B2078421C22702954CC
:1096200009E420782222411C21702A540EE40C986F
:10963000424A993801014018115C102900D91021C3
:10964000831804981A5C2078461C26702A540498C3
:10965000401CC0B2049004988842F2D922E474E11C
:1096600064E154E10BE1C2E0B2E0A2E092E082E00A
:1096700072E04BE03BE02BE015E0FFE70A98C00703
:1096800002D02F48039001E02E4803906846017BEA
:109690002078421C227029546846417B2078421C65
:1096A0002270295409E40A98C00702D02448039084
:1096B00001E0254803906846017B2078421C227017
:1096C00029546846417B2078421C227029540FE4BB
:1096D0001E4803906946097B2078421C2270295459
:1096E0006846417B2078421C227029543DE418488A
:1096F00003906946097B2078421C227029546846F1
:10970000417B2078421C227029542EE4114803909A
:109710006946097B2078421C227029546846417BA7
:109720002078421C227029541FE42DE331E2E1E14C
:10973000B3E18BE17401002068060020F2030020F1
:1097400020FB0000B4F8000010FA00005CF00000FC
:10975000F4190000B36A0000FE4803906946097BD3
:109760002078421C227029546846417B2078421C94
:10977000227029540DE4F84803906946097B20784B
:10978000421C227029546846417B2078421C22707A
:1097900029540DE4F14803906946097B2078421C66
:1097A000227029546846417B2078421C227029543B
:1097B00012E4322003906946097B2078421C227013
:1097C00029546846417B2078421C2270295418E4B1
:1097D000002003906946097B2078421C227029549E
:1097E0006846417B2078421C2270295409E4207885
:1097F0000E21421C227029542078E621421C22703E
:1098000029542078F821421C227029542078902372
:10981000421C22702B5420780123421C22702B54AE
:109820002078B423421C22702B542078421C2270D2
:1098300029542078F422431C23702A5420780923C9
:10984000461C26702B542078BC23461C26702B54B3
:109850002078431C237029542078431C23702A54F9
:1098600020781122431C23702A542078B622431CEE
:1098700023702A542078421C227029540AE420784C
:109880000E21421C227029542078CC21421C2270C7
:1098900029542078F921421C2270295420789021E3
:1098A000421C2270295420780921421C227029541C
:1098B0002078BC22411C21702A542078F821431CB6
:1098C000237029542078F423461C26702B542078CA
:1098D0001126471C27702E542078C026471C27705D
:1098E0002E542078461C267029542078461C267059
:1098F0002B5420781923461C26702B542078431CA7
:1099000023702A542078421C2270295408E44620EF
:1099100003906946097B2078421C227029546846CE
:10992000417B2078421C2270295409E47D20039059
:109930006946097B2078421C227029546846417B85
:109940002078421C227029540AE47D200390694645
:10995000097B2078421C227029546846417B20787C
:10996000421C2270295404E47D480178019120783A
:10997000421C227029541AE42078FC21421C2270D7
:10998000295420782818FAF7EFFD2078001F20705E
:109990000DE4FAF7BFFD009020780421421C2270EC
:1099A0002954684601782078421C22702954684660
:1099B00041782078421C22702954684681782078AA
:1099C000421C227029546846C1782078421C2270BB
:1099D000295419E420782821421C22702954207827
:1099E00028180021FAF796FE2078283020700BE422
:1099F000FAF782FD21784A1C2270685404E420782A
:109A00000621421C22702954564A20781178431CA2
:109A10002370295451782078421C22702954524ACC
:109A200020781178431C2370295451782078421CE7
:109A3000227029544D4A20781178431C23702954F0
:109A400051782078421C2270295415E42078062190
:109A5000421C22702954464A20781178431C2370F6
:109A6000295451782078421C22702954414A207888
:109A70001178431C2370295451782078421C22709D
:109A800029543D4A20781178431C23702954517879
:109A90002078421C2270295411E46046000514D538
:109AA00020780322431C23702A540A7C2078431C0C
:109AB00023702A544A7C2078431C23702A54897CC2
:109AC0002078421C227029540DE420780322431C84
