:020000040800F2
:08000000F0100020E5400008AB
:020000040800F2
:1040000045434431363032303130373058585858C3
:1040100058150020E5400008ED400008EF4000087A
:104020000000000000000000000000000000000090
:10403000000000000000000000000000F140000847
:104040000000000000000000F3400008F5400008F8
:10405000F7400008F7400008F7400008F740000864
:10406000F7400008F7400008F7400008F740000854
:10407000F7400008F7400008F7400008F740000844
:10408000F7400008F7400008F7400008F740000834
:10409000F7400008F740000800000000F740000863
:1040A000F7400008F7400008F7400008C96B000817
:1040B000F7400008F7400008F740000875E80008DE
:1040C000A1E8000800000000F74000080000000020
:1040D0000348854600F03EF800480047BBEA000868
:1040E000581500200448804704480047FEE7FEE7D3
:1040F000FEE7FEE7FEE7FEE7ADCB0008D140000893
:1041000030B50B46014600202022012409E00D466F
:10411000D5409D4205D31D469540491B25469540F7
:1041200040191546521E002DF1DC30BD70B500243B
:104130002546002801DA01244042002901DA012540
:104140004942FFF7DDFFAC4200D04042002C00D0D6
:10415000494270BD064C0125064E05E0E36807CCD8
:104160002B430C3C98471034B442F7D3FFF7B4FF0D
:10417000E01E0108001F010870B58C180578401C6E
:104180006B075B0F01D10378401C2A1106D102781E
:10419000401C03E006780E70401C491C5B1EF9D1E0
:1041A0002B0705D40023521E0DD40B70491CFAE7CF
:1041B0000378401CCB1A921C03E01D780D70491C3B
:1041C0005B1C521EF9D5A142D8D3002070BD10B59A
:1041D0000B460021846A1C43846200BF0C461443D2
:1041E0002146416110BD002904D0826801231A4391
:1041F000826003E0826802231A43826070470029CC
:1042000004D0C26801231A43C26003E0C2685208A6
:104210005200C2607047C26802239A43C260C268FB
:104220000A43C2607047000010B504460548844246
:1042300007D10121401507F073FE0021601507F03A
:104240006FFE10BD0024014030B501460020002261
:1042500000238C680125ED072C438C6000BF8C681F
:10426000E30FDB07521C0F242403A24201D0002BD2
:10427000F5D18C68E40FE407002C01D1086C00E054
:10428000002030BD30B50246002000230124240662
:104290000C40002C05D0946801252D06AC43234624
:1042A00000E013681C460C40002C01D0012000E007
:1042B000002030BD10B50022C268084B1A400C79AE
:1042C00064030B6823438C682343CC6823430C6945
:1042D00023434C6923431A43C26010BD03D2FFFF3E
:1042E00081680422114381607047002101600171DF
:1042F0008160C160016141617047000010B592B0FA
:104300003348FFF791FF0121084607F0D9FD01214D
:10431000480207F0F5FD2F4801F054F92C484030D1
:1043200001902D480290002003900420049000206A
:104330000590802006904000079080000890202083
:10434000099000020A9000200B9001A9214801F079
:10435000EBF901211F4801F027F902211C48FFF762
:104360005AFF0CA8FFF7C1FF00200C90012008A9FC
:10437000087500200E90109011900CA91448FFF7BA
:1043800099FF00240AE0E000144BC0184268E000E6
:1043900019580F48FFF71BFF601CC4B2042CF2DB56
:1043A0000B48FFF751FF01210948FFF71CFF00BF31
:1043B0000B490748FFF766FF0028F9D00448FFF7CC
:1043C0008FFF01210248FFF71AFF12B010BD000055
:1043D00000240140080002400C0100201C110108CB
:1043E000010000014200024B9A5A0A807047000007
:1043F0000C01002002480088C005C00F7047000073
:104400006C010020024800884005C00F7047000082
:10441000E201002010B5002001F04AFE002804D17E
:10442000012001F045FE002801D0012010BD002030
:10443000FCE700000A48C078C00900280DD00948F0
:1044400000780006C00F002807D005480078400615
:10445000C00F002801D0012070470020FCE70000B9
:10446000AC0900206E01002002480088C005C00F82
:10447000704700006E01002007480088C005C00F8B
:10448000002807D0054800884005C00F002801D14A
:10449000012070470020FCE76C010020E2010020B1
:1044A0000948407AC00900280CD008480088C00B91
:1044B000002807D0044800784006C00F002801D02B
:1044C000012070470020FCE7AC09002056010020C5
:1044D000034800788007C00F012148407047000062
:1044E0005C010020024800880004C00F70470000F3
:1044F00054010020F8B505460E461746002D04D09D
:10450000012D09D0022D15D10DE03A46314600208B
:1045100008F0F6F904460FE03A463146012008F06B
:10452000EFF9044608E03A463146022008F0E8F97F
:10453000044601E0002400BF00BF2046F8BD70B56E
:1045400005460E46002D04D0012D08D0022D12D1B3
:104550000BE03146002008F061FA04460DE03146D8
:10456000012008F05BFA044607E03146022008F01B
:1045700055FA044601E0002400BF00BF204670BD8C
:1045800010B50446204603F03BFE10BD10B50020D8
:1045900008F0E2FA10BD000001200B4908700B4939
:1045A00008700B4908700B4908700B4908700B49DB
:1045B00008700B4908700B4908700B4908700B49CB
:1045C00008700B49087070470C0300200D03002091
:1045D0000E0300200F030020100300201103002011
:1045E00012030020130300201403002015030020F1
:1045F0001603002010B5FFF737FF012801D12C4921
:104600000870FFF731FF002815D1294800780128EC
:1046100011D12848008828490988884205DA2648A7
:104620000088401C2449088005E0002020490870CB
:10463000012022490870FFF7EDFE012801D1204931
:104640000870FFF7E7FE002813D11D480078012805
:104650000FD1184800880A2805D216480088401C47
:104660001449088005E0002015490870012015490B
:104670000870FFF737FF012801D113490870FFF7D1
:1046800031FF002813D11048007801280FD10F48BE
:1046900000880A2805D20D480088401C0B49088074
:1046A00005E000200649087001200949087010BD86
:1046B0002F03002034030020300300200F030020CC
:1046C00032030020130300203603002038030020AB
:1046D0001503002007480078401CC0B20549087047
:1046E0000A2806DB0020087003480068401C0249C5
:1046F000086070472E0300201C03002070B50120C5
:104700001749087017490870174908701749087049
:104710001749087017490870174908701749087039
:104720001749087017490870174908701749087029
:104730001749087017490870174908701749087019
:104740000020FFF71DFF054600242146284603F000
:1047500069FD00BF012212490220FFF7CBFE70BDA8
:104760000C0300200D0300200E0300200F03002087
:104770001003002011030020120300201303002067
:104780001403002015030020160300201703002047
:1047900018030020190300201A030020240300201E
:1047A0001B03002010B510480078C007C00F002878
:1047B00003D0FFF727FE002800D010BDFFF71AFE38
:1047C000002802D001200949087008480078012813
:1047D00008D1FFF70FFE002804D10BF0CFF900201D
:1047E0000249087000BFE8E71B0300202B030020EC
:1047F00010B510480078C007C00F002803D0FFF79D
:1048000001FE002800D010BDFFF762FE002802D094
:1048100001200949087008480078012808D1FFF7ED
:1048200057FE002804D10BF0D1F90020024908708E
:1048300000BFE8E71B0300202A03002070B5002416
:10484000002514480BF0AAFC00BF04E00020114929
:104850000855601CC4B2302CF8DB0E490120FFF76C
:104860006EFE012513E02A460A490020FFF742FEAA
:10487000002404E0002007490855601CC4B2292C1C
:10488000F8DB04490020FFF75AFE681CC5B2052D6D
:10489000E9DD70BD2211002070B505460E460024EA
:1048A000002E0CD10E480BF079FC00BF04E00C4840
:1048B000005D2855601CC4B2282CF8DB0FE00848C6
:1048C0000BF06CFC002404E0285D05490855601CD1
:1048D000C4B2282CF8DB02490120FFF730FE70BD7E
:1048E0002211002010B500241F480078C007C00F17
:1048F000002803D0FFF786FD002800D010BDFFF789
:10490000E7FD00282ED119480088401C80B21749C5
:1049100008804B21C900884224DB0020134908800D
:1049200013480BF03BFC12482030C07A01041048B9
:104930002030807A000209180D482030407A0C1887
:10494000641C0B48203044722002C1B20848203059
:1049500081722004C1B206482030C172044901208E
:10496000FFF7EDFD00BFC9E71B0300202C0300206B
:104970002211002070B5FE480088401C80B2FC491E
:104980000880C82800D270BDC820F9490880F948BD
:104990000078C007C00F002839D0FFF733FD00288A
:1049A00035D100BFF4488078C00900280DD0F24806
:1049B00000784006C00F002807D0F0480078800635
:1049C000C00F002801D0012000E0002000281FD0E7
:1049D000EB48007801281BD10020E9490870FFF757
:1049E000D5FD84B22246E7490020FFF783FD01216F
:1049F00005200AF031FB0028D2D10BF00FF901217C
:104A000005200BF0DFFEDF490020FFF798FDC2E232
:104A100000BFD9488078C006C00F00280DD0D64806
:104A200000784006C00F002807D0D4480078400620
:104A3000C00F002801D0012000E0002000281FD076
:104A4000D148007801281BD10020CF490870FFF71A
:104A50009DFD84B22246CB490020FFF74BFD01218A
:104A600003200AF0F9FA0028D1D10BF0D7F8012180
:104A700003200BF0A7FEC3490020FFF760FD8AE288
:104A8000FFF7D8FC00281FD0C048007801281BD1B0
:104A90000020BE490870FFF779FD84B22246B9496B
:104AA0000020FFF727FD002102200AF0D5FA002898
:104AB000ADD10BF0B3F8002102200BF083FEB14919
:104AC0000020FFF73CFD66E200BFAB48C0788006DF
:104AD000C00F002813D0A9480088C005C00F0028C7
:104AE0000DD0A54800884004C00F002807D0A24878
:104AF00000880005C00F002801D1012000E000203F
:104B0000002822D0A248007801281ED1FFF792FC8D
:104B100000281AD19E490870FFF738FD84B222465A
:104B200098490020FFF7E6FC002108200AF094FADB
:104B30000028A4D10BF072F8002108200BF042FEEF
:104B400090490020FFF7FBFC25E200BF8A48007A6D
:104B5000C006C00F00280DD08E480088C005C00FC9
:104B6000002807D0844800784006C00F002801D0F4
:104B7000012000E0002000281FD08748007801288D
:104B80001BD1002084490870FFF700FD84B2224643
:104B90007C490020FFF7AEFC002108460AF05CFAD1
:104BA000002890D10BF03AF8002108460BF00AFEDD
:104BB00074490020FFF7C3FCEDE100BF6E48007AA6
:104BC000C00900280DD0734800888005C00F002858
:104BD00007D0694800784006C00F002801D00120A6
:104BE00000E0002000281FD06C48007801281BD16D
:104BF00000206A490870FFF7C9FC84B22246614967
:104C00000020FFF777FC00210E200AF025FA00288B
:104C10009AD10BF003F800210E200BF0D3FD594977
:104C20000020FFF78CFCB6E100BF5348407BC00971
:104C3000002804D0002001F02BFA00280AD14E48A9
:104C4000407B4006C00F002806D0012001F020FA6A
:104C5000002801D0012000E0002000281FD050488B
:104C6000007801281BD100204D490870FFF78EFC09
:104C700084B2224643490020FFF73CFC0021042077
:104C80000AF0EAF9002897D10AF0C8FF00210420B1
:104C90000BF098FD3B490020FFF751FC7BE1FFF74B
:104CA000FFFB00281FD03F48007801281BD10020BF
:104CB0003C490870FFF76AFC84B222463149002063
:104CC000FFF718FC012108460AF0C6F90028AAD10E
:104CD0000AF0A4FF012108460BF074FD29490020C9
:104CE000FFF72DFC57E100BF2348407A4006C00F74
:104CF000002806D02C480088C00B002801D00120D5
:104D000000E00020002822D02848007801281ED189
:104D1000FFF7C6FB00281AD124490870FFF736FCBC
:104D200084B2224617490020FFF7E4FB0121072047
:104D30000AF092F90028B1D10AF070FF0121072092
:104D40000BF040FD0F490020FFF7F9FB23E100BF06
:104D5000094800788007C00F002845D01448007823
:104D6000012841D1FFF788FB00283DD1104921E0FF
:104D7000260300201B030020AC0900206E01002048
:104D80000C030020221100200D0300200E03002040
:104D90000F0300206C0100201103002010030020ED
:104DA00013030020140300205401002015030020E9
:104DB000160300200870FFF7E9FB84B222469049F1
:104DC0000020FFF797FB012103200AF045F9002896
:104DD00088D10AF023FF012103200BF0F3FC88495E
:104DE0000020FFF7ACFBD6E000BF86488079C00901
:104DF00000280DD0834800784006C00F002807D057
:104E0000814800788007C00F002801D0012000E011
:104E1000002000281FD07D48007801281BD10020E9
:104E20007A490870FFF7B2FB84B222467449002029
:104E3000FFF760FB00210A200AF00EF9002809D1D3
:104E40000AF0ECFE00210A200BF0BCFC6C490020AB
:104E5000FFF775FB9FE000BF6A48C079C0090028D2
:104E60000DD0694800788006C00F002807D065483B
:104E700000784006C00F002801D0012000E000208B
:104E800000281FD06248007801281BD1002060490B
:104E90000870FFF77BFB84B2224659490020FFF7D8
:104EA00029FB01210B200AF0D7F8002873D10AF062
:104EB000B5FE01210B200BF085FC51490020FFF7C6
:104EC0003EFB68E000BF4F488079C006C00F002855
:104ED0000DD04C4800784006C00F002807D04A4843
:104EE00000780007C00F002801D0012000E000205A
:104EF00000281FD04748007801281BD100204549D1
:104F00000870FFF743FB84B222463D490020FFF7BB
:104F1000F1FA00210C200AF09FF800283BD10AF09A
:104F20007DFE00210C200BF04DFC35490020FFF7E1
:104F300006FB30E000BF38488078C007C00F00286B
:104F400007D0304800784006C00F002801D001206B
:104F500000E0002000281ED03048007801281AD137
:104F600000202E490870FFF711FB84B22246244925
:104F70000020FFF7BFFA01210D200AF06DF800288C
:104F800009D10AF04BFE01210C200BF01BFC1C493F
:104F90000020FFF7D4FAFFF76FFA00281ED0204850
:104FA000007801281AD11F480078002805D1012077
:104FB0001C49087000201C4908801B4800880A28EA
:104FC0000CDB002016490870FFF7DAFA05460024CA
:104FD0002146284603F07AF900BF00BF1248008836
:104FE000401C80B210490880FF21F531884204DD61
:104FF00000200C4908700C49088000BFC3E4000081
:1050000022110020AC0900206C01002017030020B1
:105010001803002019030020B80500201A030020FF
:1050200012030020240300202803002010B50446AA
:10503000002C01D0012C01D1034804700249022048
:10504000FFF77DFA10BD00001B0300200149086036
:10505000704700001C030020002008E000218200AF
:105060000B4B995042000B4B9952411CC8B2092876
:10507000F4DB002008E000218200074B9950420039
:10508000064B9952411CC8B20928F4DB7047000056
:105090003C030020600300207403002098030020DC
:1050A00010B500240EE01949204600F073F8A00066
:1050B00017490858154909884018A100144A50504A
:1050C000601CC4B2092CEEDB12480088401C114958
:1050D00008800846008801218902884214D10024F2
:1050E0000DE0A0000A4908588001000C61000A4A3E
:1050F00050520020A100064A5050601CC4B2092C36
:10510000EFDB00200349088010BD00001A010020D9
:1051100074030020180100209803002010B500241B
:105120000EE01849204600F035F8A000164908584E
:10513000144909884018A100134A5050601CC4B299
:10514000092CEEDB11480088401C104908800846F5
:105150000088402814D100240DE0A0000A49085816
:105160008002000C61000A4A50520020A100064A49
:105170005050601CC4B2092CEFDB002003490880AA
:1051800010BD0000160100203C0300201401002087
:105190006003002070B505460C462B0009F070FC3A
:1051A000090607111C20242A2E32380033E021463C
:1051B0000220FFF717F9208818494843000B208088
:1051C00029E021460320FFF70DF9208814494843C0
:1051D0000001000C20801EE01248008820801AE0A8
:1051E00010484088208016E00E4840684002000CBD
:1051F000208010E00B48008920800CE00948008ADC
:10520000208008E0074840694002000C208002E04E
:1052100000BF00BF00BF00BF70BD00004F06000010
:10522000A7110000F408002001460022092903DA32
:105230004800044B1A5A02E000BF00BF00BF90B202
:10524000704700009803002001460022092903DA74
:105250004800044B1A5A02E000BF00BF00BF90B2E2
:105260007047000060030020024800788007C00FEC
:1052700070470000B80500200149098A0180704785
:10528000E005002070B504460D462946204600F092
:105290007FF970BDF8B56846FFF7EEFF002411E016
:1052A00068460188E200224810188088814207DAA7
:1052B000E1001F48455EE10008180226865F03E012
:1052C000601CC4B2032CEBDB00BFA8B201B2194AC8
:1052D000118000BFB0B201B2174A118000BF68460A
:1052E00016498989018000BF002413E068460188BF
:1052F000E2000F48083810188088814208DAE1007F
:105300000B480838455EE10008180226865F03E076
:10531000601CC4B2012CE9DB00BFA8B201B2084A8C
:10532000118000BFB0B201B2064A118000BFF8BDC3
:105330002E0600200A0200200C020020E0050020BA
:10534000060200200802002010B51C4C2146022055
:10535000FFF748F820881A494843000B208000BF17
:10536000184A01212046008809F006FD21460880E0
:1053700009888904080C1449088000BF00BF214631
:105380000320FFF72FF82088104948430001000C44
:10539000208000BF0B4808301021415E2046008865
:1053A0004143012000030818C000000C214608807A
:1053B00008880749088000BF10BD00002A020020AD
:1053C0004F06000046060020F8010020A71100004B
:1053D000FC01002010B52D480078C007C00F002840
:1053E00019D02B4A917850780AF026FA274800788D
:1053F0008007C00F002807D00AF0C4FF23480078B8
:105400000221884321490870204800784008400064
:105410001E49087038E01F480078030009F030FB8F
:1054200007050B11171D23292F0009F0FFFF01208D
:105430001849087027E009F04BFF02201549087051
:1054400021E009F09FFF0320124908701BE009F0DA
:105450009BFF04200F49087015E009F0FFFF0520AD
:105460000C4908700FE009F0CFFF062009490870C9
:1054700000BF09F01BFF00200649087003E0002070
:105480000449087000BF00BF10BD0000DE0100200D
:10549000E408002028020020F8B500246846FFF741
:1054A000EBFE00BF13E068460188E2000E481018CA
:1054B0008088814209DAE1000B48405A86B2E10057
:1054C000094808180225455F03E0601CC4B2032C9C
:1054D000E9DB00BF00BF0548068000BF00BF0448ED
:1054E000058000BFF8BD0000660600207E01002098
:1054F0008001002010B509F047FF10BD10B50BF07A
:10550000ADF9184A012108020AF0F4FC154A0832E4
:105510000221FF2021300AF0EDFC124A283201213D
:10552000FF20A1300AF0E6FC0E4A30320321FF20B2
:10553000C1300AF0DFFC0B4A4832012148020AF070
:10554000D9FC084A50320321112040010AF0D2FC54
:10555000044A68320321132040010AF0CBFC09F011
:10556000B7FD10BDFE05002010B507F01FFB10BDF4
:1055700010B50246104603464B401B06DB0D034C9C
:10558000E35A04126340184610BD00001C150108C0
:1055900002461046484002460148805C70470000C1
:1055A0001C14010870470000002904D00268012380
:1055B0001A43026003E00268014B1A400260704720
:1055C000FEFF00000168554A1140016000210160A2
:1055D00041608160C1605249884208D15049083910
:1055E00049680F2211434E4A083A516094E04C49F1
:1055F0001431884208D14A4908394968F0221143D8
:10560000474A083A516087E045492831884209D124
:105610004349083949680F2212021143404A083AA7
:10562000516079E03E493C31884209D13C49083912
:1056300049680F2212031143394A083A51606BE05E
:1056400037495031884209D13549083949680F2214
:1056500012041143324A083A51605DE03049643126
:10566000884209D12E49083949680F221205114391
:105670002B4A083A51604FE029497831884209D1D4
:105680002749083949680F2212061143244A083A6B
:10569000516041E02349884208D1224908394968CC
:1056A0000F2211431F4A083A516035E01D49143159
:1056B000884208D11B4908394968F0221143194A28
:1056C000083A516028E017492831884209D1154924
:1056D000083949680F2212021143124A083A5160F0
:1056E0001AE010493C31884209D10E49083949680D
:1056F0000F22120311430B4A083A51600CE009498A
:105700005031884208D10749083949680F221204EC
:105710001143044A083A516070470000FEFF000040
:10572000080002400804024010B5002202680D4B38
:105730001A400C6A8B6823430C6923434C6923434A
:105740008C692343CC6923434C6A23438C6A2343EB
:105750001A430260CB6843600B6883604B68C36088
:1057600010BD00000F80FFFFF7B582B00646002590
:105770000027002400200190FF210498FEF7D6FCAA
:105780000746FF210498FEF7D1FC0D460120400397
:10579000002302220090A7480188A74801F050FD8D
:1057A00005204003A54908600AE0A4490868411E95
:1057B000A24A1160002803D109F04BFC05B0F0BDEE
:1057C00002219D4801F0C0FC0028EED0FF22120209
:1057D000039810400112984801F018FD052040037D
:1057E0009649086009E095490868411E934A11608E
:1057F000002802D109F02DFCE0E702218E4801F0DB
:10580000A3FC0028EFD00398C1B28B4801F0FEFC46
:10581000052040038949086009E088490868411E5D
:10582000864A1160002802D109F013FCC6E7402126
:10583000814801F089FC0028EFD0002F7BD00120A7
:1058400001906FE00198002814D1052040037B49A6
:10585000086009E079490868411E784A116000280B
:1058600002D109F0F6FBA9E78021734801F06CFC36
:105870000028EFD0012F1AD1002D18D1019800284F
:105880000AD0092080027B06FF2200906948018827
:10589000694801F0D5FC23E0002001235B06FF22CC
:1058A000009064480188644801F0CAFC18E001983F
:1058B00000280BD00920800201231B06FF22009044
:1058C0005C4801885C4801F0BBFC09E00020012332
:1058D0001B06FF22009057480188574801F0B0FC92
:1058E00000200190002419E005204003534908607E
:1058F00009E052490868411E504A1160002802D14F
:1059000009F0A7FB5AE704214B4801F01DFC0028D1
:10591000EFD0494801F076FC3055641CFF2CE3D1F0
:1059200036197F1E002F8DD1002D67D00520400332
:10593000424908600AE038E040490868411E3F4A91
:105940001160002802D109F084FB37E780213A4832
:1059500001F0FAFB0028EFD00020EAB201235B0639
:10596000009034480188344801F06AFC002419E0B2
:10597000052040033149086009E030490868411EAC
:105980002E4A1160002802D109F063FB16E70421BA
:10599000294801F0D9FB0028EFD0274801F032FC5C
:1059A0003055641CAC42E3D128E009208002EAB201
:1059B00001235B0600901F4801881F4801F040FC4E
:1059C000002419E0052040031C49086009E01B4938
:1059D0000868411E194A1160002802D109F039FBFC
:1059E000ECE60421144801F0AFFB0028EFD0124888
:1059F00001F008FC3055641CAC42E3D105204003A3
:105A00000E49086009E00D490868411E0B4A116003
:105A1000002802D109F01DFBD0E62021064801F044
:105A200093FB0028EFD02021034801F06FFB0020FA
:105A3000C4E600001C0100200058004020010020A6
:105A40001CB50020019001235B0602460090184817
:105A50000188184801F0F4FB00BF0120000316493B
:105A600008603021134801F051FB0121114801F079
:105A70005DFB00BF10490868411E0F4A11600028F5
:105A8000F8D10198411C0191FF212D31884202D1AA
:105A900009F0DFFA1CBD1021064801F055FB002873
:105AA000DBD12021034801F031FB0020F2E70000A8
:105AB0001C0100200058004020010020F7B582B0F2
:105AC0000E46144600200190002700250090304625
:105AD000F117490E0918C911C901711A89B200914B
:105AE00080210098081A85B22046E117490E09184E
:105AF0004902090C0191E117490E0918C911C901A0
:105B0000611A8FB20098002850D10198002814D152
:105B10007E4807800088C2B23146029800F0FAF849
:105B2000002803D009F095FA05B0F0BDFFF788FF13
:105B3000002879D009F08DFAF6E71BE08020734940
:105B4000088008460088C2B23146029800F0E2F8A8
:105B5000002802D009F07DFAE6E7FFF771FF002880
:105B600002D009F076FADFE73046803086B202983C
:105B7000803002900198411E89B201910028DDD148
:105B8000002FD6D0614807800088C2B23146029803
:105B900000F0C0F8002802D009F05BFAC4E7FFF774
:105BA0004FFF0028C5D009F054FABDE7019800283E
:105BB00042D1AC422BDD554805800088C2B2314647
:105BC000029800F0A7F8002802D009F042FAABE7EB
:105BD000FFF736FF002802D009F03BFAA4E7601B6C
:105BE0004A4908800B461B88DAB2731999B2029BA6
:105BF000581900F08FF8002802D009F02AFA93E72C
:105C0000FFF71EFF00287ED009F023FA8CE73F48FB
:105C100007800088C2B23146029800F07BF8002865
:105C200003D009F016FA7FE76DE0FFF709FF0028BF
:105C300069D009F00EFA77E7601B84B22046E117BD
:105C4000490E0918C9110191E117490E0918C91126
:105C5000C901611A8FB2002D18D02C480580008828
:105C6000C2B23146029800F055F8002802D009F07F
:105C7000F0F959E7FFF7E4FE002802D009F0E9F94E
:105C800052E7701986B20298401902901FE08020F6
:105C90001E49088008460088C2B23146029800F0CA
:105CA00039F8002802D009F0D4F93DE70520400377
:105CB00017490860FFF7C4FE002802D009F0C9F9AF
:105CC00032E73046803086B20298803002900198E8
:105CD000411E89B201910028D9D1002F13D00B4861
:105CE00007800088C2B23146029800F013F80028FD
:105CF00002D009F0AEF917E7FFF7A2FE002802D0A4
:105D000009F0A7F910E700200EE7000024010020A9
:105D100020010020F8B506460C4617460025012054
:105D20004003C3020222009048480188484801F01D
:105D300087FA052040034749086009E0454908689B
:105D4000411E444A1160002802D109F082F9F8BDD1
:105D500002213F4801F0F8F90028EFD0FF200002AF
:105D6000204001123A4801F051FA05204003394918
:105D7000086009E037490868411E364A116000286A
:105D800002D109F066F9E2E70221314801F0DCF9BD
:105D90000028EFD0E1B22E4801F038FA0520400388
:105DA0002C49086009E02B490868411E294A116006
:105DB000002802D109F04DF9C9E78021244801F0FB
:105DC000C3F90028EFD0002001235B063A4600907B
:105DD0001E4801881E4801F033FA19E005204003EF
:105DE0001C49086009E01B490868411E194A1160F6
:105DF000002802D109F02DF9A9E70221144801F089
:105E0000A3F90028EFD0715D114801F0FFF96D1C76
:105E1000BD42E3D1052040030E49086009E00D4969
:105E20000868411E0B4A1160002802D109F011F9DF
:105E30008DE72021064801F087F90028EFD02021C6
:105E4000034801F063F9002081E700001C010020F5
:105E50000058004020010020A02001490880704720
:105E60001C010020024800888005C00F7047000018
:105E7000E201002070B5044600F0D1F805461E3D51
:105E800000F0DCF84B38854204DD00F0C8F8054628
:105E90001E3D03E000F0D2F805464B3D00F0C9F886
:105EA0005538854212DD00F0BAF805461E3D00F077
:105EB000C5F84B38854204DD00F0B1F805461E3DBB
:105EC00008E000F0BBF805464B3D03E000F0B1F8F8
:105ED0000546553D00F0B7F8553885422EDD00F0F7
:105EE0009EF805461E3D00F0A9F84B38854204DDBA
:105EF00000F095F805461E3D03E000F09FF80546CA
:105F00004B3D00F096F85538854212DD00F087F8D9
:105F100005461E3D00F092F84B38854204DD00F046
:105F20007EF805461E3D0DE000F088F805464B3D25
:105F300008E000F07EF80546553D03E000F083F8E8
:105F40000546553D00F070F81E38854262DD00F0D0
:105F500066F805461E3D00F071F84B38854204DDB9
:105F600000F05DF805461E3D03E000F067F80546C9
:105F70004B3D00F05EF85538854212DD00F04FF8D9
:105F800005461E3D00F05AF84B38854204DD00F00E
:105F900046F805461E3D08E000F050F805464B3D2A
:105FA00003E000F046F80546553D00F04CF8553842
:105FB00085422BDD00F033F805461E3D00F03EF82B
:105FC0004B38854204DD00F02AF805461E3D03E00B
:105FD00000F034F805464B3D00F02BF8553885426B
:105FE00010DD00F01CF805461E3D00F027F84B3888
:105FF000854203DD00F013F81E380EE000F01EF8B5
:106000004B380AE000F015F8553806E000F01BF8B0
:10601000553802E000F008F81E38206070BD10B559
:10602000002006F039FE10BD10B5012006F034FE48
:1060300010BD10B5032006F02FFE10BD10B50220D4
:1060400006F02AFE10BD10B5042006F025FE10BD96
:106050000146022905DA0E204843034A8018808849
:1060600070470248FCE700002A100020FFFF0000F4
:106070000146022905DA0E204843034A8018408869
:1060800070470248FCE700002A100020FFFF0000D4
:106090000146022907DA0E204843044A8018007B93
:1060A0008007C00F70470020FCE700002A10002086
:1060B0000146022907DA0E204843044A8018007B73
:1060C000C007C00F70470020FCE700002A10002026
:1060D00010B502280FDA0E224243074BD218127B6A
:1060E00002239A434B00022423401A430E234343C6
:1060F000014C1B191A7310BD2A10002010B502287C
:106100000EDA0E224243074BD218127B520852007D
:10611000CB07DB0F1A430E234343024C1B191A73A0
:1061200010BD00002A10002010B51B480088401C3C
:1061300080B21949088005282CDB0020088008F06F
:10614000CBFC002424E000BF144800780007C00FF7
:10615000002803D0FF205F301149088000BF11489C
:106160000078C006C00F00280AD00E2060430E49F8
:1061700040180089002803D1FF20F5300849088025
:106180000748008800B26100084A5052601CC4B23F
:10619000022CD8DB10BD00009A020020E401002090
:1061A000960200206A0100202A100020EA01002047
:1061B00052490978491C514A117011460978312910
:1061C0007ED100211170002093E042004C49895A91
:1061D0001E2251438AB20E2141434A4BC9184A80BC
:1061E00000220E2141435A5200BF45492439097803
:1061F0008907C90F00297AD000BF43490978C90629
:10620000C90F002973D00E2141431A4689184988C5
:106210007D221201914218DA3C49095C14290FDDF4
:106220000E2141431A468918097B49084900491C37
:106230000E224243D21811730021354A115404E052
:106240003249095C491C314A11540E2141432D4AFF
:10625000891849882F4A914219DA2F49095C142973
:1062600010DD0E214143274A8918097B0222914300
:10627000891C0E224243234BD21811730021244A59
:10628000115404E02449095C491C234A11540E218D
:1062900041431C4A89184988204A914227DD1C49FC
:1062A000095C02291EDD0E214143164A8918097B2B
:1062B000490849000E224243124BD218117300E0E4
:1062C0001AE00E2141431A468918097B02229143A4
:1062D0000E224243D218117300210F4A11540B4A67
:1062E000115404E00A49095C491C094A1154411C33
:1062F000C8B2022800DA68E770470000A202002056
:10630000DC0500202A1000205C0100209E020020F5
:10631000A0020020DC0500009C020020AC0D000063
:10632000002047E000220E214143244B5A527D2297
:106330000E214143C9188A8000220E214143C91809
:106340000A81CF2212010E214143C9184A8000223E
:106350000E214143C918CA800E2141431A468918AB
:10636000097B490849000E224243D21811730E21BD
:1063700041431A468918097B022291430E22424367
:10638000D21811730E2141431A468918097B042241
:1063900091430E224243D21811730E2141431A46F3
:1063A0008918097B082291430E224243D2181173A7
:1063B000411CC8B20228B5DB704700002A1000203B
:1063C000014908707047000098020020022804DA92
:1063D0000E224243014BD218118170472A1000202F
:1063E00030B5044604250B20000400F0B1F8054642
:1063F000042D17D10C480069022108430A4908619D
:1064000008464461006940210843074908610B20A0
:10641000000400F09DF80546034800690221884306
:1064200001490861284630BD0020024004200D4982
:10643000C968C907C90F002901D0012010E0094926
:10644000C96810221140002901D0022008E0054946
:10645000C96804221140002901D0032000E0042073
:106460007047000000200240034800698021084373
:1064700001490861704700000020024070B50446E1
:106480000D4604260B20000400F062F80646042E98
:1064900011D10A4800690121084308490861258093
:1064A0000B20000400F054F8064604480069400838
:1064B000400002490861304670BD000000200240E3
:1064C00078B506460C460425002000900B200004F9
:1064D00000F03EF80546042D24D11348006901213F
:1064E00008431149086134800B20000400F030F8A3
:1064F0000546042D10D1B01C0090200C0099088096
:106500000B20000400F024F8054607480069400805
:1065100040000549086105E0034800694008400063
:1065200001490861284678BD0020024005480069FD
:1065300080210840002804D00348024948600348ED
:10654000486070470020024023016745AB89EFCDCA
:1065500010B503460424FFF769FF044603E0FFF784
:1065600065FF04465B1E012C01D1002BF7D1002BE7
:1065700000D10524204610BD00B5024800F004F803
:1065800000BD0000F83F000810B50146CA1C04E039
:106590000302147823431846521E9142F8D910BDC5
:1065A00070B504460025FFF7C1FF2046FFF718FF2E
:1065B000042802D0FFF758FF0125FFF755FF2846B2
:1065C00070BD70B504460D460026FFF7AFFF2946A3
:1065D0002046FFF753FF042803D0FFF745FF0120B3
:1065E00070BDFFF741FF3046FAE770B504460D462F
:1065F0000026FFF79BFF29462046FFF761FF04288E
:1066000003D0FFF731FF012070BDFFF72DFF3046AB
:10661000FAE7704710B50C480C490860002408E000
:10662000A0000A4909680858A100094A5050601C96
:10663000C4B2302CF4DB0121084605F071FC0320C4
:1066400006F028F910BD0000104000082C010020C1
:1066500000000020F0B50A4600210023002400BFFE
:106660003DE001258D402B4615681D402C469C427F
:1066700034D11579012D02D01579022D16D18568F6
:106680004F000326BE40B543856055794E00B540A6
:10669000866835438560858801268E40B5438580B0
:1066A000858896798E40B6B23543858005684F005F
:1066B0000326BE40B543056015794E00B540066817
:1066C00035430560C5684F000326BE40B543C5602D
:1066D000D5794E00B540C6683543C560491C1029C0
:1066E000BFD3F0BDF0B5002300244D07EE0E1546D4
:1066F000B5402B46CD10AE0005462035AD594E07AE
:10670000F70E0F26BE40B543CE10B6000746203721
:10671000BD51CD10AE003D46AD591D432C46CD10A8
:10672000AD003E467451F0BD02460020138A0B4076
:10673000002B01D0012000E00020704705490988A6
:1067400008229143C20008231A401143014A1180D4
:10675000704700005C010020054909882022914310
:10676000420120231A401143014A11807047000062
:106770005C010020054909884022914382014023A1
:106780001A401143014A1180704700005C0100204B
:106790000549098802229143420002231A4011430D
:1067A000014A1180704700005C01002006490988F9
:1067B000012252029143420201235B021A4011431B
:1067C000014A1180704700005E01002005490988D8
:1067D00010229143020110231A401143014A1180F3
:1067E000704700005C010020024800780007C00FDD
:1067F000704700006A010020024800780006C00FC0
:10680000704700006A010020024800888005C00F20
:10681000704700006A01002002480088C005C00FD0
:10682000704700006A010020024800780007C00F8E
:1068300070470000B805002002480078C006C00F6D
:10684000704700005C0100207047704710B500BF22
:10685000082004F043FD012814D17848008803285B
:1068600003DD0020FFF794FF08E074480088032848
:1068700004DC72480088401C704908800020704980
:10688000088013E06E480088642803DD0120FFF7CC
:106890007FFF08E06A480088642804DC68480088B4
:1068A000401C6749088000206449088000BF0E2012
:1068B00004F014FD00281FD062480078002803DD92
:1068C0000120FFF73BFF08E05E480078002804DC69
:1068D0005C480078401C5B49087000205A490988D0
:1068E00080229143C20180231A401143564A1180ED
:1068F00000BF5649087013E054480078002803DDB3
:106900000020FFF71BFF08E050480078002804DC57
:106910004E480078401C4D490870002049490870D5
:1069200000BF1B2004F0DAFC002814D0484800788F
:106930000A2803DD0120FFF749FF08E044480078FA
:106940000A2804DC42480078401C414908700020B5
:106950004049087013E03F480078022803DD00201A
:10696000FFF734FF08E03B480078022804DC394890
:106970000078401C3749087000203549087000BF76
:10698000132004F0ABFC002814D0334800781428FE
:1069900003DD0120FFF7E0FE08E02F48007814280F
:1069A00004DC2D480078401C2B49087000202B493E
:1069B000087013E029480078142803DD0020FFF751
:1069C000CBFE08E025480078142804DC2348007832
:1069D000401C2249087000201F49087000BF122087
:1069E00004F07CFC002814D01D480078142803DD36
:1069F0000120FFF7BFFE08E019480078142804DCE6
:106A000017480078401C1649087000201549087086
:106A100013E014480078142803DD0020FFF7AAFED5
:106A200008E010480078142804DC0E480078401C68
:106A30000C49087000200A49087010BD440200206B
:106A400046020020480200206A010020490200207E
:106A50004A0200204B0200204C0200204D02002080
:106A60004E0200204F02002010B5FFF7E5FE00287F
:106A700005D0FFF7B9FE002801D0012100E0002178
:106A8000504800888005C00F81421ED0FFF7D4FE19
:106A9000002805D0FFF7A8FE002801D0012000E063
:106AA0000020044621461C2004F0F2FC00BFFFF742
:106AB000C3FE002805D0FFF797FE002801D0012073
:106AC00000E000200446FFF771FEFFF795FE3D4908
:106AD0000978C907C90F884215D0FFF78DFE044613
:106AE00021460B2004F0D4FC00BFFFF785FE0446CE
:106AF0003448008840084000E107C90F0843314985
:106B0000088000BF00BFFFF77FFE2E490978890784
:106B1000C90F884216D0FFF777FE044621460C20A5
:106B200004F0B6FC00BFFFF76FFE0446254800885E
:106B30000221884361000222114008432149088054
:106B400000BF00BFFFF768FE1E4909784907C90F5B
:106B500088421BD0FFF760FE0446002C01D10120C3
:106B600000E0002001461A2004F092FC00BFFFF76D
:106B700053FE04461348008804218843A1000422E0
:106B8000114008430F49088000BF00BFFFF74CFECB
:106B90000C4909884905C90F884211D0FFF73CFE0E
:106BA0000446002C01D1012000E000200146112004
:106BB00004F06EFC00BFFFF737FE0446FFF7F6FD5A
:106BC00010BD00005E010020FEB5A148846900BF31
:106BD000002000F04BFB00BF012080022040002875
:106BE00007D000BF01218902994800F091FA00BF47
:106BF0002CE1012040022040002807D000BF0121E5
:106C00004902934800F084FA00BF1FE1FF200130E1
:106C10002040002807D000BFFF2101318C4800F040
:106C200077FA00BF12E110202040002806D000BFF4
:106C30001021874800F06CFA00BF07E18548007812
:106C4000002810D100F074F9002000F06BF900204A
:106C500000F05CF9002000F053F9002000F05CF92E
:106C600000207D4908700820204000285DD000BF2A
:106C70000821774800F04CFA00BF00BF744800F0CC
:106C800071FA00281BD0002000F052F90020724950
:106C9000087000BF71480078002808D0704801785B
:106CA0007048007800F05EF9054600F035F900BF45
:106CB00003F070FB00BF012066490870C6E000BF0A
:106CC00063488069012108436149886100BF6148C8
:106CD0000078002818D05F480078012807D05D4868
:106CE0000078022803D05B480078032804D10120F3
:106CF00000F0CAF800F078F9002000F019F900203F
:106D00005549087000F00EF900BF5448007800287B
:106D100007D055480178002000F024F9054600F01E
:106D2000FBF802204B49087090E004202040002826
:106D300041D000BF4648406AC0B2054600BF474840
:106D40000078002807D029464648007800F00AF964
:106D5000064600F0E1F802A800F0CCF83D480078C3
:106D6000022812D16846007AFF2823D23F4968469C
:106D7000007A0D546946097A491CC8B200F0D2F86D
:106D800000BF02F09BFA00BF14E0324800780328ED
:106D900010D1A91CC8B200F0B3F834486946097A8A
:106DA00045546946097A491CC8B200F0BBF8022074
:106DB000284908704AE002202040002846D001A857
:106DC0002B490978017000BF6846007900282AD055
:106DD0002148007869460979884224DC1E480078F9
:106DE00069460979884213D100BF1C480078002801
:106DF00009D0684600F078F81748017868460078AE
:106E000000F0A2F804E014480178FF2000F09CF89C
:106E10001149087817490D5C00BF0F480078401CE5
:106E20000D49087000E0FF2500BF0948856200BFDA
:106E300000BF0A480078002807D029460948007892
:106E400000F090F8064600F067F800BFFEBD0000B5
:106E50000054004039020020340200203501002097
:106E600038020020DC01002036020020E407002068
:106E7000DB010020E4060020024800888005C00FE6
:106E800070470000CA01002006490988FF2201322C
:106E900091430202FF2301331A401143014A11803A
:106EA00070470000CA0100200649098801229202A9
:106EB0009143820201239B021A401143014A11802F
:106EC00070470000CA0100200649098801225202C9
:106ED0009143420201235B021A401143014A11808F
:106EE00070470000CA01002001490978017070470D
:106EF000DC0100200149097801707047D9010020A8
:106F00000149087070470000D8010020014908704D
:106F100070470000D7010020014908707047000049
:106F2000DC0100200149087070470000D9010020F1
:106F30000149087070470000DB010020014908701A
:106F400070470000DA010020014A505470470000E9
:106F5000E406002010B52021014800F0F5F810BD2E
:106F60000054004070B504460D4629462046FEF701
:106F70000FFB70BD10B5002404E000201649085531
:106F8000601CC4B2FF2CF8D3002405E02146002089
:106F9000FFF7DAFF601CC4B2FF2CF7D30020FFF725
:106FA000BBFF0020FFF7CAFF0020FFF7C1FF002052
:106FB000FFF7B8FF0020FFF7A9FF0020FFF7A0FFB1
:106FC000002006490870B02005490870084600787E
:106FD000401C0449087010BDE40700203402002062
:106FE00036020020380200201FB5FFF7B3FF00284B
:106FF00006D100BF3F480088C005C00F002877D0E9
:1070000000203C4909880122D2029143C202012397
:10701000DB021A401143374A118000BF00BF00F065
:1070200031F900BF03A8FFF765FF02A832490978CC
:10703000017000BF01A8FFF757FF6846007B0028DA
:1070400041DD2E480078022803D02C480078032820
:1070500039D16846017B007A814231D16846007996
:1070600000280ED1FFF708FF012805D10020FFF707
:107070002BFF0120FFF718FF00BF09F015FC00BF30
:107080001EE0FFF7F9FE00281AD10120FFF71CFFD0
:107090000120FFF709FF684619490978017000BF10
:1070A0000078FFF74BFF01201649897A202291438F
:1070B000420120231A401143124A917200BF00BFBF
:1070C0000020FFF72FFFFFF745FF002808D000BF83
:1070D00020210D4800F01AF800BF00200749087071
:1070E00000BF002000F0E8F800BF0020FFF7CCFE52
:1070F0001FBD0000CA010020D80100203902002075
:10710000C4010020AC09002000540040C161704758
:10711000C1617047002904D0026801231A4302604C
:1071200003E002685208520002607047002905D04F
:10713000426801235B031A43426004E04268012372
:107140005B039A434260704710B50246002300205B
:1071500093691C460C402346002B01D0012000E01F
:10716000002010BD10B50146002200208B690124CB
:10717000240423401A46002A00D101E001208002A5
:1071800010BD002A03D003680B43036002E00368CC
:107190008B4303607047000010B50A460021036866
:1071A0005B085B0003600168144B1940946824027B
:1071B00053682343194301600F2424061368A34333
:1071C0000361036801242343036000218160C160DF
:1071D0001469936923431946816083680124E40399
:1071E00023438360D16803680B4303604168044B09
:1071F000194053691943416010BD0000FFE0CF0002
:10720000FF7FFF070146486AC0B27047816270473E
:1072100001684908490001600168016801221143C1
:1072200001607047002905D0026801235B049A437E
:10723000026004E0026801235B041A4302607047A5
:10724000F0B50C4600214168074D2940A505AD0D5C
:107250001604FF273F043E4035431D43059E35433A
:1072600029434160F0BD0000009800FC002142006D
:10727000024B99524200024B99527047160200206D
:107280001A02002038B504464820604309494018D6
:107290004030017968460170482060430549401834
:1072A00040304179684641700021817001F0B4FEA0
:1072B00038BD00001C17010838B50446482060435B
:1072C0000949401840300179684601704820604300
:1072D000054940184030417968464170012181706C
:1072E00001F09AFE38BD00001C17010810B50020FF
:1072F0003F49098820229143420120231A4011432B
:107300003B4A118000BF00246EE0482060433949A9
:107310004018806B012865D1482262430B46D21881
:107320009188482262439858FFF7FEF9002819D146
:1073300060003149095A482060432E4A8018C088AD
:10734000814207DA60002C49085A401C61002A4A31
:1073500050520BE000206100274A5052012027497B
:10736000085503E000206100234A5052482262433E
:10737000204BD218918948226243D2189068FFF7B7
:10738000D3F9002819D160001D49095A48206043EB
:10739000184A8018C089814207DA60001849085AE3
:1073A000401C6100164A50520BE000206100144A54
:1073B000505201201149085503E000206100104A95
:1073C00050520E48005D01280CD148216143094A02
:1073D00089188869FFF71CFF204608F013FB00207E
:1073E00006490855601CC4B2022C8EDB10BD00009B
:1073F000CA0100201C1701081602002014020020F8
:107400001A02002038B500242DE0204608F0FAFAD0
:1074100048206043154940182030007F012820D1C2
:10742000482262430B46D218116C48226243D2189C
:1074300090690122FFF7A5FE482060430B494018E0
:107440004030017968460170482060430749401880
:1074500040304179684641700121817001F0DCFDC6
:1074600000BF601CC4B2022CCFDB38BD1C17010862
:1074700002480078C006C00F704700005C01002081
:10748000024800788007C00F70470000B805002050
:107490000549897A02229143420002231A4011438E
:1074A000014A917270470000AC0900200549098823
:1074B00004229143820004231A401143014A11809F
:1074C000704700006201002006490988FF2201324E
:1074D00091430202FF2301331A401143014A1180F4
:1074E00070470000620100200449098849084900EA
:1074F000C207D20F1143014A118070476201002078
:107500000549098804229143820004231A4011434B
:10751000014A118070470000640100200449098875
:1075200049084900C207D20F1143014A1180704730
:10753000640100200549098880229143C20180230B
:107540001A401143014A1180704700006E0100206B
:107550004300014AD1527047DC050020F0B593B0DA
:10756000044615462846691C8DB2265C2846691CCF
:107570008DB2215C684601732846691C8DB2215C7E
:10758000684641732846691C8DB2215C6846817348
:107590002846691C8DB2215C684601722846691C28
:1075A0008DB2215C684641722846691C8DB2215C0F
:1075B000684681722846691C8DB2215C10A8017250
:1075C0002846691C8DB2215C10A841722846691CAE
:1075D0008DB2215C10A801712846691C8DB2215C16
:1075E00010A841712846691C8DB2215C1091284673
:1075F000691C8DB2215C08A801772846691C8DB2F0
:10760000215C08A841772846691C8DB2215C08A836
:1076100001762846691C8DB2215C08A8417628466F
:10762000691C8DB2215C08A801752846691C8DB2C1
:10763000215C08A841752846691C8DB2215C08A808
:1076400001742846691C8DB2215C08A84174284643
:10765000691C8DB2215C08A801732846691C8DB293
:10766000215C08A841732846691C8DB2215C08A8DA
:1076700001722846691C8DB2215C08A84172284617
:10768000691C8DB2215C08A801712846691C8DB265
:10769000215C08A841712846691C8DB2215C08A8AC
:1076A00001702846691C8DB2215C08A841702846EB
:1076B000691C8DB2215C684601772846691C8DB231
:1076C000215C684641772846691C8DB2215C68467A
:1076D00001752846691C8DB2215C684641752846B3
:1076E000691C8DB2215C684601742846691C8DB204
:1076F000215C684641742846691C8DB2215C68464D
:1077000001762846691C8DB2215C68464176284680
:10771000691C8DB2215C684601702846691C8DB2D7
:10772000215C684641702846691C8DB2215C684620
:1077300081702846691C8DB2215C6846C170304654
:107740007349C87000BF00BF7248076800BF00BF20
:1077500071480068019000BF0398B84203D10299B4
:107760000198814214D003986A49086000BF0298CA
:107770006949086000BF01206849098802229143D5
:10778000420002231A401143644A118000BF00BF27
:1077900000BF63480088C004C00F00281BD100BF91
:1077A0005B48203840884004C00F002813D00120D7
:1077B0005B49098842039143420343031A40114342
:1077C000574A118000BF69461020085E5049203991
:1077D000088400BF00BF10A908894D4920390880DE
:1077E00000BF10A988884A492039488000BF10A9E5
:1077F00008784749887000BF6946888F4449203916
:10780000888000BF6946088F41492039C88000BF81
:107810006946888E3E492039088100BF6946088E36
:107820003B492039488100BF6946888D3849203955
:10783000888100BF6946088D35492039C88100BF5D
:107840006946888C32492039088200BF6946088C15
:107850002F492039488200BF6946888B2C4920393E
:10786000488300BF6946888A29492039C88300BFF8
:107870006946898AC8016421FCF742FC80B2059000
:107880006946888A2749888000BF00BF204920397F
:1078900009880904C80F00BF2349098804229143BD
:1078A000820004231A4011431F4A118000BF00BF09
:1078B0001749203909780907C80F00BF1146098800
:1078C00010229143020110231A401143164A1180DD
:1078D00000BF7D20C000154908600020FFF704FEAE
:1078E0000020FFF7E3FD0120FFF7EEFD6946088B5E
:1078F00007492039888300BF684601880020FFF7C8
:1079000027FE684641880120FFF722FE13B0F0BD34
:10791000D805002084010020880100206201002099
:107920006C010020340900206601002004030020BF
:1079300010B586B005AA3A4B1B88138000BF04AA75
:10794000384B1B88138000BF03AA374B1B8C138056
:1079500000BF00BF354A1388029300BF00BF5388A1
:10796000019300BF6A46931C314C24881480304C2C
:1079700064881C8000BF137D0C88621C0A8003553C
:107980006A46537D0C88621C0A8003556A46137C44
:107990000C88621C0A8003556A46537C0C88621C62
:1079A0000A8003556A46137B0C88621C0A800355C3
:1079B0006A46537B0C88621C0A8003556A46137A18
:1079C0000C88621C0A8003556A46537A0C88621C34
:1079D0000A8003556A4613790C88621C0A80035595
:1079E0006A4653790C88621C0A8003556A461378EC
:1079F0000C88621C0A8003556A4653780C88621C06
:107A00000A8003556A4693780C88621C0A800355E5
:107A10006A46D3780C88621C0A80035506B010BDF4
:107A200068010020AC010020B8050020FE05002000
:107A3000EA010020F0B593B0044615462846691CBB
:107A40008DB2265C2846691C8DB2215C10A801729B
:107A50002846691C8DB2215C10A841722846691C19
:107A60008DB2215C10A881722846691C8DB2215C00
:107A700010A801712846691C8DB2215C10A84171C3
:107A80002846691C8DB2215C10A881712846691CAA
:107A90008DB2215C10A801702846691C8DB2215C52
:107AA00010A841702846691C8DB2215C08A8017796
:107AB0002846691C8DB2215C08A841772846691CBC
:107AC0008DB2215C08A801762846691C8DB2215C24
:107AD00008A841762846691C8DB2215C0D91284684
:107AE000691C8DB2215C08A801742846691C8DB2FE
:107AF000215C08A841742846691C8DB2215C08A845
:107B000001732846691C8DB2215C08A84173284680
:107B1000691C8DB2215C08A801722846691C8DB2CF
:107B2000215C08A841722846691C8DB2215C08A816
:107B300001712846691C8DB2215C08A84171284654
:107B4000691C8DB2215C684601772846691C8DB29C
:107B5000215C684641772846691C8DB2215C6846E5
:107B600001762846691C8DB2215C6846417628461C
:107B7000691C8DB2215C684601752846691C8DB26E
:107B8000215C684641752846691C8DB2215C08A8B5
:107B900001702846691C8DB2215C08A841702846F6
:107BA000691C8DB2215C684601742846691C8DB23F
:107BB000215C684641742846691C8DB2215C684688
:107BC00001732846691C8DB2215C684641733046BA
:107BD0006B49487700BF00BF6A480068029000BF49
:107BE00000BF69480068019000BF12990298814265
:107BF00003D111990198814214D01298614908600B
:107C000000BF11986049086000BF01205F490988E2
:107C100002229143420002231A4011435B4A118021
:107C200000BF00BF10A908885549088000BF6946F9
:107C3000888F5349488000BF00BF554800788006B0
:107C4000C00F002853D000BF8978C807C00F00BFFD
:107C50005049098820229143420120231A401143B0
:107C60004C4A118000BF00BF454989784907C80FB9
:107C700000BF1146098840229143820140231A40E7
:107C80001143444A118000BF684643490978017096
:107C900000BF0078002803D00120FFF74BFC12E062
:107CA00000BF37488078C006C00F00BF34494988FC
:107CB000C905C90F0843324949888905C90F0843D6
:107CC0000746FFF737FC00BF2D4989788906C80FA2
:107CD00000BF30490988FF22013291430202FF238D
:107CE00001331A4011432B4A118000BF00BF69467F
:107CF000088F2349888000BF08A9087D204908779C
:107D000000BF6946088E1E49C88000BF6946888D3D
:107D10001B49088100BF6946088D1949488100BF89
:107D20006946888C1649C88100BF6946088C144989
:107D3000888100BF6946888B1149088200BF694667
:107D4000088B0F49488200BF6946888A0C4908831E
:107D500000BF6946088A0A49888200BF6946888947
:107D60000749C88200BF7D20C0000C490860002080
:107D7000FFF7D4FB0020FFF7C3FB13B0F0BD0000FA
:107D8000E00500208C01002090010020640100200B
:107D90006A0100206E010020FF010020080300207E
:107DA00010B58BB00AAA5E4B1B88138000BF09AACE
:107DB0005C4B1B88138000BF08AA5B4B1B88138099
:107DC00000BF07AA594B1B88138000BF06AA584B57
:107DD0001B88138000BF05AA564B1B88138000BF69
:107DE00004AA554B1B8A138000BF03AA534B1B8860
:107DF000138000BF02AA524B1B88138000BF01AA48
:107E0000504B1B88138000BF6A464F4B1B88138062
:107E100000BF08AA137A0C88621C0A80035508AABE
:107E2000537A0C88621C0A80035508AA13790C88BF
:107E3000621C0A80035508AA53790C88621C0A80C8
:107E4000035508AA13780C88621C0A80035508AAF7
:107E500053780C88621C0A8003556A46137D0C888F
:107E6000621C0A8003556A46537D0C88621C0A8096
:107E700003556A46137F0C88621C0A8003556A46C4
:107E8000537F0C88621C0A8003556A46137C0C8859
:107E9000621C0A8003556A46537C0C88621C0A8067
:107EA00003556A46137E0C88621C0A8003556A4695
:107EB000537E0C88621C0A8003556A46137B0C882B
:107EC000621C0A8003556A46537B0C88621C0A8038
:107ED00003556A46137A0C88621C0A8003556A4669
:107EE000537A0C88621C0A8003556A4613790C8801
:107EF000621C0A8003556A4653790C88621C0A800A
:107F000003556A4613780C88621C0A8003556A463A
:107F100053780C88621C0A8003550BB010BD00001A
:107F200066010020AC010020740100207E010020C9
:107F3000800100207C010020B805002006020020FE
:107F4000080200200A0200200C0200207D20C00050
:107F500002490860024908607047000004030020DD
:107F60000803002010B519480068002805D01748FC
:107F70000068401E154908600FE00120FFF7B4FAC1
:107F80000120FFF793FA0020FFF79EFAFFF770FA3F
:107F9000002802D00120FFF77BFA0D480068002876
:107FA00005D00B480068401E094908600CE001201C
:107FB000FFF7B4FA0120FFF7A3FAFFF759FA0028F8
:107FC00002D00120FFF764FA10BD00000403002076
:107FD00008030020024800884005C00F70470000D9
:107FE000E2010020024800780006C00F7047000040
:107FF0006E010020024800788006C00F7047000024
:108000006E010020024800784006C00F7047000053
:108010006E010020024800780007C00F7047000082
:108020006A01002010B500210A2003F031FA10BDCA
:1080300010B501210A2003F02BFA10BD7047000093
:1080400010B500BF584800780007C00F002812D0B4
:10805000FFF7E8FF554801780078401C534A10703C
:10806000192907D300201146087000BF092003F02A
:108070002DFA00BF97E04E480078401CC0B24C4932
:1080800008703228F6DB00200870FFF7C3FF0028D5
:1080900005D000BF092003F019FA00BF07E000BFB8
:1080A0000021092003F0F4F900BFFFF7C1FFFFF73B
:1080B000A1FF00283FD1FFF795FF00283BD1FFF734
:1080C000A1FF002837D100BF3A4800788007C00FD1
:1080D000002830D000BF384800788007C00F002843
:1080E00029D0FFF797FF002825D0FFF773FF00285E
:1080F00021D100BFFDF7CCFF002804D10120FDF7FE
:10810000C7FF002801D0012000E00020002806D190
:1081100000BF2A4800788007C00F002802D0FFF770
:1081200087FF40E000BF0121092003F0B1F900BF43
:10813000FFF778FF37E0FFF74DFF002833D1FFF757
:1081400059FF002807D1FFF74DFF002803D1FFF7A3
:1081500059FF002805D000BF0A2003F0B7F900BF7F
:1081600021E000BF164800788007C00F002818D112
:1081700000BF134800788006C00F002811D100BF4F
:108180000F4800780007C00F00280AD100BF0D4833
:1081900000880004C00F002803D1FFF73BFF002830
:1081A00001D1FFF745FF10BDE4010020ED020020E2
:1081B000EC020020E00500206A010020AC0900204C
:1081C0006C0100205601002070B504460D4629467A
:1081D0002046FDF7DDF970BD70B504460D46164624
:1081E000324629462046FDF7BFFA70BD70B50446F9
:1081F0000D461646324621462846FDF75FFC70BD07
:1082000001468800014A105A7047000030180108E2
:1082100010B507F0B9FE08F00DF807F0CDFD07F036
:10822000D7FF10BDF0B5C7B005460C4603200002CD
:10823000201886B227462A46314601A8FFF7CCFF10
:108240002A4601A9384600F057F847B0F0BD0000B3
:1082500070B503460C460120002100BF04E05D1804
:10826000034E755D6554491C9142F8D370BD000002
:10827000F409002010B514480078002806D0012821
:108280000AD002280ED0032818D111E008F02AFAEB
:1082900001200D49087015E008F0E2F802200A49B3
:1082A00008700FE008F02EF803200749087009E075
:1082B00008F0DAF900200449087003E000200249C0
:1082C000087000BF00BF10BD40020020F0B5C7B06D
:1082D00005460C4603200002201886B227462A468F
:1082E00001A93846FFF7B4FF2A4601A93046FFF737
:1082F0007DFF47B0F0BD000070B50346002000BF11
:1083000004E00C5C1D18034E7455401C9042F8D3D9
:1083100070BD0000F409002002480078C006C00FBC
:10832000704700006A010020024800780007C00F73
:108330007047000066010020024800888005C00FD9
:10834000704700006C01002002480088C005C00F83
:10835000704700006C010020024800784007C00F01
:10836000704700006A010020024800788006C00FB4
:10837000704700005E0100200149098801807047B4
:10838000F8010020064909880122D2029143C20265
:108390000123DB021A401143014A1180704700009B
:1083A0006C010020054909882022914342012023C5
:1083B0001A401143014A11807047000066010020F5
:1083C0000549098810229143020110231A401143E4
:1083D000014A1180704700006A01002005490988A0
:1083E00008229143C20008231A401143014A118018
:1083F00070470000660100200649098801229203A7
:108400009143820301239B031A401143014A1180C7
:10841000704700006C01002005490988082291433B
:10842000C20008231A401143014A1180704700001E
:108430006A01002006490988012252029143420242
:1084400001235B021A401143014A1180704700006A
:108450006C01002006490988FF2201329143020283
:10846000FF2301331A401143014A11807047000075
:108470006C01002006490988012292029143820280
:1084800001239B021A401143014A118070470000EA
:108490006C0100200449098849084900C207D20F2D
:1084A0001143014A118070476C0100200549098879
:1084B00020229143420120231A401143014A118096
:1084C000704700006C010020054909884022914353
:1084D000820140231A401143014A11807047000075
:1084E0006C010020054909880222914342000223C1
:1084F0001A401143014A1180704700006C010020AE
:108500000549098804229143820004231A4011433B
:10851000014A1180704700006C010020054909885C
:1085200008229143C20008231A401143014A1180D6
:10853000704700006C010020054909881022914312
:10854000020110231A401143014A118070470000B4
:108550006C0100200149087070470000F6010020FE
:1085600006490988012212039143020301231B03D8
:108570001A401143014A1180704700006C0100202D
:1085800006490988012292029143820201239B023B
:108590001A401143014A118070470000E401002095
:1085A00001490880704700007001002001490880DF
:1085B00070470000740100200149088070470000E6
:1085C0007601002010B51F480088042188431D490A
:1085D00008801D480088042188431B49088000BF8B
:1085E000184800784007C00F00281FD000BF084679
:1085F00000784007C00F002818D0144800880428CD
:1086000005DA12480088401C1049088018E0002054
:108610000E4908800E4800880121890288434018CD
:108620000B4908800120FFF795FF09E0002007496A
:10863000088007480088012189028843044908808E
:1086400010BD00006201002064010020CA02002069
:10865000E201002010B50024FFF766FE002802D1D9
:1086600001205A49087059480078012807D1FFF7BE
:108670005BFE002803D00020544908700124FFF756
:108680004BFE00280CD00120514908705148008849
:10869000002818D04F480088401E4E49088012E03C
:1086A000FFF73AFE00280ED14A48008800280AD178
:1086B00047480078012806D10020454908700A2063
:1086C000444908800124002C75D0002042490880CC
:1086D00000BF00BF00F0CAFD00BF0020FFF7DAFEB8
:1086E0000020FFF7FFFE0020FFF718FF0020FFF734
:1086F000DDFE0020FFF7AEFE0020FFF79BFE00200E
:108700003649098820229143420120231A4011430F
:10871000324A118000BF00BF1146098840229143B0
:10872000820140231A4011432C4A118000BF00BF30
:108730001146098880229143C20180231A401143C7
:10874000264A118000BF00BF114609885A00914394
:1087500002025B001A401143204A118000BF012031
:10876000FFF720FE64201E49088000BF00201D493D
:10877000098804229143820004231A401143194AB4
:10878000118000BF00BF1146098808229143C20032
:1087900008231A401143134A118000BF00BF0F493C
:1087A00009889A01914342029B011A4011430B4AE6
:1087B000118000BF002400BF0B480079C007C00F24
:1087C000002802D00020FFF7EDFD10BDCE020020F2
:1087D000CF020020CC0200206C0100206E0100209E
:1087E0007801002060010020E005002008B56846FF
:1087F000FFF7C2FDFFF7B0FD002822D068460088D1
:108800001249884213DD1248C0890A2809DB012079
:10881000FFF740FE0120FFF765FE0120FFF770FE25
:1088200012E00B48C089401C0949C8810CE0084887
:10883000C089002808DD0648C089401E0449C88157
:1088400002E000200249C88108BD00008607000040
:108850004610002000200649088048804882C880D1
:108860008882C881088208818881C882088370470D
:108870004610002008B5464800884005C00F002873
:1088800021D100BF43480088C005C00F00281AD07E
:1088900000BF41480078C007C00F00280DD03F48F6
:1088A0000088322805D23D480088401C3B4908809A
:1088B0000EE00120FFF766FD0AE00020374908803E
:1088C000FFF760FD04E0002034490880FFF75AFDFF
:1088D00000BF33480178009100BF68460078002847
:1088E00006D000BF2F4800788007C00F002819D19C
:1088F0000020FFF773FD00BF2B4800788007C00FF2
:1089000000280BD0FFF720FD002807D1FFF714FD4A
:10891000002803D10120FFF733FE37E00020FFF7E6
:108920002FFE33E0FFF7F8FC00281FD000BF1E48E1
:108930000088C005C00F002818D100BF1B48007870
:108940008006C00F002811D100BF184800784006EB
:10895000C00F00280AD100BF144800780006C00FDD
:10896000002803D10120FFF70BFE02E00020FFF7F3
:1089700007FE0F480078002803D10120FFF72EFDE5
:1089800004E00B480078401E0949087008BD00004B
:10899000E2010020B80500205A010020A6020020B4
:1089A000E10100205C0100206A0100206E0100202E
:1089B000A80200200EB500BFC5480088C005C00F42
:1089C00000286ED000BFC348818D029100BF00BF58
:1089D000C18D019100BF00BFBF480078C007C00F24
:1089E00000282FD100BFBC480078C007C00FBB498A
:1089F0000988884226D000BFB7480078C007C00F5A
:108A0000B64908802B208001B549088053204001D9
:108A1000B449088023200002B349088087208001E0
:108A2000B249088009200002B14908800520C00130
:108A3000B04908800B200002AF4908800120800265
:108A4000AE49088068468088AC490988884211DAB6
:108A5000AB480088AB49884205DAA9480088401C29
:108A6000A749088009E00020A54908800120FFF7F8
:108A7000C3FC02E00020FFF7BFFC6846008999496B
:108A80000988884223DAFEF7FBFC00281FD19E48A4
:108A90000088322806DA9C480088401C9A490880E1
:108AA0003EE013E10020984908800120FFF7D2FC46
:108AB0000120FFF7DFFC95480078002830D100BF87
:108AC00001F056FC00BF01209049087028E068467C
:108AD000008989490988884211DA8D4800888949C6
:108AE000884205DA8A480088401C8949088017E0D6
:108AF0000020874908800120FFF7BCFC10E0684691
:108B000000897749098888420ADB00207E4908806D
:108B1000FFF7A0FC0020FFF7ADFC00207B490870A8
:108B2000684600897049098888421BDD79480088B9
:108B3000322805DA77480088401C764908801FE013
:108B40000020744908800120FFF774FC7248007807
:108B5000002815D100BF01F00BFC00BF01206E49B9
:108B600008700DE06846008960490988884207DC82
:108B7000002068490880FFF75DFC00206649087006
:108B8000684600895B490988884219DAFEF778FC53
:108B9000002815D10120FFF713FC60480078002859
:108BA0001AD101205E490988402291438201402365
:108BB0001A4011435A4A118000BF584908700BE00F
:108BC000684600894A490988884205DD0020FFF788
:108BD000F7FB00205149087000BF3F48008800049F
:108BE000C00F002811D1FFF7AFFB00280DD1FFF710
:108BF000A3FB002809D1FEF743FC002809D1364821
:108C00000078C006C00F002803D00020FFF704FC46
:108C100002E00120FFF700FCFFF77EFB002803D0F5
:108C20000120FFF797FC51E000BF2B48008A00901D
:108C300000BF00BF284800780007C00F002822D0DE
:108C400068460088FF21DC31884208D368460088E6
:108C50003449884203D80020FFF77CFC35E06846A1
:108C6000008830492D31884209D3684600882D4953
:108C70006931884203D80420FFF76CFC25E0072007
:108C8000FFF768FC21E068460088FF21DC3188425C
:108C900008D3684600882349884203D80220FFF79A
:108CA00059FC12E0684600881E492D31884209D3DC
:108CB000684600881B496931884203D80620FFF7BF
:108CC00049FC02E00720FFF745FC00BF0EBD000095
:108CD00062010020F4080020B8050020C002002036
:108CE000AA020020AC020020AE020020B002002048
:108CF000B2020020B4020020B6020020B802002018
:108D0000C2020020983A0000BA020020C5020020EA
:108D1000BE020020BC020020C6020020C4020020C7
:108D20006A0100200D0200000EB502A8FFF724FB27
:108D300001A8B2490988018000BFFFF715FB002890
:108D400006D0AF480078002802D14120AD49088004
:108D5000FFF70AFBAA490870FFF7FEFA002871D056
:108D600068460089A84988420DDDA848008A0A287B
:108D700005DAA648008A401CA449088216E00120B2
:108D8000FFF7BEFB12E0684600899F4933398842ED
:108D90000CDA9E48008A002805DD9C48008A401EA7
:108DA0009A49088202E00020FFF7AAFB6846808803
:108DB000FF215A31884249DA68460089944988423D
:108DC00013DA92480089642809DB0120FFF762FB6F
:108DD0000120FFF7A3FB0120FFF7AEFB0EE08B485D
:108DE0000089401C8949088108E0884800890028DA
:108DF00004DD86480089401E844908816846008950
:108E00008349673988420DDA80488089642803DB0A
:108E10000120FFF791FB19E07C488089401C7B49C9
:108E2000888113E0684600897949333188420DDD35
:108E300076488089002806DD74488089401E734981
:108E4000888103E011E00020FFF776FB6846714956
:108E50000978017000BF007800280BD00120FFF7CF
:108E600025FB00206949488204E000206749088109
:108E7000088288816348008800283FD061480088C4
:108E8000401E6049088068468088FF215A31884228
:108E900013DD5E48C088052805DA5C48C088401CA0
:108EA0005A49C88005E00120FFF700FB0120FFF7C9
:108EB0000BFB00205549488202E000205349C8803E
:108EC00068468088FF215A31884213DD4F48408828
:108ED000322805DA4D484088401C4C4948806EE0F5
:108EE0000120FFF7E3FA0120FFF7EEFA00204749DF
:108EF000488264E000204549488060E068468088F8
:108F0000FF215A31884213DD4048C088052805DA20
:108F10003E48C088401C3D49C8800CE00120FFF756
:108F2000C5FA0120FFF7D0FA00203849488202E054
:108F300000203649C88068468088FF215A3188421F
:108F400013DD32484088052805DA30484088401C47
:108F50002E4948800CE00120FFF7A8FA0120FFF716
:108F6000B3FA00202949488202E0002027494880BE
:108F700068468088FF21343188420DDD234880888F
:108F8000322805DA21488088401C2049888016E074
:108F90000120FFF799FA12E068468088FF21273107
:108FA00088420CDA19488088002805D01748808844
:108FB000401E1649888002E00020FFF785FA6846C7
:108FC0008088FF214131884216DA1048408AFF210B
:108FD000F531884205DA0D48408A401C0B49488229
:108FE00005E00020FFF762FA0020FFF76DFA00208D
:108FF00006494880C88088800EBD0000FC01002022
:10900000C7020020C80200201E07000046100020F2
:10901000140600000002002000218278002A27D0D8
:10902000184A03231B02D21803789B109B00D158C7
:1090300002789207D30EFF229A400B4693431946BB
:1090400042789207120E03789B07DB0E9A40114379
:109050000C4A03231B02D21803789B109B00D150AB
:109060000278D306DB0E01229A40064B1A6007E015
:109070000278D306DB0E01229A40024B80331A603D
:109080007047000000E100E0024800780006C00FD1
:10909000704700006E010020014909780170704797
:1090A000C40100200149087070470000FE01002043
:1090B00010B504462046FCF7DBFF10BD10B5044692
:1090C0002046FCF7E5FF10BD10B504462046FCF72E
:1090D000EFFF10BD10B50446204605F085F810BD21
:1090E00010B504462046FDF76BF910BD70B5044677
:1090F0000D4629462046FDF769F970BD38B552483E
:1091000000784007C00F00285ED050480078102833
:1091100003D04E4800781F2810D10020FFF7DAFF57
:109120004948008804218843474908800846008848
:109130000821884308304449088025E043480078E6
:10914000202803D0414800782F2810D10120FFF7B4
:10915000C1FF3D480088042188433B4908800846F8
:109160000088082188430830374908800CE03648D9
:109170000088042188433449088008460088082173
:1091800088430830304908801420314908802F482E
:109190000078102804D0202806D030280CD107E011
:1091A00066202C4908700EE077202A4908700AE0F2
:1091B00055202849087006E0234800880821884384
:1091C0002149088000BF00BF1F4800780007C00F7A
:1091D000002838D01E480088002805D01C48008888
:1091E000401E1B4908802EE0012080F3108800BF3C
:1091F000194C2046FDF7C8F90090184801786846D8
:109200000170144801786846417000BF2046FDF7A0
:10921000C7F900BF009D29462046FDF7E6F900BFCB
:10922000251D0F48047821462846FDF7CAF900BFDE
:1092300000BFBFF34F8F0B480B49C860BFF34F8F80
:1092400000BF00BFFEE738BDE40100208F02002010
:10925000900200209202002000F80008DD010020AA
:10926000350100200400FA0500ED00E0002003496C
:10927000088048808880C88008817047CC09002019
:109280000D4800880121C90288430B49088008461F
:1092900000884021884308490880084680880121C9
:1092A000C902884304498880084680884021884351
:1092B0000149888070470000AC09002008B5C44807
:1092C0000078012858D1C348008804218843C14947
:1092D00008800846008808218843BE49088008465F
:1092E000008810218843BB49088008460088202157
:1092F0008843B84908800846008880218843B549DA
:10930000088008460088FF2101318843B149088060
:109310000846008802218843AE490880AE4800888C
:10932000012149028843AC490880AC48007800908C
:1093300069460878AA49087000BFAA4869460978B2
:10934000405CA9490870A9480078012800D100E0D4
:109350000020A54909784018A3490870A448694627
:109360000978405CA3490870A34800880121C9021C
:1093700088434018A04908806846FFF78DFE68467C
:109380000078352837D018DC24282FD00CDC1B2897
:1093900039D004DC022825D003287CD123E0202802
:1093A00022D02128F9D120E0252820D028281FD03C
:1093B00032281ED03328F0D11CE0602820D008DCF1
:1093C000362819D03D2818D05E2817D05F28E4D160
:1093D00015E0612815D0622814D0C9282ED0F628AF
:1093E000DBD1CAE000BF00BF00BF00BF00BF00BFAD
:1093F00000BF00BF00BF00BF00BF00BF00BF00BF75
:1094000000BF00BFE1E072480078012804D00228C4
:1094100003D003280FD101E00EE00DE06F48407843
:10942000012807D16C48008801214902884340186F
:109430006949088000E000BF00BFC6E065480088B9
:109440008005C00F002807D16C48807A80218843AE
:1094500080306A498872B8E05D480078030005F002
:109460000FFB0C8907080923374D4E4F5051528985
:1094700081E080E06248007800280DD161480078E2
:10948000400840005F490870084600782021884362
:109490005C49087007E071E0504840785A4908700C
:1094A0004E488078487066E04C48C07856498870CD
:1094B0005348007800280AD108460078012806D1D0
:1094C0005048007840084000401C4E49087052E067
:1094D0004B480078002810D14B48007802280CD166
:1094E00048480078202188432030464908700846C3
:1094F000007840084000401C08703CE03BE03AE047
:1095000039E038E037E03E480078002831D1334870
:109510004078082826D13B480078C009002821D18E
:109520002E48407900022D490979401800B2364989
:10953000C8802A48C079000228498979401801B2B8
:10954000314801812548407A00022449097A4018AF
:1095500081B22D4841812B4800788021884380309A
:10956000284908702748007840084000401C2549D9
:10957000087000E000BF00BF27E026E01448007834
:10958000012821D1134800888005C00F00280CD184
:1095900068460078C32808DB68460078CF2804DCDA
:1095A000002011490870134908700F4800780028FE
:1095B0000AD110480078002806D11048807A80210E
:1095C000884380300D49887200BF00BF08BD00008D
:1095D000D9010020E2010020E4010020E40700207E
:1095E000C401002064180108D801002035010020C2
:1095F00064190108D7010020CA010020AC0900202D
:10960000DC010020DE010020E408002010B56048E5
:109610004089604908805E48808948805C48C089EC
:1096200088805B48C08BC8805948408B0881584867
:10963000808B4883564800884881554840888881F7
:1096400053488088C8815248C088088250480089A1
:1096500048824F48008A88824D48408AC8824C48D8
:109660002030807808834C48008A88844A48808962
:1096700008844948C08948844748408AC884464885
:109680000088088644484088488643488088888601
:109690004148C088C8864048008908873E484089BC
:1096A00048873D48008B88853C48018839484030D0
:1096B00001803B4801883748403041803948018863
:1096C0003448403081803848018832484030C18079
:1096D000364801882F4840300181354801882D489F
:1096E00040304181334801882A48403081813248E6
:1096F000018828484030C1813048018825484030E1
:10970000018200BF0120FBF79FFD224980310884C0
:1097100000BF0220FBF798FD1E498031888400BFFE
:10972000002003F0C3FA81B21A488030C18400BF20
:10973000012003F0BBFA81B216488030C1860024B4
:109740002046FCF785FC1349803108850020FFF78F
:10975000AFFC1049803148850120FFF7A9FC0D4975
:1097600080318885164801880A488030C1851448B0
:10977000418808488030018611488188054880303A
:1097800041860F48C18803488030818610BD0000A3
:10979000B8050020540D0020E005002054010020F1
:1097A000560100205C0100205E01002068010020BD
:1097B000660100206A0100206C0100206E0100207B
:1097C000EE0100207047000070B500240025FE481F
:1097D0000078002804D001287ED002287DD13CE208
:1097E000FA48C08BF949403948670020FFF760FC10
:1097F000C60101220021304605F0CEFB0446F448A4
:1098000000880121090388434018F1490880EF4886
:10981000C48308460088012109038843EC49088075
:10982000EA48008CE949403948670120FFF740FCCD
:10983000C60101220021304605F0AEFB0446E44893
:1098400000880121490388434018E1490880DF4826
:10985000048408460088012149038843DC490880C4
:10986000DA48808AD9494039486700BF002003F0B0
:1098700013FA4405640DE10108B205F0CBFB044680
:10988000D3480088FF21013188434018D04908801F
:10989000CE48848208460088FF2101318843CC49A4
:1098A0000880CA48C08AC9494039486700BF0120BA
:1098B00003F0F2F94405640DE10108B205F0AAFBDA
:1098C0000446C44800880121C90288434018C149A0
:1098D0000880BE48C48201E089E080E20846008832
:1098E0000121C9028843BB490880B848008BB749A9
:1098F0004039486700BF022003F0CEF94405640DEB
:10990000E10108B205F086FB0446B1480088012158
:10991000490288434018AE490880AC480483084691
:109920000088012149028843A9490880A748408B43
:10993000A6494039486700BF032003F0ADF944054C
:10994000640DE10108B205F065FB0446A1480088FA
:1099500001210903884340189E4908809B4844839D
:10996000084600880121090388439A4908809748DE
:10997000808B96494039486700BF042003F08CF97A
:109980004405640DE10108B205F044FB044691482A
:10999000008801214903884340188E4908808B487C
:1099A0008483084600880121490388438949088047
:1099B00086484038006F85494039486784480088A8
:1099C0000121C902884340188149088000BF7F48AF
:1099D0004038056F00BF0567084600880121C902AD
:1099E00088437B490880012077490870FBE177486C
:1099F0004038418E40308186014640390889FF2237
:109A00000132082105F0C8FA04467148008808218F
:109A1000884308306E4908806C48403844860846C0
:109A20000088082188436A49088068484038C18E08
:109A30004030818601464039088A4022062105F0DF
:109A4000ABFA044662480088102188431030604910
:109A500008805E484038C486084600881021884344
:109A60005B49088059484038818E403081864038B3
:109A70004489FF2201320821204605F08DFA044670
:109A800053480088202188432030514908804F489E
:109A90004038848608460088202188434C49088045
:109AA0004A484038018F4030818601464039488A13
:109AB0004022062105F070FA0446454800884021FE
:109AC000884340304249088040484038048708466F
