:020000040800F2
:08000000F0100020E5400008AB
:020000040800F2
:1040000045434431363032303130373058585858C3
:10401000A0100020E5400008ED400008EF40000837
:104020000000000000000000000000000000000090
:10403000000000000000000000000000F140000847
:104040000000000000000000F3400008F5400008F8
:10405000F7400008F7400008F7400008F740000864
:10406000F7400008F7400008F7400008F740000854
:10407000F7400008F7400008F7400008F740000844
:10408000F7400008F7400008F7400008F740000834
:10409000F7400008F740000800000000F740000863
:1040A000F7400008F7400008F7400008D162000818
:1040B000F7400008F7400008F7400008BDAF0008CF
:1040C000EDAF000800000000F7400008000000000D
:1040D0000348854600F03EF8004800476BB10008F1
:1040E000A01000200448804704480047FEE7FEE790
:1040F000FEE7FEE7FEE7FEE701A00008D14000086A
:1041000030B50B46014600202022012409E00D466F
:10411000D5409D4205D31D469540491B25469540F7
:1041200040191546521E002DF1DC30BD70B500243B
:104130002546002801DA01244042002901DA012540
:104140004942FFF7DDFFAC4200D04042002C00D0D6
:10415000494270BD064C0125064E05E0E36807CCD8
:104160002B430C3C98471034B442F7D3FFF7B4FF0D
:104170001CD200083CD2000870B58C180578401C91
:104180006B075B0F01D10378401C2A1106D102781E
:10419000401C03E006780E70401C491C5B1EF9D1E0
:1041A0002B0705D40023521E0DD40B70491CFAE7CF
:1041B0000378401CCB1A921C03E01D780D70491C3B
:1041C0005B1C521EF9D5A142D8D3002070BD836A72
:1041D0000B438362426170470029816803D001224A
:1041E00011438160704702221143816070470029AA
:1041F000C16802D00122114301E049084900C160B1
:104200007047C26802239A43C260C2680A43C26010
:1042100070470000074988420AD1012100B54B02CE
:10422000184605F0BDFA0021184605F0B9FA00BDA0
:104230007047000000240140826800210123DB0751
:104240001A4382600F231B038268491CD20FD207D6
:10425000994201D0002AF7D18168002901DB006C66
:104260007047002070470022CB0104D580680123ED
:104270001B06984300E00068084200D00122104667
:104280007047000030B4C268084B8C681A400B6855
:104290000D792343CC686D032C4323430C69496992
:1042A00023430B431343C36030BC704703D2FFFF6B
:1042B000816804221143816070470021016001710F
:1042C0008160C160016141617047000070B5304E8E
:1042D00092B03046FFF79EFF0121084605F03CFAF8
:1042E0000121480205F050FA2A4D284600F0F2FF5D
:1042F00029480690294807900420099080200B90B7
:10430000002440000C90089480000D9020200E9016
:104310000A9400020F9006A91094284601F04AF86A
:104320000121284600F0CAFF02213046FFF769FF4D
:104330006846FFF7C2FF01206946009408710294A5
:10434000049430460594FFF79DFF154DE100481990
:10435000426869583046FFF73AFF641CE4B2042C07
:10436000F4D33046FFF768FF01213046FFF734FFF2
:104370000C4C30462146FFF776FF0028F9D0304636
:10438000FFF796FF01213046FFF731FF12B070BDF5
:10439000002401400800024040240140D4000020D5
:1043A000F8C6000801000001024A4000105A0880C7
:1043B00070470000D400002010B5002805D0012867
:1043C00007D0022805D0002010BD002005F04EFDCA
:1043D00010BD05F04BFD10BD10B5002805D001281B
:1043E00003D0022804D0002010BD05F091FD10BDBF
:1043F000022005F08DFD10BD0648012101704170BD
:104400008170C170017141718171C171017241721C
:10441000817270478C02002070B525480125008804
:10442000244CC005C00F002800D0257500260028A8
:104430000BD1207D012808D1218CE08B814202D252
:10444000401CE08301E02675E570002001F020FBB0
:10445000002804D1012001F01BFB002800D0657565
:10446000002001F015FB00280FD1012001F010FB06
:1044700000280AD1607D012807D1208C0A2802D2A9
:10448000401C208401E06675E5710B480088C00B74
:1044900000D0A575002807D1A07D012804D1608C2B
:1044A0000A2802D2401C608470BD6675657270BDBA
:1044B000440100208C020020020100200649C87C33
:1044C000401CC0B2C8740A2804D30020C874886A8B
:1044D000401C8862704700008C02002010B50F4914
:1044E0000120087048708870C87008714871887120
:1044F000C871087248728872C872087348738873EA
:104500000874002002F008FF002102F0BDFF012224
:1045100003490220FFF750FF10BD00008C0200206D
:104520009B02002010B5194CE07BC0072DD0184825
:1045300000884005C00F28D116480088C005C00F6C
:1045400001D0012020E0A17C01291ED100281CD12E
:10455000114807F0B9FC1149487B0A7B000280181A
:104560000F4A80B290420ED20E4A12789207D217AA
:10457000521C01D1401C80B20873000A48730649DE
:104580000120FFF729FF0020A07410BD8C0200203D
:10459000740100201A010020700C0020900C0020F3
:1045A000FFFF00000A01002070B51A4CE07BC00735
:1045B0002FD0194D28884005C00F2AD11748007800
:1045C0008007C017411C01D0012021E0617C012936
:1045D0001FD1401C1DD1124807F076FC1149C87B41
:1045E0008A7B00028018104A80B290420FD20F4A94
:1045F0001288D20502D52A88520501D5401C80B206
:104600008873000AC87306490120FFF7E5FE002001
:10461000607470BD8C020020740100200A0100202B
:10462000700C0020900C0020FFFF00001A010020F9
:1046300070B50024114807F047FC104E0025355591
:10464000641CE4B2302CFAD30C490120FFF7C4FEFD
:104650000124224609490020FFF7AEFE0020355410
:10466000401CC0B22928FAD304490020FFF7B4FE49
:10467000641CE4B2052CECD970BD0000700C002065
:1046800070B5054600240D4E0C4800290CD007F0EB
:104690001BFC285D3055641CE4B2282CF9D3074973
:1046A0000120FFF799FE70BD07F00EFC305D285524
:1046B000641CE4B2282CF9D370BD0000700C0020FB
:1046C0001749C87BC00729D0164800884005C00F8D
:1046D00024D1154800788007C017401C1ED1888B54
:1046E0004B22401C80B2D2008883904216D310B572
:1046F00000248C830D4807F0E7FB0D48C17A827ACD
:10470000090412028918427A8918491C417284727C
:10471000C47206490120FFF75FFE10BD704700001C
:104720008C020020740100200A010020700C00207F
:10473000900C0020F8B5FD4C208B401C80B22083EB
:10474000C8287CD3C8202083E07BF94EC007002511
:1047500000284BD0F74800884005C00F46D1F748E5
:10476000F54F0188F448BA780088D30906D043068B
:1047700004D58B0602D52378012B1ED0D20606D590
:10478000420604D54A0602D56278012A2FD0FA786B
:10479000D30906D00B0604D5430602D5A378012B16
:1047A00035D0930670D5CB056ED543046CD5030583
:1047B0006AD4E378012B46D066E02570002005F02E
:1047C00007FC82B2DE490020FFF7F6FD012105203B
:1047D00006F009FF002809D107F08AF90121052018
:1047E00007F03AFCD6490020FFF7F6FDE3E16570DB
:1047F000002005F0EDFB82B2D1490020FFF7DCFD7F
:104800000121032006F0EFFE002875D0D3E1A5704A
:10481000002005F0DDFB82B2C9490020FFF7CCFD86
:104820000021022006F0DFFE002864D107F060F9C5
:104830000021022007F010FCC149002000E0DBE16C
:10484000FFF7CAFDB7E1D20903D0090601D5410639
:104850001AD4E570002005F0BBFB82B2B8490020F5
:10486000FFF7AAFD0021082006F0BDFE002842D176
:1048700007F03EF90021082007F0EEFBB0490020C8
:10488000FFF7AAFD97E1FFE7A9493A7A0988D3061D
:1048900006D5CB0504D5430602D56379012B11D08B
:1048A000D20906D0890504D5400602D52079012811
:1048B00023D0787BC0093AD0002001F0DBF8002833
:1048C0003DD134E06571002005F082FB82B29C4945
:1048D0000020FFF771FD0021084606F084FE002845
:1048E00009D107F005F90021084607F0B5FB944906
:1048F0000020FFF771FD5EE1AEE02571002005F0BC
:1049000067FB82B28E490020FFF756FD00210E2082
:1049100006F069FE002845D107F0EAF800210E20D4
:1049200007F09AFB86490020FFF756FD43E1787BAC
:10493000400607D5012001F09DF8002802D0E0795B
:10494000012816D0787A7F49C20908D00A88D20B8C
:1049500005D03A78520602D5227A012A23D042069F
:104960005DD5794A1288D20B59D0627A012A34D0A7
:1049700055E0E571002005F02BFB82B27049002064
:10498000FFF71AFD0021042006F02DFE002809D1B2
:1049900007F0AEF80021042007F05EFB6849002014
:1049A000FFF71AFD07E12572002005F011FB82B226
:1049B00063490020FFF700FD0121084606F013FEC1
:1049C000002853D107F094F80121084607F044FB72
:1049D0005B490020FFF700FDEDE0C00905D0088825
:1049E000C00B02D03878400619D46572002005F05B
:1049F000EFFA82B252490020FFF7DEFC01210720C6
:104A000006F0F1FD002831D107F072F801210720EE
:104A100007F022FB4A490020FFF7DEFCCBE0388894
:104A20008107C90F23D0A17A012920D13188C90576
:104A300003D540490988490519D5A572002005F01C
:104A4000C7FA82B23E490020FFF7B6FC01210320DD
:104A500006F0C9FD002809D107F04AF8012103201A
:104A600007F0FAFA36490020FFF7B6FCA3E0B9795F
:104A7000CA0907D0420605D53278920702D5E27AF4
:104A8000012A1ED0FA79D20907D03278920604D5CD
:104A9000420602D5227B012A2DD0C90607D5410640
:104AA00005D53178090702D5617B012950D0274906
:104AB0008978C9077FD040067DD5A07B012861D0C9
:104AC00079E0E572002005F083FA82B21C490020EB
:104AD000FFF772FC00210A2006F085FD00286AD14C
:104AE00007F006F800210A2007F0B6FA1449002062
:104AF000FFF772FC5FE02573002005F069FA82B2CF
:104B00000F490020FFF758FC01210B2006F06BFD38
:104B1000002850D106F0ECFF01210B2007F09CFA91
:104B200007490020FFF758FC45E000008C020020F8
:104B30001A010020740100201C07002044010020FD
:104B4000700C00200401002002010020320300202C
:104B50006573002005F03CFA82B22A490020FFF775
:104B60002BFC00210C2006F03EFD002823D106F08E
:104B7000BFFF00210C2007F06FFA22490020FFF749
:104B80002BFC18E0A573002005F022FA82B21D4923
:104B90000020FFF711FC01210D2006F024FD002864
:104BA00009D106F0A5FF01210C2007F055FA15499F
:104BB0000020FFF711FC3088C00513D5124800888B
:104BC00040050FD4A07901280CD1207C002814D0F6
:104BD000608B0A2806D3A571284602F09DFB294662
:104BE00002F034FD608BFF21401C80B2F531608300
:104BF000884201D925746583F8BD0120207465833E
:104C0000F0E70000700C00207401002010B50028AF
:104C100001D0012801D10349C87303490220FFF7DD
:104C2000DBFB10BD8C0200209B0200200149886242
:104C3000704700008C02002010B400200B4A0C4B7F
:104C40000146840011514400401CC0B21953092888
:104C5000F7D3084A084B0020840011514400401C3F
:104C6000C0B219530928F7D310BC7047B80200200E
:104C7000DC020020F002002014030020F8B52F4FC2
:104C80002F4C00252F4E092D25D22800784400797D
:104C900000188744040E174244464A4C4E003146E1
:104CA0000220FFF781FB308827494843000B308002
:104CB00011E031460120FFF777FB30882249484355
:104CC000000B07E031460320FFF76EFB30881F49D9
:104CD000484330E03080A8001D4EE28831586D1CFA
:104CE0008918EDB23150092DCCD3A0880121401C88
:104CF00080B28902A08088420ED10020154A074662
:104D00008100735845009B011B0C401C5353C0B2DB
:104D100077500928F4D3A780F8BD3888DAE7788877
:104D2000D8E778684002000CD4E73889D2E7388A9F
:104D3000D0E778694002000CCCE70000680600204C
:104D4000DC000020E20000204F060000701A010085
:104D5000F002002014030020F8B52E4F2E4C002541
:104D60002E4E092D25D2280078440079001887445A
:104D7000040E17404244484A4C0031460220FFF7D7
:104D800013FB308826494843000B308011E0314640
:104D90000120FFF709FB308821494843000B07E059
:104DA00031460320FFF700FB30881E4948432EE0C0
:104DB0003080A8001C4E628831586D1C8918EDB2F5
:104DC0003150092DCCD32088401C80B2208040284F
:104DD0000ED10020154A07468100735845009B02FA
:104DE0001B0C401C5353C0B277500928F4D32780C2
:104DF000F8BD3888DCE77888DAE778684002000C8C
:104E0000D6E73889D4E7388AD2E778694002000CBF
:104E1000CEE7000068060020DC000020DE00002055
:104E20004F060000701A0100B8020020DC020020CA
:104E300001460020092902D248000149085A70475A
:104E40001403002001460020092902D2480001492C
:104E5000085A7047DC02002078B41A4E6846338A3C
:104E60000380194D0020C4006419A48EA34206D209
:104E7000C100481930223221825E415E03E0401CAD
:104E8000C0B20328EFD31148028011480180B389D2
:104E9000684603800020C4006419A48DA34206D292
:104EA000C000401928222A21825E415E03E0401C96
:104EB0000006000EEFD0074802800748018078BC4A
:104EC0007047000054030020720300208801002076
:104ED0008A010020840100208601002070B51D4C4D
:104EE00001202146FFF760FA20881B491B4A4843EE
:104EF000000B208016460121194D06F083FA6880C8
:104F000018498000088021460220FFF74DFA2088CA
:104F1000114932464843000B2080012106F072FA05
:104F2000688011498000088021460320FFF73CFA81
:104F300020880E490E4A48432021515E000C41430F
:104F4000C8000121C9034018000C0A496880088084
:104F500070BD0000A60100204F060000BA0300202B
:104F6000A40100207C0100207E010020701A0100B5
:104F7000B203002080010020F0B5784C83B0207887
:104F8000C0074ED0764DA978687806F047FC2078A7
:104F9000810742D5A988FF22FF3988320139914221
:104FA00037D8C00935D0E9886A46118028895080F1
:104FB000688990800220C9B200F078F96A461188A9
:104FC0000904090E00F072F96A465188C9B200F06E
:104FD0006DF96A4651880904090E00F067F96A46BE
:104FE0009188C9B200F062F96A4691880904090EF5
:104FF00000F05CF96A46907100F058FB002808D177
:10500000A9886846072200F089FB20784006400EF8
:1050100020702078FD2108402070C0B24008400078
:1050200083E0504C0122207800214F4E4F4D504BD1
:105030005204072871D207007F443F79FF19BF440B
:105040000311484A4E77800070894A4A012106F0D0
:10505000D9F9317880B28907C90F00D0A883288098
:10506000012062E0404E444AB089022106F0CAF9AC
:10507000378880B2B907CE0F00D0E8833B49054698
:1050800048803949488A00280FD18889498948438E
:105090003A49FFF735F80104090C00D101213248E3
:1050A000C0890004FFF72CF880B2F90700D034481B
:1050B0002E4A11884D43E90A4143080B5169814248
:1050C00001D9084640305060002E00D01062022006
:1050D0002BE0032029E006F089FA042025E00027D0
:1050E0000120FFF7AFFE274A012106F08BF986B2B7
:1050F0000220FFF7A7FE244A032106F083F9B1003E
:10510000E98480B22149688509784907C90F05D02B
:10511000314641434031CF0902E01CE000263046D1
:10512000B100698168820520AF61207003B0F0BDD5
:10513000D889174E704340028018000CE881062081
:105140002070988A124B584340028018000CA881A6
:10515000217003B0F0BD217003B0F0BD71010020DB
:1051600058060020A4010020320300206806002019
:1051700054030020720300207A030020102700004F
:10518000FFFF0000BA030020C20300201801002026
:10519000F628000038B40E496A46098A0D4D0020F1
:1051A0001180C20052194032928D914206D2C00045
:1051B000401940302A23048DC35E03E0401CC0B276
:1051C0000328EED3044804800448038038BC7047A9
:1051D0005403002072030020260100202801002033
:1051E00010B506F003FA10BD70B506F071FF01218D
:1051F0001C4A080206F000FDFF201B4A0221213054
:1052000006F0FAFCFF20194A0121A13006F0F4FC57
:10521000FF20174A0321C13006F0EEFC0121154A98
:10522000480206F0E9FC1120134A0321400106F070
:10523000E3FC1320114A0321400106F0DDFC104C71
:105240000020205E0103081A0E49FEF76FFF054695
:105250000220205E0C49FEF769FF0C4928180880DF
:1052600070BD0000720300207A0300209A03002022
:10527000A2030020BA030020C2030020DA030020AA
:10528000B2030020F628000000AC0D00240100202D
:1052900000B504F0B5FE00BD41400906024AC90D43
:1052A000515A000A4840704710CB00084840014955
:1052B000085C704710CA00087047000000290168A8
:1052C00002D00122114301E0014A11400160704700
:1052D000FEFF0000F0B40168274A11400160002180
:1052E000016041608160C160244A25490F239042DA
:1052F00002D14868184333E0224AF024904227D074
:10530000214A2501904229D0204E2202B04201D1EB
:10531000486814E01E4F0F263604B84202D1486890
:1053200030431DE01B4FB84203D148680F221205DD
:1053300005E0194FB84204D148680F221206104305
:105340000EE0164F1649B842D3D0164B984202D100
:105350004868204304E0144B984204D1486828432D
:105360004860F0BC7047114B9842D1D0104A90422F
:10537000D5D0F0BC70470000FEFF000008000240DE
:10538000000002401C000240300002404400024085
:10539000580002406C0002408000024008040240B5
:1053A000000402401C040240300402404404024055
:1053B0005804024030B403680D4A0C6A13408A68EE
:1053C0004D6922430C692C4322438C692243CC69EA
:1053D00022434C6A22438C6A22431A430260CA6801
:1053E00042600A6882604968C16030BC7047000052
:1053F0000F80FFFFF8B50E460446FF211046FEF76A
:105400007FFE0746012040030090A6480D4600237A
:1054100001880222A44801F08FF90521A14849031F
:1054200041600221A04801F021F900280AD19D49DC
:105430004868421E4A607AD302219B4801F016F95F
:105440000028F4D0310A984801F05FF90521954809
:10545000490341600221944801F008F900280AD16B
:1054600090494868421E4A6061D302218E4801F08B
:10547000FDF80028F4D0F1B28B4E304601F045F92A
:1054800005218848490341604021304601F0EEF88B
:1054900000280AD1834E7068411E716047D34021B5
:1054A000814801F0E3F80028F5D0012309205B06CC
:1054B0008002002F7DD00121009116E00098002885
:1054C00013D10520774E400370608021764801F0AB
:1054D000CDF8002809D17068411E716027D3802162
:1054E000714801F0C3F80028F5D0012F01D1002D3B
:1054F0000ED00098002826D009208002009069482C
:1055000001231B060188FF22674801F015F924E0FA
:10551000009800280CD009208002009061480123E7
:105520005B060188FF22604801F006F915E0A5E05E
:10553000002000905B4801235B060188FF225A4847
:1055400001F0FAF809E000200090564801231B06FC
:105550000188FF22544801F0EFF800200646009031
:10556000052050494003486004214F4801F07EF86F
:1055700000280AD14B494868421E4A607ED3042164
:10558000494801F073F80028F4D0474801F0BAF810
:10559000A055761CFF2EE3D1FF347F1E8ED1002D47
:1055A00061D005203F4E400370603F4F8021384658
:1055B00000E034E001F05AF8002809D17068411E7B
:1055C000716061D38021384601F050F80028F5D091
:1055D0000020009001233188EAB25B06324801F0D6
:1055E000ABF80027002D3ED0052040037060042159
:1055F0002D4801F03BF8002809D17068411E716008
:1056000042D30421284801F031F80028F5D026487B
:1056100001F078F8E0557F1CAF42E5D123E0214F3F
:1056200000903988EAB2204801F086F80026002D63
:1056300019D005204003786004211B4801F016F8BA
:10564000002809D17868411E79601DD304211648CD
:1056500001F00CF80028F5D0134801F053F8A055DC
:10566000761CAE42E5D105200E4C400360600E4D25
:105670002021284600F0FAFF002800E004E00BD1CA
:105680006068401E606001D20120F8BD20212846DC
:1056900000F0ECFF0028F3D02021284600F0CEFFD8
:1056A0000020F8BDE400002000580040F0B50020C4
:1056B00083B0184C01900090012321885B060246BC
:1056C000154D284601F038F8AF14FF262D366760D7
:1056D0003021284600F0B2FF0121284600F0BCFF2F
:1056E0006068411E6160FBD20198411C0191B0428B
:1056F00002D1012003B0F0BD1021284600F0B6FF12
:105700000028E4D12021284600F098FF002003B0B3
:10571000F0BD0000E400002000580040F0B50C4649
:1057200005464906490E80205306461A5B0E83B093
:10573000D0090127009300291CD06106490E80235F
:10574000591A531A611802930191002850D098B247
:10575000C1094006400E02910090002E79D05D48AC
:10576000468040882146C2B2284600F0B5F800289D
:1057700070D170E000280DD0401E86B255488021BF
:10578000418040882146C2B2284600F0A5F8002892
:1057900060D10EE04F48438040882146C2B228467F
:1057A00000F09AF8002855D1FFF780FF002851D16A
:1057B0008DE0FFF77BFF00284CD130468034761E09
:1057C0008035A4B2B6B20028D8D1009800287ED087
:1057D00001464048418040882146C2B2284600F038
:1057E0007BF8002870D1FFF761FF00286CD16EE0D4
:1057F000B2421ED93748468040882146C2B2284668
:1058000000F06AF800285FD1FFF750FF00285BD155
:105810003048029941804088C2B2019881B2A819EB
:1058200000F05AF800284FD1FFF740FF00284BD175
:105830004DE028480099418040882146C2B2284660
:1058400000F04AF800283FD1FFF730FF00283BD195
:105850003DE007E038E0FFF729FF002834D1019848
:10586000AD1984B20298411E8EB200281AD0194890
:105870008021418040882146C2B2284600F02CF8A1
:10588000002821D10520134940034860FFF70EFF8F
:10589000002819D130468034761E8035A4B2B6B2C5
:1058A0000028E4D10098002811D001460948418021
:1058B00040882146C2B2284600F00EF8002803D1E5
:1058C000FFF7F4FE002802D0384603B0F0BD0020F8
:1058D00003B0F0BDE4000020F7B50120400382B022
:1058E000474E0F46009015460024C302318802221D
:1058F000444800F021FF0520400370600221414828
:1059000000F0B4FE002809D17068411E716067D3B1
:1059100002213C4800F0AAFE0028F5D0390A394897
:1059200000F0F3FE0520400370600221354800F0CE
:105930009DFE002809D17068411E716050D302217C
:10594000304800F093FE0028F5D0F9B22D4F3846CC
:1059500000F0DBFE0520400370608021384600F037
:1059600085FE002809D17068411E716038D38021FE
:10597000384600F07BFE0028F5D00020009001237F
:1059800031885B062A46384600F0D6FEAC421AD073
:105990000520400370600221384600F067FE0028B1
:1059A00009D171684A1E72601AD30221384600F08C
:1059B0005DFE0028F5D00298015D384600F0A5FE96
:1059C000641CAC42E4D105204003706020213846BD
:1059D00000F04CFE00280CD17168481E706002D2A5
:1059E000012005B0F0BD2021384600F03FFE002820
:1059F000F2D02021384600F021FE002005B0F0BD95
:105A0000E4000020005800400149A02008807047B1
:105A1000E400002010B5092003F056FB10BD10B5BE
:105A2000082003F051FB10BD7D21C900081A10B5F4
:105A300081B2002003F05CFE10BD7047022805D241
:105A40000E2148430249401880887047014870473A
:105A5000B00B0020FFFF0000022805D20E214843B2
:105A6000024940184088704701487047B00B002039
:105A7000FFFF0000022807D20E21484303494018C7
:105A8000007B8007C00F704700207047B00B0020DC
:105A9000022807D20E21484303494018007BC00763
:105AA000C00F704700207047B00B002002280AD2B8
:105AB0000E225043044AFD238018027BC9071A4076
:105AC000890F0A4302737047B00B002002280AD2E4
:105AD0000E225043044AC9078018027B5208520024
:105AE000C90F0A4302737047B00B0020F8B5174D79
:105AF000A888401C80B2A880052825D30020A88053
:105B000005F03AFB124E134F002430780007C00F07
:105B100002D0FF205F3068800F480078C006C00FB9
:105B200009D00E200D49604340180089002802D199
:105B3000FF20F5306880E000C01941686888884718
:105B4000641CE4B2022CE0D3F8BD00001202002075
:105B50007601002040D0000818010020B00B002082
:105B60002F494878401CC0B24870312856D1F0B453
:105B700000224A702B49104609788907CD0F2A491F
:105B80000978C906CC0F0E210246284B4A439E5A7B
:105B90001E214E43D1184E8000269E52002D37D034
:105BA000002C35D04A887D231B019A420CD2204F0D
:105BB0003B5C142B06D90B7B01273B430B731D4B1E
:105BC0001E5401E05B1C3B541B4B9A420CD21B4FF2
:105BD0003B5C142B06D90B7B02273B430B73154B05
:105BE0001E5401E05B1C3B54154B9A4210D9114BDB
:105BF0001A5C022A0AD90A7BFD23520852001A4075
:105C00000A730E490E54891C0E5401E0521C1A549A
:105C1000401CC0B20228B6D3F0BC704770470000E9
:105C200012020020320300200A010020B00B0020E5
:105C30001A0200201C020020DC05000018020020CF
:105C4000AC0D0000F8B51B4E1B4D00241B48E100B5
:105C50004058804721460E2251438B191A7BC007BA
:105C6000F727000F3A40024310071A73C70F144A70
:105C70006000125A974213D02A5A022A0DD3725A40
:105C8000104FBA4201D2521C725200212952197B84
:105C90000907CA0F0A490A5207E0521C2A5204E0B7
:105CA000295A002901D0491E2952641CE4B2022C51
:105CB000CCD3F8BDB00B00202402002040D0000857
:105CC00020020020FFFF0000F0B400200C4B7D24D8
:105CD000CF2502462D0101460E2671435A52C9189E
:105CE0008C800A814D80CA800E7BF1277608760071
:105CF0003E40401CC0B20E730228ECD3F0BC70478B
:105D0000B00B00200149087070470000120200200B
:105D1000022804D20E225043014A801801817047A4
:105D2000B00B0020F0B50B2706463F04384600F0C4
:105D30006DF804280FD1084C206902252843206102
:105D400066612069402108432061384600F05EF812
:105D50002169A9432161F0BD002002400248016988
:105D6000802211430161704700200240F0B50B27EB
:105D700006463F040D46384600F048F804280CD18A
:105D8000064C20690121084320613580384600F027
:105D90003DF82169490849002161F0BD0020024019
:105DA000F8B5054600200B273F0400900C46384606
:105DB00000F02CF8042815D10B4E3069012108435E
:105DC00030612C80384600F021F8042806D1AD1C43
:105DD000210C00952980384600F018F831694908EF
:105DE00049003161F8BD000000200240044801690B
:105DF000090603D50349416003494160704700002B
:105E00000020024023016745AB89EFCD154A0146CA
:105E1000D3680420DB0701D0012019E0D368DB063A
:105E200001D5022014E0D3685B0711D503200FE0F1
:105E3000D3680420DB0701D0012008E0D368DB062B
:105E400001D5022003E0D3685B0700D50320491E7B
:105E5000012803D0002900D1052070470029E7D18F
:105E6000FAE7000000200240044AD11C0B7800022F
:105E70001843491E8A42F9D970470000F83F0008CC
:105E8000C11C884205D80B7812021A43491E884269
:105E9000F9D91046704770B505460024FFF7A6FFF4
:105EA0002846FFF73FFF042802D0FFF757FF0124E1
:105EB000FFF754FF204670BD70B50D46064600241E
:105EC000FFF794FF29463046FFF750FF042803D020
:105ED000FFF744FF012070BDFFF740FF204670BD73
:105EE00070B50D4606460024FFF780FF2946304670
:105EF000FFF756FF042803D0FFF730FF012070BDE5
:105F0000FFF72CFF204670BD7047000010B50B480E
:105F1000094B43600A4A002081005C585450401CE1
:105F2000C0B23028F8D30121084603F039FC032021
:105F300003F092FF10BD000010400008EC000020AC
:105F400000000020F0B40022032501230C689340D8
:105F50001C409C422AD10C79012C01D0022C12D178
:105F6000876854002E46A640B74387604E79A64006
:105F700084682643866084889C43848084888B79E7
:105F800093401C438480066853002C469C40A643E3
:105F900006600E7907689E403E430660C668A643C9
:105FA000C660CC799C40C3681C43C460521C102A54
:105FB000CBD3F0BC70474B07DB0E9A40C90810B436
:105FC00089000818016A0F249C40A1430162016AFC
:105FD0001143016210BC70470246128A00200A4237
:105FE00000D001207047704770470000F8B50D20C1
:105FF00003F06AF80127644D0026644C00280BD09A
:106000006089642804D92888B8433843288001E08F
:10601000401C6081A6810AE0A089032804D9288851
:1060200040084000288001E0401CA08166810A20D1
:1060300003F04AF80221012807D0208A64280FD9EA
:1060400028888843084328800CE0E089032803D986
:1060500028888843288001E0401CE081268202E0F5
:10606000401C2082E6810E2003F02EF80821002833
:106070000FD02078002804D028888843084328803F
:1060800000E02770424A80211088884310806670A3
:1060900008E06078002803D028888843288000E042
:1060A000677026701B2003F00FF8102100280BD01A
:1060B000A0780A2804D9288888430843288001E06A
:1060C000401CA070E67009E0E078022803D9288817
:1060D0008843288001E0401CE070A670132002F085
:1060E000F3FF202100280BD02079142804D9288818
:1060F00088430843288001E0401C2071667109E054
:106100006079142803D928888843288001E0401C3E
:1061100060712671122002F0D7FF402100280BD0B9
:10612000A079142804D9288888430843288001E0EE
:10613000401CA071E67109E0E079142803D9288891
:106140008843288001E0401CE071A671112002F014
:10615000BBFF00280CD0207A142805D9298880207C
:1061600081430143298001E0401C20726672F8BD22
:10617000607A142804D9288880218843288001E087
:10618000401C60722672F8BD0A010020BE0100208A
:1061900018010020F8B54A4C4A4E2078C006C10FBD
:1061A00030780007C00F002903D0002801D0012259
:1061B00000E00022444D01272B887F029B05DB0F66
:1061C0009A4219D0002903D0002801D0012100E013
:1061D00000211C2002F0EAFF2078C006C00F05D085
:1061E00030780007C00F01D0012000E0002029888E
:1061F0004002B9430143298030780006C10F287856
:10620000C007C00F81420AD00B2002F0CFFF3078C8
:1062100029880006C00F49084900014329803088B9
:106220008005C10F28788007C00F81420BD00C2059
:1062300002F0BCFF308829888005C00F02229143FC
:106240004000014329803088C005C00F03D0217869
:10625000C907C90F2CD000212A785207D20F9142CA
:106260001BD0002803D02078C007C00F22D0002008
:10627000002821D000211A2002F098FF3088C005A4
:10628000C00F03D02078C007C00F17D00020298886
:10629000042291438000014329800C4800780007C4
:1062A000C00F04D029884002B94301432980F8BDBA
:1062B0000121D1E70120DBE70121DCE70120E6E74E
:1062C0000A010020180100200C01002032030020E8
:1062D000F0B56B4883B08469002000F03FFA600598
:1062E00006D501218902664800F0AAF903B0F0BD85
:1062F000A00506D501214902614800F0A1F903B0CB
:10630000F0BDE00506D5FF2101315D4800F098F9A8
:1063100003B0F0BDE00605D51021594800F090F912
:1063200003B0F0BD574D584E6879002809D1574940
:1063300008705749087057490870574908703070FD
:106340006870564F200743D54D4C0821204600F079
:1063500077F9204600F091F9002810D04B49002031
:10636000087068703878002805D030784C49097872
:10637000FEF79CFF307002F0D3FB012025E0A169FD
:1063800001200143A1616879002814D0012803D0BD
:10639000022801D0032808D1424A1188FF20013089
:1063A00081430143118000F0C1F838490020087092
:1063B0006870374908703878002805D03A490020BD
:1063C0000978FEF773FF30700220687103B0F0BDEA
:1063D000600727D52A48406AC4B23878002804D01C
:1063E00030782146FEF762FF3070294A10786946FE
:1063F000087069792D4B02290BD00329E6D1264E6E
:10640000A11C31701C54401C10700220687103B034
:10641000F0BDFF28FBD21C54401C107001F0F4FDAD
:1064200003B0F0BDA007FBD5184800786946087195
:10643000002818D06978814215D86A781C498242B0
:106440000BD13878002805D030786A4610726A7807
:10645000885402E06878FF220A546878095C6878FA
:10646000401C687000E0FF210548816238780028F0
:10647000D6D03078FEF71AFF307003B0F0BD0000C0
:1064800000540040B00100206F0100206E01002088
:106490006C0100206A0100206B010020FE0000203A
:1064A000B401002068010020B2010020580500203E
:1064B000580400200020124902460A54401CC0B271
:1064C000FF28FAD30F4B002000211954401CC0B202
:1064D000FF28F9D30C49002008700C4908700C49BA
:1064E00008700C4908700C4908700C4908700C4879
:1064F00042700C49802008700B4981200870704759
:1065000058050020580400206F0100206D01002074
:106510006E0100206C0100206A0100206B01002048
:10652000B0010020B2010020B4010020F0B5374FC7
:1065300085B02021384600F099F8354C002803D169
:106540002088C005C00F5FD020880121C902884380
:106550002080002000F00EF92E4E30786946087039
:106560002D490B7869460B712C490A7869462C4DE8
:106570000A72002834D06979022901D003292FD169
:1065800098422BD1012149024B002088002A03D0D8
:106590008005C00F0DD021E08005C00F06D02088F7
:1065A00088432080208898431843208005F0FAFD16
:1065B00014E022888A430A432280208898431843A3
:1065C00020801848694600780873174908701749F1
:1065D000DF22887A10402022104388720020307019
:1065E0002021384600F042F8002805D02021384606
:1065F00000F024F800206871002000F0CFF8208817
:10660000FF2101318843208005B0F0BD00540040D7
:10661000680100206C0100206B0100206F01002048
:10662000B0010020660100206D0100201C07002041
:106630000149487170470000B0010020C1617047F6
:10664000C16170470029016802D00122114301E0B5
:10665000490849000160704701225203002941683E
:1066600001D0114300E091434160704702469269B6
:1066700000200A4200D001207047014689690020AD
:1066800001221204114200D090117047002A0268C2
:1066900001D00A4300E08A430260704710B40268E8
:1066A0005208520002600268144B8C681A4024029F
:1066B0004B681443234303600F230A681B069A4365
:1066C0000261026801231A43026000228260C260F4
:1066D0000B698A691A43826082680123DB031A43CB
:1066E0008260CA680368134303604268044B4969C7
:1066F0001A401143416010BC70470000FFE0CF001A
:10670000FF7FFF07406AC0B270478162704701682F
:1067100049084900016001680168012211430160D4
:106720007047012252040029016801D0914300E022
:10673000114301607047000070B4039D44688905EF
:10674000890D1204044E1143194334402943214357
:10675000416070BC70470000009800FC0021034AB3
:1067600040001152024A115270470000920100206D
:106770009601002048214843074908B54018403099
:1067800001796A4611704079507000209070684617
:1067900001F07EFB08BD000010CD000848214843F1
:1067A000074908B54018403001796A4611704079B0
:1067B000507001209070684601F06AFB08BD00002F
:1067C00010CD0008F8B52548018820229143002605
:1067D0000180234F344620464821224A48438518E9
:1067E000A96B012935D1A9881058FFF7F5FB0028BE
:1067F0000FD01D4861004652A989A868FFF7ECFB3D
:10680000002813D0194861004652385D012819D07C
:106810001FE0154A6000115AEB88994202D2491CC8
:106820001152E9E7165201203855E5E70F4A60009A
:10683000115AEB89994202D2491C1152E5E71652CE
:1068400001203855A869FFF762FF204605F028F9B6
:106850003E55641CE4B2022CBDD3F8BD6801002093
:106860009001002010CD0008920100209601002028
:10687000F8B500240F4E0127204605F011F94820F5
:10688000604385193C20405D01280ED10122296C0E
:10689000A869FFF7FBFE40352879694608706879DA
:1068A00048708F70684601F0F3FA641CE4B2022C61
:1068B000E2D3F8BD10CD0008F0B5865C521C91B251
:1068C000425C1B0A1B021343491C89B2B446425C5A
:1068D000FF2636021202B34332401343491C89B2E9
:1068E000425C36021204B34332401343491C8AB25D
:1068F000865C290A521C090292B23143855CFF264C
:1069000036022D02B14335402943521C92B2855CB8
:1069100036022D04B1433540521C92B22943865CA5
:10692000250A521C2D0292B23543845CFF263602A2
:106930002402B543344025438DB0521C92B20B95CE
:10694000855C040A24022C43521C92B2855CB44339
:106950002D023540521C2C4392B2855C0995521C85
:1069600092B23D0A865C2D023543521C92B2865C7F
:10697000FF273F023602BD433E4035430A95521C75
:1069800092B2089D865C2D0A2D023543521C92B2AC
:10699000865CBD4336023E4035430895521C92B298
:1069A000079D865C2D0A2D023543521C92B2865CEF
:1069B000BD4336023E4035430795521C92B2069DB8
:1069C000865C2D0A2D023543521C92B2865CBD4373
:1069D00036023E4035430695521C059D92B2865CB8
:1069E0002D0A2D023543521C92B2865CBD433602FD
:1069F0003E4035430595521C92B2049D865C2D0A9B
:106A00002D023543521C92B2865CBD4336023E4095
:106A100035430495521C92B2039D865C2D0A2D02CB
:106A20003543521C92B2865CBD4336023E4035432C
:106A30000395521C92B2029D865C2D0A2D023543AD
:106A4000521C92B2865CBD4336023E4035430295ED
:106A5000521C92B2019D865C2D0A2D023543521CB8
:106A600092B2865CBD4336023E4035430195521CCE
:106A7000009D92B2865C2D0A2D023543521C92B2C3
:106A8000865CBD4336023E4035430095521C92B2AF
:106A9000865C0C9D521C2D0A92B22D02805C3543FF
:106AA00000023A46BD4310400543314866464670F1
:106AB000304F314E3A683668934201D1B14208D026
:106AC0002D4A3B6011602D4902220B8893431343EA
:106AD0000B802B4E2B4B3188CA04D20F09D15A8818
:106AE0005204D20F05D00122520391431143318049
:106AF000DD830B998DB21D805C80099901700A9825
:106B000098800898D8800798188106985881059829
:106B100098810498D8810398188202985882019825
:106B200058830098642180B29883C001FDF7E8FA89
:106B30001549164B88801888E90B04229043890078
:106B400008432907C90F1024A043090108431880EE
:106B50007D200F49C00008600849088840084000AF
:106B6000904392019043104308800DB0F0BD0000A7
:106B7000520300204C010020500100201001002091
:106B80001A01002032030020A80600201401002072
:106B90008402002070B4244A83B012886C4622809C
:106BA000224A1288A280224AD28B2281214A257849
:106BB0000C8813885288661C0E8005556C466578D3
:106BC0000C88661C0E8005556C4625790C88661C61
:106BD0000E8005556C4665790C88661C0E8005553F
:106BE0006C46257A0C88661C0E8005556C46657AC5
:106BF0000C88661C0E8005550C88651C0D8003559D
:106C00001B041D0E0B885C1C0C80C5540B885C1C7F
:106C10000C80C2541204140E0A88531C0B80845436
:106C200003B070BC70470000160100206401002012
:106C30003203002072030020F0B5815C521C8C46A8
:106C400091B2425C1B0A1B02491C134389B2465C89
:106C5000FF22120293433202FF26360232401343D0
:106C6000491C89B2425C36021204B34332401343DA
:106C7000491C8AB2865C290A521C090292B231432D
:106C8000855CFF2636022D02B14335402943521C54
:106C900092B2855C36022D04B1433540521C294323
:106CA00092B2855C240A24022C43521C92B2855C69
:106CB00036122D02B4433540521C2C4392B2865CEE
:106CC0003D0A2D023543521C92B2865C8FB0FF27DD
:106CD0003F023602BD433E4035430C95521C92B2F2
:106CE0000A9D865C2D0A2D023543521C92B2865CA9
:106CF000BD4336023E403543521C92B20A95855C34
:106D00000B95521C92B2099D865C2D0A2D023543CB
:106D1000521C92B2865CBD4336023E403543099513
:106D2000521C92B2089D865C2D0A2D023543521CDE
:106D300092B2865CBD4336023E4035430895521CF4
:106D400092B2079D865C2D0A2D02521C354392B2E9
:106D5000865CBD4336023E403543521C079592B2D5
:106D6000865C059D521C2D0A2D02354392B2865C2D
:106D7000BD4336023E4035430595521C92B2039DF9
:106D8000865C2D0A2D023543521C92B2865CBD43AF
:106D900036023E4035430395521C92B2029D865CFA
:106DA0002D0A2D023543521C92B2865CBD43360239
:106DB0003E4035430295521C92B2019D865C2D0ADD
:106DC0002D023543521C92B2865CBD4336023E40D2
:106DD00035430195521C92B2009D865C2D0A2D020E
:106DE000521C354392B2865CBD4336023E40354369
:106DF000521C009592B2865C049D521C2D0A2D02F5
:106E0000354392B2865CBD4336023E40354304951D
:106E1000521C92B20E9D865C2D0A2D023543521CE7
:106E200092B2865CBD4336023E40521C92B2875CF1
:106E3000521C354392B20D9E805C360AFF22360208
:106E400012023E430002964310400643374A604612
:106E500050773748374F02683868934201D18142F2
:106E600008D03348022203603348396001889143D7
:106E7000114301802D490C800C9880B248802F4925
:106E800009788906C90F2BD02D4A20241188C30701
:106E9000A1439B0E194343074024DB0FA1439B01F1
:106EA0001943284B11801B786C4623768024002BD5
:106EB00002D0A14321430AE0C306C705DB0FFF0F41
:106EC0003B438705FF0F3B43A143DB011943FF23EE
:106ED00080060133C00F89B299430002014311803B
:106EE00012480A9981800B9901770999C180089904
:106EF0000181079941810599C18104998181039993
:106F0000018202994182009901830199418385821E
:106F1000C6827D200C49C0004860074904220888C9
:106F200040084000904308800FB0F0BD540300209B
:106F300054010020580100201201002018010020F7
:106F400044010020820100208402002010B4544A31
:106F50008BB012886B461A80524A12889A80524A25
:106F600012881A81514A12889A81514A12881A82CB
:106F7000504A12889A82504A128A1A834F4A1288BB
:106F80009A834F4A12881A844E4A12889A844E4A2B
:106F900012881A850A881C78531C0B8084546B460F
:106FA0000A885C78531C0B8084546B460A881C79D1
:106FB000531C0B8084546B460A885C79531C0B80ED
:106FC00084546B460A881C7A531C0B8084546B468D
:106FD0000A885C7A531C0B8084546B460A881C7D9B
:106FE000531C0B8084546B460A885C7D531C0B80B9
:106FF00084546B460A881C7B531C0B8084546B465C
:107000000A885C7B531C0B8084546B460A881C7E68
:10701000531C0B8084546B460A885C7E531C0B8087
:1070200084546B460A881C7C531C0B8084546B462A
:107030000A885C7C531C0B8084546B460A881C7F36
:10704000531C0B8084546B460A885C7F531C0B8056
:10705000845408AB0A881C78531C0B80845408ABFA
:107060000A885C78531C0B80845408AB0A881C790E
:10707000531C0B80845408AB0A885C79531C0B802A
:10708000845408AB0A881C7A531C0B80845408ABC8
:107090000A885C7A531C0B8084540BB010BC704778
:1070A00014010020640100201E01002026010020A0
:1070B0002801002024010020320300208401002048
:1070C00086010020880100208A0100207D210248DD
:1070D000C90001604160704784020020F0B41E487E
:1070E0001C4A00781168C0060424C00F1B4D012300
:1070F000002902D0491E116012E0194EFF27318885
:107100000137490849001943A1432143B94331805C
:10711000002805D0A97AFD26314002263143A97204
:107120005168002903D0491E5160F0BC70470D4AD8
:107130001188490849001943A143214311800028BF
:10714000F3D0A87AFD21084002210843A872F0BCC0
:1071500070470000840200200A0100201C07002064
:1071600010010020120100207047000070B55E4839
:10717000002500785D4C0007C00F00280FD00021CB
:107180001F2002F013F80021202002F00FF8607891
:10719000411C6170192849D365701E2044E0207895
:1071A000401CC0B22070322840D32570504C20784B
:1071B0000007C00F04D001211F2001F0F7FF03E0FA
:1071C00000211F2001F0F2FF4A484B4D00884B4B35
:1071D0008106C90F4CD10206D20F49D14206D20F07
:1071E00046D1474A12789207D20F41D0228896079B
:1071F000F60F3DD01207D20F3AD029884905C90FA2
:1072000024D140490988C90B09D119884A06D20FEF
:1072100005D14905C90F02D1C005C00F07D0002113
:107220001E2001F0C3FF202001F0CEFF70BD002022
:10723000FEF720FC002809D10120FEF71BFC0028E6
:1072400004D1314800788007C00F08D000211E20EB
:1072500001F0ACFF0121202001F0A8FF70BD012149
:107260001E2001F0A3FF0021202001F09FFF70BD30
:107270002A885205D20FE9D10029E7D10106C90FAA
:10728000E4D14006C00FE1D118888107C90FDDD1D4
:107290008106C90FDAD10007C00FD7D11B4800887B
:1072A000C00BD3D120780007C00F05D01848008844
:1072B000C107C90F10D108E000211E2001F076FFA0
:1072C0000021202001F072FF70BD124909780029C9
:1072D00002D08007C00FF7D11E2001F075FF0021FA
:1072E000202001F063FF70BD760100206E020020B7
:1072F0001801002044010020740100201A01002020
:1073000054030020020100201C070020040100207B
:107310000A0100207201002001498000085A7047CC
:1073200000CE0008F0B59BB004F09AFC00244E4853
:107330007D210322FEF75EF84B4D360A297836028E
:10734000FF200E436F7800028643FF2238021202AC
:10735000104006430220FDF7A9FF3946FDF7A6FFBE
:10736000AB784249424A834203D0424808801080A9
:1073700001E00E80168000BF641CE4B2962CFAD3A4
:1073800039487A210322FEF735F8340A2978240295
:10739000FF200C436E7800028443FF223002120269
:1073A000104004430220FDF781FF3146FDF77EFFC8
:1073B000AA783149824203D0FF20F530088000E0EE
:1073C0000C80002000BF401CC0B29628FAD326488B
:1073D00083210322FEF70EF82978240A24026A7812
:1073E000FF200C4300028443FF2310021B021840BD
:1073F000044316460220FDF759FF3146FDF756FFBC
:10740000AB7801211D4A09030026834203D010886E
:107410003446884302E010888843084310801848A7
:107420001121C4836846C9016722FDF7E3FF0220EA
:1074300000246D46295DFDF739FF641CE4B2672C1A
:10744000F8D3002805D000202E54401CC0B2662876
:10745000FAD30C4A0020295C1154401CC0B26628A3
:10746000F9D31BB0F0BD0000B90100204601002097
:107470001E010020FF0F0000480100201A0100201B
:1074800032030020F203002070B5044603200002FE
:10749000081880B20D46C6B0014622466846FDF780
:1074A000A9FF00236946002C06D90448CA5CEE18DF
:1074B0005B1C8255A342F9D346B070BD640700201F
:1074C00070B401250023002A06D9054CC618A65D14
:1074D000CE545B1C9342F9D3284670BC7047000021
:1074E00064070020F0B5514C0226207800259BB09F
:1074F000002806D0012843D0022846D003287DD199
:107500006BE0009501950295494D28788007C00FE2
:1075100017D048486A460088C1B20004070E1170AF
:1075200057700220FDF7C2FE3946FDF7BFFE6A46DE
:10753000907028887A21B043288068460322FEF79D
:10754000EDF82878C007C00F18D03B486B4600887C
:10755000C1B20004060E19705E700220FDF7A6FE8F
:107560003146FDF7A3FE6B46987028887D214008C0
:107570004000288068460322FEF7D0F8012029E069
:1075800004F0B8FC26701BB0F0BD00952B4D288888
:107590008004C00F1DD02A486A46C08B90801179A4
:1075A0001170507950700220FDF780FE6A465179C3
:1075B000FDF77CFE6A469070832168460322FEF741
:1075C000ADF82888012149038843491088430843BE
:1075D0002880032020701BB0F0BD1A4E3078C00701
:1075E000C00F20D0184B694600201A5C0A54401C7A
:1075F000C0B26628F9D30220002700E013E06946F4
:10760000C95DFDF753FE7F1CFFB2662FF5D318A9A5
:1076100088711121C90168466722FEF77FF830881A
:1076200040084000308025701BB0F0BDB60100203E
:107630000E01002048010020460100201A01002010
:107640003203002074010020F203002070B50322F1
:1076500012028A18C6B0002396B26C46002806D9DA
:10766000064ACD18555DE5545B1C8342F9D30246AA
:1076700031462046FEF752F846B070BD6407002040
:107680000023002A09D970B4044CCD5CC6185B1CD9
:10769000A5559342F9D370BC70477047640700202A
:1076A00070B4144904230888134A98430880118849
:1076B000400799431180114CC60F00251B022088FA
:1076C0000F4A002E11D04907C90F0ED0D18C0429C2
:1076D00003D2491CD18470BC7047D58418432080E4
:1076E00008490120087070BC7047D58498432080F9
:1076F00070BC7047100100201201002074010020AE
:1077000028020020FF000020F8B5354D0021287820
:1077100001260007C00F334B0F46002803D05A79CB
:10772000012A02D005E05E7103E0002801D05F71FC
:1077300001212D4820240078C006C20F2948002AC4
:10774000008D05D09E71002807D0401E188504E0EA
:10775000024302D1987901283DD0002932D0234E2E
:107760000020308000F036FC30880A2140084000BC
:107770008843FF210131A04388434F00B843308044
:107780001B4EC0223088A043904388433080288815
:107790001849A04320432880642008800021072046
:1077A00001F0D8FC0121072001F000FD0A21022090
:1077B00001F09EFF10490C22088890430880308811
:1077C000B84330800D480079C007C00F02D0288828
:1077D000A0432880F8BD9F710A201885BFE70000EC
:1077E0001401002028020020180100201A010020A6
:1077F00044010020200100200E010020540300203D
:10780000154881B00188684601801448144A007800
:107810004007C00F16D0134B1046C089994214D9A7
:107820000A280ED3104A012110884008400008435E
:10783000022188430843042188430843108001B093
:107840007047401CD08101B070470028FBD0401E1B
:10785000D08101B0704700007C0100201801002099
:10786000CC0B0020CC1B00001A0100200648002190
:10787000018041804182C1808182C1810182018178
:107880008181C18201837047CC0B0020F0B43E4857
:1078900001220088D20241053C483D4E00889043B9
:1078A000002917DB3B490988C905C90F12D03A499D
:1078B0000978C907C90F09D03189322902D2491C78
:1078C00031810BE031491043088007E0002131810C
:1078D0002E49F9E7002131812C4908802F48314990
:1078E00007782F480988028808208243C001814315
:1078F0000B4603432C4805882C48EC07E40F00880E
:10790000002F04D0AD07ED0F01D0002C19D0244D6D
:10791000002780072A80C00F07D01C480088C205B6
:10792000D20F02D18005C00F06D01E480180002C66
:1079300005D03770F0BC70471A480380F7E708207D
:1079400016E0C406E40F0DD0C005C00F0AD11848D8
:1079500000888406E40F05D14406E40F02D1000636
:10796000C00F08D00F4801803078002806D0401E94
:107970003070F0BC70470B480380F5E708490820D9
:1079800002430A80F0BC7047740100201A010020F5
:10799000280200203203002008010020720100208C
:1079A00014010020760100200A01002018010020A7
:1079B000440100207E480088C005C00F7ED0F8B585
:1079C0007C487F49848DC38D7B4802887B48D507DE
:1079D000ED0F17D10E8CB54214D00D842B25AD01BF
:1079E0004D8153256D018D8123252D02CD81872564
:1079F000AD010D82734D4D82734D8D820B252D028D
:107A0000CD8208836E49714D0F8B29880126B603FC
:107A1000B1430026BB420FD2694B6D4F5B8CBB421A
:107A200003D267495B1C4B8407E0654B5E840123EE
:107A30009B031943298000E02980614FFF23B98906
:107A400001338C4202D29107C90F09D0F98A8C42C6
:107A500021D2F98B5E4A914217D2491CF98323E067
:107A6000798B322902D2491C79831DE07E832988D3
:107A700099431943814301432980B878002813D1E1
:107A800001F03EF80120B8700EE0FE8329888143A2
:107A90000143298008E079898C4205D37E832988B7
:107AA000994381432980BE70F989012040028C42AC
:107AB00014D9B98B322904D2491C00E077E0B9838C
:107AC00014E0BE832988814301432980F878002887
:107AD0000CD101F015F80120F87007E0398A8C42CA
:107AE00004D8BE83298881432980FE70B88A10217A
:107AF000384A844204D2304800788007C00F0DD045
:107B0000788A844203D91088884310807E702A4B7B
:107B100008241988C80B00281AD10DE01088012309
:107B200088430843108079780029F0D140218843A8
:107B3000084310807B70EAE72888C505ED0F07D160
:107B40008005C00F04D18807C00F04D1C80602D534
:107B50001088A04302E01088A043204310801078D2
:107B60001D4AC006C00F01D0012010E0188A090785
:107B70001A4BC90F0DD00146FF39DC39322902D822
:107B800000201070F8BDC0183C280ED804201070DA
:107B9000F8BD0146FF39DC39322901D80220F6E769
:107BA000C0183C2801D80620F1E70720EFE770470E
:107BB00010010020680600203203002000040000AD
:107BC0002802002040EA0000A0E800001A0100207E
:107BD000983A000018010020FF000020C6FDFFFFBA
:107BE000F0B5A24885B001886A46A1481181008895
:107BF000108084469F48008890809F489F4A007864
:107C00008006C00F04D01379002B01D14123938447
:107C10009A4A9C4D10719A489B4C00780026400768
:107C2000C00F00287FD0284602881B270423204647
:107C30003F029A43008AB94206D90A2801D2401C61
:107C400009E01A432A8009E00D235B02994205D21C
:107C5000002802D0401E208200E02A80FF20BA3097
:107C6000844552D288480522920200891027914209
:107C70000FD264280BD32888012140084000084314
:107C8000082188430843B8433843288005E0401C56
:107C900002E0002801D0401E20810020FDF7D2F82C
:107CA000FF21F531884260890FD264280BD32888E0
:107CB0000121400840000843082188430843B84395
:107CC0003843288005E0401C02E0002801D0401E17
:107CD0006081684600890B214902884208D2A08948
:107CE000642803D32888B84338430DE0401C07E0DC
:107CF0000321C902884208D9A089002802D0401E69
:107D0000A08102E02888B84328806048694600784E
:107D1000087300280AD02888202188430843288037
:107D2000668203E0FFE726812682A681534AFF2769
:107D3000918C81374020002933D0491E91846946B7
:107D400089887A00914214D269460A88FF21BA31A3
:107D50008A420ED9E188052902D2491CE18006E059
:107D6000298820229143114381430143298066825F
:107D700000E0E68069460A88FF21BA318A420ED9BE
:107D80006188322902D2491C618058E0298820226A
:107D90009143114381430143298066824FE066800D
:107DA0004DE06946898815221202914205D26A4641
:107DB0001388FF22BA32934203D80322520291421F
:107DC0000ED2E188052902D2491CE18009E0298808
:107DD000202291431143814301432980668200E0C0
:107DE000E68069460988FF22BA3291420ED962883C
:107DF000052A02D2521C628009E02A8820239A4375
:107E00001A43824302432A80668200E06680FF2292
:107E10009A32914208D9A188322901D2491C09E03D
:107E200029888143014309E0B94208D2A188002989
:107E300002D0491EA18002E0298881432980694639
:107E40000988B9420FD2618AFF22F532914202D2EB
:107E5000491C618204E029882022914381432980C2
:107E60006680E680A68005B0F0BD00007C010020A1
:107E7000800100207E0100200C010020280200204B
:107E8000180100201A010020CC0B002083010020E3
:107E900030B4827801240178002A15D08B080E4A6C
:107EA0009B009A1813688907C90EFF258D40AB43C4
:107EB0004578AD072D0E8D401D4315600078C00636
:107EC000C00E8440054803E0C806C00E8440044844
:107ED000046030BC7047000000E400E000E100E016
:107EE00080E100E0F8B5344C344F2188480719D5BB
:107EF00078790426082510281DD01F281BD020289B
:107F000021D02F281FD0B143294321801420F8808D
:107F1000787910281FD0202820D0302820D0208821
:107F2000A84320802078000704D5F88800281AD0BC
:107F3000401EF880F8BD002002F0BEFE2088B0434D
:107F400028432080E2E7012002F0B6FE2088B043FB
:107F500028432080DAE766207870E3E7772000E0A6
:107F600055207870DEE7012080F31088144D2846F4
:107F7000FDF786FF13490A78010A09021143787850
:107F8000FF22120200029143104001430C46284692
:107F9000FDF781FF21462846FDF7A2FF0A49281D6B
:107FA0000978FDF789FFBFF34F8F09490748C8607B
:107FB000BFF34F8FFEE7000076010020040200208F
:107FC00000F8000870010020FE0000200400FA05FF
:107FD00000ED00E003480021018041808180C180E4
:107FE000018170473C070020064801230188DB021D
:107FF0009943402291430180818899439143818034
:10800000704700001C070020F8B5BE4A1378BE492F
:10801000BE4DBF48012B24D10B88FF24BF34A3439E
:10802000BC4C0B80238801267602B343238003785F
:108030006C462370B84C2B70B84EE45C3470B84C6E
:108040002478012C00D000243778E4193470B54C22
:10805000E45CB54B1C70B54C23880126F602334313
:108060002380AA4BB24D1E786B461E70AB7A8024DB
:108070002343B4463E2E1BD01BDC40241A2E73D063
:108080000EDC2C46A47A40273C43072E29D2370029
:108090007F443F79FF19BF440B0B240B243C6A003B
:1080A0001B2E7DD0302E7CD03B2E01D03C2E18D103
:1080B000F8BDDE2EFCD00CDC7E2EF9D004DC3F2E89
:1080C000F6D0512E0DD1F8BDC92E6BD0DD2E08D1C2
:1080D000F8BDDF2EFCD0E02EFAD0F62EF8D0FA2E26
:1080E000F6D010780128F3D10888800508D46046BE
:1080F000C3380C2804D88949002008708A490870C0
:10810000864800780028E3D187480078002876D098
:10811000F8BD1378012B0FD0022BF9D0032BF7D029
:10812000042BF5D14378022BF2D38378042B07D9A3
:108130008378FF2B04D018E00320FEF779FAF8BD0E
:108140000B88042423430B8083787A49CB70C07852
:10815000694608706D4905280870F0D1012010703B
:108160000320FEF765FAF8BD2AE0AC72F8BD12787C
:10817000012AE1D0022AF9D0032A14D0042AF5D129
:108180004278002AF2D00A8808231A430A80C0786D
:10819000694608705D4908706249095C62487DE083
:1081A0001CE02DE047E08178042902D98178FF297D
:1081B000DBD141780029D9D081785E48C170F8BD03
:1081C0001278012AB8D0022AF9D0032AF7D14078D0
:1081D0000128F4D808880222104323E011780129ED
:1081E000EDD00229EBD00329E9D140780128E6D16E
:1081F000484801220188520211430180F8BD1DE068
:108200001278012A10D0022AF8D0032AF6D18278F7
:10821000862A02D08278872AF0D1C0780128EDD151
:10822000088820430880F8BD0888A0430880032000
:10823000FEF7FEF9F8BD0988890501D4AB72F8BDD7
:1082400011780C29FBD20A007A44127992189744CB
:10825000050505061727050505050535EFE7364928
:108260000978002905D0427834490A70807848702E
:10827000F8BD3349DF2208784008400010403FE055
:10828000C1782E4881702C4909780029F0D10078F6
:108290000128EDD12A480122017811430170F8BD6F
:1082A000254800780028FAD1244800780228F6D121
:1082B00023492122087810430870F8BD1E49097827
:1082C0000029FAD14178082916D11D4C2178CA0914
:1082D00012D1427903791202D218184BDA80C2798E
:1082E0008579120252191A81427A007A1202101804
:1082F00058818020014321701149012208781043E0
:108300000870F8BD6C010020740100206601002097
:10831000580500207601002034CE00086B010020B3
:10832000FE00002034CF00086A0100206801002010
:108330001C070020040200206F01002058060020C6
:108340007101002010B53E493E484A8902808A8961
:108350004280CA8982808A8BC2804A8B02810A88C5
:1083600042814A8882818A88C281CA8802820A89B7
:1083700042820A8A8282498AC1823349097801830A
:1083800032490A8A82848A890284CA8942844A8A52
:10839000C2848A8A0285CA8A42850A8B82854A8B70
:1083A000C2850A8802864A8842868A888286CA8866
:1083B000C2860A890287498941872548018825485C
:1083C0000180254909884180244909888180244900
:1083D0000988C1802349098801812349098841818D
:1083E00022490988818122490988C1812149098856
:1083F00001820120FCF726FD1F4C20840020FCF7A1
:1084000021FD60840220FCF71DFDA084002001F006
:108410009FFEE0840020FDF711FB20850020FDF782
:108420001BFB60850120FDF717FBA0851348018821
:10843000E1854188218681886186C088A08610BD3B
:1084400032030020B00A0020520300205403002011
:1084500002010020F00A0020040100200A0100208F
:108460000C0100201601002014010020180100203A
:108470001A01002044010020300B0020F6000020EB
:1084800070470000F8B5A748A84E00783446A64FBC
:108490004034002805D0A64D01285FD002287DD1A8
:1084A000DCE0A08B30670020FDF7D6FAC001012286
:1084B000002103F08BF83988012212031143A083B5
:1084C00091433980E08B30670120FDF7C5FAC00188
:1084D0000122002103F07AF8398801225203114366
:1084E000E08391433980A08A3067002001F026FEA6
:1084F0004105490D0804C00DC201891A4906890EBB
:10850000800140183988FF2201321143A082914333
:108510003980E08A3067012001F010FE410538887B
:1085200001225202490D1043E18290433880208B92
:108530003067022001F002FE41053888490D012212
:1085400092022183F16E104331679043510008433A
:1085500088433880734901200870F8BD708E2086EA
:10856000FF2230890132082103F030F839880822CF
:108570001143914370863980F08E2086308A4022E4
:10858000062103F023F83988102211439143F08625
:10859000202270891143B086914300E0BDE039800C
:1085A000308F2086708A02F04FFF398840221143B5
:1085B000308791433980708F2086B16970690222BB
:1085C0004018012103F002F8398880221143708796
:1085D00091433980B08F2086B06902F035FF554F46
:1085E00008223988B087F089114320809143B089EF
:1085F000802220861143F0879143EB684022AB61D3
:10860000114328699143E8614B4A2C7D1470022282
:108610001143401C494C39802861A04203D90120F4
:10862000286100202875B46970690019C009C01854
:10863000434BE86098420CD95B42C018E860287D43
:10864000FF2802D2401C287503E000202875012075
:1086500028619143334839800270F8BDB08D20867F
:1086600030882022052102F0B1FF39880122114310
:10867000B085480840003880F08D20867088402200
:10868000062102F0A3FF398802221143F0859143AD
:10869000398060882086A08802F0D6FE2549FF2216
:1086A00009880132114360809143224804220180ED
:1086B000308E20860221706802F088FF39880422FB
:1086C0001143914330863980746F2C60B06F1D4A1E
:1086D0006860117F174B29721B8801252B43154DAC
:1086E000401C2B80154DB067A84201D90020B0670F
:1086F0007068C0092018124C7067A04209D9644202
:1087000000197067FF2902D2491C117701E000208F
:108710001077084859084900018002490020087074
:10872000F8BD000004020020780100206806002047
:10873000E80600207A01002008070020FFFFFF0064
:10874000FF7F0000C8060020F8B5934C93482188AD
:10875000018061884180A1888180E188C180218970
:1087600001818F48042102888F4F0A4302808D487F
:1087700001260078EF250006C00F00281ED13878AA
:1087800080061BD489480088410721D480071FD464
:108790000020FDF76FF9002808D10120FDF76AF9E4
:1087A000002803D182480088C00B35D07D4800786E
:1087B0000006C00F02D13878800603D52078022148
:1087C0000843207079480088410701D4800703D509
:1087D00020780821084320700020FDF74BF900287D
:1087E00003D020781021084320700120FDF742F9C2
:1087F000002803D020782021084320706C4800888E
:10880000C00B03D020780421084320702078304327
:108810002070207A284020723888810711D40107FF
:108820000FD4604909888A06D20F0AD14906C90FB8
:1088300007D1810505D45D490988C90B01D1C0055F
:1088400005D5207830432070207A2840207259487E
:108850000088C1060ED4C00714D1FDF719F900280D
:1088600004D10120FDF714F9002824D051480078E4
:10887000C00603D5A07804210843A0704D480078B5
:10888000C00703D0A07808210843A0700020FDF79E
:10889000FFF8002803D0A07810210843A070012021
:1088A000FDF7F6F8002803D0A07820210843A07037
:1088B000207A284020723B480088C00503D43878CD
:1088C000400606D40CE02079304320713878400609
:1088D00003D52079022108432071207A2840207294
:1088E0003888410502D4400406D40BE0A17908225F
:1088F0001143A171400402D5A0793043A071207AC0
:10890000284020722C48694600780870002806D05C
:10891000042804D0022805D0062803D003E0002054
:10892000607200E0667225480078800704D5217ADD
:1089300020200143217203E0207ADF2108402072C9
:108940001F4A10880106C90F217A02D0102319434B
:1089500000E029402172124904250B88AB430B80AB
:10896000184B21885D88A943174D0FD161889E88D7
:10897000B1430BD1A188DE88B14307D1E1881E89BC
:10898000B14303D121895B89994301D0284300E099
:10899000A8431080F8BD00003C07002046070020D7
:1089A0007A010020440100201A0100203203002037
:1089B0000401002002010020FF0000200A01002025
:1089C00018010020A40A0020000200002C49802089
:1089D00008702C4900200880888088708871C870D1
:1089E000C871087248728872C872087348738873B5
:1089F000254902220880888088708871C870C871F3
:108A0000087248728872C8720873487388731F4965
:108A100008678885C88508864886C8864887888705
:108A20001B498882C88208838883C8830884488455
:108A30008884C88408854885164948700A72164992
:108A40003F2208801549088015490880154908808B
:108A50001549088015494A803C228A800322CA8031
:108A600009220A8148811249134A08701149487144
:108A700000214B00491CC9B2D0528029F9D370475C
:108A8000720100201C0700202C070020680600202F
:108A9000A8060020080700200E0200207401002014
:108AA00076010020780100207A010020A40A00202D
:108AB0000602002004020020B00A002070B5FCF776
:108AC0008FFB0D4D288802F0BFFC0C4CE0806888BD
:108AD00002F0BAFC2081686802F0B6FC6081A88CC4
:108AE000A081288D02F0B0FC2082E88CE081688DA6
:108AF00002F0AAFC608270BD68060020A806002073
:108B000070B5054D288802F09FFC044CE080688811
:108B100002F09AFC208170BD68060020A8060020A3
:108B2000F0B5FF4884B0007869460873FD4A00211B
:108B30001170FE4FFC4B394640310091FC4E1D88B0
:108B40000C8E31887B8E0193FA4B1B889C46FA4B26
:108B50009E7A80231E43F94B602877D026DC32288A
:108B600075D014DC21287BD0F04F08DC4037BF8A59
:108B7000022841D0032843D020286AD157E060372B
:108B8000242879D0252872D0282862D196E03D2863
:108B90006ED006DC33286CD035286BD0362858D1FF
:108BA000A4E05E2867D05F2853D1CAE0E44FCB2809
:108BB000BF780097E34FBF7878D00EDCC42876D01A
:108BC00006DC612874D0622873D0C32841D134E117
:108BD000C9286FD0CA283CD16CE1F1286BD006DCE3
:108BE000CF2869D0EB2868D0F02832D1FAE1F528F7
:108BF0006FD0F6282DD10AE2E8050AD43C4608E0F9
:108C0000480502D5E80504D4F8E7A80501D4009882
:108C1000C48A10781918401C10700C702004010EC2
:108C200010781B18401C1070197004B0F0BD480576
:108C300011D5107800211C18401C1070217010787C
:108C40001B18401C1070197004B0F0BD98E03AE099
:108C500006E063E110E0E804DBD40098848BD8E7F9
:108C60004805E6D4A804D4D40098C48BD1E710E01A
:108C700042E02FE034E045E0397910781C18401CC0
:108C800010702170797910781B18401C10701970C1
:108C9000DAE7B97910781C18401C10702170F97946
:108CA00010781B18401C10701970CDE76BE1E4E0E0
:108CB00085E0A3E011E1E7E108E178E14805B8D4F7
:108CC0002807A6D407E14805B3D4E807A1D1BC8D95
:108CD0009FE7BFE14805ACD4E8069AD4FC8E98E73C
:108CE0004805A6D4680794D43C8E92E74805A0D4E2
:108CF00028068ED47C8F8CE748059AD4A80788D4A0
:108D0000FC8D86E7604640070DD58F4C10782178A2
:108D10001D18401C10702970617810781B18401CB9
:108D20001070197090E7894C107821781D18401C3C
:108D300010702970617810781B18401C1070197021
:108D400082E7604640070DD57F4C1078A1781D184A
:108D5000401C10702970E17810781B18401C1070AE
:108D6000197071E7794C1078A1781D18401C1070AB
:108D70002970E17810781B18401C1070197063E797
:108D8000604640070DD5704C107821791D18401CA5
:108D900010702970617910781B18401C10701970C0
:108DA00052E76A4C107821791D18401C1070297008
:108DB000617910781B18401C1070197044E76046E8
:108DC00040070DD5604C1078A1791D18401C10701B
:108DD0002970E17910781B18401C1070197033E766
:108DE0005A4C1078A1791D18401C10702970E17937
:108DF00010781B18401C1070197025E7604640075A
:108E00000DD5514C1078217A1D18401C1070297016
:108E1000617A10781B18401C1070197014E74B4CC5
:108E20001078217A1D18401C10702970617A107812
:108E30001B18401C1070197006E788056ED5444851
:108E400044490088081A11785C18491C1170207078
:108E50000004010E10781C18401C107021703E4C4C
:108E6000107821781D18401C1070297061781078D6
:108E70001B18401C10701970E6E688054ED5374C5B
:108E8000107821781D18401C1070297061781078B6
:108E90001C18401C10702170314C107821781D185E
:108EA000401C10702970617810781B18401C1070DD
:108EB0001970C9E6880592D52A4800784006C10F86
:108EC00010781B18401C10701970BDE6880586D5F7
:108ED000280700D59DE6019C9BE688051ED5224902
:108EE0001078CC881D18401C10702C70107824123B
:108EF0001D18401C10702C700C8910781D18401C17
:108F000010702C70107824121D18401C10702C70DA
:108F1000498910781C18401C107027E0B3E000004D
:108F2000660100206E010020780100206806002004
:108F3000740100207A0100201C0700205804002042
:108F4000540100204C010020460700203C0700206F
:108F500046010020FE1F0000480100201C010020E7
:108F6000200100200E0100205806002021701078FA
:108F7000090A1B18401C107019704948DF2201783B
:108F80001140017060E688057DD5107861211C18BC
:108F9000401C10702170107800991C18401C107033
:108FA000217010781918401C10700F704CE688055D
:108FB00072D5107803211C18401C1070217039489C
:108FC000817810781C18401C10702170107800995E
:108FD0001C18401C1070217010781918401C10705B
:108FE0000F7031E6880557D510780E211C18401CEB
:108FF000107021702C4E0020345C11785D18491CD3
:1090000011702C70401CC0B20B28F5D31CE6274908
:10901000274C0888A04202D0264CA0420CD10C78E4
:1090200010781D18401C10702C70497810781B188F
:10903000401C1070197007E61078FF211C18401CA6
:109040001070217010781B18401C107019701A488D
:109050008672F9E588051FD518480088802803D254
:1090600017494000085A0290107802991C18401CB9
:109070001070217002980004010E10781B18401C1B
:1090800010701970E0E507E00E48017810781B18A1
:10909000401C10701970D7E507488672D4E50000AF
:1090A000710100205C01002034D000080E02002075
:1090B000554C0000AAAA00001C0700201002002046
:1090C000B00A002006020020014614225143054A3E
:1090D000002089184A68128A09890A4200D00120B2
:1090E0007047000018C7000870B5194E82B00025FF
:1090F00028461421484304463059012100F02CFB36
:10910000A41920890090A17A6B461971E27A5A71EC
:10911000227B9A71627BDA71022902D0012906D082
:109120000AE0227CE1896068FCF745FF04E0617C8D
:10913000012961680AD0088569466068FCF702FF6A
:109140006D1CEDB2212DD3D302B070BD8861F3E761
:1091500018C7000830B40323124A002908D000249D
:10916000012903D0022904D0032904D0147003E09C
:109170000121117000E01370142148430A4940187E
:1091800041680C68857B6D00AB409C430C60416876
:109190000B68807B44001078A04003430B6030BC18
:1091A00070470000F400002018C70008054A142387
:1091B0005843821810895268012901D010857047E0
:1091C0009061704718C700081421484303494118AB
:1091D0004868828A09894A408282704718C7000815
:1091E00002480021C1700171704700005202002046
:1091F000F8B53B4E3B4D30783B4C0007C00F20D0BC
:109200003A4800780007C00F03D0608A0A2836D891
:109210003CE037480788AF4201D92F46058002213C
:109220000720FFF797FF608A874237D90A30B84294
:1092300001D9678200E06082618A022000F058FA5A
:109240002CE02C4B2C4A19881088814214D0A9425A
:1092500001D929461D80814204D90A30814207D9AB
:1092600081B205E00B460A33984201D90A3881B22F
:109270001180012000F03CFA608A0A2806D90A38D9
:1092800081B26182022000F033FA07E0002107205A
:10929000FFF760FF01210720FFF788FF3078174BA9
:1092A00040071749174AC00F0BD0174C2088884237
:1092B00001D3084602E0904201D810462080188071
:1092C000F8BD124D1C882888A042F9D0884201D3ED
:1092D000084602E09042F2D810462880EFE70000EE
:1092E0000E010020E8030000520200201A010020B5
:1092F0002001002048010020220100201E01002042
:1093000032130000CC0C00001C010020460100209C
:10931000F8B55A4C5A4D217920232888594F0026F8
:10932000002902D002297DD13CE0FF210131884390
:10933000554A984311888023490849009843118071
:1093400003072880DB0F2CD0504B1B78DB07DB0F8B
:1093500027D14F4B1B885B05DB0F22D14D4B9B78F0
:10936000DB07DB0F1DD13B889B05DB0F19D10B07FA
:10937000DB0F16D0484B1B88DB0B12D18307DB0FAA
:109380000FD04B085B0001210B4309028843138077
:1093900008432880268202202071A6706670FBF7A1
:1093A0002BF8F8BD218AFF225F32914202D9A278C0
:1093B000002A07D0491C2182344800780007C00FDA
:1093C00036D10AE098431843802188430843288017
:1093D000FEF70AFE0120A070EEE72E488078C00755
:1093E000C00F25D138888106C90F21D10106C90FC8
:1093F0001ED14006C00F1BD128880107C90F17D006
:1094000025490988C90B13D18007C00F10D01E4809
:1094100000780007C00F0BD01D4800884005C00F22
:1094200006D100E027E01D4800780007C00F20D0DB
:10943000288880218843288038888106C90F05D173
:109440000106C90F02D14106C90F0CD00121490202
:109450008843084338808006C00F04D01049042296
:109460000888904308806078042804D8401C607005
:10947000F8BD6670F8BD2671F8BD000052020020EC
:109480001801002044010020140100200A010020DE
:109490007401002032030020040100207601002026
:1094A0000E010020F8B55A4D0227E8780024594EE5
:1094B000002808D031460988012830D0FF222D32FB
:1094C00002287DD14EE001211020FFF743FE524AD1
:1094D00020211088884310806C8130884F49B84320
:1094E000308009788907C90F01D001212970042132
:1094F00088433080E888002804D0401E0004000C17
:10950000E8800BD146480078C007C00F06D1454817
:1095100000884005C00F01D10120E870F8BD424825
:109520000088C005C00FF9D00807C00FF6D0287812
:10953000002802D0FEF74EFD2C70EF7000211020A5
:10954000FFF734FE00211020FFF704FE32492020EF
:109550000A88824302430A802C817D20AC81C000AE
:10956000E881F8BD28897D23DB00984203D9B943FF
:109570003943318001E0401C28816889FF21F531A1
:10958000884202D2401C688104E031880420814373
:1095900001433180E889002801D0401EE88120483D
:1095A00003889806C10F1D4800780007C00F0029E6
:1095B00002D1DB07DB0F09D033781B07DB0F00E09C
:1095C00023E014D0EB89002B0FD016E033781B0773
:1095D000DB0F0CD0134B1B885B05DB0FF2D1E98945
:1095E0000029BED1002802D1F8BD002805D0A889E5
:1095F00014280AD2401CA881F8BDEC70002902D0C2
:109600000A48E880F8BDEA80F8BDEC70EA80F8BD51
:1096100052020020180100200C0100200A01002045
:109620001A01002074010020320300204C040000C5
:10963000F0B500252D4F89B02E4618216943CC196D
:10964000785862680121904769468E82CE82E0890F
:1096500006908E838E7705A9A06801F001FAA08A92
:109660006946088001204880042088802069029093
:10967000E08A8881FF20CE81013008824E82207BE3
:10968000002806D001280CD0022812D003281FD1B0
:1096900017E0A06801F0BCF80821A06801F0F8F814
:1096A00016E0A06801F0FAF80821A06801F040F97E
:1096B0000EE0A06801F046F90821A06801F086F9E3
:1096C00006E0A06801F088F90821A06801F0B6F969
:1096D0000121A06801F075F80121A06801F07BF874
:1096E0006D1CEDB2032DA8D309B0F0BDACC90008C4
:1096F0001822504310B5114A8418E08948437D214F
:10970000C900FAF7FDFC81B2207B002809D00128AE
:109710000BD002280DD0032802D1A06801F09EF9D9
:1097200010BDA06801F094F910BDA06801F092F995
:1097300010BDA06801F090F910BD0000ACC9000890
:1097400004498A150028086801D0104300E09043BE
:109750000860704700700040044A0029516901D038
:10976000014300E081435161704700000010024056
:10977000044A0029D16901D0014300E08143D1614D
:109780007047000000100240044A0029916901D08E
:10979000014300E0814391617047000000100240E6
:1097A000044A0029D16801D0014300E08143D1601F
:1097B00070470000001002400122054912040028F1
:1097C000086A01D0104300E090430862704700002F
:1097D00000100240F8B5574E0446706800210C2274
:1097E000554D104006D06A00042805D0082805D041
:1097F0000C281CD025601CE022601AE0716870689B
:1098000003238902DB030F0F1840BF1C00280AD076
:10981000F06A0107090F1046491CFAF771FC7843FA
:109820000146216005E0454839464143F9E744488F
:1098300020607068434F0006000F3B5C20680246C2
:10984000DA40626073685B055B0FFB5CDA40A26024
:10985000336BDB0502D43C4BE36006E073685B04CA
:1098600001D4530800E09308E360336B5F06374B85
:1098700002D4374F276100E02361376BFF0601D424
:10988000656100E06061376BBF070ED0376BBF07C3
:10989000BF0F012F0BD0376BBF07BF0F022F08D0B0
:1098A000376BFF43BF0706D006E0A26104E0A0616A
:1098B00002E0A36100E0A561376BBF03BF0F0FD0CB
:1098C000376BBF03BF0F012F0CD0376BBF03BF0F28
:1098D000022F09D0376BBF03BF0F032F06D006E05E
:1098E000E26104E0E06102E0E36100E0E561376B22
:1098F0003F03BF0F0FD0326B1203920F012A0CD01F
:10990000306B0003800F022809D0306B0003800FFA
:10991000032806D006E0226204E0206202E023620F
:1099200000E02562306B000602D405486062F8BD95
:109930006162F8BD0010024000127A0000093D008B
:10994000006CDC02C4000020809FD5000080000075
:109950001280000001220549D2030028086A01D0C4
:10996000104300E09043086270470000001002407E
:1099700002490A6A02430A6270470000001002406E
:1099800018B400200D4B0090D868400613D4002076
:10999000C043D86040210C02D868009A0840521C8D
:1099A0000092A24201D00028F6D0D868400602D426
:1099B00018BC0020704718BC0120704700280040E8
:1099C00070B505460026104CCA20606253206062C4
:1099D000FFF7D6FF002813D0A06840218843A0607D
:1099E000A06829680843A060A86820612069A98848
:1099F000090408432061E06880218843E060012673
:109A0000FF206062304670BD0028004018B400207E
:109A1000124B00909868800602D518BC0120704750
:109A2000CA20586253205862D868A0218843D86061
:109A300020218C02D868009A0840521C0092A24251
:109A400001D00028F6D0D868800601D5012000E0BA
:109A50000020FF21596218BC704700000028004018
:109A600010B5012184B000240807FFF781FE012012
:109A7000FFF766FE0120FFF79FFE0020FFF79CFE28
:109A800003200002FFF774FF0120FFF763FF0B4A7A
:109A90000B496320516010600190002002910090FA
:109AA00001E0641CA4B26846FFF78AFF002801D1D8
:109AB000C82CF6D3FFF7AAFF04B010BD9C0100200C
:109AC0008713000010B43149002008803049344B1E
