:020000040800F2
:08000000F0070020AD310008FB
:020000040800F2
:1030000045434431363032303130372058585858E3
:020000040800F2
:1030100098080020AD310008175B0008694E0008D1
:10302000095B0008C13B0008D974000800000000DB
:1030300000000000000000000000000029660008F9
:10304000733D000800000000056100086366000889
:10305000C7310008C7310008C7310008C731000870
:10306000C7310008C7310008C7310008C731000860
:10307000C7310008C7310008C7310008210300101C
:10308000C7310008C7310008C7310008C731000840
:10309000C7310008C7310008C7310008C731000830
:1030A000C7310008C7310008C7310008C731000820
:1030B000C7310008C7310008F9670008C7310008A8
:1030C000C7310008C731000800000000C731000800
:1030D000C73100080000000000000000C7310008F0
:1030E00000000000C73100083D030010C731000890
:1030F000C7310008C73100080000000000000000D0
:1031000000000000000000000000000000000000BF
:1031100000000000000000000000000000000000AF
:103120000000000000000000C7310008C73100089F
:10313000000000000000000000000000000000008F
:10314000000000000000000000000000000000007F
:10315000C7310008C731000800000000C73100086F
:10316000C7310008C7310008C7310008C73100085F
:10317000C7310008C731000800000000000000004F
:10318000000000000000000000000000000000003F
:1031900000000000C7310008DFF80CD000F022FA70
:1031A00000480047AB750008980800200648804793
:1031B00006480047FEE7FEE7FEE7FEE7FEE7FEE71C
:1031C000FEE7FEE7FEE7FEE76566000899310008C6
:1031D0002DE9FE4F804681EA0300C00F0C460090A7
:1031E00021F0004123F00045B8EB0200A94105D2CF
:1031F0004046214690461C460B46024623F00040BE
:10320000104347D0270DC7F30A00C3F30A510290B9
:10321000401A019040286BDAC3F3130040F4801B7E
:103220000098924620B10023D2EB030A63EB0B0B0C
:1032300001985946C0F14002504600F044F9064654
:103240000D4650465946019A00F05CF910EB080013
:103250006141002487EA115284EAE7731A4340D09F
:10326000009A62B3019A012A4FEA075215DC001B4B
:1032700061EB02014FF0004202EA0752CDE9004241
:10328000001C41F5801132462B4600F05CF903B07A
:10329000BDE8F08F40462146F9E7001B61EB0201D3
:1032A000001C41F5801300185B412018A2F500179F
:1032B00047EB030140EAD570B6196D4111E06D0886
:1032C0004FEA360645EAC0754FEA0752001B61EB2C
:1032D0000201001C41F5801149084FEA3000001935
:1032E000514132462B4603B0BDE8F04F00F01CB907
:1032F0000098012240000023D0EB020263EBE07350
:10330000009821464FEAE074B8EB000061EB04013D
:10331000E9E783F000435BE781F0004158E72DE9DE
:10332000FE4F81EA030404F0004421F000410094C0
:103330004FF0000B23F0004350EA01045ED052EA44
:1033400003045BD0C3F30A54C1F30A552C44A4F21E
:10335000F3340194A0FB0254C1F3130141F4801132
:10336000C3F3130343F4801301FB024400FB034E39
:10337000840A970A44EA815447EA8357A4FB076802
:1033800002958D0A05FB07854FEA932C04FB0C542C
:103390002705029D4FEA065847EA1637B5EB0805A0
:1033A0006EEB070C870E920E47EA811742EA8312F2
:1033B000A7FB0201B6EB0B0164EB00042B0D43EA03
:1033C0000C335E1844EB1C50DA465146E7FB020111
:1033D000C5F313044FEA0B3343EA14534FEA0432A4
:1033E000019C43EA0603A4F10C040294009CCDE97D
:1033F00000B400F0A8F803B0BDE8F08F002001464B
:10340000F9E70EB5C10F80EAE0700844CA07002151
:1034100040F233438DE80E000A460B4600F093F865
:1034200003B000BD0EB540F2334102910021CDE959
:1034300000110A460B4600F086F803B000BD0EB539
:1034400040F2334202920022CDE90022134600F0FE
:103450007AF803B000BD70B5C1F30A5201F000451F
:103460000024C1F3130140F2FF3341F480119A426A
:1034700001DA002070BD40F233439A42A2F2334297
:1034800003DC524200F02EF800E090402C43F1D0D3
:10349000404270BDC1F30A5210B5C1F3130140F2AE
:1034A000FF3341F480119A4201DA002010BD40F24E
:1034B00033439A42A2F2334203DC524200F012F844
:1034C00010BD904010BD202A04DB203A00FA02F122
:1034D000002070479140C2F1200320FA03F3194302
:1034E00090407047202A04DB203A21FA02F00021A4
:1034F000704721FA02F3D040C2F120029140084304
:1035000019467047202A06DBCB17203A41FA02F011
:1035100043EAE07306E041FA02F3D040C2F1200230
:10352000914008431946704710B5141E73F100040A
:1035300008DA401C41F1000192185B411A4301D1A5
:1035400020F0010010BD2DE9F04D92469B4611B1CF
:10355000B1FA81F202E0B0FA80F220329046FFF731
:10356000B2FF04460F4640EA0A0041EA0B01534607
:103570005A46084313D0114653EA010019D0C8F146
:1035800040025046FFF7AEFF05460E4650465946EC
:103590004246FFF798FF084305D0012004E020468B
:1035A0003946BDE8F08D0020054346EAE0762C431D
:1035B00037430A986305E40AA0EB08000022FD0ADD
:1035C00044EA47540A3002D500200146E9E70105E4
:1035D00010196941DDE9084500196941BDE8F04D60
:1035E000A2E70000064C074D06E0E06840F001034A
:1035F00094E8070098471034AC42F6D3FFF7D0FDAB
:10360000687A0008987A000870B58C1810F8015B89
:1036100015F0070301D110F8013B2A1106D110F86B
:10362000012B03E010F8016B01F8016B5B1EF9D16F
:103630002B0705D40023521E0DD401F8013BFAE7F5
:1036400010F8013BCB1A921C03E013F8015B01F860
:10365000015B521EF9D5A142D8D3002070BD40F2C3
:10366000951CC1F2000C604740F62B3CC1F2000CE7
:1036700060470000054900200860064904480988A1
:1036800001800549801C098801807047087400404A
:10369000960100201A0100201C010020194A107810
:1036A00020F0010040F00201117002F10E00164AF4
:1036B00012880280154A801C12880280A0F1100234
:1036C00010389389B2F806C0B0F90800634588BF86
:1036D000401E38BF401C00D01081B2F9080010F520
:1036E000FA7FB8BF0A4804DBB0F5FA7FC8BF4FF4D1
:1036F000FA701081480807490A8860F349220A8055
:1037000070470000880100201A0100201C010020E1
:103710000CFEFFFFEA0000200029816814BF41F081
:10372000010141F00201816070470000F0B4134BC9
:10373000DFF84CC0134D4FF0A044B0F1A04F16BFBE
:103740006045D4F808232A6802EA0302D1E900366A
:1037500043EA0603D1E9026746EA0736097C43EAF1
:10376000060343EA012141EA0201B0F1A04F16BF6E
:103770006045C4F808132960F0BC7047E010FCFFF6
:1037800000010050080700500029C16814BF41F033
:10379000010121F00101C1607047014600208968E4
:1037A00011F0004F18BF01207047000010B4C2682C
:1037B000114B1A40D1E9003C43EA0C03D1E902C4A1
:1037C0004CEA040C43EA0C03D1F810C043EA0C03A2
:1037D000D1F814C043EA0C03D1F818C043EA0C0333
:1037E0001A43C260026B097F22F00F02491E114387
:1037F000016310BC7047000007C0FFFD10B44FF01C
:103800001F0C052A0DD2046B02EB420252000CFA87
:1038100002FC24EA0C0C01FA02F24CEA02020263F6
:103820002FE00A2A0ED2446B521F02EB42025200D2
:103830000CFA02FC24EA0C0C01FA02F24CEA020235
:1038400042631EE00F2A0ED2846B0A3A02EB420258
:1038500052000CFA02FC24EA0C0C01FA02F24CEAC7
:10386000020282630DE0C46B0F3A02EB4202520087
:103870000CFA02FC24EA0C0C01FA02F24CEA0202F5
:10388000C263092911D982690A3901EB4101072272
:10389000D0F818C08A402CEA02028261826903FAD9
:1038A00001F11143816110BC704742694A1E02EB6D
:1038B00042024FF0380C0CFA02F2D0F814C02CEA95
:1038C00002024261426901EB410103FA01F1114335
:1038D000416110BC7047826822F080428260826839
:1038E000114381607047816841F0004181607047F9
:1038F000816841F0040181607047826822F0405283
:1039000082600029816814BF41F0805141F000516C
:1039100081607047014948617047000048000020FD
:10392000014988617047000048000020F8B5194C33
:1039300015460E46012808BF0B2018D0022808BFE4
:103940000C2014D0032808BF0D2010D0042808BF75
:103950000E200CD0052808BF0F2008D0062808BF6D
:10396000102004D0072804BF1120207000E0207030
:103970004FF4806002F014F920788DF800008DF883
:1039800001608DF8025001208DF80300684602F0B6
:10399000CBF8F8BD480000200149C861704700001D
:1039A000480000200149C86070470000480000201E
:1039B0002DE9F0418EB04FF4807002F0ADFB012193
:1039C000080702F0B9FB01214FF0A040FFF795FF77
:1039D0006E4C01212046FFF790FF0020A021401CE3
:1039E00080B28142FBD800214FF0A040FFF773FF67
:1039F0004FF0A040FFF777FF4FF0A040FFF7CDFE5C
:103A00000028F9D100212046FFF765FF2046FFF787
:103A10006AFF27463846FFF7C0FE0028FAD1062580
:103A200000244FF400400895CDE9094002200B9096
:103A30008DF8304008A94FF0A040FFF777FE4FF413
:103A400060780094CDE901484FF48060CDE903042B
:103A50008600CDE905648DF81C5069464FF0A04002
:103A6000FFF7A4FE0122022311464FF0A040FFF70A
:103A7000C5FE02231A4619464FF0A040FFF7BEFECE
:103A80000322022311464FF0A040FFF7B7FE0422A5
:103A9000022311464FF0A040FFF7B0FE052202239B
:103AA0000C211007FFF7AAFE022306220B214FF07C
:103AB000A040FFF7A3FE0094CDE90148CDE90446FC
:103AC000039406948DF81C5069463846FFF76EFE45
:103AD0000223012203213846FFF790FE02231A46F3
:103AE0000C213846FFF78AFE022303220C213846B8
:103AF000FFF784FE022304220C213846FFF77EFEE6
:103B0000022305220C213846FFF778FE0223062205
:103B10000C213846FFF772FE01214FF0A040FFF75D
:103B200033FE01214FF0A040FFF7F6FD012138469A
:103B3000FFF7F2FD4FF0A040FFF7DAFE0121084643
:103B400002F0FAFA124800901248CDE901048020F0
:103B5000CDE904408000069080000790ADF80C503D
:103B6000202008900002CDE909040B4C694620464C
:103B700000F0D6F80121204600F0C0F80122022111
:103B8000204600F0C5F80EB0BDE8F08100010050FD
:103B90000C030050B00200200800024001494860B8
:103BA000704700004800002001498860704700000D
:103BB00048000020014908617047000048000020CB
:103BC00000F04EFA02F002F802F088FCF8E77047C5
:103BD0004FF08071B1FBF0F00149086070470000C0
:103BE0006800002010B5012184B0084602F0BCFA3C
:103BF0000F490E4808620121400702F0A9FA01218D
:103C0000880602F0A5FA00200A4C0090019002906C
:103C1000014603906A46204600F024F80122002164
:103C2000204600F014F804B010BD000001004080F0
:103C300000000140009800404140034AC9B232F8F8
:103C4000111081EA1020704768780008704701233E
:103C500003FA01F1002A026814BF114322EA0101AC
:103C60000160704710B4036840F6FE7C0CFA01FC5A
:103C700023EA0C03D2E900C44CEA040CD2E9024264
:103C800022434CEA020202FA01F11943016010BC1E
:103C9000704700004FF08071B1FBF0F001490860FF
:103CA000704700007400002070B50121480702F041
:103CB0004FFA104C0025104E2560656022462946BB
:103CC0003046E560FFF7CEFF256002206560E060CA
:103CD000224610213046FFF7C5FF01220021304661
:103CE000FFF7B5FF3046BDE8704001221021FFF715
:103CF000AEBF0000C8020020007400400029016827
:103D000012BF41F001014FF6FE7211400160704791
:103D1000002A026814BF114322EA010101607047C2
:103D200010B40268D1F820C08B686FF30E1243EA1A
:103D30000C03D1E904C44CEA040C43EA0C03D1F8A7
:103D400018C043EA0C03D1F81CC043EA0C03D1F8B5
:103D500024C043EA0C03D1F828C043EA0C031A43F9
:103D600002608A8942600A6882604968C16010BC4A
:103D7000704710B500F074F901F028FFBDE810405D
:103D800002F0ACBB016890F806C001F01F020123ED
:103D900003FA02F221F01F01BCF1000F7ED001F105
:103DA000804101F58031D1F800C42CEA0202C1F84B
:103DB0000024016821F01F0202F1804202F58032E6
:103DC000D2F804C401F01F0103FA01F12CEA010149
:103DD000C2F804140268017922F01F0C0CF1804C27
:103DE0000CF5823C6144D1F800C002F01F0203FAD6
:103DF00002F24CEA02020A60016821F01F0202F19D
:103E0000804202F58032D2F808C401F01F0103FAA3
:103E100001F12CEA0101C2F80814016821F01F0227
:103E200002F1804202F58032D2F80CC401F01F0189
:103E300003FA01F12CEA0101C2F80C1441791029AE
:103E40000FD0026822F01F0000F1804000F58230A0
:103E50000844016802F01F0203FA02F211430160F4
:103E60007047016821F01F0202F1804202F58032A2
:103E7000D2F808C401F01F0103FA01F14CEA010174
:103E8000C2F80814006820F01F0101F1804101F51B
:103E90008031D1F80C2400F01F0000E005E003FAA7
:103EA00000F01043C1F80C047047007901F1804123
:103EB00001F58231084401689143D0E700B5012142
:103EC00083B0084602F050F90221012002F0B5FB50
:103ED0000220009004208DF8040008208DF80500D1
:103EE00001208DF806006846FFF74CFF03B000BDC7
:103EF0000248016941F080010161704700200240E1
:103F000078B50546002000900C464FF4302000F0B4
:103F100031F8042818BF78BD0C4E306940F001001C
:103F200030612C804FF4302000F024F8042808D1B0
:103F3000A81C00900099200C08804FF4302000F05D
:103F400019F8316921F00101316178BD002002408A
:103F50000548016911F0800F08BF704703494160AF
:103F6000034941607047000000200240230167457B
:103F7000AB89EFCD184A01460420D36813F0010F36
:103F800018BF01201ED1D36813F0100F18BF0220F4
:103F900018D1D36813F0040F18BF032012E0D368C0
:103FA000042013F0010F18BF01200AD1D36813F0C9
:103FB000100F18BF022004D1D36813F0040F18BFEC
:103FC0000320491E012804D0002918BF704705208E
:103FD00070470029E3D1FAE700200240044AD11CCF
:103FE00011F801398A4243EA0020F9D970470000EC
:103FF000F82F0008064AD01C10F80139824243EA23
:104000000121F9D9034881420CBF012000207047EB
:10401000FC2F0008D4C3B2A17047000070B5064D54
:1040200045F2AA54FFF794FF21462846FFF768FFA0
:10403000BDE87040FFF75CBF00B000084B07DB0E27
:104040009A40C90800EB8100016A4FF00F0C0CFA8E
:1040500003F399430162016A114301627047000052
:104060000B48016841F003010160016841F00C0157
:104070000160016841F030010160016841F0C00158
:104080000160016841F440710160024800F0A4BA87
:1040900098770140007401402DE9F0477E482DEDEE
:1040A000068B40687D4C10F48030206314BF7C4840
:1040B0007C480546C10E60634001FFF7C0F98946A0
:1040C00049EC100B07469FED788B51EC100B53EC2D
:1040D000182BFFF724F99FED769B53EC192BFFF774
:1040E0001EF99FED75AB53EC1A2BFFF771F8FFF734
:1040F000D1F949EC107B606053EC182B51EC100B9C
:10410000FFF70DF953EC192BFFF709F953EC1A2BB4
:10411000FFF75EF8FFF7BEF9A0602801A063FFF784
:1041200081F9884648EC100B064653EC182B51ECED
:10413000100BFFF7F4F853EC192BFFF7F0F853ECE2
:104140001A2BFFF745F8FFF7A5F949EC107BE06162
:1041500053EC182B51EC100BFFF7E1F853EC192B33
:10416000FFF7DDF853EC1A2BFFF732F8FFF792F95F
:1041700048EC106BE06053EC182B51EC100BFFF780
:10418000CEF853EC192BFFF7CAF853EC1A2BFFF7B4
:104190001FF8FFF77FF92062A90EA801C4E91001FA
:1041A000FFF74DF90D4645EC100B074653EC182B65
:1041B00051EC100BFFF7B3F853EC192BFFF7AFF8E6
:1041C00053EC1A2BFFF704F8FFF764F948EC106B77
:1041D000206153EC182B51EC100BFFF7A0F853ECB7
:1041E000192BFFF79CF853EC1A2BFEF7F1FFFFF7A2
:1041F00051F945EC107B606253EC182B51EC100B1D
:10420000FFF78DF853EC192BFFF789F853EC1A2BB5
:10421000FEF7DEFFFFF73EF948EC106B606153ECF0
:10422000182B51EC100BFFF77AF853EC192BFFF712
:1042300076F853EC1A2BFEF7CBFFFFF72BF945EC82
:10424000107BA06253EC182B51EC100BFFF767F8B2
:1042500053EC192BFFF763F853EC1A2BFEF7B8FF5A
:10426000FFF718F948EC106BA06153EC182B51ECD8
:10427000100BFFF754F853EC192BFFF750F853ECE1
:104280001A2BFEF7A5FFFFF705F9E062BDEC068BE0
:10429000BDE8F08700000000001002408000002010
:1042A00000A24A040090D00395D626E80B2E113EBA
:1042B000000000000000B040000000000000E03FEF
:1042C00010B58CB04FF4805002F0FCF80121480783
:1042D00001F04AFF194C0C21204600F06BF94FF415
:1042E0008031204600F08FFA0028F8D0FFF7D4FE86
:1042F00041F6FE70089000200121CDE90901082156
:10430000019000900B910290039005900690880612
:104310000790801004906B4608AA0521204600F003
:1043200072FB0748016841F00101016000F00AF8E2
:104330000CB0BDE8104000F09DB8000000740140D2
:10434000847701402DE9F041AEB02AA940F6FF7014
:10435000002401264FF0080881E8510115941694B5
:104360007007CDE91A4080103E4F149418901794AE
:10437000199414AB2AAA2146384600F044FB2025A4
:10438000CDE9044503940694079436200094CDE9C2
:1043900001806B4601220021384600F0FCFA4E20D5
:1043A0000094CDE901506B4602220021384600F00E
:1043B000F2FA09940A9408AB0122002138460894C5
:1043C00000F099FA08AB022200213846089400F068
:1043D00092FA08AB042200213846089400F08BFAC8
:1043E00008AB082200213846089400F084FA1C9497
:1043F0001D944FF420601E94CDE91F401020CDE99C
:104400002140800323901CAA0021384600F0C5FA01
:104410003C21CDE90B410D940E94CDE90F4111944F
:1044200012940BAA00213846139400F0E1F80E49CB
:10443000086840F040200860CDE92464269424AA4E
:1044400020213846CDE9274500F0F2F8074803213E
:1044500001600748016841F0020101602EB0BDE82B
:10446000F081000000740140B87401409877014069
:10447000847701402DE9F041AEB02AA940F6FF70E3
:10448000002401264FF0080881E851011594169484
:104490007007CDE91A4080103E4F1494189017947D
:1044A000199414AB2AAA3146384600F0ACFA0094AD
:1044B00020250394CDE90445069436200794CDE9E0
:1044C00001806B4604220121384600F064FA4E2038
:1044D0000094CDE901506B4608220121384600F0D6
:1044E0005AFA012209940A9408AB114638460894F6
:1044F00000F001FA08AB022201213846089400F0CE
:10450000FAF908AB042201213846089400F0F3F9C7
:1045100008AB082201213846089400F0ECF91C94FD
:104520001D944FF420601E94CDE91F401020CDE96A
:104530002140800323901CAA0121384600F02DFA67
:104540008221CDE90B410D940E94CDE90F411194D8
:1045500012940BAA01213846139400F049F80E4931
:10456000086840F040200860CDE92464269424AA1D
:1045700020213846CDE9274500F05AF807480C219C
:1045800001600748016841F0040101602EB0BDE8F8
:10459000F0810000007401403875014098770140B7
:1045A000847701404FF47C11014800F0F0B900001D
:1045B00000740140D0F8CC23B1F1FF3F07BF22F0D7
:1045C000020141F0010122F00D02114318BF41F038
:1045D0000201C0F8CC13704700B50121480701F073
:1045E000CFFD00214FF000505DF804EB01F0C8BD95
:1045F00000EBC110D0F8B8100C4B1940136841EA19
:104600008321536819439368194313691943D36885
:104610001943938A41EA034193691943136AD269A2
:1046200019431143C0F8B810704700000020FF3D47
:10463000AFF3008010B4D0F8B033D0F8B4C3D0F8E2
:10464000B843202977D030DC042960D016DC01295A
:104650004DD002291CBF10BC704723F47C61136845
:1046600041EA8311536841EA8311936841EA831157
:10467000C0F8B013126941EA821158E008295BD0F2
:1046800010291CBF10BC704723F07C51137841EAFD
:104690000361137941EA0361137A41EA0361C0F8C7
:1046A000B013127C41EA026141E0402967D08029C1
:1046B0007DD0B1F5807F79D0B1F5007F1CBF10BCF3
:1046C00070472CF0F851137841EA0361137941EAFD
:1046D0000361137A127B41EA036124F0706343EAB9
:1046E0000262C0F8B413C0F8B82310BC704723F0BE
:1046F0003F01136819435368194393681943C0F87D
:10470000B01312691143C0F8B01310BC704723F402
:104710007C31136841EA0331536841EA03319368FD
:1047200041EA0331C0F8B013126941EA0231C0F81E
:10473000B01310BC704710E023F47C01138841EAE9
:104740008341938841EA8341138941EA8341C0F858
:10475000B013128A41EA8241E9E713682CF01F0185
:104760001943536819439368D268194324F00F031F
:104770001A43C0F8B413C0F8B82310BC70471368CC
:104780002CF4F86141EA8311536841EA831193687C
:10479000D26841EA831124F4707343EA8212C0F8AC
:1047A000B413C0F8B82310BC704700E015E01368DC
:1047B0002CF4F83141EA0331536841EA033193683C
:1047C000D26841EA033124F4704343EA0232C0F86C
:1047D000B413C0F8B82310BC704713882CF4F80148
:1047E00041EA8341938841EA83411389928941EAEE
:1047F000834124F4701343EA8242C0F8B413C0F832
:10480000B82310BC704702460020D2F888230A4221
:1048100018BF0120704700EBC1104FF0000CD0F81A
:10482000E410202A1FD00CDC042A15D004DC012A55
:1048300012D0022A17D01EE0082A14D0102A0BD05A
:1048400019E0402A08D0802A0DD0B2F5807F03D02D
:10485000B2F5007F07D00EE05A68C0F8BC209A6815
:10486000C0F8C02007E05A68C0F8C4209A68C0F8B1
:10487000C8204FF0100CFE2202FA0CF291431A6885
:1048800002FA0CF21143DA6802FA0CF211431A69C7
:1048900002FA0CF211435A6902FA0CF211439A69B6
:1048A00002FA0CF21143DA6902FA0CF21143C0F871
:1048B000E410704700EBC110D0F8801021F0070120
:1048C000C0F88010D0F8801093681943C0F88010A9
:1048D000D0F8801021F01801C0F88010D0F88010B6
:1048E000D3681943C0F880101168C0F8941051685B
:1048F000C0F89810704700EBC110012A08BF196872
:1049000042D0022A24D0042A08BF196839D0082AC4
:1049100018BF70471968C0F8AC105968002908BF63
:104920007047D0F8802022F4404242EA8101C0F86A
:1049300080105968B1F5005F02BF9968C0F89C10FB
:104940007047B1F5405F04BF9968C0F8A810704780
:104950001968C0F8A4105968002908BF7047D0F83A
:10496000802022F440521143C0F880105968B1F5FC
:10497000005F08BF996807D0B1F5405F0CBF996828
:104980007047C0F8A8107047C0F89C1070470268C4
:10499000114301607047FFF73EBF10B400EBC11038
:1049A000D0F88010D0F8E830D0F8E4C0D0F8D44087
:1049B000146821F040012143D46921F4802121436E
:1049C000546921F0FC712143147923F01F0304F092
:1049D0001F042343946823F000432343D4682CF43A
:1049E000807C44EA0C0C14692CF4F05C926944EA73
:1049F0000C0CC0F88010C0F8E830C0F8E4C0C0F873
:104A0000D42010BC704770B51C460E4605460529DB
:104A10002ED0FFF74FFF05EBC611D1F88020D5F857
:104A2000A003236822F020021A43636822F4006284
:104A30001A43A36822F480621A43E36822F0C0623A
:104A40001A43236922F000621A43636922F070421C
:104A50001A43E36922F40032B3F1005F08BF42F465
:104A60000032052E5BD2DFE806F03D43494F55008A
:104A7000286820F0070028602868916808432860AB
:104A8000286820F0180028602868D168084328604A
:104A9000106868615068A8612968D5F8A003226889
:104AA00021F020011143626821F400611143A268E2
:104AB00021F480611143E26821F0C0611143226951
:104AC00021F000611143626921F0404141EA820115
:104AD000E26921F0005111439A6920F480301043BB
:104AE00029601EE0A36920F4003040EA430016E08C
:104AF000A36920F4802040EA830010E0A36920F439
:104B0000002040EAC3000AE0A36920F4801040EAD4
:104B1000031004E0A36920F4001040EA4310C1F838
:104B20008020C5F8A00370BD10B5FFF763FA034AF3
:104B3000118860F3CF31118010BD0000EA00002021
:104B400010B541F63930FFF729F841F62130FFF76B
:104B50002BF843F66B60FEF725FF43F66B60FEF71C
:104B6000D9FE43F66B60FEF7DBFE40F6D640FFF75A
:104B700021F840F6A200FEF70FFF41F60910FFF7FB
:104B800027F843F66B60FFF785F801200A2102F051
:104B900009F804480068044908600449C0F34F005C
:104BA000086010BD2C2C0140AC020020342C0140C8
:104BB00010B45E4B5E49604A18880968DFF88CC102
:104BC00048435C49000B488010805C4A9888126812
:104BD00050435B4A000B888010805A4A01F10C0058
:104BE00012880280584A801CB2F90020028018897D
:104BF000DCF800C000FB0CF0C0F30F30C880B1F847
:104C000008C06044DFF848C140080881ACF80000E3
:104C1000B1F90CC000FB0CF000F5805002EB6030E5
:104C20004FF4484250434B4A000C488110804A4A96
:104C3000988947F2333C12685043484A000B088277
:104C40001080474A188A12685043464A000B48822F
:104C50001080454A988A12685043C0F30F3088820A
:104C6000CA8A02FB0CF240F6CD4C00FB0C20C0F3CC
:104C7000CF3040F65612C882904238BF40F65610E8
:104C800005D340F61D22824238BF40F61D20C8825F
:104C9000364ADFF8DCC0B2FBF0F20A80ACF8000064
:104CA00034480280344A5888D2F800C0B0F5805F9A
:104CB00000FB0CF40CBF0122C0F58052B4FBF2F2F1
:104CC000B2F5803F28BF4FF6FF7207D2B0F5805F84
:104CD0000CBF0122C0F58052B4FBF2F2274C0A83CC
:104CE00048832280264A1080D88800FB0CF2B0F559
:104CF000805F0CBF0123C0F58053B2FBF3F3B3F523
:104D0000803F28BF4FF6FF7207D2B0F5805F0CBF1F
:104D10000123C0F58053B2FBF3F28A83C88319499B
:104D20000A801949088010BC70470000B0020020BA
:104D30004C000020C8000020F4000020500000209B
:104D4000F60000202201002026010020540000204F
:104D5000F8000020FA0000205C0000202A0100205A
:104D6000600000202C0100205800002000E09B0083
:104D70002E010020FC0000206400002030010020F3
:104D800034010020320100203601002010B5FFF769
:104D900025F90449044A0870010A11700349000CFE
:104DA000087010BD3E0100203F010020400100209E
:104DB00010B500F0FFFE134C002814BF01210021A4
:104DC000208861F3C30014BF20F4007040F4007029
:104DD000208000F0F7FE002814BF01200020218869
:104DE00060F30411218000F0E9FE28B12188012040
:104DF00060F38611218010BD2188002060F38611A8
:104E0000218010BDF200002010B5164C207810F063
:104E1000010F14BF0020012001F06FF9207810F07D
:104E2000020F14BF0020012001F053F9208810F474
:104E3000807018BF012001F056F9208810F400702E
:104E400018BF012001F04AF9207810F0040F04D0B7
:104E5000BDE81040012001F04BB9BDE81040002032
:104E600001F046B9F2000020FFF7FAF800F0AEFEBC
:104E700001F034FBF8E770472DE9F04F855C02F153
:104E8000010215F0010F864D85B00B462D8892B2B8
:104E900007D0012060F38E35814960F3000500F0F2
:104EA000F8B8815C61F3070402F1010189B2425C48
:104EB00001F1010189B262F30F24425C01F10101A9
:104EC00062F3070A89B28BB1405C009460F30F2A49
:104ED0007448BDF8001001801FFA8AF000F10060EC
:104EE00071490088088005B0BDE8F08F425C491C1C
:104EF00062F30F2A89B2CDF80CA0425C491C89B23A
:104F000062F3070E425C491C89B262F30F2E425CC9
:104F1000491C89B262F3070C425C491C89B262F3F6
:104F20000F2C425C491C89B262F3070B425C491C9E
:104F300089B262F30F2B425C491C89B262F3070607
:104F4000425C491C89B262F30F26425C491C89B25B
:104F500062F30703425C491C89B262F30F23425C8F
:104F6000491C89B262F30707425C491C89B262F3AB
:104F70000F27425C491C89B262F30709425C491C55
:104F800089B262F30F29425C491C89B262F30708B7
:104F9000425C491C89B262F30F2810F801A0491C39
:104FA00089B2009A405C6AF3070260F30F220FFA9D
:104FB0008EFA40F6CD4141F2333000928A45B8BFB7
:104FC00040F6CD4A03DB5045B8BF41F2333A0FFA01
:104FD0008CF28A42B8BF40F6CD4203DB9042B8BFA4
:104FE00041F233320FFA8BFB02928B45B8BF40F689
:104FF000CD4B03DB5845B8BF41F2333B18B210F537
:10500000FA7FB8BF9FED2A0B09DBB0F5FA7FC8BF66
:105010009FED290B03DCFEF7F4F941EC100B51EC8A
:10502000100BFEF718FA1F490194BDF804200A80FE
:1050300003991D4A89B201F1006109881180204954
:10504000204AA1F800A0029911801F49A1F800B0E0
:105050001E4908801E48224906801E4807801E48B7
:10506000A0F800801D48A0F80090009808801D4915
:1050700060090A8860F30002012020EA141060F33E
:10508000C715A0080A8060F386150549600860F31B
:105090004D350D8005B0BDE8F08F00000000000028
:1050A000EA000020F000002038010020000000008D
:1050B0000000000000407FC00000000000407F4072
:1050C00016010020180100201A0100201C010020F8
:1050D0001E010020200100202201002024010020C8
:1050E00026010020EE0000209F4A92B04FF0820C73
:1050F0001288ADF800209D4A1288ADF804209C4A21
:105100001288ADF808209B4A12788DF838209A4A08
:105110001288ADF80C20994A1288ADF81020984AF0
:105120001288ADF81420974A1288ADF81820964AD4
:105130001288ADF81C20954A1288ADF82020944AB8
:105140001288ADF82420934A1288ADF82820924A9C
:105150001288ADF82C20914A1288ADF83020904A80
:105160001288ADF834208F4A12788DF83C208E4A90
:1051700012788DF840208D4A12788DF844200A88E4
:10518000531C0B8000F802C00A884FF0010C531C1E
:105190000B8000F802C00A884FF0620C531C0B8091
:1051A00000F802C00A889DF83CC0531C0B8000F830
:1051B00002C00A889DF840C0531C0B8000F802C052
:1051C0000A889DF844C0531C0B8000F802C00A886E
:1051D0009DF800C0531C0B8000F802C00A889DF89F
:1051E00001C0531C0B8000F802C00A889DF804C05F
:1051F000531C0B8000F802C00A889DF805C0531CA0
:105200000B8000F802C00A889DF808C0531C0B8070
:1052100000F802C00A889DF809C0531C0B8000F8F2
:1052200002C00A889DF838C0531C0B8000F802C0E9
:105230000A889DF80CC0531C0B8000F802C00A8835
:105240009DF80DC0531C0B8000F802C00A889DF821
:1052500010C0531C0B8000F802C00A889DF811C0D2
:10526000531C0B8000F802C00A889DF814C0531C20
:105270000B8000F802C00A889DF815C0531C0B80F3
:1052800000F802C00A889DF818C0531C0B8000F873
:1052900002C00A889DF819C0531C0B8000F802C098
:1052A0000A889DF81CC0531C0B8000F802C00A88B5
:1052B0009DF81DC0531C0B8000F802C00A889DF8A1
:1052C00020C0531C0B8000F802C00A889DF821C042
:1052D000531C0B8000F802C00A889DF824C0531CA0
:1052E0000B8000F802C00A889DF825C0531C0B8073
:1052F00000F802C00A889DF828C0531C0B8000F8F3
:1053000002C00A889DF829C0531C0B8000F802C017
:105310000A889DF82CC0531C0B8000F802C00A8834
:105320009DF82DC0531C0B8000F802C00A889DF820
:1053300030C0531C0B8000F802C00A889DF831C0B1
:10534000531C0B8000F802C00A889DF834C0531C1F
:105350000B8000F802C00A889DF835C0531C0B80F2
:1053600000F802C012B07047EA000020EC000020F4
:10537000EE000020E8000020380100203A01002063
:105380003C010020060100200A0100200C01002041
:105390003401002036010020080100202A010020ED
:1053A0002C0100203E0100203F0100204001002090
:1053B00002494CF6CC4008607047000000300040C5
:1053C000034A01460020D2680A4218BF01207047F4
:1053D0000030004002494AF6AA20086070470000E9
:1053E0000030004001494860704700000030004034
:1053F00001498860704700000030004001490860A2
:10540000704700000030004070B45E4C5E494FF0C1
:10541000000C236CC86D1844C8650A8B521C92B2EC
:105420000A83B2F5805F07D3584A0013A064108046
:10543000C1F85CC0A1F818C05648554A00881080D1
:10544000554AB0F5C87F4AD9AE246542B0F5F57F1C
:1054500006D852481460C2E902505148106146E033
:10546000B0F5FF7F05D84F481460C2E902504E489E
:1054700008E040F21226B04206D84C481460C2E957
:1054800002504B48106132E0AF2440F226266542BC
:10549000B04205D847481460C2E902504648F1E7D7
:1054A00040F23A26B04205D844481460C2E902509E
:1054B0004348E7E7B02540F24E266C42B04205D89B
:1054C00040481560C2E902403F48DBE7B0F5207F65
:1054D00005D83E481560C2E902403D48D2E7C2F80F
:1054E00000C0C2F808C0C2F80CC0C2F810C013F166
:1054F000320FB8BF6FF0310302DB322BC8BF32234B
:10550000CB64C86C8B6D58430012C8641068CB6CB8
:105510004C6D5843936803FB0400D3684C6C1269CC
:1055200083FB04348D6C82FB05259A1844EB05033C
:10553000920F42EA830280180864086D4865C86CBF
:105540000865486C8864086C48640F48007810F05F
:10555000020F1EBFA1F814C070BC7047086C6FF03A
:105560003102B2EBE03FC8BF6FF0310007DC086CDE
:105570003222B2EBE03FB2BF3220086CC013888207
:1055800070BC7047E8030020AC0100203A01002005
:10559000C20100201E0100205004002000816A7E0C
:1055A0004082ADC080FA507E0002AEC0808C377E53
:1055B000807BAEC000F81C7E80F4AEC08041FE7DD2
:1055C000407AAFC000B3DF7D40F9AFC000E0BF7DDF
:1055D0004078B0C0294808B5016841F00301016076
:1055E000016841F00C010160254900228C4602202F
:1055F000ACF8282008702348016841F4804101601C
:1056000021490CF11A00098801802049801C098871
:1056100001801F4940F63440030148660866C1E92D
:1056200007034B628B62C1E90B324A638A6396239C
:10563000CA634B64CA65ACF81E20C821ACF82010C0
:105640004FF4E171ACF8241040F6B241ACF82610EA
:10565000BCF81E10BCF82020BCF92430BCF926C0D0
:10566000CDF800C0FDF7FBFF0A4841F270710068F9
:1056700048430949000B086008BD000098770140C5
:10568000AC010020887401401601002018010020A0
:10569000E803002068000020089800400F490E48E9
:1056A000098801800E490830098801800D49801C55
:1056B000098801800C48007810F0800F0B480CBF5F
:1056C0004FF4FA5142F6E061C1860CBF42F2341148
:1056D0004FF47A5181867047BE010020FC00002003
:1056E0001601002018010020EA000020AC01002073
:1056F00005490020088406490448098801800549B5
:10570000801C09880180704764040020300200205A
:105710001601002018010020414A404842491288E1
:10572000C281404A1288C2820988C18392B2D0F8ED
:1057300000C002FB01F30CEB93230360B0F80EC032
:1057400083686344836003691A4402618269114477
:105750008161018C491C89B20184202938BF7047BE
:1057600030B441F26204324A304912880A80314A28
:10577000891C13880B80018C0268B2FBF1FC0CFBC6
:1057800004FC4FF48034B4EB1C3F98BF4FF6FF721B
:1057900006D9B2FBF1F241F2620C02FB0CF2120BE1
:1057A00092B2DFF894C0828000240460ACF800203C
:1057B000DFF878C0214DBCF800C002FB0CF2120BE0
:1057C0005A43120B2A8082681D4DB2FBF1F292B24D
:1057D000828184602A801B4D02FB0CF2120B2A800E
:1057E0000269194DB2FBF1F292B2828204612A8001
:1057F00002FB0CF2DFF854C0120BACF800208269F7
:10580000B2FBF1F189B2124A818384611180114A9D
:105810005943090B1180048430BC70476404002094
:10582000F4000020F6000020F800002030020020E4
:1058300016010020180100200C01002004010020A6
:1058400006010020FE0000200801002000010020C9
:105850000A010020020100200249002008800249BC
:10586000088070475A0200203A0100202DE9F0011B
:105870009A499948A14B098801809949801C9E4EFC
:10588000098801809749801C4FF0000C098801802D
:105890009549801C098801809449801C09880180F1
:1058A0009349801C0F8807809248058803F12600E1
:1058B00015F0020F00F0C6809149097811F0100F21
:1058C0000BD0597801299CBF491C597005D9018812
:1058D00041F00301018083F801C088499A8B41F2AD
:1058E000A864097894420BD2052921BF018841F0B0
:1058F000020141F0010101803CBF491C197014E014
:105900007E4C41F244682478641EE4B290452BD268
:10591000002918BF1C705988642987BF018841F08D
:105920000201491C598000D9018041F26804A24259
:1059300002D215F0040F20D0A3F804C0018821F092
:105940000801018015F0800F21D042F28C311982BC
:1059500042F6EC41598243F2BC41998243F68C41B4
:10596000198341F6D67120E0002918BF1C70A3F8F6
:1059700002C0018821F00201D6E7998840F2DC5884
:1059800041458EBFA3F804C0491C9980DAE741F273
:10599000B11119824FF4AF51598241F664119982C5
:1059A0004FF4FA51198340F6EF71D9821D8A198C90
:1059B0008D4220D3944284BF1A8B91421BD8DA8A3D
:1059C00091422ED9D98800291CBF491ED980198936
:1059D00000291CBF491E1981598900291CBF491E75
:1059E000598199890A2987BF018841F02001491C02
:1059F000998100D90180318811F4807F03D001881A
:105A000041F0300101803D494BF680329742C9890F
:105A100013D94CF25032914298BF491C24D8D981F5
:105A200022E0A3F806C0A3F808C0A3F80AC0A3F8B0
:105A30000CC0018821F02001DCE7002918BF491EB5
:105A4000EDD111E083F801C083F800C0A3F804C0D1
:105A5000A3F806C0A3F808C0A3F80AC0A3F802C0C0
:105A6000A3F80CC0A3F80EC02649098811F0020F54
:105A700003D0028822F00102028011F0040F03D04B
:105A8000028822F00402028011F0080F03D002887D
:105A900022F01002028011F0100F03D0018821F0D3
:105AA0004001018000783188420860F3000162F310
:105AB0004101820862F38201C20862F3C301020954
:105AC00062F30411420962F34511800960F3492130
:105AD0003180BDE8F00170474E020020F400002044
:105AE000F6000020F8000020FA000020020100204B
:105AF00004010020EA000020EC0000203402002015
:105B0000F2000020EE000020FEF7AAFA00F05EF896
:105B100000F0E4FCF8E710B5FEF7A2FA00F056F842
:105B2000BDE8104000F0DABC10B4C27801784FF044
:105B30000F0C01242AB3194A126801F1E02102F482
:105B4000E062C2F5E062120AC2F104032CFA02F22A
:105B500090F801C00CFA03F390F802C00CEA0202BC
:105B60001A43120181F80024007800F01F0104FAA2
:105B700001F14009800000F1E020C0F8001110BCE4
:105B8000704701F01F0004FA00F04909890001F193
:105B9000E021C1F8800110BC704700000CED00E06E
:105BA000034940F0FD7040F08060086070470000DD
:105BB0000CED00E00D21022001F0FCBC0F210220C1
:105BC00001F0F8BC0921022001F0F4BC10B501225B
:105BD0000521022001F012FE01220C21104601F0E5
:105BE0000DFE00220E21032001F008FE00220821F4
:105BF000022001F003FE00220C21BDE8104002202B
:105C000001F0FCBD2DE9F04184B001220521022004
:105C100001F0F4FD01220C21104601F0EFFD0022FD
:105C20000E21032001F0EAFD00220821022001F0EC
:105C3000E5FD00220C21022001F0E0FD01214804D5
:105C400000F07AFA00240325CDE9005423462A46C1
:105C500021460120029401F0D7FCCDE90054012136
:105C6000002303220846029401F0CEFCCDE9005443
:105C70000023032202210120029401F0C5FCCDE99A
:105C800000540322002311460120029401F0BCFCC1
:105C9000CDE900540023032204210120029401F0E5
:105CA000B3FCCDE900540023032205210120029416
:105CB00001F0AAFCCDE900540023032206210120B3
:105CC000029401F0A1FCCDE9005400230322072136
:105CD0000120029401F098FCCDE900540D26002328
:105CE000022208210120029601F08EFCCDE9005429
:105CF0000023022209210120029601F085FCCDE952
:105D00000054002302220A210120029601F07CFCAB
:105D1000CDE90054002302220B210120029601F05C
:105D200073FCCDE90054012200230C21104602949B
:105D300001F06AFCCDE900544FF004080023022270
:105D40000F210120CDF8088001F05EFC01218804BC
:105D500000F0F2F9CDE90054002303221946022095
:105D6000029401F051FCCDE90054002303220121EB
:105D70000220029401F048FCCDE9005402210023E6
:105D800003220846029401F03FFC0126CDE90056AB
:105D900007270222002303211046029701F034FC5A
:105DA000CDE900560222002304211046029701F09B
:105DB0002BFCCDE90054002301220521022002948E
:105DC00001F022FCCDE9005400231A4606210220EE
:105DD000029401F019FCCDE9005400231A46072172
:105DE0000220029401F010FCCDE9005400230122AE
:105DF00008210220029401F007FCCDE900540023A1
:105E00001A4609210220029401F0FEFBCDE900545C
:105E100000231A460A210220029401F0F5FBCDE985
:105E20000054002303220B210220029401F0ECFB1A
:105E3000CDE90054002301220C210220029401F03C
:105E4000E3FBCDE9005400231A460D210220029401
:105E500001F0DAFBCDE90054002301220E210220DB
:105E6000029401F0D1FBCDE9005400231A460F2122
:105E70000220029401F0C8FB0121C80400F05CF983
:105E80000226CDE9006400231A4619460320029435
:105E900001F0BAFBCDE9006400231A46012103207A
:105EA000029401F0B1FBCDE9006400231A460221FF
:105EB0000320029401F0A8FBCDE900640023032134
:105EC0001A460846029401F09FFBCDE900640023C6
:105ED0001A4604210320029401F096FBCDE90064E8
:105EE00000231A4605210320029401F08DFBCDE921
:105EF000006400231A4606210320029401F084FB6B
:105F0000CDE9006400231A4607210320029401F022
:105F10007BFBCDE9006400231A460821032002948C
:105F200001F072FBCDE9006400231A460921032029
:105F3000029401F069FBCDE9006400231A460A21AE
:105F40000320029401F060FBCDE9006400231A46AF
:105F50000B210320029401F057FBCDE900640023DC
:105F60001A460C210320029401F04EFBCDE90054A7
:105F7000002302220D210320CDF8088001F044FB0C
:105F8000CDE90054002301220E210320029401F0E8
:105F90003BFBCDE9006400231A460F210320029445
:105FA00001F032FB0121080500F0C6F8CDE90064DC
:105FB00000231A4619460420029401F025FBCDE97E
:105FC000006400231A4601210420029401F01CFB06
:105FD000CDE9006400231A4602210420029401F056
:105FE00013FBCDE9006400231A4603210420029428
:105FF00001F00AFBCDE90064002304211A4608469B
:10600000029401F001FBCDE9006400231A4605214A
:106010000420029401F0F8FACDE9006400231A4646
:1060200006210420029401F0EFFACDE90064002378
:106030001A4607210420029401F0E6FACDE9006433
:1060400000231A4608210420029401F0DDFACDE96C
:10605000006400231A4609210420029401F0D4FAB6
:10606000CDE9006400231A460A210420029401F0BD
:10607000CBFACDE9006400231A460B2104200294D8
:1060800001F0C2FACDE9006400231A460C21042075
:10609000029401F0B9FACDE9006400231A460D21FB
:1060A0000420029401F0B0FACDE9006400231A46FE
:1060B0000E210420029401F0A7FACDE90064002328
:1060C0001A460F210420029401F09EFA04B0BDE8A4
:1060D000F08102460C21012001F090BB02460C2108
:1060E000022001F08BBB02460E21032001F086BB8B
:1060F00002460821022001F081BB02460521022050
:1061000001F07CBB10B5FDF7ABFFFFF75FFDBDE80D
:10611000104000F0E3B90000064A010FD16A14BF35
:1061200021F4785121F4F871D162D16A0843D06228
:106130007047000000100240044A0029516914BF52
:10614000084321EA0000506170470000001002403F
:10615000044A0029D16914BF084321EA0000D06134
:106160007047000000100240044A0029916914BFE2
:10617000084321EA000090617047000000100240CF
:10618000044A0029D16814BF084321EA0000D06006
:1061900070470000001002402DE9F00FDFF8109367
:1061A0000021D9F80420C34E12F00C0206D073006F
:1061B000042A08BF03601ED0082A01D006601AE036
:1061C000D9F80410D9F8042001F470114FF0020C32
:1061D00012F4803F0CEB914104BFB74A514309D000
:1061E000D9F82C2002F00F0202F10102B3FBF2F207
:1061F00002FB01F10160D9F804304FF00F02AF4FFC
:1062000002EA1312BB5C026822FA03F44460D9F874
:1062100004C04FF0070808EA1C2C17F80CC024FA39
:106220000CF58560D9F804C008EADC2C17F80CC01E
:1062300024FA0CF4C460D9F82C704FF01F0B0BEA51
:106240001717DFF87CA207F00F083AF8188017F04C
:10625000100F17BFB8F1000F0261B1FBF8F707612B
:10626000D9F82C700BEA572707F00F083AF8188076
:1062700017F0100F17BFB8F1000F4261B1FBF8F72C
:106280004761D9F8307017F0100F0CBF866182613A
:10629000D9F8307017F0200F0CBFC661C261D9F871
:1062A000307017F0400F0CBF06620262D9F83070F0
:1062B00017F4807F05D08A4202BF9C454F00476299
:1062C00000D04462D9F8307017F4805F05D08A425C
:1062D00002BF9C454F00876200D08462D9F83070BD
:1062E00017F4007F05D08A4202BF9C454F00C76269
:1062F00000D0C462D9F8307017F4806F05D08A429C
:1063000002BF9C454F00C76400D0C464D9F8307008
:1063100017F4006F05D08A4202BF9C454F00076505
:1063200000D00465D9F8307017F4005F05D08A42B8
:1063300002BF9C454F00476500D00465D9F8307016
:1063400017F4004F05D08A4202BF9C454900816581
:1063500000D08465D9F8301011F0030F4FF40041DC
:1063600008BF856317D0D9F8303003F00303012B41
:1063700008BF82630FD0D9F8303003F00303022B3B
:1063800008BF816307D0D9F830304FF0030C3CEAE6
:10639000030308BF8663D9F8303013F4403F08BFC9
:1063A000C56319D0D9F8303003F44033B3F5803FDA
:1063B00008BFC26310D0D9F8303003F44033B3F5CE
:1063C000003F08BFC16307D0D9F830304FF4403CDC
:1063D0003CEA030308BFC663D9F8303013F4402FFA
:1063E00008BF056419D0D9F8303003F44023B3F561
:1063F000802F08BF026410D0D9F8303003F4402356
:10640000B3F5002F08BF016407D0D9F830304FF43E
:10641000402C3CEA030308BF0664D9F8303013F47B
:10642000401F08BF456419D0D9F8303003F4401339
:10643000B3F5801F08BF426410D0D9F8303003F4A0
:106440004013B3F5001F08BF416407D0D9F83030BE
:106450004FF4401C3CEA030308BF4664D9F83030CF
:1064600013F4400F02BF8564BDE8F00F7047D9F800
:10647000303003F44003B3F5800F02BF8264BDE8FF
:10648000F00F7047D9F8302002F44002B2F5000F47
:1064900002BF8164BDE8F00F7047D9F830104FF4A7
:1064A000400232EA010108BF8664BDE8F00F704780
:1064B0000010024000127A0000093D001800002080
:1064C0002800002004490A6B22F480520A630A6BF8
:1064D0001043086370470000001002400549002087
:1064E00008700931088008390880891C0880891CD7
:1064F00008807047E90000201A48002140F27A32F3
:106500000180801C4FF4FA730180801C0180801F81
:10651000017008300180801C018009380170401E24
:106520008181C18101824182C18201834183818352
:10653000C183018441848184C2840285428582852D
:1065400040F6FF728282C386A0F84010C2850286A0
:106550004286818642F6F502028742878187C1879B
:1065600070470000EA00002010B5FDF730FBFDF792
:1065700053FDFFF747FBFDF7A1FC00F0A5F9FDF780
:106580009FFEFDF715FAFDF78FFBFDF72BFB00F0E3
:10659000DFFE00F0A8FFFFF7AFFFFEF7D1FA00F033
:1065A00011FEFDF753FBFFF715F8FDF763F8FEF753
:1065B00062FCFFF751F900F071FC00F0CFF8FFF733
:1065C00097F8012001460022FDF7B0F902200321CF
:1065D000012200F0E1FE11200421002200F074FAF3
:1065E0001120C82100F0DEFA0F204EF6602100F0E5
:1065F00091FAFDF7D7FFFEF797FAFEF7C7FB0220E7
:1066000000F0A0FFBDE8104000F088BF054910B5BC
:106610004FF48040088000F08DFFBDE8104000F08E
:1066200033BD00002804004810B5FDF719FDFFF741
:10663000CDFABDE81040FFF751BF8A0721F00301F2
:1066400001F1804101F58031120F0F23D1F808C00C
:1066500093402CEA03038B608B689040184388605A
:1066600070477047374882B0016841F4700101609B
:106670003548016841F0010101604168334A114029
:106680004160016821F4102121F0807101600168EE
:1066900021F480210160416821F4FE014160C16A5A
:1066A00021F00F01C162016B294A114001630022F0
:1066B000826000920192016841F4803101600168BA
:1066C00001F4003101910099491C0091019919B917
:1066D0000099B1F5A04FF2D1016811F4003F08BF55
:1066E000019229D001211B4A0191122111604168B8
:1066F000416041684160416841F4806141604168A6
:1067000021F47C114160416841F4F8114160016855
:1067100041F080710160016811F0007FFBD0416899
:1067200021F003014160416841F00201416041688C
:1067300001F00C010829FAD107494FF08050086098
:1067400002B0704788ED00E0001002400CC07FF8F6
:10675000CCFC00FF0020024008ED00E00020084BC8
:10676000024640F27A3C23F8302003EBC001401C83
:106770004A60C0B2A1F802C00228F4D370470000FA
:10678000880400207047000016481549DFF85CC0F7
:1067900000880B46088059680844586012480088F1
:1067A0001881D9680A18DA609CF80000401CC0B251
:1067B0008CF80000202838BF704730B459680C4D61
:1067C000B1FBF0F1B2FBF0F0598000245C6029804D
:1067D00008495881DC6008808CF8004030BC704764
:1067E0008804002030010020320100205C020020DB
:1067F0000E01002010010020304910B54FF48040F8
:106800000860112000F048F9FEF7FEFDFCF72CFFB0
:10681000FEF7CEF9FEF7CCFA00F050FBFFF726F8B2
:10682000FCF73CFFFEF73AFFFEF776FF00F00AFDAB
:10683000FEF7EAFA224800220178491CC9B2017029
:10684000062939D2DFE801F03803070B0F13BDE842
:10685000104000F087BCBDE81040FFF795BFBDE8D1
:10686000104000F029BCBDE8104000F0CFBC027021
:106870004178491CC9B241700B291BD2DFE801F0F5
:106880001A1919191919191919190600427081785C
:10689000491CC9B281700A290AD2DFE801F0090A4D
:1068A0000A050A0A0A0A0A0ABDE81040FFF76ABF89
:1068B000827010BD427010BD027010BD18040048F7
:1068C0004101002000000000F0B565482DED068B69
:1068D00089B04068634D10F48030686014BF62482E
:1068E00062480121A860C802FFF73EFC0024604E08
:1068F00040F6FF77ADF81C40ADF816400697ADF8AE
:106900001440ADF81E4005A9304600F0FDF9012005
:10691000ADF804000420ADF806000220ADF80C002C
:10692000C0017021ADF8100000910294ADF80E4046
:10693000ADF812406946304600F093F90821304620
:1069400000F0D3F90121304600F06EF90121304604
:1069500000F073F9A8680646FCF764FD9FED469BBE
:1069600053EC192BFCF7DBFC9FED458B53EC182BFC
:10697000FCF7D5FC9FED44AB53EC1A2BFCF728FC3D
:10698000FCF788FD6E620121E8600804FFF7ECFB6C
:106990003F4EADF80840ADF802400197ADF8004019
:1069A000ADF80A406946304600F0AEF900220121F8
:1069B000304600F04DF92021304600F09CF90121CD
:1069C000304600F031F9A8680646FCF72BFD53EC81
:1069D000192BFCF7A4FC53EC182BFCF7A0FC53EC90
:1069E0001A2BFCF7F5FBFCF755FD2E630121A8617E
:1069F0008804FFF7B9FBADF80840ADF80240ADF8E8
:106A00000040ADF80A40234C01976946204600F04B
:106A10007BF901221146204600F01AF90121204697
:106A200000F014F90121204600F0FEF8A8680446A1
:106A3000FCF7F8FC53EC192BFCF771FC53EC182B0A
:106A4000FCF76DFC53EC1A2BFCF7C2FBFCF722FDA4
:106A5000AC63286209B0BDEC068BF0BD00000000FD
:106A6000001002404401002000A24A040090D0031C
:106A7000002C0140000000008DEDB5A0F7C6B03E2F
:106A8000000000000000B040000000000000E03FF7
:106A900000400140004801404FF6FE710F2802BF40
:106AA000064801617047102808BF054803D0112827
:106AB0000CBF04487047016070470000004001406F
:106AC0001044014010480140F8B5114C15460E46DF
:106AD0000F2808BF182008D0102808BF192004D09C
:106AE000112804BF1A20207000E020704FF480604D
:106AF000FFF756F820788DF800008DF801608DF8CA
:106B0000025001208DF803006846FFF70DF8F8BD2C
:106B1000440100201D4A012811D0022816D0032864
:106B20001CD00F2822D0102828D0112818BF704759
:106B3000906BB0FBF1F0401E80B2154914E0506A32
:106B4000B0FBF1F0401E80B212490DE0906AB0FB3C
:106B5000F1F0401E80B24FF080410DE0D06AB0FBF2
:106B6000F1F0401E0C4980B208607047106BB0FB1A
:106B7000F1F0401E094980B2C8627047506BB0FB0B
:106B8000F1F0401E80B20649EEE70000440100200B
:106B90002C4801402C2C01402C04004000400140B6
:106BA0002C4401401A4A012810D0022814D003288E
:106BB00019D00F281ED0102823D0112818BF7047D5
:106BC000106A4843C0F30F30124911E0D0684843BF
:106BD000C0F30F3010490BE010694843C0F30F3089
:106BE0004FF080410BE0506948430C49C0F30F302F
:106BF00008607047906948430949C0F30F30C86284
:106C00007047D0694843C0F30F300649F0E70000F1
:106C1000440100202C4801402C2C01402C04004051
:106C2000004001402C4401400029018814BF41F07C
:106C3000010121F00101018070470029416C14BF5E
:106C400041F40041C1F30E01416470474161704756
:106C5000002AC26811BF1143C94389B21140C16003
:106C6000704710B4026A22F001020262026A4368AD
:106C7000D0F818C00C682CF0730C2CF4803C44EA5B
:106C80000C0C8C8922F0020222438C882243A0F152
:106C90008044B4F596341CBFA0F18044B4F59A3416
:106CA0000DD0A0F18044B4F5A0341FBFA0F1804402
:106CB000B4F5A234A0F18044B4F5A4340DD1CC894C
:106CC00022F008022243CC8822F0040222430C8ADC
:106CD00023F4407323434C8A23434360C0F818C015
:106CE00089684163026210BC7047826922F0080221
:106CF00011438161704742684FF68F731A404260BA
:106D0000426811434160704730B40288254BDFF878
:106D100098C0264C984218BF60450ED0B0F1804F05
:106D20001CBFA0F18045B5F5806506D0A0F1804577
:106D3000B5F5006518BFA04204D14D8822F070025D
:106D400045EA0202A0F18045B5F580551CBFA0F1CF
:106D50008045B5F5A05503D00D8922F440722A4331
:106D600002804A68C2620A880285984218BF60455C
:106D700010D0A0F18042B2F5A0321CBFA0F1804239
:106D8000B2F5A23206D0A0F18042B2F5A43218BF0B
:106D9000A04201D1498901864FF00101416130BC17
:106DA00070470000002C01400034014000500140B9
:106DB000374810B40288374812F0400F4FF00004F3
:106DC0000178A0F1010C04D1334B1B7813F0010FB3
:106DD00033D0ACF80640BCF908307D2BCEBF41F073
:106DE0000201591CACF8081000DD017012F0200FF0
:106DF00030D0ACF80C40BCF90A100529D9BF491CA9
:106E0000ACF80A10017841F0040100DD017012F0C5
:106E1000080F2DD0ACF81040BCF90E10B1F5FA7F78
:106E2000D9BF481CACF80E00017841F00801DCBF66
:106E300010BC7047017010BC7047ACF80840BCF93A
:106E40000630052BCEBF21F00201591CACF806100C
:106E5000CCDDCAE7ACF80A40BCF90C107D29C7BFED
:106E6000017821F00401491CACF80C10CFDDCDE70E
:106E7000ACF80E40BCF910100F29C7BF017821F003
:106E80000801481CACF81000D4DC10BC70470000AE
:106E9000F20000205F020020EA00002005490020E7
:106EA0000870491C087004490A8860F300020A80CF
:106EB000704700005E020020F20000202DE9F04142
:106EC000FFF776FF6B4A6C4C6C4B1078002502F193
:106ED000010C98B16A4E01282AD002287ED00328DE
:106EE00018BF157079D09CF80000198860F3410133
:106EF000400960F308211980BDE8F0812088002155
:106F000061F3000061F3410061F3082020809CF8E8
:106F1000000020F021008CF800005088B0F5FA7FC6
:106F200083BF012010705580401C98BF5080DAE765
:106F30005449088810F0010F04BF1F7817F0400F64
:106F400010D00127B4F8008067F3410067F3820096
:106F500067F3820867F3C300A4F8008067F30410A6
:106F600008809580908805B2002D0CDA357815F0F0
:106F7000140F08D001270D88401C67F3820567F3C2
:106F8000C3050D8090809CF8000010F0020FAAD17C
:106F900010F0080FA7D0308810F0100F08BF10F4C1
:106FA000007FA0D110F0040F08BF10F0010F9AD19C
:106FB000022010702288002060F3820222800246A4
:106FC000088862F34100002262F3820062F3C3008A
:106FD00062F30410088086E700E03AE09CF80010B5
:106FE00011F0020F0FD111F0080F0CD0308810F003
:106FF000100F08BF10F0040F05D110F4007F08BF78
:1070000010F0010F0FD02088002565F3000065F314
:10701000410065F30820208021F021008CF8000059
:10702000032010705FE72088012262F3000062F302
:10703000410062F30820208041F020008CF800001D
:10704000198811F4007F1CBF40F001008CF800008B
:1070500049E72088002161F3000061F3410061F3FA
:10706000082020809CF8000020F001008CF800002F
:10707000157038E75E020020F2000020EA000020D0
:10708000EC000020EE0000200948008810F4804F3A
:1070900008BF70470748007810F0010F18BF70470D
:1070A00010B5FCF7BBFFBDE8104000F02FBA0000A0
:1070B000EA0000205F020020DFF8A0C000229CF858
:1070C0000E3013F0080F08BF704730B4244CA4F101
:1070D000900021462578407B4978AA2D18BF40F0C2
:1070E000400010D08CF80D000220ACF80A0023F00C
:1070F00008008CF80E00002A04BF30BC704710F066
:10710000100F1BD021E09CF80C508D421CBF2F2982
:1071100040F00400E6D1A478BCF8085004F105045E
:10712000A54218BF40F00800DCD1BCF80A40002C92
:1071300014BF40F002000122D4D1D5E700228CF820
:107140000D2040F010008CF80E002F290CBF0121FB
:107150000021034830BC0322FDF78EBED802002078
:107160006803002070B5154CA07B10F0200F08BFFD
:1071700070BD10F0040F18BF70BD20F02200104D3C
:10718000A073AA212970217B69700020A870607B00
:10719000E8700420E08002262846A11DFDF7A4FF28
:1071A000E0882E54401C80B22E54401CE080401FCA
:1071B000A870A07B40F00400A07370BDD80200202E
:1071C000E802002000210F4A4FF0020C0123118039
:1071D0005180D1801181A2F80AC0DFF82CC0517310
:1071E00091738CF8003008469380401C80B2B0F553
:1071F0002F7FFAD9B1F5AF7F94BF202021201073E3
:1072000070470000D8020020820100200C4A907BC9
:1072100010F0010F08BF7047918800291EBF481E5B
:107220009080704720F00100517B40F00A0041F04F
:107230001001517351881181002151809073704762
:10724000D802002070B51A4CA27B12F0040F08BFC0
:1072500070BD1848006810F0400F08BF70BD20884E
:10726000E188154E81421BD98B1E321D134D984269
:1072700004BF7188118005D0491E884204BF11885F
:10728000090A01D1295404E0295C7088FCF7D4FC78
:1072900070802088295C401C20800948018070BDD6
:1072A0000220708022F00400A0730020208070BDB6
:1072B000D80200201C44004082010020E802002087
:1072C0002844004070B51E4800881E4CC1B2A07B07
:1072D00020F00100A07310F0080F04D0607B40F094
:1072E0004000607370BD6088174D2954401C608059
:1072F0006089FCF7A1FC60816088022809D08028A1
:1073000013D2A07B40F00100A07310480078A08049
:1073100070BD2878AA28F4D1207B69788842F0D102
:10732000A07B40F02000A073EBE7A17B2081002030
:1073300021F00101608041F00A00A07370BD0000DF
:1073400024440040D802002068030020820100206D
:1073500010B5012186B04804FEF7FAFE4FF416403E
:107360000090002001900290039005900C20084CA2
:1073700004906946204600F053F80121204600F0B1
:1073800031F801220349204600F035F806B010BD5F
:107390000044004005010500F8B5114C15460E46A5
:1073A000012808BF252008D0022808BF262004D0C5
:1073B000032804BF2720207000E020704FF4806075
:1073C000FEF7EEFB20788DF800008DF801608DF857
:1073D000025001208DF803006846FEF7A5FBF8BDBA
:1073E000800100200029016814BF41F0010121F053
:1073F000010101607047C1F307234FF0010C0CFA43
:1074000001F1022B08BF001D02D0032B08BF08307A
:10741000002A026814BF114322EA0101016070478B
:1074200030B50446006897B00D4620F0010020609A
:107430006068896820F44050084360602068EA680A
:10744000696820F4037011432A6920F4A0501043A6
:1074500008432060A068696920F440700843A06078
:107460006846FEF799FEA4F18040B0F59C3008BF55
:107470000E9914D0A4F18040B0F5884008BF0F9950
:107480000DD0A4F18040B0F5904008BF109906D00F
:10749000A4F18040B0F598400CBF11991299206872
:1074A00010F4004F18BF49002A68B1FBF2F0B1FB9D
:1074B000F2F302FB1311B1EB520F216840F100000F
:1074C00011F4004F05D0C0F342014FF6F0721040A6
:1074D0000843A08117B030BDFCF7C2FDFEF776FB74
:1074E000FEF7FCFFF8E710B545F25550FDF786FFB3
:1074F0000020FDF777FF0120FDF762FF0028FAD09A
:10750000BDE810400020FDF779BF000002490148A6
:10751000086070470400FA050CED00E010B545F274
:107520005550FDF76BFFFDF743FFBDE8104000200D
:10753000FDF764BF02494AF6AA20086070470000C0
:107540000030004000EE100ADFED0F0A10B5B8EE73
:10755000400A20EE200ABCEEC00A10EE100A84B2E7
:1075600045F25550FDF74AFF2046FDF741FF022046
:10757000FDF726FF0028FAD0FDF72CFFBDE81040EC
:107580000020FDF73BBF00000000244102E008C8D6
:10759000121F08C1002AFAD170477047002001E08D
:1075A00001C1121F002AFBD17047FEF7DDFFFFF774
:1075B0002DF8FCE7012303FA01F1024601280BD064
:1075C000022A11D0032A14D0042818BF70470B4890
:1075D0000088084006D170474FF09040008A08406C
:1075E00008BF704701207047054800880840F9D15E
:1075F0007047044800880840F4D17047100C0048D8
:1076000010040048100800482DE9F0034FEA410833
:10761000DDF818C001240CFA08F68C408B40DDE937
:1076200007599FB2032302FA08FC05FA08F503FA8A
:1076300008F301280DD0022840D0032871D0042877
:107640001CBFBDE8F0037047012A18BF022A67D1AA
:1076500096E04FF09040012A18BF022A12D1D0F8CC
:10766000088028EA0308C0F80880D0F8088048EAB3
:1076700006068660868826EA04048480848844EAB4
:1076800007048480046824EA03040460046844EA6C
:107690000C0CC0F800C0D0F80CC02CEA030345EA7B
:1076A0000303C360022A1CBFBDE8F00370474A46CB
:1076B000BDE8F0034FF09040FCF7C0BC012A18BFB2
:1076C000022A15D14448D0F8008028EA0308C0F8FF
:1076D0000080D0F8008048EA06060660A0F10400A9
:1076E000068826EA04040480048844EA0704048027
:1076F0003A48046824EA03040460046844EA0C0C71
:10770000C0F800C0364CD4F800C02CEA030345EAA8
:1077100003032360022A59D0BDE8F003704700E05C
:1077200042E0012A18BF022A15D12E48D0F8008065
:1077300028EA0308C0F80080D0F8008048EA06066E
:107740000660A0F10400068826EA04040480048888
:1077500044EA070404802448046824EA030404601B
:10776000046844EA0C0CC0F800C0204CD4F800C0F7
:107770002CEA030345EA03032360022A26D0CBE761
:107780001B48D0F8008028EA0308C0F80080D0F831
:10779000008048EA06060660001F068826EA040400
:1077A000048004883C430480124804689C430460BD
:1077B000046844EA0C0CC0F800C00F4CD4F800C0B8
:1077C0002CEA03032B432360022AA5D14A46BDE8D5
:1077D000F003FCF733BC0000080400480004004834
:1077E0000C04004808080048000800480C0800483D
:1077F000080C0048000C00480C0C0048012303FA58
:1078000001F18BB201280DD0022812D0032817D025
:10781000042818BF7047012A19BF0D4803800D487E
:10782000016070474FF09040012A14BF03858161C9
:107830007047012A14BF0848084806D003807047E3
:10784000012A14BF06480748F8D1016070470000BC
:10785000280C0048180C0048280400481804004868
:1078600028080048180800480000C1C081C1400134
:1078700001C3C003800241C201C6C006800741C7E0
:107880000005C1C581C4400401CCC00C800D41CDB0
:10789000000FC1CF81CE400E000AC1CA81CB400B80
:1078A00001C9C009800841C801D8C018801941D950
:1078B000001BC1DB81DA401A001EC1DE81DF401FE0
:1078C00001DDC01D801C41DC0014C1D481D54015F0
:1078D00001D7C017801641D601D2C012801341D300
:1078E0000011C1D181D0401001F0C030803141F190
:1078F0000033C1F381F240320036C1F681F74037E0
:1079000001F5C035803441F4003CC1FC81FD403DAF
:1079100001FFC03F803E41FE01FAC03A803B41FB7F
:107920000039C1F981F840380028C1E881E94029CF
:1079300001EBC02B802A41EA01EEC02E802F41EFDF
:10794000002DC1ED81EC402C01E4C024802541E5EF
:107950000027C1E781E640260022C1E281E34023FF
:1079600001E1C021802041E001A0C060806141A10F
:107970000063C1A381A240620066C1A681A74067DF
:1079800001A5C065806441A4006CC1AC81AD406DAF
:1079900001AFC06F806E41AE01AAC06A806B41AB7F
:1079A0000069C1A981A840680078C1B881B940794F
:1079B00001BBC07B807A41BA01BEC07E807F41BFDF
:1079C000007DC1BD81BC407C01B4C074807541B5EF
:1079D0000077C1B781B640760072C1B281B34073FF
:1079E00001B1C071807041B00050C190819140518F
:1079F0000193C053805241920196C05680574197DF
:107A00000055C19581944054019CC05C805D419DAE
:107A1000005FC19F819E405E005AC19A819B405B7E
:107A20000199C059805841980188C04880494189CE
:107A3000004BC18B818A404A004EC18E818F404FDE
:107A4000018DC04D804C418C0044C18481854045EE
:107A50000187C047804641860182C04280434183FE
:107A60000041C18181804040987A000800000020D8
:107A7000B002000008360008E87A00080000001094
:107A8000740B00008C750008E87A0008B002002032
:107A9000E80500009C7500082132023204320832E9
:107AA00010322052012D01020304041E06070809AA
:107AB000012812041A0626120A1A0C281220124053
:107AC0006A802901FF01400239020B23FF0F2602C1
:107AD0001F7F023E03000B128C23EC2CBC34D61FFC
:107AE0008C3C024FFA00000000000000AD3100089D
:107AF000175B0008694E0008095B0008C13B0008DD
:107B0000D974000800000000000000000000000020
:107B10000000000029660008733D00080000000016
:107B20000561000863660008C7310008C731000816
:107B3000C7310008C7310008C7310008C731000845
:107B4000C7310008C7310008C7310008C731000835
:107B5000C731000821030010C7310008C7310008F1
:107B6000C7310008C7310008C7310008C731000815
:107B7000C7310008C7310008C7310008C731000805
:107B8000C7310008C7310008C7310008C7310008F5
:107B9000F9670008C7310008C7310008C73100087D
:107BA00000000000C7310008C731000800000000D5
:107BB00000000000C731000800000000C7310008C5
:107BC0003D030010C7310008C7310008C731000865
:107BD00000000000000000000000000000000000A5
:107BE0000000000000000000000000000000000095
:107BF0000000000000000000000000000000000085
:107C0000C7310008C7310008000000000000000074
:107C10000000000000000000000000000000000064
:107C20000000000000000000C7310008C731000854
:107C300000000000C7310008C7310008C731000844
:107C4000C7310008C7310008C7310008C731000834
:107C50000000000000000000000000000000000024
:107C6000000000000000000000000000C731000814
:107C700047F2C52CC0F6000C604700002DE9F00368
:107C8000494E069DB4686043C0F30F3C4748A0F8D6
:107C900000C004FB02F0C0F30F324548642A0280A2
:107CA00038BF64220280F068444C43431F13414BA9
:107CB0006843434D1F6003133F48B1F5004F036015
:107CC0004FEA5C0020604FEA9C042C8028BF47F6F6
:107CD000FF7141433B4D090C12B22960891A48BF1C
:107CE0000021641A3849021B0C6038490A602118C7
:107CF0008DB237490D6011188EB236490E60E11908
:107D0000354F64293960B8BF642102DB8A42B8BFAD
:107D10001146D31A3960314F8B423B60B8BF0B46D6
:107D200002DB834288BF03463B60DFF8B4800F1854
:107D3000BFB2C8F80070DFF8AC80184480B2C8F851
:107D40000000DFF8A480D8F8009049F00709C8F8CF
:107D50000090DFF89890C9F800C0DFF89490C9F857
:107D600000C0DFF89090C9F800C0DFF88CC0CCF8F4
:107D70000040DFF888C0CCF800200CF10402156048
:107D8000121D16601E4A11601E490B60091D0F600E
:107D9000091D0860D8F8000020F00700C8F80000AE
:107DA000BDE8F00370470000800000208C02002036
:107DB0009C020020A0020020A402002098020020C3
:107DC000A8020020940200207402002080020020FB
:107DD000840200209002002070020020780200201F
:107DE0007C020020880200208077014094740140CA
:107DF00014750140147401409C740140A474014046
:107E00001C75014024750140074910B54FF48040AE
:107E1000086006490220486000F00AF8BDE81040FA
:107E200000F0B6B8FFF724BF180400480000024075
:107E300010B44D484D49DFF83CC1028A09685143EE
:107E4000C1F30F324A498A818389DCF800C003FB01
:107E50000CF3C3F30F334B81B0F808C046480068F9
:107E60000CFB00F0C0F30F304880B1F804C0604450
:107E700040088880B1F80EC000FB0CF0B1F810C0CB
:107E80000CEB203080B28C46C8809CF800C01CF0FF
:107E9000010F1FD1B1F908C00CFA80F4002CB4BF57
:107EA00000200CFA80F000B20028B8BF002005DBEB
:107EB00043F66B6C8445B8BF43F66B6080B2DFF865
:107EC000BCC0DCF800C00CFB00F0DFF8B4C0000B55
:107ED000CCF800002B484FF0000C008810F0020F87
:107EE00002D010F0080F05D0C1F814C0C1F818C0B6
:107EF00010BC7047981A6438C861C86910F57A7F59
:107F0000B8BF214806DBC869B0F57A7FCCBF4FF413
:107F10007A70C869C861C86900EBC00202EB401002
:107F20004A6902EBC000C0138861C8690001086299
:107F30008869322806DD8869C0F13200C003086212
:107F4000322088618869002805DA88694042C003C8
:107F50000862C1F818C048690A6A10444861886913
:107F60000A49088010BC7047B00200206000002061
:107F7000880100205C0000205400002074000020D4
:107F800008740040EA00002018FCFFFF28010020D0
:107F90002DE9F84FFE4DFF49DFF8FCC3288809683A
:107FA000FE4B4843C0F30F30ACF80200BCF81A1087
:107FB0004843C0F30F32ACF80420A8881B6858432C
:107FC000C0F30F30ACF806004843C0F30F33ACF8F1
:107FD0000830D01A48BF002004D4B0F5C87FC8BF0D
:107FE0004FF4C87052214143C1F50040CCF83C1019
:107FF000002848BF002006D4C1F50040B0F5004F6E
:10800000C8BF4FF40040E44CA063504301FB0300A1
:10801000C0F3CF3CE249A4F80AC028890968484364
:10802000618AC0F30F304843C0F30F30A081E1896B
:1080300001444908E181A28B5143C1F30F33D9496F
:108040002382B0F5FA5F8CBF592096204864D64849
:10805000D14C4FF000060078247810F0020FD14880
:10806000406E4FEA001200F0E781D04D2D68C5F355
:10807000803545B9CE4D2F6847F003072F602F6834
:1080800047F00C072F604FF4DD75C34F5D4341F29D
:108090004A58A8EBD5357D854545C8BF41F24A55BC
:1080A000DFF81093DFF8108314F0020FB8F80080A7
:1080B000A9F8008045442DB27D8500F0E380B7F833
:1080C0003680A7F83280DFF8F482C1F80080DFF84C
:1080D000F082C1E901864FF08078C1E903684E6102
:1080E0008E61D7F87080B5EB182F00F2BB80A9F134
:1080F000300824F0020488F800403D857C8EE31AA5
:10810000BB67BC6F43F233336343D7F8804004EB63
:10811000E3337B67BC6F4FF4A4736343DB13FB67EC
:108120007B6F002BC4BFFE677E67B7F928407D6F69
:108130006342AB42C4BFFE677B67D7F88030FD6FF8
:108140002B44C7F880307B6F934D1BB2BB8595F8ED
:108150000080002BB4BF48F0040828F0040885F81C
:108160000080E31848BF00231BB28B4C238500938B
:10817000A3EB0C030B64B4F914401C4414F1960FE8
:10818000B8BF6FF0950409DB834DB5F914401F1992
:108190004C6CBC42A4BFB5F914401C440C63D1E93B
:1081A00000854F6B85FB0757C8FB0457D1E9029444
:1081B000D1E90EA884FB0848C9FB0A482C1947EBF3
:1081C0000805240D44EA05370C694D6A4FEAE47945
:1081D000A4FB058A09FB05A504FB06594C698D6AB9
:1081E0004FEAE47AA4FB05BE0AFB05E504FB06544E
:1081F00018EB0B0849EB04098C69CD6A4FEAE47A65
:10820000A4FB05BE0AFB05E504FB065418EB0B05B1
:1082100049EB04042D0E45EA04243C190C62B4EB2E
:10822000001F38BF144603D3664DA54238BF2C4605
:108230002509CD610C62644C41F6F0284FEA08171D
:10824000247814F0010F2ED0C1E907874F628F62A6
:10825000C1E90B764E638E634F48C1F86080CE63F0
:10826000C683DCE04FF41D745C43E925A5EBD434F0
:10827000FC855B2CB8BF5B24FC8544443C6724121E
:108280003C853BE7514C0C60514C4C60514C8C6030
:10829000514CCC60514C0C61514C4C61514C8C6137
:1082A000BC8E7C8629E7414C2468C4F380394FF4A6
:1082B0000044B9F1000F14D03748027842F01002A0
:1082C0000270C1E907874F628F62C1E90B764E6386
:1082D0008E634FEA0C22CE630267C1F86080C483CC
:1082E0009DE0A84206D2DFF8B0C09CF800C01CF0A8
:1082F000080F4BD04B6513F5FA7FB8BF3A4B04DB40
:10830000B3F5FA7FC8BF4FF4FA734B654FF4C84C0E
:1083100003FB0CFCCD6D9B0205EB2C2C1B12C1F852
:108320004CC08B65BCF5004F04DDCCF50043CC643C
:108330008B6506E0BCF1000F03DACCF10003CE64DC
:108340008B652B44CB65CB6CB3F5004F06DB124835
:10835000027822F008020270CC6412E0DFF838C024
:108360009CF8005045F008058CF80050C1E9070260
:108370004A628A62C1E90B264E638E636046CE6311
:10838000C3830548007810F0080F30D102482DE073
:10839000B00200204C000020AC0100205000002062
:1083A00054000020E8030020EA000020847401400B
:1083B00094770140DC01002028010020861D220165
:1083C000BE170FFF40700300EC000020B8710705D6
:1083D00048D3B4FBC85EFFFA38FD51040A880D018A
:1083E00036B7DA00C2C017FF0CFEFFFFC483C869AE
:1083F0000866009840F27D2210FB02F040F605521C
:1084000002EB90204866904238BF40F6055005D3F5
:1084100041F60A22824238BF41F60A204866886A3D
:10842000C862486A8862086A4862886BC863486B99
:108430008863086B486334E07F4B1D6845F0030593
:108440001D601D6845F00C051D607C4B4FEA0C2C2F
:108450001D461E85C3F870C024F0340C784C9E85F0
:108460001E82276847F4804727604CF00A0C85F885
:1084700000C0C1E907024A628A62C1E90B264E6365
:108480008E63CE635E67C3F88060CE65CE64086697
:10849000DE83C82018844FF4E170988440F6B2401F
:1084A000D884086E41F287310A1A4FF44471DFF81C
:1084B0008CC151430914ACF82210BCF9221011F1FF
:1084C000280FB8BF6FF0270106DBBCF92210002986
:1084D000CCBF0021BCF92210ACF82210BCF822104D
:1084E000C831ACF8201040F605510A1A40F2E241BA
:1084F00051430913CCF86010DCF8601011F5B97F16
:10850000B8BF504906DBDCF860100029CCBF002161
:10851000DCF86010CCF8601041F2C111091A01EBCF
:108520004102C2EB41110913CCF86410DCF864106D
:1085300011F11E0FB8BF6FF01D0106DBDCF86410EF
:108540000029CCBF0021DCF86410CCF86410DCF802
:108550006010DCF86420114401F5E171ACF82410DE
:1085600041F63F710A1A384951430913CCF8681093
:10857000DCF868100029B8BF002108DBDCF86810BF
:10858000B1F5FA6FCCBF4FF4FA61DCF86810CCF8A3
:10859000681042F6F4510A1A2C4951430913CCF8D9
:1085A0006C10DCF86C100029B8BF002109DBDCF886
:1085B0006C1040F21A428A42B4BF40F21A41DCF811
:1085C0006C10CCF86C10DCF86810DCF86C201144EE
:1085D000C831ACF82610BCF81E10BCF82020BCF93D
:1085E0002430BCF926C0CDF800C0FFF747FB134983
:1085F000087810F0100F08BFBDE8F88F144A126A0F
:10860000C2F38072002A04BF40F020000870BDE869
:10861000F88F0A480F4A00781388410961F308234C
:1086200013800D4B42088008198862F3C30160F380
:10863000820119807047000098770140AC0100204A
:10864000887401408EFEFFFF81F7FFFFC3F8FFFF34
:0C86500000000140EC000020EA000020C7
:040000050800319925
:00000001FF
