:020000040800F2
:08000000F0070020AD310008FB
:020000040800F2
:1030000045434431363032303130372058585858E3
:020000040800F2
:1030100098080020AD310008EF5B0008414E000821
:10302000E15B0008AD3B00081B75000800000000D4
:10303000000000000000000000000000E56600083D
:103040005F3D000800000000F96100081F670008EC
:10305000C7310008C7310008C7310008C731000870
:10306000C7310008C7310008C7310008C731000860
:10307000C7310008C7310008C7310008210300101C
:10308000C7310008C7310008C7310008C731000840
:10309000C7310008C7310008C7310008C731000830
:1030A000C7310008C7310008C7310008C731000820
:1030B000C7310008C7310008A5680008C7310008FB
:1030C000C7310008C731000800000000C731000800
:1030D000C73100080000000000000000C7310008F0
:1030E00000000000C73100083D030010C731000890
:1030F000C7310008C73100080000000000000000D0
:1031000000000000000000000000000000000000BF
:1031100000000000000000000000000000000000AF
:103120000000000000000000C7310008C73100089F
:10313000000000000000000000000000000000008F
:10314000000000000000000000000000000000007F
:10315000C7310008C731000800000000C73100086F
:10316000C7310008C7310008C7310008C73100085F
:10317000C7310008C731000800000000000000004F
:10318000000000000000000000000000000000003F
:1031900000000000C7310008DFF80CD000F022FA70
:1031A00000480047EB750008980800200648804753
:1031B00006480047FEE7FEE7FEE7FEE7FEE7FEE71C
:1031C000FEE7FEE7FEE7FEE7216700089931000809
:1031D0002DE9FE4F804681EA0300C00F0C460090A7
:1031E00021F0004123F00045B8EB0200A94105D2CF
:1031F0004046214690461C460B46024623F00040BE
:10320000104347D0270DC7F30A00C3F30A510290B9
:10321000401A019040286BDAC3F3130040F4801B7E
:103220000098924620B10023D2EB030A63EB0B0B0C
:1032300001985946C0F14002504600F044F9064654
:103240000D4650465946019A00F05CF910EB080013
:103250006141002487EA115284EAE7731A4340D09F
:10326000009A62B3019A012A4FEA075215DC001B4B
:1032700061EB02014FF0004202EA0752CDE9004241
:10328000001C41F5801132462B4600F05CF903B07A
:10329000BDE8F08F40462146F9E7001B61EB0201D3
:1032A000001C41F5801300185B412018A2F500179F
:1032B00047EB030140EAD570B6196D4111E06D0886
:1032C0004FEA360645EAC0754FEA0752001B61EB2C
:1032D0000201001C41F5801149084FEA3000001935
:1032E000514132462B4603B0BDE8F04F00F01CB907
:1032F0000098012240000023D0EB020263EBE07350
:10330000009821464FEAE074B8EB000061EB04013D
:10331000E9E783F000435BE781F0004158E72DE9DE
:10332000FE4F81EA030404F0004421F000410094C0
:103330004FF0000B23F0004350EA01045ED052EA44
:1033400003045BD0C3F30A54C1F30A552C44A4F21E
:10335000F3340194A0FB0254C1F3130141F4801132
:10336000C3F3130343F4801301FB024400FB034E39
:10337000840A970A44EA815447EA8357A4FB076802
:1033800002958D0A05FB07854FEA932C04FB0C542C
:103390002705029D4FEA065847EA1637B5EB0805A0
:1033A0006EEB070C870E920E47EA811742EA8312F2
:1033B000A7FB0201B6EB0B0164EB00042B0D43EA03
:1033C0000C335E1844EB1C50DA465146E7FB020111
:1033D000C5F313044FEA0B3343EA14534FEA0432A4
:1033E000019C43EA0603A4F10C040294009CCDE97D
:1033F00000B400F0A8F803B0BDE8F08F002001464B
:10340000F9E70EB5C10F80EAE0700844CA07002151
:1034100040F233438DE80E000A460B4600F093F865
:1034200003B000BD0EB540F2334102910021CDE959
:1034300000110A460B4600F086F803B000BD0EB539
:1034400040F2334202920022CDE90022134600F0FE
:103450007AF803B000BD70B5C1F30A5201F000451F
:103460000024C1F3130140F2FF3341F480119A426A
:1034700001DA002070BD40F233439A42A2F2334297
:1034800003DC524200F02EF800E090402C43F1D0D3
:10349000404270BDC1F30A5210B5C1F3130140F2AE
:1034A000FF3341F480119A4201DA002010BD40F24E
:1034B00033439A42A2F2334203DC524200F012F844
:1034C00010BD904010BD202A04DB203A00FA02F122
:1034D000002070479140C2F1200320FA03F3194302
:1034E00090407047202A04DB203A21FA02F00021A4
:1034F000704721FA02F3D040C2F120029140084304
:1035000019467047202A06DBCB17203A41FA02F011
:1035100043EAE07306E041FA02F3D040C2F1200230
:10352000914008431946704710B5141E73F100040A
:1035300008DA401C41F1000192185B411A4301D1A5
:1035400020F0010010BD2DE9F04D92469B4611B1CF
:10355000B1FA81F202E0B0FA80F220329046FFF731
:10356000B2FF04460F4640EA0A0041EA0B01534607
:103570005A46084313D0114653EA010019D0C8F146
:1035800040025046FFF7AEFF05460E4650465946EC
:103590004246FFF798FF084305D0012004E020468B
:1035A0003946BDE8F08D0020054346EAE0762C431D
:1035B00037430A986305E40AA0EB08000022FD0ADD
:1035C00044EA47540A3002D500200146E9E70105E4
:1035D00010196941DDE9084500196941BDE8F04D60
:1035E000A2E70000064C074D06E0E06840F001034A
:1035F00094E8070098471034AC42F6D3FFF7D0FDAB
:10360000407A0008707A000870B58C1810F8015BD9
:1036100015F0070301D110F8013B2A1106D110F86B
:10362000012B03E010F8016B01F8016B5B1EF9D16F
:103630002B0705D40023521E0DD401F8013BFAE7F5
:1036400010F8013BCB1A921C03E013F8015B01F860
:10365000015B521EF9D5A142D8D3002070BD40F2C3
:10366000951CC1F2000C604740F60D3CC1F2000C05
:1036700060470000054900200860064904480988A1
:1036800001800549801C098801807047087400404A
:10369000960100201A0100201C0100201848017822
:1036A00021F0010141F00202164902700E30098832
:1036B00001801549801C09880180103801468389E2
:1036C000B0F806C0B1F90810634588BF491E38BF7D
:1036D000491C00D00181B0F9081011F5FA7FB8BF7C
:1036E0000A4904DBB1F5FA7FC8BF4FF4FA710181D2
:1036F00007485108028861F34922028070470000A0
:10370000880100201A0100201C0100200CFEFFFF90
:10371000EA0000200029816814BF41F0010141F056
:103720000201816070470000F0B4114A114B124C45
:103730004FF0A04CB0F1A04F16BF9842DCF80853F0
:1037400025682A40D1E900563543D1E9026746EAA7
:103750000736097C354345EA01211143B0F1A04FFA
:1037600016BF9842CCF808132160F0BC70470000E7
:10377000E010FCFF00010050080700500029C1685C
:1037800014BF41F0010121F00101C1607047014601
:103790000020896811F0004F18BF01207047000019
:1037A00010B4C268114B1A40D1E9003C43EA0C0343
:1037B000D1E902C44CEA040C43EA0C03D1F810C06E
:1037C00043EA0C03D1F814C043EA0C03D1F818C043
:1037D00043EA0C031A43C260026B097F22F00F0216
:1037E000491E1143016310BC7047000007C0FFFD74
:1037F00010B44FF01F0C052A0DD2046B02EB4202ED
:1038000052000CFA02FC24EA0C0C01FA02F24CEA17
:10381000020202632FE00A2A0ED2446B521F02EB0F
:10382000420252000CFA02FC24EA0C0C01FA02F2E9
:103830004CEA020242631EE00F2A0ED2846B0A3A5F
:1038400002EB420252000CFA02FC24EA0C0C01FAD0
:1038500002F24CEA020282630DE0C46B0F3A02EB03
:10386000420252000CFA02FC24EA0C0C01FA02F2A9
:103870004CEA0202C263092911D982690A3901EBB3
:1038800041010722D0F818C08A402CEA0202826166
:10389000826903FA01F11143816110BC70474269EA
:1038A0004A1E02EB42024FF0380C0CFA02F2D0F83A
:1038B00014C02CEA02024261426901EB410103FAA1
:1038C00001F11143416110BC7047826822F08042CF
:1038D00082608268114381607047816841F00041D5
:1038E00081607047816841F004018160704782689F
:1038F00022F0405282600029816814BF41F080515B
:1039000041F00051816070470149486170470000F3
:1039100048000020014988617047000048000020ED
:10392000F8B5194C15460E46012808BF0B2018D0D3
:10393000022808BF0C2014D0032808BF0D2010D087
:10394000042808BF0E200CD0052808BF0F2008D07F
:10395000062808BF102004D0072804BF11202070BB
:1039600000E020704FF4806002F084F920788DF838
:1039700000008DF801608DF8025001208DF80300E1
:10398000684602F03DF9F8BD480000200149C861D1
:1039900070470000480000200149C86070470000DF
:1039A000480000202DE9F0418EB04FF4807002F005
:1039B0002DFC0121080702F039FC01214FF0A04045
:1039C000FFF795FF6C4C01212046FFF790FF002187
:1039D0004FF0A040FFF779FF4FF0A040FFF77DFFC9
:1039E0004FF0A040FFF7D3FE0028F9D10021204678
:1039F000FFF76BFF2046FFF770FF26463046FFF7C4
:103A0000C6FE0028FAD1062500244FF40040089590
:103A1000CDE9094002200B908DF8304008A94FF005
:103A2000A040FFF781FE4FF460770094CDE9014795
:103A30004FF48060CDE903044FF48058CDE905844C
:103A40008DF81C5069464FF0A040FFF7A9FE0122F7
:103A5000022311464FF0A040FFF7CAFE02231A4688
:103A600019464FF0A040FFF7C3FE03220223114680
:103A70004FF0A040FFF7BCFE0422022311464FF096
:103A8000A040FFF7B5FE052202230C211007FFF727
:103A9000AFFE022306220B214FF0A040FFF7A8FE45
:103AA0000094CDE90147CDE90448039406948DF8CC
:103AB0001C5069463046FFF773FE022301220321A2
:103AC0003046FFF795FE02231A460C213046FFF7D9
:103AD0008FFE022303220C213046FFF789FE0223CA
:103AE00004220C213046FFF783FE022305220C211D
:103AF0003046FFF77DFE022306220C213046FFF7F9
:103B000077FE01214FF0A040FFF738FE01214FF072
:103B1000A040FFF7FFFD01213046FFF7FBFD4FF00E
:103B2000A040FFF7DFFE0121084602F07FFB1348AB
:103B300000901348CDE901048020CDE904408000C5
:103B4000069080000790ADF80C50202008900002ED
:103B5000CDE909040B4C6946204600F0D7F8012155
:103B6000204600F0C1F801220221204600F0C6F8EC
:103B70000EB0BDE8F0810000000100500C030050C1
:103B8000B002002008000240014948607047000070
:103B9000480000200149886070470000480000206C
:103BA00001490861704700004800002000F04AFA0F
:103BB00002F088F802F0F0FCF8E770474FF08071EF
:103BC000B1FBF0F001490860704700006800002078
:103BD00010B5012184B0084602F040FB0F490E48A1
:103BE00008620121400702F02DFB0121880602F046
:103BF00029FB00200A4C009001900290014603909E
:103C00006A46204600F024F801220021204600F0F8
:103C100014F804B010BD0000010040800000014015
:103C2000009800404140034AC9B232F8111081EABD
:103C300010207047407800087047012303FA01F113
:103C4000002A026814BF114322EA01010160704793
:103C500010B4036840F6FE7C0CFA01FC23EA0C0366
:103C6000D2E900C44CEA040CD2E9024222434CEAF5
:103C7000020202FA01F11943016010BC7047000012
:103C80004FF08071B1FBF0F001490860704700000F
:103C90007400002070B50121480702F0D3FA104CDF
:103CA0000025104E25606560224629463046E560B5
:103CB000FFF7CEFF256002206560E06022461021FC
:103CC0003046FFF7C5FF012200213046FFF7B5FF60
:103CD0003046BDE8704001221021FFF7AEBF000062
:103CE000C8020020007400400029016812BF41F0A2
:103CF00001014FF6FE72114001607047002A026810
:103D000014BF114322EA01010160704710B4026838
:103D1000D1F820C08B686FF30E1243EA0C03D1E98F
:103D200004C44CEA040C43EA0C03D1F818C043EA7B
:103D30000C03D1F81CC043EA0C03D1F824C043EAB9
:103D40000C03D1F828C043EA0C031A4302608A89A5
:103D500042600A6882604968C16010BC704710B553
:103D600000F070F901F0AEFFBDE8104002F014BCA5
:103D7000036890F806C003F01F02012101FA02F265
:103D800023F01F03BCF1000F7ED003F1804303F545
:103D90008033D3F800C42CEA0202C3F8002403687D
:103DA00023F01F0202F1804202F58032D2F804C4EF
:103DB00003F01F0301FA03F32CEA0303C2F80434EF
:103DC0000368027923F01F0C0CF1804C0CF5823C47
:103DD0006244D2F800C003F01F0301FA03F34CEA77
:103DE00003031360036823F01F0202F1804202F50F
:103DF0008032D2F808C403F01F0301FA03F32CEA5F
:103E00000303C2F80834036823F01F0202F1804262
:103E100002F58032D2F80CC403F01F0301FA03F359
:103E20002CEA0303C2F80C344379102B0ED002683D
:103E300022F01F0000F1804000F582301844036832
:103E400002F01F029140194301607047036823F09C
:103E50001F0202F1804202F58032D2F808C403F05A
:103E60001F0301FA03F34CEA0303C2F808340268A3
:103E700022F01F0000F1804000F58030D0F80C34B3
:103E800002F01F02914000E003E01943C0F80C1457
:103E90007047007903F1804101F5823108440168DF
:103EA0009143D1E700B5012183B0084602F0D6F96D
:103EB0000221012002F01FFC0220009004208DF856
:103EC000040008208DF8050001208DF806006846E2
:103ED000FFF74EFF03B000BD0248016941F08001C9
:103EE000016170470020024078B50646002000902E
:103EF0000D464FF4302000F031F8042818BF78BD8B
:103F00000C4C206940F00100206135804FF43020D6
:103F100000F024F8042808D1B01C00900099280C67
:103F200008804FF4302000F019F8216921F00101D8
:103F3000216178BD002002400548016911F0800F21
:103F400008BF704703494160034941607047000062
:103F50000020024023016745AB89EFCD1749024697
:103F60000420CB6813F0010F25D1CB6813F0100F9C
:103F700018BF02201AD1C96811F0040F18BF03201E
:103F800014E0CB68042013F0010F18BF01200AD100
:103F9000CB6813F0100F18BF022004D1CB6813F0C8
:103FA000040F18BF0320521E012804D0002A18BF96
:103FB000704705207047002AE3D1FAE7002002404D
:103FC000044AD11C11F801398A4243EA0020F9D988
:103FD00070470000F82F0008064AD01C10F801397D
:103FE000824243EA0121F9D9034881420CBF0120F2
:103FF00000207047FC2F0008D4C3B2A17047000016
:1040000070B5064D45F2AA54FFF796FF21462846A3
:10401000FFF76AFFBDE87040FFF75EBF00B0000821
:104020004B07DB0E9A40C90800EB8100016A4FF094
:104030000F0C0CFA03F399430162016A1143016208
:10404000704700000B48016841F0030101600168FE
:1040500041F00C010160016841F03001016001682C
:1040600041F0C0010160016841F440710160024803
:1040700000F0A6BA987701400074014000000000EB
:104080002DE9F04F4FF480502DED068B8DB002F0EE
:1040900077FA0121480702F0E1F8DFF85C920C2181
:1040A000484600F07BFA00BF4FF48031484600F0EC
:1040B0009EFB0028F8D091484068914C10F4803065
:1040C00020630CBF8F4890488046C10E6063002774
:1040D0004001FFF7B4F98B464BEC100B06469FED01
:1040E0008C8B51EC100B53EC182BFFF718F99FED4C
:1040F0008A9B53EC192BFFF712F99FED89AB53EC18
:104100001A2BFFF765F8FFF7C5F94BEC106B6060F1
:1041100053EC182B51EC100BFFF701F953EC192B52
:10412000FFF7FDF853EC1A2BFFF752F8FFF7B2F93F
:10413000A0604FEA0810A063FFF774F98A464AECC2
:10414000100B054653EC182B51EC100BFFF7E7F85A
:1041500053EC192BFFF7E3F853EC1A2BFFF738F861
:10416000FFF798F94BEC106BE06153EC182B51EC16
:10417000100BFFF7D4F853EC192BFFF7D0F853ECE2
:104180001A2BFFF725F8FFF785F94AEC105BE06082
:1041900053EC182B51EC100BFFF7C1F853EC192B13
:1041A000FFF7BDF853EC1A2BFFF712F8FFF772F97F
:1041B00020624FEA98614FEA8810C4E91001FFF7C6
:1041C0003EF9884648EC100B064653EC182B51EC90
:1041D000100BFFF7A4F853EC192BFFF7A0F853ECE2
:1041E0001A2BFEF7F5FFFFF755F94AEC105B20613B
:1041F00053EC182B51EC100BFFF791F853EC192BE3
:10420000FFF78DF853EC1A2BFEF7E2FFFFF742F9A8
:1042100048EC106B606253EC182B51EC100BFFF75D
:104220007EF853EC192BFFF77AF853EC1A2BFEF7B4
:10423000CFFFFFF72FF94AEC105B606153EC182BAE
:1042400051EC100BFFF76BF853EC192BFFF767F8E5
:1042500053EC1A2BFEF7BCFFFFF71CF948EC106B70
:10426000A06253EC182B51EC100BFFF758F853ECED
:10427000192BFFF754F853EC1A2BFEF7A9FFFFF7A1
:1042800009F94AEC105BA06153EC182B51EC100BB0
:10429000FFF745F853EC192BFFF741F853EC1A2BB5
:1042A000FEF796FFFFF7F6F8E06241F6FE70CDE903
:1042B000080701200A90082001970B9002978006BA
:1042C000CDE90670801000970490039705976B4620
:1042D00008AA0521484600F08BFB1348016841F00D
:1042E0000101016000F022F80DB0BDEC068BBDE8C5
:1042F000F04F00F0B3B8000000740140001002401D
:10430000800000200090D00300A24A0400000000BA
:1043100095D626E80B2E113E000000000000B040AC
:10432000000000000000E03F847701402DE9F041EB
:10433000AEB02AA940F6FF7000240126082781E8C4
:10434000D100159416947007CDE91A408010DFF85B
:10435000FC80149418901794199414AB2AAA21463F
:10436000404600F045FB2025CDE904450394069422
:10437000079436200094CDE901706B46012200219C
:10438000404600F0FCFA4E200094CDE901506B4607
:1043900002220021404600F0F2FA09940A9408AB88
:1043A000012200214046089400F099FA08AB02224D
:1043B00000214046089400F092FA08AB0422002144
:1043C0004046089400F08BFA08AB082200214046D2
:1043D000089400F084FA1C941D944FF420601E94FD
:1043E000CDE91F401020CDE92140800323901CAA75
:1043F0000021404600F0C5FA3C21CDE90B410D9467
:104400000E94CDE90F41119412940BAA002140465D
:10441000139400F0E1F80E49086840F0402008606D
:10442000CDE92464269424AA20214046CDE92745DD
:1044300000F0F2F80749032008600748016841F0DE
:10444000020101602EB0BDE8F0810000007401405F
:10445000B874014098770140847701402DE9F0411C
:10446000AEB02AA940F6FF7000240126082781E893
:10447000D100159416947007CDE91A408010DFF82A
:10448000FC80149418901794199414AB2AAA3146FE
:10449000404600F0ADFA009420250394CDE9044590
:1044A000069436200794CDE901706B460422012161
:1044B000404600F064FA4E200094CDE901506B466E
:1044C00008220121404600F05AFA012209940A9478
:1044D00008AB11464046089400F001FA08AB0222EE
:1044E00001214046089400F0FAF908AB04220121AA
:1044F0004046089400F0F3F908AB08220121404639
:10450000089400F0ECF91C941D944FF420601E9464
:10451000CDE91F401020CDE92140800323901CAA43
:104520000121404600F02DFA8221CDE90B410D9486
:104530000E94CDE90F41119412940BAA012140462B
:10454000139400F049F80E49086840F040200860D4
:10455000CDE92464269424AA20214046CDE92745AC
:1045600000F05AF807490C2008600748016841F03C
:10457000040101602EB0BDE8F0810000007401402C
:104580003875014098770140847701404FF47C11E1
:10459000014800F0F0B9000000740140D0F8CC23CD
:1045A000B1F1FF3F07BF22F0020141F0010122F00B
:1045B0000D02114318BF41F00201C0F8CC1370473F
:1045C0000448C16841F00051C160C16821F0005148
:1045D000C16070470010024000EBC110D0F8B81065
:1045E0000C4B1940136841EA8321536819439368BF
:1045F000194313691943D3681943938A41EA034164
:1046000093691943136AD26919431143C0F8B8106A
:10461000704700000020FF3DAFF3008010B4D0F8D9
:10462000B033D0F8B4C3D0F8B843202977D030DC09
:10463000042960D016DC01294DD002291CBF10BC12
:10464000704723F47C61136841EA8311536841EA9F
:104650008311936841EA8311C0F8B013126941EAEB
:10466000821158E008295BD010291CBF10BC70478C
:1046700023F07C51137841EA0361137941EA036125
:10468000137A41EA0361C0F8B013127C41EA026177
:1046900041E0402967D080297DD0B1F5807F79D075
:1046A000B1F5007F1CBF10BC70472CF0F851137897
:1046B00041EA0361137941EA0361137A127B41EA0B
:1046C000036124F0706343EA0262C0F8B413C0F8D7
:1046D000B82310BC704723F03F0113681943536897
:1046E000194393681943C0F8B01312691143C0F815
:1046F000B01310BC704723F47C31136841EA0331D6
:10470000536841EA0331936841EA0331C0F8B013BA
:10471000126941EA0231C0F8B01310BC704710E0D2
:1047200023F47C01138841EA8341938841EA834161
:10473000138941EA8341C0F8B013128A41EA8241E9
:10474000E9E713682CF01F01194353681943936874
:10475000D268194324F00F031A43C0F8B413C0F809
:10476000B82310BC704713682CF4F86141EA831138
:10477000536841EA83119368D26841EA831124F4B3
:10478000707343EA8212C0F8B413C0F8B82310BCA7
:10479000704700E015E013682CF4F83141EA03316A
:1047A000536841EA03319368D26841EA033124F443
:1047B000704343EA0232C0F8B413C0F8B82310BC07
:1047C000704713882CF4F80141EA8341938841EA49
:1047D00083411389928941EA834124F4701343EAA7
:1047E0008242C0F8B413C0F8B82310BC7047024628
:1047F0000020D2F888230A4218BF0120704700EB3E
:10480000C1104FF0000CD0F8E410202A1FD00CDCAF
:10481000042A15D004DC012A12D0022A17D01EE087
:10482000082A14D0102A0BD019E0402A08D0802A78
:104830000DD0B2F5807F03D0B2F5007F07D00EE037
:104840005A68C0F8BC209A68C0F8C02007E05A68CF
:10485000C0F8C4209A68C0F8C8204FF0100CFE229F
:1048600002FA0CF291431A6802FA0CF21143DA6868
:1048700002FA0CF211431A6902FA0CF211435A6956
:1048800002FA0CF211439A6902FA0CF21143DA6946
:1048900002FA0CF21143C0F8E410704700EBC110AB
:1048A000D0F8801021F00701C0F88010D0F88010F7
:1048B00093681943C0F88010D0F8801021F01801D7
:1048C000C0F88010D0F88010D3681943C0F8801069
:1048D0001168C0F894105168C0F89810704700EB48
:1048E000C110012A08BF196842D0022A24D0042A24
:1048F00008BF196839D0082A18BF70471968C0F86E
:10490000AC105968002908BF7047D0F8802022F405
:10491000404242EA8101C0F880105968B1F5005F59
:1049200002BF9968C0F89C107047B1F5405F04BFA2
:104930009968C0F8A81070471968C0F8A4105968A1
:10494000002908BF7047D0F8802022F4405211435C
:10495000C0F880105968B1F5005F08BF996807D0AA
:10496000B1F5405F0CBF99687047C0F8A810704758
:10497000C0F89C1070470268114301607047FFF750
:104980003EBF10B400EBC110D0F880C0D0F8E810E2
:10499000D0F8E430D0F8D44014682CF0400C44EA4D
:1049A0000C0CD4692CF4802C44EA0C0C54692CF0C7
:1049B000FC7C44EA0C0C147921F01F0104F01F0464
:1049C0002143946821F000412143D46823F480738B
:1049D0002343146923F4F05392692343C0F880C041
:1049E000C0F8E810C0F8E430C0F8D42010BC70471C
:1049F00070B51C460E46054605292ED0FFF74EFF22
:104A000005EBC612D2F88010D5F8A003236821F078
:104A100020011943636821F400611943A36821F45C
:104A200080611943E36821F0C0611943236921F0D3
:104A300000611943636921F070411943E36921F46E
:104A40000031B3F1005F08BF41F40031052E5BD2A5
:104A5000DFE806F03D43494F5500286820F0070085
:104A600028602868916808432860286820F01800AA
:104A700028602868D1680843286010686861506819
:104A8000A8612968D5F8A003226821F0200111430C
:104A9000626821F400611143A26821F4806111432E
:104AA000E26821F0C0611143226921F000611143E5
:104AB000626921F0404141EA8201E26921F000513E
:104AC00011439A6920F48030104329601EE0A369E5
:104AD00020F4003040EA430016E0A36920F480206F
:104AE00040EA830010E0A36920F4002040EAC300FC
:104AF0000AE0A36920F4801040EA031004E0A369EF
:104B000020F4001040EA4310C2F88010C5F8A0035A
:104B100070BD000010B5FFF75FFA03490A8860F323
:104B2000CF320A8010BD0000EA00002010B541F627
:104B30003930FFF729F841F62130FFF72BF843F61B
:104B40006B60FEF729FF43F66B60FEF7DDFE43F670
:104B50006B60FEF7DFFE40F6D640FFF721F840F627
:104B6000A200FEF713FF41F60910FFF727F843F6FE
:104B70006B60FFF785F80A21012002F067F804480E
:104B80000068044908600449C0F34F00086010BD84
:104B90002C2C0140AC020020342C014030B45B4A84
:104BA0005B495D4B10880968DFF87CC14843010B05
:104BB00058485E4C41801980584B91881B68594376
:104BC000574B090B81801980564B00F10C01B3F94A
:104BD00000300B8000F10E01BCF900C0A1F800C04C
:104BE000118924686143C1F30F31C18004892144D4
:104BF0004F4C490801812180594301F580510CEB4C
:104C000061314FF4484359434A4B090C41811980A3
:104C1000494B918947F2333C1B685943474B090B79
:104C200001821980464B118A1B685943454B090B79
:104C300041821980444B918A1B685943C1F30F315B
:104C40008182C38A03FB0CF340F6CD4C01FB0C318F
:104C5000C1F3CF3140F65613C182994238BF40F6B6
:104C6000561105D340F61D238B4238BF40F61D2157
:104C7000C182364BDFF8D8C0B3FBF1F30380ACF848
:104C8000001034490B80344B5188D3F800C0C1F573
:104C9000805301FB0CF4B1F5805F0CBF01251D466C
:104CA000B4FBF5F5B5F5803F28BF4FF6FF7305D28D
:104CB000B1F5805F08BF0123B4FBF3F3274C0383F6
:104CC00041832380264B1980D18801FB0CF3C1F569
:104CD0008052B1F5805F0CBF4FF0010C9446B3FBDE
:104CE000FCFCBCF5803F28BF4FF6FF7205D2B1F542
:104CF000805F08BF0122B3FBF2F28283C1831948AF
:104D000002801948018030BC70470000B0020020CA
:104D10004C000020C8000020F400002050000020BB
:104D2000F60000202201002026010020540000206F
:104D3000F8000020FA0000205C0000202A0100207A
:104D4000600000202C0100205800002000E09B00A3
:104D50002E010020FC000020640000203001002013
:104D600034010020320100203601002010B5FFF789
:104D700027F90449044A0870010A11700349000C1C
:104D8000087010BD3E0100203F01002040010020BE
:104D900010B500F079FF114C0028208819BF40F0B1
:104DA000080020F4007020F0080040F4007020801B
:104DB00000F07EFF0028208814BF40F0100020F093
:104DC0001000208000F06AFF0028208814BF40F007
:104DD000400020F04000208010BD0000F2000020C4
:104DE00010B5164C207810F0010F14BF00200120E0
:104DF00001F0FDF9207810F0020F14BF002001200F
:104E000001F0E1F9208810F4807018BF012001F052
:104E1000E4F9208810F4007018BF012001F0D8F9DF
:104E2000207810F0040F04D0BDE81040012001F0FC
:104E3000D9B9BDE81040002001F0D4B9F20000203B
:104E4000FFF700F900F03EFF01F0A6FBF8E770471E
:104E50002DE9F04F0B46884E815C02F10102368845
:104E600085B011F0010F92B208D0834846F480411A
:104E700041F00101018005B0BDE8F08F815C61F374
:104E8000070402F1010189B2425C01F1010189B21A
:104E900062F30F24425C01F1010162F3070589B25C
:104EA00083B1405C009460F30F257448BDF8001096
:104EB0000180A8B200F1006071490088088005B047
:104EC000BDE8F08F425C491C62F30F258AB2815C19
:104ED000521C61F3070B92B2594610F802B06BF303
:104EE0000F210091511C89B2DDF804B0425C491CCD
:104EF00089B262F30703425C491C89B262F30F2353
:104F0000425C491C89B262F3070C425C491C89B2BD
:104F100062F30F2C425C491C89B262F30707425CC2
:104F2000491C89B262F30F27425C491C89B262F3C3
:104F3000070E425C491C89B262F30F2E425C491C89
:104F400089B262F30708425C491C89B262F30F28F8
:104F5000425C491C89B262F3070A425C491C89B26F
:104F600062F30F2A425C491C89B262F30709425C72
:104F7000491C89B262F30F29425C491C62F3070B9A
:104F800089B241F23332405C009960F30F2B08B2D2
:104F900040F6CD418842B8BF40F6CD4003DB8242A7
:104FA000B8BF41F23330019018B28842B8BF40F622
:104FB000CD4003DB8242B8BF41F2333002900FFA9A
:104FC0008CF08842B8BF40F6CD4003DB8242B8BFC8
:104FD00041F2333003900FFA8EF010F5FA7FB8BF2C
:104FE0009FED290B09DBB0F5FA7FC8BF9FED280BB9
:104FF00003DCFEF706FA41EC100B51EC100BFEF748
:105000002AFA1E490094BDF800200A80A9B201F1D5
:1050100000611B4A098811801F4A019911801F4AAB
:10502000029911801E4A039911801E4908801E486A
:10503000224907801D48A0F800801D48A0F8009074
:105040001C48A0F800A01C48A0F800B00A8860091D
:1050500060F300020A80012020EA141161F3C716F0
:10506000A108054861F38616610861F34D36068094
:1050700005B0BDE8F08F0000EA000020F00000203D
:1050800038010020000000000000000000407FC048
:105090000000000000407F401601002018010020A1
:1050A0001A0100201C0100201E0100202001002008
:1050B000220100202401002026010020EE00002013
:1050C0002DE9F04FA74A89B04FF0020AB2F80080EC
:1050D000A54A1788A54A1688A54A92F80090A54ABD
:1050E000CDF82090B2F80090A34ACDF81490B2F811
:1050F0000090A24ACDF810901588A14AB2F800900D
:10510000A04ACDF80C90B2F800909F4ACDF80890D4
:10511000B2F800909D4ACDF80490B2F800909C4AF5
:10512000CDF80090DFF8789214889A4A99F80090A8
:10513000B2F800C0984A1388984A1288CDF81C909B
:10514000DFF8609299F80090CDF81890DFF8589247
:1051500099F800E0B1F8009009F1010BA1F800B056
:1051600000F809A0B1F8009009F1010BA1F800B016
:1051700000F809A0B1F800904FF0610B09F1010AA5
:10518000A1F800A000F809B0B1F800A0DDF81C906B
:105190000AF1010BA1F800B000F80A90B1F800A0E4
:1051A000DDF818900AF1010BA1F800B000F80A90A0
:1051B000B1F8009009F1010AA1F800A000F809E097
:1051C000B1F8009009F1010AA1F800A000F80980E7
:1051D0004FEA1829B1F8008008F1010AA1F800A0EF
:1051E00000F80890B1F8008008F10109A1F80090DA
:1051F00000F808704FEA17290F8807F10108A1F895
:10520000008000F807900F8807F10108A1F80080DE
:10521000C6554FEA16280E88771C0F8000F80680C6
:105220000E88DDF82090771C0F8000F806900E881D
:10523000DDF81490771C0F8000F806900E88DDF8DA
:105240001490771C4FEA19280F8000F806800E880A
:10525000DDF81090771C0F8000F806900E88DDF8BE
:105260001090771C4FEA19280F8000F806800E88EE
:10527000771C0F8085552F0A0D886E1C0E804755B0
:105280000D88DDF80C906E1C0E8000F805900D88DE
:10529000DDF80C906E1C4FEA19270E8047550D88DB
:1052A000DDF808906E1C0E8000F805900D88DDF882
:1052B00008906E1C4FEA19270E8047550D88DDF8BF
:1052C00004906E1C0E8000F805900D88DDF80490A7
:1052D0006E1C4FEA19270E8047550D88DDF80090A7
:1052E0006E1C0E8000F805900D88DDF800906E1C95
:1052F0004FEA19270E8047550D886E1C0E804455C5
:10530000260A0C88651C0D8006550C88651C0D80CE
:1053100000F804C04FEA1C25B1F800C00CF10104EC
:105320000C8000F80C50B1F800C00CF101040C80A6
:1053300000F80C301C0A0B8803F1010CA1F800C026
:10534000C4540B8803F1010CA1F800C0C2544FEA09
:10535000122C0A88531C0B8000F802C009B0BDE86B
:10536000F08F0000EA000020EC000020EE0000209A
:10537000E8000020380100203A0100203C01002014
:10538000060100200A0100200C0100203401002049
:1053900036010020080100202A0100202C010020F5
:1053A0003E0100203F0100204001002002494CF650
:1053B000CC4008607047000000300040034A0146BE
:1053C0000020D2680A4218BF012070470030004018
:1053D00002494AF6AA2008607047000000300040E9
:1053E0000149486070470000003000400149886072
:1053F000704700000030004001490860704700001D
:105400000030004070B460486049D0F840C0CA6DB8
:105410000CEB0203CB650A8B521C94B200220C8366
:10542000B4F5805F05D31B13836459480380CA65B4
:105430000A83594B57481B8803805848B3F5C87FE7
:105440004AD9AE256C42B3F5F57F06D8544B0560BA
:10545000C0E90243534B036142E0B3F5FF7F05D837
:10546000514B0560C0E90243504B08E040F2122660
:10547000B34206D84E4B0560C0E902434D4B036171
:105480002EE0AF2540F226266C42B34205D84A4BA7
:105490000560C0E90243494BF1E740F23A26B342C6
:1054A00005D8474B0560C0E90243464BE7E7B02506
:1054B00040F24E266C42B34205D8434B0560C0E92A
:1054C0000243424BDBE7B3F5207F05D8404B056034
:1054D000C0E902433F4BD2E702608260C2600261D2
:1054E0001CF1320FB8BF6FF0310C04DBBCF1320F8E
:1054F000C8BF4FF0320CC1F84CC0CB6CD1F858C0CB
:1055000003FB0CF31B12CB640368D1F84CC04C6D49
:1055100003FB0CF3D0F808C00CFB0433D0F80CC02C
:105520004C6C00698CFB044C8D6C80FB055064193D
:105530004CEB00004FEA947C4CEA80001818086499
:10554000086D4865C86C0865486C8864086C4864D8
:105550000E48007810F0020F1EBF8A8270BC7047A0
:10556000086C6FF03102B2EBE03FC8BF6FF0310062
:1055700007DC086C3222B2EBE03FB2BF3220086C8D
:10558000C013888270BC7047E8030020AC01002083
:105590003A010020C20100201E010020500400201A
:1055A00000816A7E4082ADC080FA507E0002AEC0AB
:1055B000808C377E807BAEC000F81C7E80F4AEC04D
:1055C0008041FE7D407AAFC000B3DF7D40F9AFC0BF
:1055D00000E0BF7D4078B0C0294808B5016841F0BF
:1055E00003010160016841F00C01016025480022BF
:1055F00084460221ACF8282001702348016841F458
:105600008041016021490CF11A000988018020497C
:10561000801C098801801F4940F634400301486618
:105620000866C1E907034B628B62C1E90B324A632A
:105630008A639623CA634B64CA65ACF81E20C821EE
:10564000ACF820104FF4E171ACF8241040F6B241F0
:10565000ACF82610BCF81E10BCF82020BCF9243091
:10566000BCF926C0CDF800C0FDF7F9FF0A4841F2A9
:105670007071006848430949000B086008BD0000CC
:1056800098770140AC010020887401401601002089
:1056900018010020E803002068000020089800405E
:1056A0000F490E48098801800E4908300988018099
:1056B0000D49801C098801800C48007810F0800F8B
:1056C0000B480CBF4FF4FA5142F6E061C1860CBFA3
:1056D00042F234114FF47A5181867047BE010020A6
:1056E000FC0000201601002018010020EA00002024
:1056F000AC010020054900200884064904480988B7
:1057000001800549801C09880180704764040020DD
:105710003002002016010020180100202DE9F001C0
:10572000404A3F484149B2F800C03F4AA0F80EC085
:105730001388C3820988C183046803FB01F204EB68
:1057400092220260846804EB0C068660D0F810C0D8
:105750000CEB0305056183695F188761018C491CA7
:1057600089B2018420293CBFBDE8F0017047DFF811
:10577000C0C0304B0CF1020441F262081B88ACF847
:105780000030DFF8B4C0BCF800C0A4F800C0B2FB21
:10579000F1F404FB08F44FF48038B8EB143F98BFE1
:1057A0004FF6FF7205D9B2FBF1F241F26204624397
:1057B000120B94B2DFF88480848000220260A8F883
:1057C00000405C43240BDFF8788004FB0CF4240BCE
:1057D000A8F80040B6FBF1F4A4B21A4E84818260AE
:1057E0003480194E5C43240B3480B5FBF1F4A4B231
:1057F000164D84820261B7FBF1F12C806343144C97
:105800001B0B89B22380134B818382611980124B59
:1058100001FB0CF1090B19800284BDE8F00170470F
:1058200064040020F4000020F6000020F8000020AE
:105830003002002016010020180100200C01002079
:105840000401002006010020FE00002008010020C5
:10585000000100200A01002002010020024900206E
:1058600008800249088070475A0200203A0100204F
:105870002DE9F00FCF49CE48D54C09880180CE499B
:10588000801C4FF000020F88CC490780801C0988DB
:105890000180CB49801C0D88CA490580801C09887D
:1058A0000180C949801C0E880680C8482388B0F84A
:1058B0000080C84818F0020F00F1260100F037817F
:1058C000DFF814C39CF800C01CF0100F10D090F843
:1058D00001C0BCF1010F9CBF0CF1010C80F801C0AC
:1058E00006D9B1F800C04CF0030CA1F800C042701A
:1058F000DFF8E0C241F23E79B9459CF800C010D211
:10590000BCF1050F21BFB1F800C04CF0020C4CF007
:10591000010CA1F800C03CBF0CF1010C80F800C0E4
:1059200020E0DFF8B09241F20C7ABA4599F8009085
:10593000A9F1010909F0FF0938D2BCF1000F18BF25
:1059400080F80090B0F802C0BCF1640F87BFB1F8D6
:1059500000C04CF0020C0CF1010CA0F802C001D9FF
:10596000A1F800C041F268094F4502D218F0040FB7
:1059700027D08280B1F800C02CF0080CA1F800C03C
:1059800018F0800F30D042F28C3CA0F810C042F6E4
:10599000EC4CA0F812C043F2BC4CA0F814C043F683
:1059A0008C4CA0F818C041F6D67C2FE0BCF1000F5B
:1059B00018BF80F800904280B1F800C02CF0020CB3
:1059C000CEE7B0F804C040F2DC5AD4459CBF0CF1DD
:1059D000010CA0F804C0D3D9B1F800C04CF00C0CF5
:1059E000A1F800C08280CBE741F2B11CA0F810C042
:1059F0004FF4AF5CA0F812C041F6641CA0F814C0CC
:105A00004FF4FA5CA0F818C040F6EF7CA0F816C07E
:105A1000DFF8C0C1B0F810B0BCF806A0BCF8088030
:105A2000BCF80AC0AB4504D3B94584BF078BBD425F
:105A30002DD90AF10107BFB2C780B7F5FA7F04D9A3
:105A4000C2800F8847F030070F80478AAF423CBFC3
:105A500008F1010707810789322F04D902810F88D5
:105A600047F030070F80878AAF423CBF0CF1010C32
:105A7000A0F80AC0B0F80AC0BCF1070F2ED94281C5
:105A8000B1F800C04CF0300CA1F800C026E0C78A85
:105A9000BD423CD9BAF1000F1CBFAAF10105C58077
:105AA000B8F1000F1CBFA8F101050581BCF1000F82
:105AB0001CBFACF1010CA0F80AC0B0F80CC0BCF1DE
:105AC0000A0F87BFB1F800C04CF0200C0CF1010C9C
:105AD000A0F80CC002D900BFA1F800C013F4807F69
:105AE00005D0B1F800C04CF0300CA1F800C0DFF8D0
:105AF000E4C04BF68035AE42BCF80EC010D94CF273
:105B00005035AC4598BF0CF10102C28118E0C2804B
:105B1000028142818281B1F800C02CF0200CDBE7C9
:105B2000BCF1000F18BFACF10102EED108E04270E9
:105B300002708280C2800281428142808281C28161
:105B40002648008810F0020F03D00A8822F00102D4
:105B50000A8010F0040F03D00A8822F004020A80A1
:105B600010F0080F03D00A8822F010020A8010F00B
:105B7000100F03D0088820F040000880087860F3F8
:105B80000003410861F34103810861F38203C10806
:105B900061F3C303010961F30413410961F3451380
:105BA000800960F349232380BDE8F00F70470000AF
:105BB0004E020020F4000020F6000020F800002033
:105BC000FA0000200201002004010020EA00002069
:105BD000EC00002034020020F2000020EE00002043
:105BE000FEF730FA00F06EF800F0D6FCF8E710B5DA
:105BF000FEF728FA00F066F8BDE8104000F0CCBCD3
:105C000010B4C27801784FF00F0C012322B3184A68
:105C1000126801F1E02102F4E062C2F5E062120ACA
:105C2000C2F104042CFA02F290F801C00CFA04FC50
:105C30008478224042EA0C02120181F800240078A4
:105C400000F01F0103FA01F14009800000F1E0209B
:105C5000C0F8001110BC704701F01F0003FA00F0FB
:105C60004909890001F1E021C1F8800110BC7047A9
:105C70000CED00E0034940F0FD7040F080600860EA
:105C8000704700000CED00E00348008810F400505D
:105C900018BF012070470000100400480348008826
:105CA00010F4004018BF01207047000010040048A5
:105CB0000348008810F4007018BF012070470000EE
:105CC0001004004810B501220521022001F082FDD8
:105CD00001220C21104601F07DFD00220E2103203F
:105CE00001F078FD00220821022001F073FD00225E
:105CF0000C21BDE81040022001F06CBD2DE9F041FF
:105D000084B001220521022001F064FD01220C2152
:105D1000104601F05FFD00220E21032001F05AFD24
:105D200000220821022001F055FD00220C21022052
:105D300001F050FD0121480400F078FA0024032509
:105D4000CDE9005423462A4621460120029401F061
:105D500051FCCDE90054012100230322084602949E
:105D600001F048FCCDE90054002303220221012068
:105D7000029401F03FFCCDE90054032200231146B8
:105D80000120029401F036FCCDE9005400230322E7
:105D900004210120029401F02DFCCDE900540023E0
:105DA000032205210120029401F024FCCDE90054D6
:105DB0000023032206210120029401F01BFCCDE9FF
:105DC00000540023032207210120029401F012FC59
:105DD000CDE900540D26002302220821012002965D
:105DE00001F008FCCDE90054002302220921012022
:105DF000029601F0FFFBCDE90054002302220A21A4
:105E00000120029601F0F6FBCDE9005400230222A6
:105E10000B210120029601F0EDFBCDE90054012297
:105E200000230C211046029401F0E4FBCDE900545C
:105E30000427002302220F210120029701F0DAFB40
:105E40000121880400F0F2F9CDE900540023032277
:105E500019460220029401F0CDFBCDE90054002345
:105E6000032201210220029401F0C4FBCDE9005479
:105E70000221002303220846029401F0BBFB4FF0ED
:105E80000108CDE90058072602220023032110460D
:105E9000029601F0AFFBCDE9005802220023042155
:105EA0001046029601F0A6FBCDE900540023012222
:105EB00005210220029401F09DFBCDE9005400234E
:105EC0001A4606210220029401F094FBCDE9005409
:105ED00000231A4607210220029401F08BFBCDE932
:105EE00000540023012208210220029401F082FBC9
:105EF000CDE9005400231A4609210220029401F042
:105F000079FBCDE9005400231A460A2102200294AD
:105F100001F070FBCDE90054002303220B21022085
:105F2000029401F067FBCDE90054002301220C210B
:105F30000220029401F05EFBCDE9005400231A46D2
:105F40000D210220029401F055FBCDE900540023FD
:105F500001220E210220029401F04CFBCDE90054F5
:105F600000231A460F210220029401F043FB012175
:105F7000C80400F05BF90226CDE9006400231A464C
:105F800019460320029401F035FBCDE9006400239B
:105F90001A4601210320029401F02CFBCDE9006494
:105FA00000231A4602210320029401F023FBCDE9CD
:105FB0000064002303211A460846029401F01AFBEC
:105FC000CDE9006400231A4604210320029401F065
:105FD00011FBCDE9006400231A4605210320029439
:105FE00001F008FBCDE9006400231A4606210320D6
:105FF000029401F0FFFACDE9006400231A4607215C
:106000000320029401F0F6FACDE9006400231A4659
:1060100008210320029401F0EDFACDE90064002389
:106020001A4609210320029401F0E4FACDE9006444
:1060300000231A460A210320029401F0DBFACDE97D
:10604000006400231A460B210320029401F0D2FAC7
:10605000CDE9006400231A460C210320029401F0CC
:10606000C9FACDE90054002302220D210320029732
:1060700001F0C0FACDE90054002301220E210320D3
:10608000029401F0B7FACDE9006400231A460F210B
:106090000320029401F0AEFA0121080500F0C6F8D1
:1060A000CDE9006400231A4619460420029401F049
:1060B000A1FACDE9006400231A46012104200294CC
:1060C00001F098FACDE9006400231A460221042069
:1060D000029401F08FFACDE9006400231A460321EF
:1060E0000420029401F086FACDE900640023042123
:1060F0001A460846029401F07DFACDE900640023B7
:106100001A4605210420029401F074FACDE90064D6
:1061100000231A4606210420029401F06BFACDE90F
:10612000006400231A4607210420029401F062FA59
:10613000CDE9006400231A4608210420029401F0EE
:1061400059FACDE9006400231A460921042002947B
:1061500001F050FACDE9006400231A460A21042018
:10616000029401F047FACDE9006400231A460B219E
:106170000420029401F03EFACDE9006400231A469F
:106180000C210420029401F035FACDE900640023CB
:106190001A460D210420029401F02CFACDE9006486
:1061A00000231A460E210420029401F023FACDE9BF
:1061B000006400231A460F210420029401F01AFA09
:1061C00004B0BDE8F08102460C21012001F002BBC1
:1061D00002460C21022001F0FDBA02460E210320E6
:1061E00001F0F8BA02460821022001F0F3BA024693
:1061F0000521022001F0EEBA10B5FDF723FFFFF7ED
:1062000061FDBDE8104000F0C7B900000649020F6B
:10621000CA6A14BF22F4785222F4F872CA62CA6AB7
:106220001043C8627047000000100240044A002971
:10623000516914BF084321EA000050617047000013
:1062400000100240044A0029D16914BF084321EA22
:106250000000D0617047000000100240044A00298D
:10626000916914BF084321EA000090617047000063
:10627000001002402DE9F00FBC4D00216A68BC4EB1
:1062800012F00C0306D07200042B08BF026019D074
:10629000082B01D0066015E069686B6801F4701185
:1062A0004FF0020C13F4803F0CEB914104BFB14A54
:1062B000514306D0EB6A03F00F035B1CB2FBF3F211
:1062C000514301606A680F23AB4C03EA121214F8C1
:1062D00002C0026822FA0CF8C0F804806B684FF024
:1062E000070909EA1323E35C28FA03F787606B6860
:1062F00009EAD323E35C28FA03F4C460D5F82C80C0
:106300004FF01F0A0AEA1818DFF8709208F00F0B16
:1063100039F81BB018F0100F17BFBBF1000F026166
:10632000B1FBFBF8C0F81080D5F82C800AEA582899
:1063300008F00F0A39F81A9018F0100F17BFB9F1CA
:10634000000F4261B1FBF9F8C0F81480D5F8308035
:1063500018F0100F0CBF86618261D5F8308018F0FC
:10636000200F0CBFC661C261D5F8308018F0400F15
:106370000CBF06620262D5F8308018F4807F07D027
:106380008A4202BF63454FEA4108C0F8248000D02A
:106390004462D5F8308018F4805F07D08A4202BF8B
:1063A00063454FEA4108C0F8288000D08462D5F8E0
:1063B000308018F4007F07D08A4202BF63454FEA5D
:1063C0004108C0F82C8000D0C462D5F8308018F4A1
:1063D000806F07D08A4202BF63454FEA4108C0F888
:1063E0004C8000D0C464D5F8308018F4006F07D01A
:1063F0008A4202BF63454FEA4108C0F8508000D08E
:106400000465D5F8308018F4005F07D08A4202BFD7
:1064100063454FEA4108C0F8548000D00465D5F8C0
:10642000308018F4004F05D08A4202BF634549000E
:10643000816500D08465296B11F0030F4FF4004192
:1064400008BF876314D02B6B03F00303012B08BF35
:1064500082630DD02B6B03F00303022B08BF816313
:1064600006D02B6B4FF0030C3CEA030308BF866396
:106470002B6B13F4403F08BFC76316D02B6B03F49C
:106480004033B3F5803F08BFC2630ED02B6B03F4DB
:106490004033B3F5003F08BFC16306D02B6B4FF408
:1064A000403C3CEA030308BFC6632B6B13F4402F48
:1064B00008BF076416D02B6B03F44023B3F5802F7D
:1064C00008BF02640ED02B6B03F44023B3F5002FFA
:1064D00008BF016406D02B6B4FF4402C3CEA030349
:1064E00008BF06642B6B13F4401F08BF476416D027
:1064F0002B6B03F44013B3F5801F08BF42640ED02A
:106500002B6B03F44013B3F5001F08BF416406D0A2
:106510002B6B4FF4401C3CEA030308BF46642B6B13
:1065200013F4400F02BF8764BDE8F00F70472B6B78
:1065300003F44003B3F5800F02BF8264BDE8F00F9F
:1065400070472A6B02F44002B2F5000F02BF81646B
:10655000BDE8F00F7047296B4FF4400232EA0101A9
:1065600008BF8664BDE8F00F7047000000100240CD
:1065700000127A0000093D001800002028000020C9
:1065800004490A6B22F480520A630A6B10430863C1
:1065900070470000001002400549002008700931D2
:1065A000088008390880891C0880891C0880704789
:1065B000E90000201A48002140F27A320180801C54
:1065C0004FF4FA730180801C0180801F0170083035
:1065D0000180801C018009380170401E8181C181C9
:1065E00001824182C182018341838183C18301840D
:1065F00041848184C28402854285828540F6FF728F
:106600008282C386A0F84010C285028642868186B7
:1066100042F6F502028742878187C18770470000F2
:10662000EA00002010B5FDF7C8FAFDF7E7FCFFF718
:1066300065FBFDF737FC00F09BF9FDF721FDFDF749
:10664000B1F9FDF727FBFDF7C3FA00F099FE00F062
:106650006BFFFFF7AFFFFEF769FA00F0D5FDFDF71E
:10666000EBFAFEF7B9FFFDF705F8FEF7F0FBFFF7D1
:10667000F5F800F067FC00F0CFF8FFF73BF80121D8
:1066800000220846FDF74CF901220321022000F008
:106690009BFE00220421112000F06AFAC82111207B
:1066A00000F0D4FA4EF660210F2000F087FAFDF7D3
:1066B0006DFFFEF72FFAFEF759FB022000F062FF94
:1066C000BDE8104000F04ABF054910B54FF48040C6
:1066D000088000F04FFFBDE8104000F001BD000051
:1066E0002804004810B5FDF7ADFCFFF7EBFABDE854
:1066F0001040FFF751BF8A0721F0030101F18041EB
:1067000001F58031120F0F23D1F808C093402CEA15
:1067100003038B608B689040184388607047704714
:10672000374882B0016841F4700101603548016862
:1067300041F0010101604168334A11404160016844
:1067400021F4102121F080710160016821F4802181
:106750000160416821F4FE014160C16A21F00F012E
:10676000C162016B294A11400163002282600192DB
:106770000092016841F480310160016801F4003148
:1067800000910199491C0191009919B90199B1F53C
:10679000A04FF2D1016811F4003F08BF009229D048
:1067A00001211B4A0091122111604168416041683A
:1067B0004160416841F480614160416821F47C118D
:1067C0004160416841F4F8114160016841F0807115
:1067D0000160016811F0007FFBD0416821F00301E6
:1067E0004160416841F002014160416801F00C01E3
:1067F0000829FAD107494FF08050086002B070476D
:1068000088ED00E0001002400CC07FF8CCFC00FFD7
:106810000020024008ED00E00548002140F27A32F5
:106820000180416042800181C16042817047000067
:106830008804002070470000154930B413480988C7
:106840000180426853181349436009880181C26876
:106850005418114AC4601178491CC9B2117020291A
:106860003CBF30BC7047B3FBF1FCB4FBF1F10B4D06
:10687000A0F802C000234360A5F800C04181C360B6
:1068800007480180137030BC704700008804002066
:1068900030010020320100205C0200200E010020A7
:1068A00010010020304910B54FF4804008601120DD
:1068B00000F046F9FEF7A6FDFCF7D6FEFEF76EF9EE
:1068C000FEF766FA00F04EFBFEF7D2FFFCF7E6FE9D
:1068D000FEF7E6FEFEF722FF00F0CCFCFEF780FAA2
:1068E00022480178491CCAB200210270062A39D216
:1068F000DFE802F03803070B0F13BDE8104000F08B
:1069000053BCBDE81040FFF797BFBDE8104000F052
:10691000FFBBBDE8104000F091BC01704278521CF2
:10692000D2B242700B2A1BD2DFE802F01A191919F1
:10693000191919191919060041708278521CD2B21E
:1069400082700A2A0AD2DFE802F0090A0A050A0A56
:106950000A0A0A0ABDE81040FFF76CBF817010BD3B
:10696000417010BD017010BD1804004841010020A5
:10697000F0B565482DED068B89B04068634D10F485
:106980008030686014BF624862480121A860C80274
:10699000FFF764FC0024604F40F6FF76ADF81C4022
:1069A000ADF816400696ADF81440ADF81E4005A9A6
:1069B000384600F0FDF9702000900120ADF8040089
:1069C0000420ADF806000220ADF80C00C001ADF8BF
:1069D00010000294ADF80E40ADF8124069463846FA
:1069E00000F093F90821384600F0D3F90121384628
:1069F00000F06EF90121384600F073F9A8680746E7
:106A0000FCF710FD9FED468B53EC182BFCF787FC31
:106A10009FED459B53EC192BFCF781FC9FED44AB9C
:106A200053EC1A2BFCF7D4FBFCF734FD6F62012109
:106A3000E8600804FFF712FC3F4FADF80840ADF8DE
:106A400002400196ADF80040ADF80A40694638466C
:106A500000F0AEF900220121384600F04DF9202166
:106A6000384600F09CF90121384600F031F9A86859
:106A70000746FCF7D7FC53EC182BFCF750FC53EC03
:106A8000192BFCF74CFC53EC1A2BFCF7A1FBFCF781
:106A900001FD2F630121A8618804FFF7DFFBADF83A
:106AA0000840ADF80240ADF80040ADF80A40234C74
:106AB00001966946204600F07BF9012211462046E6
:106AC00000F01AF90121204600F014F901212046B6
:106AD00000F0FEF8A8680446FCF7A4FC53EC182B61
:106AE000FCF71DFC53EC192BFCF719FC53EC1A2B8B
:106AF000FCF76EFBFCF7CEFCAC63286209B0BDEC82
:106B0000068BF0BD00000000001002404401002090
:106B100000A24A040090D003002C014000000000B5
:106B20008DEDB5A0F7C6B03E000000000000B040FB
:106B3000000000000000E03F00400140004801402C
:106B40004FF6FE710F2802BF0648016170471028FA
:106B500008BF054803D011280CBF044870470160E6
:106B600070470000004001401044014010480140BF
:106B7000F8B5114C15460E460F2808BF182008D04E
:106B8000102808BF192004D0112804BF1A20207033
:106B900000E020704FF48060FFF76CF820788DF8EB
:106BA00000008DF801608DF8025001208DF803007F
:106BB0006846FFF725F8F8BD440100201D4A01286A
:106BC00011D0022816D003281CD00F2821D010285D
:106BD00027D0112818BF7047906BB0FBF1F0401E12
:106BE00080B2154923E0506AB0FBF1F0401E80B23C
:106BF00012491CE0906AB0FBF1F0401E80B24FF0E9
:106C000080410CE0D06AB0FBF1F0401E80B20C492C
:106C10000DE0106BB0FBF1F0401E0A4980B2C86273
:106C20007047506BB0FBF1F0401E074980B208601E
:106C300070470000440100202C4801402C2C0140EA
:106C40002C040040004001402C4401401A4A012815
:106C500010D0022814D0032819D00F281DD01028D6
:106C600022D0112818BF7047106A4843C0F30F3074
:106C700012491EE0D0684843C0F30F30104918E0B5
:106C800010694843C0F30F304FF080410AE050696B
:106C90004843C0F30F300B490BE0906948430A4961
:106CA000C0F30F30C8627047D06948430749C0F34A
:106CB0000F30086070470000440100202C4801405C
:106CC0002C2C01402C040040004001402C44014089
:106CD0000029018814BF41F0010121F00101018068
:106CE00070470029416C14BF41F40041C1F30E010B
:106CF0004164704741617047002AC26811BF114367
:106D0000C94389B21140C160704710B4026A22F0D1
:106D100001020262026A4368D0F818C00C682CF0C5
:106D2000730C2CF4803C44EA0C0C8C8922F0020297
:106D300022438C882243A0F18044B4F596341CBFD2
:106D4000A0F18044B4F59A340DD0A0F18044B4F59C
:106D5000A0341FBFA0F18044B4F5A234A0F1804458
:106D6000B4F5A4340DD1CC8922F008022243CC889A
:106D700022F0040222430C8A23F4407323434C8AFA
:106D800023434360C0F818C089684163026210BCA5
:106D90007047826922F0080211438161704742689E
:106DA0004FF68F731A40426042681143416070474A
:106DB00030B40288244BDFF894C0254C984218BFA9
:106DC00060450ED0B0F1804F1CBFA0F18045B5F5F5
:106DD000806506D0A0F18045B5F5006518BFA042DA
:106DE00003D14D8822F070022A43A0F18045B5F509
:106DF00080551CBFA0F18045B5F5A05503D00D8985
:106E000022F440722A4302804A68C2620A880285DC
:106E1000984218BF604510D0A0F18042B2F5A03270
:106E20001CBFA0F18042B2F5A23206D0A0F1804290
:106E3000B2F5A43218BFA04201D1498901860121CF
:106E4000416130BC70470000002C0140003401401B
:106E50000050014010B4384838494FF00002038810
:106E600091F800C013F0400FA1F1010004D1344C9F
:106E7000247814F0010F35D0C280B0F908407D2C81
:106E8000CEBF4CF0020C04F1010CA0F808C001DDEB
:106E900081F800C013F0200F31D08281B0F90AC010
:106EA000BCF1050FD9BF0CF1010CA0F80AC091F894
:106EB00000C04CF0040C01DD81F800C013F0080F95
:106EC0002DD00282B0F90E20B2F5FA7FD9BF511C45
:106ED000C181087840F00800DCBF10BC7047087022
:106EE00010BC70470281B0F90640052CCEBF2CF0D3
:106EF000020C04F1010CA0F806C0CBDDC8E742810A
:106F0000B0F90CC0BCF17D0FC7BF91F800C02CF0E8
:106F1000040C0CF1010CA0F80CC0CFDDCCE7C28151
:106F2000B0F910200F2AC7BF087820F00800511CC4
:106F30000182D4DC10BC7047F20000205F02002008
:106F4000EA000020054900200870491C0870044828
:106F5000018821F001010180704700005E020020DD
:106F6000F2000020F0B5FFF775FF584A0025584998
:106F70001378DFF860C1501C9BB1574C012B25D012
:106F8000022B62D0032B18BF15707DD00078BCF89F
:106F9000001060F34101400960F30821ACF80010D3
:106FA000F0BD0B8823F0030323F480730B8001787A
:106FB00021F0210101705188B1F5FA7F83BF0121D1
:106FC00011705580491C98BF5180DFE7434B1E88E4
:106FD00016F0010F04BF9CF8007017F0400F07D0A7
:106FE0000F8846F01E0647F004070F801E8095802C
:106FF000968835B2002D09DA257815F0140F05D0E2
:107000001D8845F00C051D80751C9580057815F0D0
:10701000020FBBD115F0080FB8D0248814F0100F60
:1070200008BF14F4007FB1D114F0040F08BF14F0AE
:10703000010FABD1022414700A8822F004020A80E6
:10704000198821F01E011980A0E7037813F0020FC0
:107050000FD113F0080F0CD0248814F0100F08BFC4
:1070600014F0040F05D114F4007F08BF14F0010FD1
:107070000DD00C8824F0030424F480740C8023F0D9
:1070800021010170032100E013E011707EE70A88FE
:1070900042F0030242F480720A8043F02001017042
:1070A000BCF8002012F4007F1CBF41F00101017008
:1070B0006CE70B8823F0030323F480730B800178C3
:1070C00021F001010170157060E700005E020020F0
:1070D000F2000020EA000020EC000020EE0000207A
:1070E0000948008810F4804F08BF704707480078AF
:1070F00010F0010F18BF704710B5FCF781FFBDE815
:10710000104000F023BA0000EA0000205F020020D7
:107110002348002390F80EC01CF0080F08BF7047EA
:1071200030B4204CA4F1900122462578497B527856
:10713000AA2D18BF41F040010DD0417302214181B9
:107140002CF008018173002B04BF30BC704711F094
:10715000100F17D01BE0057B95421CBF2F2A41F072
:107160000401EAD1A4780589641DA54218BF41F045
:107170000801E2D14489002C14BF41F0020101232F
:10718000DBD1DBE70023437341F0100181732F2A29
:107190000CBF01210021032230BC0248FDF758BE7C
:1071A000D80200206803002070B5154CA07B10F0B9
:1071B000200F08BF70BD10F0040F18BF70BD20F085
:1071C0002200104DA073AA212970217B6970002034
:1071D000A870607BE8700420E0800226A11D28468C
:1071E000FDF76EFFE0882E54401C80B22E54401CE8
:1071F000E080401FA870A07B40F00400A07370BD29
:10720000D8020020E80200200A490020022208805B
:107210004880C88008814A814873074A88730120E2
:10722000107088804FF4AF70401EFDD1202008738D
:1072300070470000D8020020820100200C48817BAA
:1072400011F0010F08BF70478288002A1EBF511E2F
:107250008180704721F00101427B41F00A0142F038
:10726000100242734288028100224280817370477B
:10727000D802002070B51A4CA27B12F0040F08BF90
:1072800070BD1848006810F0400F08BF70BD20881E
:10729000E188154E81421BD98B1E321D134D984239
:1072A00004BF7188118005D0491E884204BF11882F
:1072B000090A01D1295404E0295C7088FCF7B2FC6A
:1072C00070802088295C401C20800948018070BDA6
:1072D0000220708022F00400A0730020208070BD86
:1072E000D80200201C44004082010020E802002057
:1072F0002844004070B51E4800881E4CC1B2A07BD7
:1073000020F00100A07310F0080F04D0607B40F063
:107310004000607370BD6088174D2954401C608028
:107320006089FCF77FFC60816088022809D0802892
:1073300013D2A07B40F00100A07310480078A08019
:1073400070BD2878AA28F4D1207B69788842F0D1D2
:10735000A07B40F02000A073EBE7A17B2081002000
:1073600021F00101608041F00A00A07370BD0000AF
:1073700024440040D802002068030020820100203D
:1073800010B5012186B04804FEF75CFF4FF41640AB
:107390000090002001900290039005900C20084C72
:1073A00004906946204600F053F80121204600F081
:1073B00031F801220349204600F035F806B010BD2F
:1073C0000044004005010500F8B5114C15460E4675
:1073D000012808BF252008D0022808BF262004D095
:1073E000032804BF2720207000E020704FF4806045
:1073F000FEF740FC20788DF800008DF801608DF8D4
:10740000025001208DF803006846FEF7F9FBF8BD35
:10741000800100200029016814BF41F0010121F022
:10742000010101607047C1F307234FF0010C0CFA12
:1074300001F1022B08BF001D02D0032B08BF08304A
:10744000002A026814BF114322EA0101016070475B
:1074500030B50446006897B00D4620F0010020606A
:107460006068896820F44050084360602068EA68DA
:10747000696820F4037011432A6920F4A050104376
:1074800008432060A068696920F440700843A06048
:107490006846FEF7EFFEA4F18040B0F59C3008BFCF
:1074A0000E9914D0A4F18040B0F5884008BF0F9920
:1074B0000DD0A4F18040B0F5904008BF109906D0DF
:1074C000A4F18040B0F598400CBF11991299206842
:1074D00010F4004F08D04A002968B2FBF1F0B2FB6B
:1074E000F1F301FB132106E02A68B1FBF2F0B1FBD6
:1074F000F2F302FB13112A68B1EB520F216840F13D
:10750000000011F4004F05D0C0F342014FF6F072B5
:1075100010400843A08117B030BDFCF793FDFEF783
:10752000D1FBFFF739F8F8E710B545F25550FDF7F4
:1075300063FF0020FDF754FF0120FDF73FFF002807
:10754000FAD0BDE810400020FDF756BF02490148BF
:10755000086070470400FA050CED00E010B545F234
:107560005550FDF749FFFDF721FFBDE81040002011
:10757000FDF742BF02494AF6AA20086070470000A2
:107580000030004000EE100ADFED0F0A10B5B8EE33
:10759000400A20EE200ABCEEC00A10EE100A84B2A7
:1075A00045F25550FDF728FF2046FDF71FFF02204A
:1075B000FDF704FF0028FAD0FDF70AFFBDE81040F0
:1075C0000020FDF719BF00000000244102E008C8B8
:1075D000121F08C1002AFAD170477047002001E04D
:1075E00001C1121F002AFBD17047FFF71BF8FFF7FC
:1075F0006BF8FCE72DE9F0034FEA4109DDE9065C91
:10760000012405FA09F704FA01F58B401FFA83F803
:10761000032302FA09F40CFA09FC03FA09F3089EA1
:1076200001280DD002283CD0032866D004281CBFB6
:10763000BDE8F0037047012A18BF022A7ED18AE014
:107640004FF09040012A18BF022A12D1D0F80890BA
:1076500029EA0309C0F80890D0F8089049EA07071A
:107660008760878827EA05058580858845EA0805BB
:10767000858005689D43056005682C430460C468E7
:1076800024EA03034CEA0303C360022A1CBFBDE8DB
:10769000F00370473246BDE8F0034FF09040FCF72E
:1076A000BFBC012A18BF022A14D14148D0F800906B
:1076B00029EA0309C0F80090D0F8009049EA0707CA
:1076C0000760001F078827EA05050580058845EA49
:1076D00008050580374805689D43056005682C430B
:1076E0000460354C256825EA03034CEA0303236054
:1076F000022A58D0BDE8F0037047012A18BF022AB9
:1077000014D12E48D0F8009029EA0309C0F800905F
:10771000D0F8009049EA07070760001F078827EAAA
:1077200005050580058845EA0805058024480568A3
:107730009D43056005682C43046000E020E0214C77
:10774000256825EA03034CEA03032360022A2AD0B2
:10775000BDE8F00370471C48D0F8009029EA0309FF
:10776000C0F80090D0F8009049EA07070760001FB2
:10777000078827EA05050580058845EA080505808C
:10778000124805689D43056005682C430460104C51
:10779000256825EA03034CEA03032360022A1CBF81
:1077A000BDE8F00370473246BDE8F003FCF738BC93
:1077B00008040048000400480C0400480808004879
:1077C000000800480C080048080C0048000C00485D
:1077D0000C0C0048012303FA01F18BB201280DD0F3
:1077E000022812D0032817D0042818BF7047012A96
:1077F00019BF0D4803800D48016070474FF090405D
:10780000012A14BF038581617047012A14BF08480B
:10781000084806D003807047012A14BF064807486D
:10782000F8D1016070470000280C0048180C00488F
:107830002804004818040048280800481808004890
:107840000000C1C081C1400101C3C003800241C228
:1078500001C6C006800741C70005C1C581C44004F8
:1078600001CCC00C800D41CD000FC1CF81CE400EA8
:10787000000AC1CA81CB400B01C9C009800841C8B8
:1078800001D8C018801941D9001BC1DB81DA401A28
:10789000001EC1DE81DF401F01DDC01D801C41DCF8
:1078A0000014C1D481D5401501D7C017801641D628
:1078B00001D2C012801341D30011C1D181D0401038
:1078C00001F0C030803141F10033C1F381F2403228
:1078D0000036C1F681F7403701F5C035803441F4F8
:1078E000003CC1FC81FD403D01FFC03F803E41FEA8
:1078F00001FAC03A803B41FB0039C1F981F84038B8
:107900000028C1E881E9402901EBC02B802A41EA27
:1079100001EEC02E802F41EF002DC1ED81EC402CF7
:1079200001E4C024802541E50027C1E781E6402627
:107930000022C1E281E3402301E1C021802041E037
:1079400001A0C060806141A10063C1A381A2406227
:107950000066C1A681A7406701A5C065806441A4F7
:10796000006CC1AC81AD406D01AFC06F806E41AEA7
:1079700001AAC06A806B41AB0069C1A981A84068B7
:107980000078C1B881B9407901BBC07B807A41BA27
:1079900001BEC07E807F41BF007DC1BD81BC407CF7
:1079A00001B4C074807541B50077C1B781B6407627
:1079B0000072C1B281B3407301B1C071807041B037
:1079C0000050C190819140510193C0538052419227
:1079D0000196C056805741970055C19581944054F7
:1079E000019CC05C805D419D005FC19F819E405EA7
:1079F000005AC19A819B405B0199C05980584198B7
:107A00000188C04880494189004BC18B818A404A26
:107A1000004EC18E818F404F018DC04D804C418CF6
:107A20000044C184818540450187C0478046418626
:107A30000182C042804341830041C1818180404036
:107A4000707A000800000020B0020000083600082C
:107A5000C07A000800000010540B0000CC7500082C
:107A6000C07A0008B0020020E8050000DC750008BC
:107A7000213202320432083210322052012D01022A
:107A80000304041E06070809012812041A06261218
:107A90000A1A0C28122012406A802901FF014002B4
:107AA00039020B23FF0F26021F7F023E03000B1239
:107AB0008C23EC2CBC34D61F8C3C024FFA00000007
:107AC00000000000AD310008EF5B0008414E0008E7
:107AD000E15B0008AD3B00081B75000800000000DA
:107AE000000000000000000000000000E566000843
:107AF0005F3D000800000000F96100081F670008F2
:107B0000C7310008C7310008C7310008C731000875
:107B1000C7310008C7310008C7310008C731000865
:107B2000C7310008C7310008C73100082103001021
:107B3000C7310008C7310008C7310008C731000845
:107B4000C7310008C7310008C7310008C731000835
:107B5000C7310008C7310008C7310008C731000825
:107B6000C7310008C7310008A5680008C731000800
:107B7000C7310008C731000800000000C731000805
:107B8000C73100080000000000000000C7310008F5
:107B900000000000C73100083D030010C731000895
:107BA000C7310008C73100080000000000000000D5
:107BB00000000000000000000000000000000000C5
:107BC00000000000000000000000000000000000B5
:107BD0000000000000000000C7310008C7310008A5
:107BE0000000000000000000000000000000000095
:107BF0000000000000000000000000000000000085
:107C0000C7310008C731000800000000C731000874
:107C1000C7310008C7310008C7310008C731000864
:107C2000C7310008C7310008000000000000000054
:107C30000000000000000000000000000000000044
:107C400000000000C731000847F2F52CC0F6000C18
:107C5000604700002DE9F003494C069DA66870437B
:107C6000C0F30F3C4748A0F800C006FB02F0464AAC
:107C7000C0F30F306428108038BF64201080E268A1
:107C8000454C53434FEA2338404B6A431513404A4F
:107C9000C3F800803F4B15604FEA5C021A604FEA60
:107CA0009C032380B1F5004F28BF47F6FF71514375
:107CB0003A4C090C00B22160081A48BF00201C1A77
:107CC0003748131B3A49046036480360A01887B24E
:107CD00035480760981886B23448066004EB0800FF
:107CE00008606428B8BF642002DB8342B8BF18462E
:107CF0000860591B2F4D81422960B8BF014602DB45
:107D0000914288BF114629608518DFF8AC80ADB27A
:107D10000A44C8F800501FFA82F8284AC2F80080C6
:107D2000274AD2F8009049F00709C2F80090DFF81E
:107D30009490C9F800C0DFF89090C9F800C0DFF84F
:107D40008C90C9F800C0DFF888C0CCF80040DFF89C
:107D500084C0CCF800300CF104031F601B1D1E60B2
:107D60001D4B18601D480160001D0560001DC0F816
:107D70000080106820F007001060BDE8F003704735
:107D8000800000208C0200209C020020A002002025
:107D9000A402002098020020A802002094020020E3
:107DA0007402002080020020840200209002002043
:107DB00070020020780200207C020020880200204F
:107DC000807701409474014014750140147401409F
:107DD0009C740140A47401401C750140247501404D
:107DE000074910B54FF480400860064902204860FA
:107DF00000F00AF8BDE8104000F0B6B8FFF724BF65
:107E0000180400480000024010B44D494D4ADFF804
:107E10003CC1088A12685043C0F30F334A4883813B
:107E20008A89DCF800C002FB0CF2C2F30F32DFF8E3
:107E300020C142810989DCF800C001FB0CF1C1F3CB
:107E40000F314180B0F804C0614449088180B0F826
:107E50000EC001FB0CF1B0F810C00CEB213189B25F
:107E60008446C1809CF800C01CF0010F1FD1B0F9FE
:107E700008C00CFA81F4002CB4BF00210CFA81F187
:107E800009B20029B8BF002105DB43F66B6C8C45B5
:107E9000B8BF43F66B6189B2DFF8B8C0DCF800C048
:107EA0000CFB01F1DFF8B0C0090BCCF800102B4936
:107EB000B1F800C04FF000011CF0020F02D01CF01E
:107EC000080F03D04161816110BC7047D21A643A37
:107ED000C261C26912F57A7FB8BF214A06DBC26966
:107EE000B2F57A7FCCBF4FF47A72C269C261C269BF
:107EF00002EBC20303EB4212436903EBC202D2134B
:107F00008261C269120102628269322A06DD8269D7
:107F1000C2F13202D2030262322282618269002AF5
:107F200004DA82695242D203026281614169026AC3
:107F30001144416180690B49088010BC7047000002
:107F4000B002002060000020880100205C000020BA
:107F5000540000207400002008740040EA00002053
:107F600018FCFFFF280100202DE9F84FFE4AFF49C9
:107F7000108809684843C0F30F31FD484180B0F8CC
:107F80001AC001FB0CF1C1F30F3181809388F94CC9
:107F900024686343C3F30F33C38003FB0CF3C3F3C1
:107FA0000F3404810B1B48BF002304D4B3F5C87FF2
:107FB000C8BF4FF4C8734FF0520C03FB0CFCCCF558
:107FC0000043C0F83CC0002B48BF002306D4CCF5CA
:107FD0000043B3F5004FC8BF4FF40043E448594392
:107FE0000CFB0411C1F3CF34836344811189E24A4D
:107FF00012685143428AC1F30F315143C1F30F312B
:108000008181C2890A445208C281838B5A43C2F3D8
:108010000F36DA4A0682B1F5FA5F8CBF59209620F6
:108020005064D748D24B00781F7810F0020FD34825
:10803000D0F864C04FF000004FEA0C1100F0DB8173
:10804000D04B1B68C3F3803343B9CF4B1D6845F059
:1080500003051D601D6845F00C051D604FF4DD75BE
:10806000C34B754341F24A58A8EBD5355D8545456C
:10807000C8BF41F24A55DFF81483DFF8149317F0B4
:10808000020FB9F80090A8F800904D442DB25D851C
:108090002DD0B3F83680A3F83280DFF8F882C2F82A
:1080A0000080DFF8F482C2E901804FF08078C2E9F5
:1080B000030850619061D3F87080B5EB182F07D892
:1080C000DFF8AC8227F0020788F800701D851FE0FA
:1080D0004FF41D757543E927A7EBD535DD855B2D7D
:1080E000B8BF5B25DD8545441D672D12EEE7AB4F1C
:1080F0001760AB4F5760AB4F9760AB4FD760AB4F3C
:108100001761AB4F5761AB4F97619F8E5F861D859F
:108110005D8EAD1B9D679D6F43F233367543D3F87B
:10812000806006EBE5355D679D6F4FF4A47675437F
:10813000ED13DD675D6F002DC4BFD8675867B3F9D5
:1081400028705E6F7D42B542C4BFD8675D67D3F8C3
:108150008050DE6F3544C3F880505D6F844E2DB281
:108160009D8596F80080002DB4BF48F0040828F0E3
:10817000040886F800807D1948BF00252EB27C4D8A
:10818000331B2E8500961364B5F914501D4415F168
:10819000960FB8BF6FF0950509DB754EB6F9145010
:1081A0005F19556CBD42A4BFB6F914501D44156348
:1081B000D2E90086576B86FB0767C8FB0567D2E9E3
:1081C0000295D2E90EA885FB0858C9FB0A58751913
:1081D00047EB08062D0D45EA06371569566A4FEA42
:1081E000E579A5FB068A09FB06A605FB006955692A
:1081F000966A4FEAE57AA5FB06BE0AFB06E605FB92
:10820000006518EB0B0849EB05099569D66A4FEA3A
:10821000E57AA5FB06BE0AFB06E605FB006518EB42
:108220000B0649EB0505360E46EA05257D19156254
:10823000B5EB0C1F38BF0D4603D35F4EAE4238BFBF
:1082400035464FEA1518C2F81C8015625B4D41F6A1
:10825000F0272D7815F0010F4FEA07150CD0C2E971
:10826000077555629562C2E90B50506390634049AF
:108270001766D063C883B1E0424E3668C6F38039D2
:108280004FF40046B9F1000F13D039490B7843F091
:1082900010030B70C2E9077555629562C2E90B5075
:1082A00050639063D0630846210201671766C68356
:1082B00094E0C44504D22E4C247814F0080F44D026
:1082C000536513F5FA7FB8BF3D4B04DBB3F5FA7F76
:1082D000C8BF4FF4FA7353654FF4C8445C43D56D7F
:1082E0009B0205EB24241B12D4649365B4F5004F64
:1082F00004DDC4F50043D664936504E0002C02DA83
:1083000063429365D0642B44D365D36CB3F5004FBF
:1083100006DB1748017821F008010170D6640FE0F0
:10832000134C257845F008052570C2E907C1516254
:108330009162C2E90B1050639063D0632046C383FF
:108340000B48007810F0080F01D10948C683D069A6
:108350001066009840F27D2110FB01F040F60551B7
:1083600001EB902050662DE0B00200204C00002070
:10837000AC0100205000002054000020E803002041
:10838000EA0000208474014094770140DC01002061
:1083900028010020861D2201BE170FFFB8710705B6
:1083A00048D3B4FBC85EFFFA38FD51040A880D01BA
:1083B00036B7DA00C2C017FF40700300EC0000209F
:1083C0000CFEFFFF884238BF40F6055005D341F64A
:1083D0000A21814238BF41F60A205066906AD06275
:1083E000506A9062106A5062906BD063506B9063D9
:1083F000106B506332E07E4B1D6845F003051D6035
:108400001D6845F00C051D607A4B24027A4E1885D4
:108410001C679885188227F0340537681C4647F496
:108420008047376045F00A052570C2E907C15162EF
:108430009162C2E90B1050639063D0635867C3F830
:108440008000D065C2F860C0D064D883C82018848A
:108450004FF4E170988440F6B240D884106E41F237
:1084600087310A1A4FF44471DFF888C15143091467
:10847000ACF82210BCF9221011F1280FB8BF6FF030
:10848000270106DBBCF922100029CCBF0021BCF972
:108490002210ACF82210BCF82210C831ACF8201021
:1084A00040F60551091A40F2E24251430913CCF853
:1084B0006010DCF8601011F5B97FB8BF4F4906DBDA
:1084C000DCF860100029CCBF0021DCF86010CCF88B
:1084D000601041F2C111091A01EB4102C2EB4111D6
:1084E0000913CCF86410DCF8641011F11E0FB8BF4A
:1084F0006FF01D0106DBDCF864100029CCBF002101
:10850000DCF86410CCF86410DCF86010DCF864204F
:10851000114401F5E171ACF8241041F63F71384A7D
:10852000091A51430913CCF86810DCF868100029C7
:10853000B8BF002108DBDCF86810B1F5FA6FCCBFDA
:108540004FF4FA61DCF86810CCF8681042F6F45188
:108550002C4A091A51430913CCF86C10DCF86C1042
:108560000029B8BF002109DBDCF86C1040F21A4288
:108570008A42B4BF40F21A41DCF86C10CCF86C109F
:10858000DCF86810DCF86C201144C831ACF8261017
:10859000BCF81E10BCF82020BCF92430BCF926C061
:1085A000CDF800C0FFF756FB1248017811F0100F0C
:1085B00008BFBDE8F88F144A126AC2F38072002A1D
:1085C00004BF41F020010170BDE8F88F09480F4A4F
:1085D00000781388410961F3082313800C4A43088B
:1085E0008008118863F3C30160F382011180704732
:1085F00098770140AC010020887401408EFEFFFF97
:1086000081F7FFFFC3F8FFFF00000140EC000020EE
:04861000EA0000205C
:040000050800319925
:00000001FF
